:020000040800F2
:10000000F80A0020C5010008D3300008892800083C
:10001000D1300008750900084D36000800000000C6
:10002000000000000000000000000000D9320008BD
:100030007709000800000000D5300008DB32000816
:10004000DF010008DF010008DF010008DF01000810
:10005000DF010008DF010008DF010008DF01000800
:10006000DF010008DF010008DF010008DF010008F0
:10007000DF010008DF010008DF010008DF010008E0
:10008000DF010008DF010008DF010008DF010008D0
:10009000DF010008DF010008DF010008DF010008C0
:1000A000DF010008DF010008DF010008DF010008B0
:1000B000DF010008DF010008DF010008DF010008A0
:1000C000DF010008DF010008DF01000851310008EE
:1000D000DF010008DF010008DF01000835360008F5
:1000E000DF010008DF010008DF010008DF01000870
:1000F000DF010008DF010008DF010008DF01000860
:10010000DF010008DF010008DF010008DF0100084F
:10011000DF01000879330008DF010008DF01000873
:10012000DF010008DF010008DF010008DF0100082F
:10013000DF010008DF010008DF010008DF0100081F
:10014000DF010008DF010008DF010008DF0100080F
:10015000DF010008DF010008DF0100084136000868
:10016000DF010008DF010008DF010008DF010008EF
:10017000DF010008DF010008DF01000800000000C7
:10018000DF010008DF010008DF01000885330008F7
:10019000DF010008DF010008DF010008DF010008BF
:1001A000DF010008DF010008DF010008DFF810D0E0
:1001B00000F030FB0048004745400008AFF30080E6
:1001C000F80A00200648804706480047FEE7FEE799
:1001D000FEE7FEE7FEE7FEE7FEE7FEE7FEE7FEE7F7
:1001E00069330008AD0100082DE9F05F05460020E5
:1001F00092469B4688460646814640241BE0284698
:1002000041464746224600F01FFA53465A46C01A56
:10021000914110D311461846224600F006FA2D1AD5
:1002200067EB01084F4622460120002100F0FDF94E
:1002300017EB00094E41201EA4F10104DFDC484603
:1002400031462A464346BDE8F09FD2B201E000F8AD
:10025000012B491EFBD270470022F6E710B513466A
:100260000A4604461946FFF7F0FF204610BD2DE967
:10027000FE4F804681EA0300C00F0C46009021F03B
:10028000004123F00045B8EB0200A94105D24046E9
:10029000214690461C460B46024623F00040104380
:1002A00047D0270DC7F30A00C3F30A510290401A42
:1002B000019040286BDAC3F3130040F4801B0098D0
:1002C000924620B10023D2EB030A63EB0B0B01989B
:1002D0005946C0F14002504600F0A7F906460D46C7
:1002E00050465946019A00F0BFF910EB08006141F1
:1002F000002487EA115284EAE7731A4340D0009A37
:1003000062B3019A012A4FEA075215DC001B61EB28
:1003100002014FF0004202EA0752CDE90042001C00
:1003200041F5801132462B4600F0F6F903B0BDE8E6
:10033000F08F40462146F9E7001B61EB0201001CEB
:1003400041F5801300185B412018A2F5001747EB18
:10035000030140EAD570B6196D4111E06D084FEA0E
:10036000360645EAC0754FEA0752001B61EB0201F1
:10037000001C41F5801149084FEA30000019514135
:1003800032462B4603B0BDE8F04F00F0B6B90098F6
:10039000012240000023D0EB020263EBE0730098DF
:1003A00021464FEAE074B8EB000061EB0401E9E795
:1003B00083F000435BE781F0004158E72DE9FE4FF1
:1003C00081EA030404F0004421F0004100944FF05E
:1003D000000B23F0004350EA01045ED052EA03040C
:1003E0005BD0C3F30A54C1F30A552C44A4F2F3348E
:1003F0000194A0FB0254C1F3130141F48011C3F333
:10040000130343F4801301FB024400FB034E840AF0
:10041000970A44EA815447EA8357A4FB0768029588
:100420008D0A05FB07854FEA932C04FB0C54270526
:10043000029D4FEA065847EA1637B5EB08056EEB02
:10044000070C870E920E47EA811742EA8312A7FB38
:100450000201B6EB0B0164EB00042B0D43EA0C33F5
:100460005E1844EB1C50DA465146E7FB0201C5F327
:1004700013044FEA0B3343EA14534FEA0432019C4E
:1004800043EA0603A4F10C040294009CCDE900B4F5
:1004900000F042F903B0BDE8F08F00200146F9E713
:1004A0002DE9F04D81EA030404F0004B21F00045F2
:1004B00014464FF0000A23F0004150EA050220D014
:1004C00054EA01021DD0C5F30A570246C5F31303CF
:1004D000C1F31300C1F30A5640F4801543F48013AE
:1004E000A7EB0608101BD64608F2FD3873EB050093
:1004F00002D308F1010801E092185B41B8F1000F46
:1005000003DA00200146BDE8F08D00204FF4801191
:10051000064684460EE0171B73EB050705D3121B36
:1005200063EB050306434CEA010C49084FEA30002F
:1005300092185B4150EA0107EDD152EA030012D054
:1005400082EA040083EA0501084305D0101BAB4191
:1005500006D20122002306E000224FF0004302E011
:100560006FF0010253101AEB06004CEB085110EB30
:100570000A0041EB0B01BDE8F04D00F0BEB80EB52E
:10058000C10F80EAE0700844CA07002140F23343FB
:100590008DE80E000A460B4600F0BEF803B000BD21
:1005A00000F0004230F000400AD0C10D01F560714A
:1005B000C0F3160042EA0151C208400711437047D8
:1005C00000200146704701F0004330B421F00041A3
:1005D00050EA010206D00A0DA2F56072C1F31301C0
:1005E000002A02DC30BC00207047440F44EAC104FA
:1005F000C100E01830BC00EBC25000F047B830B585
:100600000B46014600202022012409E021FA02F5D0
:100610009D4205D303FA02F5491B04FA02F528446A
:10062000151EA2F10102F1DC30BD202A04DB203AC4
:1006300000FA02F1002070479140C2F1200320FA35
:1006400003F3194390407047202A04DB203A21FA33
:1006500002F00021704721FA02F3D040C2F12002DB
:100660009140084319467047202A06DBCB17203AF1
:1006700041FA02F043EAE07306E041FA02F3D040A7
:10068000C2F1200291400843194670470029A8BFD3
:100690007047401C490008BF20F00100704710B4AB
:1006A000B0FA80FC00FA0CF050EA010404BF10BC60
:1006B000704749B1CCF1200421FA04F411FA0CF18D
:1006C00018BF012121430843A3EB0C01CB1D4FEAC6
:1006D00000614FEA102042BF002010BC704700EBC1
:1006E000C35010440029A4BF10BC7047401C4900EF
:1006F00008BF20F0010010BC704710B5141E73F144
:10070000000408DA401C41F1000192185B411A43D1
:1007100001D120F0010010BD2DE9F04D92469B461D
:1007200011B1B1FA81F202E0B0FA80F220329046C3
:10073000FFF77BFF04460F4640EA0A0041EA0B013F
:1007400053465A46084313D0114653EA010019D0C4
:10075000C8F140025046FFF777FF05460E46504667
:1007600059464246FFF761FF084305D0012004E0E7
:1007700020463946BDE8F08D0020054346EAE07684
:100780002C4337430A986305E40AA0EB08000022D3
:10079000FD0A44EA47540A3002D500200146E9E741
:1007A000010510196941DDE9084500196941BDE8F5
:1007B000F04DA2E7C1F30A52C1F3130140F2FF3337
:1007C00041F480119A4202DA00200146704740F25B
:1007D00033439A42A2F2334202DC5242FFF734BF63
:1007E000FFF723BF30B5041E71F1000404DB4FF0A6
:1007F0000044404264EB0101141E73F1000405DB68
:100800001C464FF00043524263EB0403994208BF79
:10081000904230BD064C074D06E0E06840F0010311
:1008200094E8070098471034AC42F6D3FFF7C2FCB7
:10083000784300089843000870B58C1810F8015BE5
:1008400015F0070301D110F8013B2A1106D110F869
:10085000012B03E010F8016B01F8016B5B1EF9D16D
:100860002B0705D40023521E0DD401F8013BFAE7F3
:1008700010F8013BCB1A921C03E013F8015B01F85E
:10088000015B521EF9D5A142D8D3002070BD0000F3
:1008900070B50F4C054600224021204600F073FB46
:1008A000012003F09BFB4FF44010A061302000EAD0
:1008B0000510A061012003F091FB01224021204698
:1008C00000F061FBBDE87040012003F087BB000031
:1008D0000020024070B5104E04464FF4006500221F
:1008E0002946304600F04FFB012003F077FB0B4810
:1008F0004FF47021816104F00F018161012003F048
:100900006DFB01222946304600F03DFBBDE87040FA
:10091000012003F063BB00000018024000200240E9
:1009200070B505462DED028BB0EE408AF0EE608A80
:100930009FED0E0B0C0015D453EC182B51EC100B43
:10094000FFF73CFD41EC100B05EBC40090ED001BE4
:1009500051EC100B53EC112BFFF789FC41EC100B01
:10096000641EE9D5BDEC028B70BD000000000000E4
:1009700000000000FEE7704710B50446042001F0B7
:10098000AAFC0148046010BD100000207047000060
:1009900070B555482DED028B0168544CE268891AF8
:1009A0000C2909D30068E0606079002538B101287E
:1009B00011D0022800D16571BDEC028B70BD60784A
:1009C0000028F9D0A5712846FFF784FF6079401C04
:1009D00060716570F0E702F031F9DFED450A4549D5
:1009E000E07920EE200A01EB8002401C82ED000A33
:1009F000C0B20522B0FBF2F302FB1300E071E8BBCA
:100A0000DFED3D8A91ED000A5FF00000B0EE688AEC
:100A1000F0EE400A01EB800292ED001AB4EEE01A0B
:100A2000F1EE10FA01DDF0EE410AB4EEC01AF1EE7B
:100A300010FA01D2B0EE410A31EE088A401C0528B6
:100A4000E8DB78EE600AB0EE081A70EEC00A80EEBD
:100A5000810A10EE100AFFF7A3FD41EC100BA079FC
:100A60002249C0EBC000F83101EBC0000621FFF7BE
:100A700057FF51EC100BFFF7A6FD00E02BE000EE56
:100A8000100AF1EE000AB0EE0E1A70EE600A194874
:100A9000A579B03860EE810A00EB8500C0ED1C0A34
:100AA000F5EEC00AF1EE10FA01D2C0ED1C8A10EE8C
:100AB000100AFFF775FD41EC100B294653EC102B83
:100AC0000EA002F0C5FDA079401CC0B2A0710E2896
:100AD00001D2FFF7FFFEA0790E287FF47BAF60798B
:100AE000401C607168E7000008000020180000202A
:100AF00000007A44E4060020000000007B492564E1
:100B00007D252E34660D0A002DE9F04F57482DED56
:100B1000028B83B00168564FBA68891A19292CD301
:100B200080460068B860B8784FF0000907F11806F1
:100B3000062822D2DFE800F00326262626973878FA
:100B400000281AD04C46484687F80390FFF7A0FECD
:100B50000025B14609EB4516304603F098FB3046B8
:100B600003F089FA6D1C072DF4DBD8F8000038611A
:100B70003C71B878401CB8703C7003B0BDEC028B7F
:100B8000BDE8F08FDFF8ECA09FED3B8A002500BFA9
:100B900006EB4514218B606900F0F0F930BB0120B1
:100BA0003979A84008433871204603F08FFAF0EEF7
:100BB000408A204603F0AEFAE07F0028F87800EB88
:100BC00085010AEB81004BD080ED008AF87800EBBC
:100BD000850B5AF82B00FFF7E3FCE27F8DE8070056
:100BE000D8F80020594625A002F032FD6D1C072DD3
:100BF000CEDB39797F2905D0D8F800003A69801A10
:100C0000D228BAD30020FA780123544603FA00F51B
:100C10000D4205D102EB800504EB850585ED008AC8
:100C2000401C0728F2DB521CD0B2F870042813D203
:100C3000FFF72EFE5FF0000406EB4415284603F094
:100C400026FB284603F017FA641C072CF4DBD8F8BF
:100C50000000386187F80490B878401CB8708CE7C1
:100C6000C0ED008AB2E787F8029086E7080000200E
:100C70001800002034060020000000007B5425648A
:100C80007D2564202566203078253032580D0A00F5
:100C90002DE9F0410446876D00F07AF9064694F894
:100CA00035000025022806D08020606584F8345085
:100CB0000120BDE8F0812068016821F01601016083
:100CC0002068416921F080014161206C08B9A06C65
:100CD00020B12068016821F00801016020680168E6
:100CE00021F0010101600CE000F052F9801B0528A1
:100CF00007D920206065032084F8350084F834503B
:100D0000D7E720680068C007EED194F85C103F2058
:100D10008840B860012084F8350084F83450002001
:100D2000C7E790F83510022903D0802141650120E2
:100D30007047052180F835100068016821F0010135
:100D400001600020704700002DE9F84FDFF8F8A19E
:100D50000022012403254FF00F090AF1040BAAF128
:100D6000040E00BF0B6804FA02F63340B34270D1A0
:100D70000F7907F00307012F01D0022F16D18768E2
:100D80004FEA420805FA08FC27EA0C07D1F80CC024
:100D90000CFA08FC4CEA070CC0F808C04768B743D7
:100DA0000E79C6F3001696403E4346600E79F64330
:100DB000B6070AD0C7684FEA420C05FA0CF6B743EB
:100DC0008E6806FA0CF63E43C6600E7906F00306FE
:100DD000022E10D1D60800EB8608D8F820605707FD
:100DE0004FEAD76C09FA0CF7BE430F6907FA0CF704
:100DF0003743C8F8207006684FEA420C05FA0CF732
:100E0000BE430F7907F0030707FA0CF73743076073
:100E10004E6816F4403F1CD04C4E376847F480476C
:100E20003760366822F0030706F480460096484E85
:100E300007EB060CDCF8086897073F0F09FA07F87C
:100E400026EA0806DFF80C81404503D14FF0000880
:100E500041E072E0DFF80081404502D14FF0010827
:100E600039E0DFF8F880404502D14FF0020832E067
:100E7000DFF8EC80404502D14FF003082BE0DFF8AB
:100E8000E480404502D14FF0040824E0DFF8D88028
:100E9000404502D14FF005081DE0DFF8D080404505
:100EA00002D14FF0060816E0DFF8C480404502D1B9
:100EB0004FF007080FE0DFF8BC80404502D14FF04B
:100EC000080808E0DFF8B080404502D14FF009087B
:100ED00001E04FF00A0808FA07F848EA0608CCF8DB
:100EE0000888DAF800605746D1F804C09E435FEAEC
:100EF000CC2C00D51E433E60DBF800605F46D1F885
:100F000004C09E435FEA8C2C00D51E433E60DEF891
:100F100000607746D1F804C09E435FEA8C3C00D560
:100F20001E433E60084F083F3E68D1F804C09E4310
:100F30005FEACC3C00D51E433E60521C102AFFF4F1
:100F400011AFBDE8F88F0000083C01404438024072
:100F5000003001400000024000040240000802404E
:100F6000000C024000100240001402400018024031
:100F7000001C02400020024000240240006908409A
:100F800000D0012070470AB1816170470904FBE776
:100F900001488068704700000000002090F83D2064
:100FA000202A01D002207047242280F83D200268C8
:100FB000136823F0010313600268536A23F01003DF
:100FC00053620268536A0B43536201680A6842F035
:100FD00001020A60202180F83D100020704790F83F
:100FE0003D20202A01D002207047242280F83D2095
:100FF0000268136823F00103136003685A6A22F041
:101000000F020A4391B2596201680A6842F0010274
:101010000A60202180F83D100020704770B5040060
:1010200025D094F83D00002520B984F83C50204696
:1010300000F03EFA242084F83D002068016821F089
:10104000010101602068016841F4004101602068ED
:10105000016821F40041016000F0CAFB4D4A61685B
:10106000914201D84C4900E04C49884201D201200C
:1010700070BD4B492368B0FBF1F15E6826F03F0676
:101080000E435E606368934206D94FF496735943EA
:101090004FF47A73B1FBF3F12368491C1E6A26F002
:1010A0003F06314319626168914210D84900401EE1
:1010B000B0FBF1F2521CC2F30B02042A01D204204D
:1010C00022E0B0FBF1F0401CC0F30B001CE0A26872
:1010D000F2B301EBC10303EB0116431EB3FBF6F3BE
:1010E0005B1C43F480431B0549D092B301EBC10262
:1010F00002EB0111401EB0FBF1F0401CC0F30B00ED
:1011000040F4804040F400402168CA694CF6FF7307
:101110009A431043C861D4E907100143206802686C
:1011200022F0C00211430160D4E9030101432068A9
:10113000826848F2FF339A4311438160D4E9050184
:1011400008432168CA6822F0FF021043C86001E02A
:101150000EE016E02068016841F00101016025649D
:10116000202084F83D00256384F83E50002070BDA7
:1011700001EB4106431EB3FBF6F35B1CB3E7012012
:10118000C2E701EB4101401EB0FBF1F0401CC0F38F
:101190000B00B7E7A086010080841E0000093D0017
:1011A00040420F002DE9F84F1F4690468A460446FC
:1011B000DDF82890FFF7ECFE054694F83D00202866
:1011C00075D1192301226C492046009501F05EFC7F
:1011D0000028F5D194F83C00012868D0012084F85B
:1011E0003C0020680168C90703D1016841F0010192
:1011F00001602068016821F400610160222084F808
:101200003D00102084F83E0000262664C4F82480A7
:101210006785608D20855948E0622B464A465146D5
:10122000204601F049FB002878D1208D544F68B149
:10123000012814D002282068016816D041F480618A
:101240000160206841698069009087E020684169F9
:1012500081690091016841F4007101607EE02068BD
:10126000016821F480610160F0E721F48061016090
:101270002068016841F40061E2E7032848D80128AA
:101280000AD0022814D04B46002239462046009549
:1012900001F0FCFBD8BB27E02A464946204601F076
:1012A00074FCA0BB20680069616A08704DE061E0D1
:1012B0004B46002239462046009501F0E7FB30BB43
:1012C0002068016841F40071016020680069616A6A
:1012D0000870606A401C6062218D491E2185618D05
:1012E000491E618521682EE02068016821F4806133
:1012F000016020680069616A0870606A401C606271
:10130000208D401E2085608D401E6085D0E705E061
:101310002A464946204601F038FC10B10120BDE8BC
:10132000F88F20680069616A0870606A401C60621A
:10133000218D491E2185618D491E618521684A697B
:10134000D24352070AD409690170606A401C606286
:10135000208D401E2085608D401E6085208D0028D8
:101360008BD1202084F83D0084F83E6084F83C60F6
:101370000020D4E70220D2E7020010000000FFFFA7
:10138000040001002DE9F84F1F4690468A460446A6
:10139000DDF82890FFF7FCFD054694F83D00202875
:1013A0007FD11923012240492046009501F06EFBB0
:1013B000002876D194F83C00012872D0012084F8EE
:1013C0003C0020680168C90703D1016841F00101B0
:1013D00001602068016821F400610160212084F827
:1013E0003D00102084F83E0000262664C4F82480C6
:1013F0006785608D20852D48E0622B464A46514620
:10140000204601F0CFFA90B92068416980690090C8
:1014100036E02A464946204601F0EAFB50B1206CEE
:10142000042804D12068016841F4007101600120A2
:10143000BDE8F88F606A216800780861606A401C26
:101440006062618D491E6185218D491E89B22185A9
:1014500022685369DB435B070BD451B100781061FC
:10146000606A401C6062608D401E6085208D401E59
:1014700020852A464946204601F0E2FA0028CED1CE
:10148000208D0028C5D154F83D0B016841F400714E
:101490000160202004F81E09E67766770020C7E780
:1014A000FFE70220C4E70000020010000000FFFF79
:1014B00010B586B0044614216846FEF7CDFE1349E8
:1014C0002068884220D112480021026842F00202BE
:1014D0000260006800F002000590C0200090122019
:1014E000CDE90101032003900420049069460948D6
:1014F000FFF72AFC06481030016841F40011016032
:10150000006800F40010059006B010BD00540040C3
:1015100030380240000402400248816802781144D9
:1015200081607047000000200B4810B5016841F44D
:1015300000710160016841F480610160016841F45B
:1015400080710160032000F06FF80F2000F006F8B2
:1015500000F024F8002010BD003C024070B50D4D95
:1015600004464FF47A712878B1FBF0F00A49096813
:10157000B1FBF0F000F0BBFE48B9102C07D20022FE
:101580002146501E00F030F800206C6070BD012034
:1015900070BD0000000000200C0000200A4808B5C3
:1015A000016841F480410160006800F480400090CF
:1015B0000548001F016841F080510160006800F09B
:1015C0008050009008BD000044380240002809DB2C
:1015D00000F01F02012191404009800000F1E0204D
:1015E000C0F8001170470000F0B40E4B1B680C46A9
:1015F000C3F30223C3F10705042D00D90425191DE7
:10160000072901D2002300E0DB1E012606FA05F1BE
:10161000491E214099409E40761E16403143F0BC41
:1016200002F026B80CED00E0064900F00702086859
:101630004FF6FF03184040EA0220034A10430860B7
:10164000704700000CED00E00000FA052DE9F843BA
:101650001748016841F0805101600068154F00F0A3
:101660008050012600903E64FFF792FC05464FF43F
:101670007A78114C05E000BFFFF78AFC401B40451B
:101680000DD86068C003F7D57E64FFF781FC05467E
:10169000464607E0FFF77CFC401BB04202D903201E
:1016A000BDE8F88360688003F4D50020F8E7000007
:1016B0004038024000000E42007000402DE9F04723
:1016C0000E46050065D0DFF81481D8F80000F7B2A7
:1016D00000F00F00B04207D288F80070D8F8000080
:1016E00000F00F00B04254D128683D4C810712D55C
:1016F000400703D5206840F4E050206028780007B8
:1017000003D5206840F4604020602068A96820F07C
:10171000F000084320602878C0072DD03049686861
:101720000839012812D0022813D0032811D00968E3
:10173000890700292DDA216821F003010143216086
:10174000FFF726FC814641F2883A0EE009688903DA
:10175000EFE709688901ECE7FFF71AFCA0EB090144
:10176000514502D90320BDE8F0872068696800F080
:101770000C00B0EB810FEFD1D8F80010404601F01B
:101780000F01B14207D90770006800F00F00B042A6
:1017900001D00120E7E72878400705D52068E968EF
:1017A00020F4E050084320602878000706D5206820
:1017B000296920F4604040EAC100206000F038F858
:1017C0002168084AC1F30311515CC840064908600A
:1017D00006480068FFF7C2FE0020C4E7003C024054
:1017E000083802405E4300080C000020040000207E
:1017F0000448054900680968044AC1F38221515C24
:10180000C84070470C000020083802406E430008B2
:101810000448054900680968044AC1F34231515C33
:10182000C84070470C000020083802406E43000892
:10183000154810B5006810F00C02144813D0144974
:10184000042A0FD0082A0ED10F4C241F22682368C7
:1018500002F03F025B0207D52068C0F38810A0FBAE
:10186000010106E0084610BD2168C1F38811A1FB03
:1018700000010023FEF7B8FC2168C1F30141491CB7
:101880004900B0FBF1F010BD083802400024F4001C
:1018900040787D012DE9F84F04006ED02078DFF804
:1018A0004C93C007A9F104054AD009F1040001686E
:1018B000C1F38101012908D00068C0F3810002282A
:1018C0000AD1D9F80000400206D52868800337D530
:1018D00060680028E1D033E06068B0F5803F10D048
:1018E000B0F5A02F286810D020F480302860286838
:1018F00020F4802028606068A8B1FFF749FB064605
:101900000DE0286840F48030F4E740F4802028603F
:10191000F7E700BFFFF73CFB801B642873D82868FB
:101920008003F7D50CE0FFF733FB064605E000BF68
:10193000FFF72EFB801B6428F0D828688003F7D4BB
:101940002078DFF8AC8280074FF0000A3ED5A74828
:10195000001D016811F00C0F08D00068C0F3810071
:1019600002280BD1D9F80000400207D4286880076C
:1019700016D5E068012800D112E033E1E068B8B183
:101980000120C8F80000FFF703FB064605E000BF92
:10199000FFF7FEFA801B0228C0D828688007F7D519
:1019A0002868216920F0F80040EAC10028600DE0B5
:1019B000C8F800A0FFF7ECFA064604E0FFF7E8FAE3
:1019C000801B02281FD828688007F7D420780007DA
:1019D00022D5864F87486169703771B10121016056
:1019E000FFF7D6FA064604E0FFF7D2FA801B02287A
:1019F00009D838688007F7D50EE0C0F800A0FFF7D7
:101A0000C7FA064605E082E0FFF7C2FA801B02280B
:101A10007DD838688007F7D42078400768D5DFF88C
:101A2000CCB100270BF13C0BDBF80000C0000BD45D
:101A3000DBF8001041F08051CBF80010DBF800001B
:101A4000012700F0805000906B4E3068C00510D424
:101A5000306840F480703060FFF79AFA009005E03B
:101A6000FFF796FA0099401A022850D83068C0054E
:101A7000F6D55E4EA0686C3601280FD00528306878
:101A800010D020F001003060306820F00400306099
:101A9000A068B8B1FFF77CFA00900FE0306840F022
:101AA0000100F4E740F004003060F7E7FFF770FA58
:101AB0000099411A41F28830814266D83068800727
:101AC000F4D50EE0FFF764FA009007E0FFF760FA44
:101AD0000099411A41F28830814256D83068800717
:101AE000F4D42FB1DBF8001021F08051CBF80010B6
:101AF000A069C8B33D49091D0968C1F381010229E4
:101B00004AD00228504607D0C8F8600000E03CE008
:101B1000FFF73EFA04463BE04746C8F86000FFF78F
:101B200037FA064605E000BFFFF732FA801B0228AD
:101B30002BD828688001F7D4D4E907010843A16AAB
:101B40002E4A490802EB0141626A41EA82110843C8
:101B500094F82C1040EA0161C9F8001001203866A1
:101B6000FFF716FA044606E03EE000BFFFF710FA62
:101B7000001B022809D828688001F7D534E000BF8F
:101B8000FFF706FA001B022802D90320BDE8F88FF0
:101B900028688001F4D427E00128F7D0D9F80000A4
:101BA000E26900F4800191421CD1226A00F03F01F9
:101BB000914217D147F6C071626A0140B1EB821FB2
:101BC00010D1A26A4FF0FF3300F4403103EB520210
:101BD000B1EB024F06D194F82C1000F07060B0EB1E
:101BE000016F01D00120D1E70020CFE70438024087
:101BF00000004742800E4742007000400000FFFF97
:101C00007047000038B5016804464A688868C043D8
:101C1000430606D5C30704D1D3435B0601D4216C28
:101C200005E0830708D4D3431B0605D4616C01B0DB
:101C30002046BDE830400847830603D5430601D55A
:101C4000C30551D4D3439B064ED443060AD494F81B
:101C50005130032B49D0636D43F004036365CB68B7
:101C60008B680093830609D4636D43F001036365B9
:101C70008B6800930B6823F040030B60C00506D40B
:101C8000606D40F008006065206880680090606DBD
:101C9000002829D02068416821F0E001416001203E
:101CA00084F85100900701D4D00722D02068416801
:101CB00021F003014160114DE06C40B10565E06C1D
:101CC000FFF72FF818B1606D40F040006065A06C20
:101CD000002809D00565A06CFFF723F8002803D081
:101CE000606D40F04000606538BDC868886800904D
:101CF00038BD2046FFF784FF38BD00005D31000885
:101D000070B5040009D0606A002540B125616561A5
:101D1000A56294F8510040B10CE0012070BD6068EC
:101D2000B0F5827FF4D0E561F2E784F850502046A8
:101D300000F044F8022084F851002068016821F086
:101D400040010160A088218900F4827001F40441FF
:101D50000843A18901F400610843217C01F00201DC
:101D60000843217D01F001010843218B01F400713A
:101D70000843217F01F03801084394F8201001F056
:101D800080010843218D01F4005108432168086057
:101D9000A069042101EA104094F8241001F0100118
:101DA0000843216848602068C16921F40061C1616D
:101DB0006565012084F85100002070BD10B586B023
:101DC000044614216846FEF747FA174920688842FE
:101DD00028D116480021026842F48052026000684F
:101DE00000F48050059011481438026842F0010256
:101DF0000260006800F001000590E02000900220E1
:101E0000CDE90101032003900520049069460848AC
:101E1000FEF79AFF002211462320FFF7E5FB23205F
:101E2000FFF7D4FB06B010BD00300140443802403B
:101E3000000002402DE9F84F04464068002598460E
:101E400016460F464FF0040BB0F5827F01D1A06813
:101E500088B194F85000012818D0012084F850006F
:101E6000FFF796F8814694F851004FF0000A0128D8
:101E70000ED0022582E084F851B013460A4620466F
:101E8000CDF8008000F036F9BDE8F88F0220FBE7BE
:101E9000002F72D0002E70D084F851B0C4F854A036
:101EA000A763A687E687C4F830A0A4F834A0A4F8F6
:101EB00036A0C4F840A0C4F844A0A068B0F5004F14
:101EC00009D12068016821F04001016020680168A3
:101ED00021F48041016020680168490603D401684B
:101EE00041F040010160E068D8B139E020688168C4
:101EF000C90709D0007BA16B0870A06B401CA063D0
:101F0000E08F401EE0870CE0FFF742F8A0EB0901EC
:101F1000414503D3B8F1FF3F03D036E0B8F1000FDD
:101F200033D0E08F0028E1D11DE020688168C90727
:101F300009D0C068A16B0880A06B801CA063E08FF3
:101F4000401EE0870CE0FFF723F8A0EB09014145B4
:101F500003D3B8F1FF3F03D017E0B8F1000F14D05E
:101F6000E08F0028E1D14A464146204601F0FEF8C4
:101F700008B120206065606D00B10125012084F862
:101F8000510084F850A028467EE70325F6E72DE9A6
:101F9000F84F044690F8500000271D461646894623
:101FA00001280DD04FF0010B84F850B0FEF7F0FF80
:101FB000804694F85100BA46012804D0022793E0E5
:101FC0000220BDE8F88FB9F1000F73D0002E71D058
:101FD000032084F85100C4F854A0C4F83090A686B9
:101FE000E686C4F838A0A4F83CA0A4F83EA0C4F843
:101FF00044A0C4F840A0A068B0F5004F09D1206803
:10200000016821F0400101602068016841F48041CD
:10201000016020680168490603D4016841F040016D
:102020000160E068B0F5006F606803D030B3012E46
:1020300024D041E008B1012E1CD1206B216800881A
:10204000C86006E020688168890709D5216B098886
:10205000C160206B801C2063E08E401EE08609E09A
:10206000FEF796FFA0EB0800A84202D3681C01D03F
:1020700031E07DB3E08E0028E4D120E0206B2168C0
:102080000078087306E020688168890709D5216B0C
:1020900009780173206B401C2063E08E401EE086AF
:1020A0000AE0FEF775FFA0EB0800A84203D3681C06
:1020B00002D010E017E06DB1E08E0028E3D1424677
:1020C0002946204601F080F808B120206065A0680C
:1020D00018B106E0FFE7032706E02068C1688068C2
:1020E0000090606D00B1012784F851B084F850A0D1
:1020F000384666E72DE9F84F044690F8500000276F
:102100000A9E1D4692468B464FF0010901280ED0CB
:10211000012084F85000FEF73BFF804694F8510000
:10212000616801280CD0B1F5827F07D102E002205E
:10213000BDE8F88FA16809B9042801D00227C2E0E0
:10214000BBF1000F27D0BAF1000F24D01DB394F8D3
:102150005100042802D0052084F851000020606559
:10216000C4F838A0E587A587C4F830B0E586A58611
:102170002064606420680168490603D4016841F066
:1021800040010160E068B0F5006F606805D0E8B319
:10219000012D46D07FE0012795E008B1012D39D10E
:1021A000206B21680088C860206B801C2063E08E53
:1021B000401EE0862EE02068816889070FD5E18EF9
:1021C00069B1B9F1010F0AD1216B0988C160206B97
:1021D000801C2063E08E401EE0864FF000092068DE
:1021E0008168C9070CD0E18F51B1C068A16B08802C
:1021F000A06B801CA063E08F401EE0874FF00109B8
:10220000FEF7C6FEA0EB0800B04200E009E001D3F3
:10221000701C50D1E08E0028CDD1E08F0028CAD1AB
:102220003FE0206B216800780873206B401C20631E
:10223000E08E401EE0862EE02068816889070FD579
:10224000E18E69B1B9F1010F0AD1216B09780173EF
:10225000206B401C2063E08E401EE0864FF000099A
:1022600020688168C9070CD0E18F51B1C068A16BAB
:102270000870A06B401CA063E08F401EE0874FF009
:102280000109FEF785FEA0EB0800B04202D3701CE6
:1022900001D010E07EB1E08E0028CDD1E08F002883
:1022A000CAD142463146204600F08EFF28B10127B0
:1022B0002020606507E0032705E0A06818B92068C2
:1022C000C16880680090012084F85100002084F8E3
:1022D000500038462CE74FF0E0210428086903D06D
:1022E00020F004000861704740F00400FAE710B5E0
:1022F000401EB0F1807F01D3012010BD4FF0E024DB
:1023000060610F21601701F0B3F90020A061072080
:102310002061002010BD704770470000F8B50168CB
:1023200004460868CA684B6910F00F0F4FF00005AB
:1023300059D003F0010602F49077374365D0C10706
:1023400005D0D10503D5216C41F00101216441077D
:1023500005D5D90703D0216C41F002012164810722
:1023600005D5D90703D0216C41F004012164010790
:1023700007D502F02001314303D0216C41F0080160
:102380002164216C00293AD0800604D5900602D53C
:10239000204601F02CF820684069216CC0F38010C1
:1023A000090700D460B3204600F0FAFF20684069B6
:1023B000400621D52068143050E8001F21F040016C
:1023C00040E80012002AF5D1A06BA8B16C49016564
:1023D000A06BFEF7A6FC002811D0A06B016D01B028
:1023E000BDE8F040084783060FD593060DD520467B
:1023F000BDE8F84000F0FBBF2046FFF78DFFF8BDB9
:102400002046FFF789FF2564F8BD266B2023012EA7
:1024100079D1C60677D5D60675D508684868009084
:102420004869400640D5A16B086840680004000C6C
:10243000EAD0A28D8242E7D9E085C869B0F5807FF5
:102440002DD020680C3050E8001F21F4807140E846
:102450000012002AF5D12068143050E8001F21F046
:10246000010140E80012002AF5D12068143050E83C
:10247000001F21F0400140E80012002AF5D184F845
:102480003E30256320680C3050E8001F21F0100119
:1024900040E80012002AF5D1A06BFEF7F9FBA08DF1
:1024A000E18D401A81B229E0A08DE18D401A81B200
:1024B000E08D0028A8D00029A6D020680C3050E874
:1024C000002F22F4907240E80026002EF5D12068FB
:1024D000143050E8002F22F0010240E80026002EC0
:1024E000F5D184F83E30256320680C3050E8002F89
:1024F00022F0100240E80023002BF5D12046FFF720
:102500000AFFF8BDFFE705062BD5150629D594F877
:102510003D002128F5D1A068B0F5805F01D1206988
:10252000B0B1206A411C2162216800784860E08CCB
:10253000401E0004000CE084E3D12068C16821F053
:102540008001C1602068C16841F04001C160D8E7E6
:10255000206A0088C0F308004860206A801C20625E
:10256000E5E74006CDD55006CBD5CA68204622F017
:102570004002CA6084F83D3000F085F9C1E70000F0
:102580009133000870B5040004D094F83D00002594
:1025900010B106E0012070BD84F83C50204600F0E8
:1025A00023F8242084F83D002068C16821F40051FC
:1025B000C160204600F07CFF2068016921F4904151
:1025C00001612068416921F02A0141612068C168E8
:1025D00041F40051C1602564202084F83D0084F856
:1025E0003E00002070BD00002DE9F04387B0044696
:1025F00014216846FDF730FE6B486A4B22680024C0
:1026000069491038022603250827DFF8A0919A426D
:1026100032D10A6842F480120A60096801F480111C
:102620000591016841F004010160016801F00401B5
:102630000591016841F008010160006802AA00F0FC
:10264000080005909814CDE9000682E8B0006946BC
:102650004846FEF779FB0420CDE9000602AA694648
:1026600082E8B0005248FEF76FFB00221146352089
:10267000FEF7BAFF352021E04E4B9A4223D10A687B
:1026800042F000420A60096801F0004105910168CA
:1026900041F0100101600068CDE9005600F0100023
:1026A000CDE9047069464448CDE90245FEF74CFB8C
:1026B000002211465320FEF797FF5320FEF786FFB6
:1026C00007B0BDE8F083384BDFF8F0801B1D4FF0FA
:1026D000070C42451BD1196841F0100119601968B7
:1026E00001F010010591016841F0010101600068ED
:1026F00002AA00F0010005904FF4C060CDE9000689
:1027000082E8301069462E48FEF71EFBD8E7DFF856
:10271000B480424521D10A6842F480220A600968E7
:1027200001F480210591016841F002010160006817
:1027300002AA00F0020005904FF44060CDE90006C7
:1027400082E8301069462048FEF7FEFA0022114662
:102750002720FEF749FF2720B0E71C498A42AFD166
:10276000196841F020011960196801F020010591F4
:10277000016841F004010160006802AA00F0040051
:102780000590C020CDE9000682E8B00069464846C1
:10279000FEF7DAFA002211464720FEF725FF472010
:1027A0008CE7000000500040403802400008024022
:1027B000000C0240007C004000100240001001406C
:1027C00000000240004800400004024000140140A4
:1027D000704700002DE9F843044690F83D001F467D
:1027E00016460D4620284CD1C5B1BEB194F83C0028
:1027F000012846D0012084F83C004FF00008C4F8BE
:102800004080212084F83D00FEF7C2FBA68481466B
:10281000E684A068B0F5805F03D004E00120BDE845
:10282000F883206928B12E465FF0000584F83C80CB
:102830000EE00026FAE78021204600F0BFFEA0B996
:10284000AEB116F8010B21684860E08C401EE084B0
:10285000E08C4B464FF0000200970028EBD14FF080
:102860004001204600F0AAFE30B10320D7E735F83A
:10287000020BC0F30800E6E7202084F83D000020AA
:10288000CDE70220CBE77047FEE701684A69D243F3
:1028900052050FD46FF480624A61002140F8301F66
:1028A000202242738173026942F0040202610173C3
:1028B00001207047002070472DE9F84F0446C06A98
:1028C0001E4693460D4621680A6842F480620A60FB
:1028D000082807D0012805D010F5803F02D0206BD2
:1028E000112804D12068016841F4807101604FF023
:1028F00001195B46002249462046009600F0C6F8C2
:102900004FF4007840B120680068C00501D5C4F8D4
:1029100040800320BDE8F88F2069DFF884A0B0F57F
:10292000804F0FD00620216800EAD51747F0F0004D
:10293000086133465A460AF10601204600F0DAF8EB
:1029400058BB03E0E8B240F001001CE02168E8B2A7
:10295000086133465A465146204600F0CBF8E0B9AC
:102960002068416981690091016841F480710160CA
:102970005B46002249462046009600F087F8002872
:10298000C1D147F0F1002168086133465A465146EB
:10299000204600F0AFF80028BCD00120BAE70000C4
:1029A00002000100F8B50446C06A1E460D461746EF
:1029B000082807D0012805D010F5803F02D0206BF1
:1029C000122804D12068016841F480710160134627
:1029D00000224FF001112046009600F057F840B158
:1029E00020680068C00502D54FF400702064032001
:1029F000F8BD2069B0F5804F0ED00620216800EAAE
:102A0000D51040F0F000086133463A460B492046A5
:102A100000F070F878B902E005F0FE0000E0E8B2DE
:102A200021680861054933463A46891F204600F06F
:102A300061F80028DCD00120F8BD0000080001008A
:102A400070B516460D4604460DE02046FFF71DFF03
:102A500008B1012070BD681C05D0FEF799FA801BF3
:102A6000A84207D835B120684069C0434007ECD47C
:102A7000002070BD002044F8300F20216173A07346
:102A8000216941F0200121612073E2E72DE9F0473F
:102A90001E4690460D460446C1F30747DDF82090D8
:102AA00008E0701C06D0FEF773FAA0EB0900B042F4
:102AB0000FD876B12068012F18D0806925EA000070
:102AC0000004000C14D000214145EAD00020BDE8EC
:102AD000F087002044F8300F20216173A073216932
:102AE00041F02001216120730120F0E74069E5E712
:102AF0000121E9E72DE9F0479A4691460E46044642
:102B000000254FF02008C1F3074725E02068406901
:102B1000C043400514D42068016841F4007101608D
:102B200021686FF480604861256384F83D8084F8F3
:102B30003E50206C40F00400206484F83C501FE0BC
:102B4000B9F1FF3F08D0FEF723FAA0EB0A0149458F
:102B50000CD8B9F1000F09D02068012F13D080697B
:102B600026EA00000004000C0BD0CFE744F8305FE9
:102B700084F80D80A573206940F020002061257342
:102B80000120BDE8F0874069EAE72DE9F041002522
:102B900090460E460446202717E04069C043C00611
:102BA0000CD454F8301B6FF01000486144F81059F1
:102BB0006777A577206A2062257717E0FEF7E8F9A6
:102BC000A0EB0800B04208D83EB120684169C94373
:102BD0004906E2D40020BDE8F08144F8305F677315
:102BE000A573206940F02000206125730120F2E7E1
:102BF00070B516460D4604460DE02046FFF745FE2B
:102C000008B1012070BD681C05D0FEF7C1F9801B1A
:102C1000A84207D835B120684069C0430006ECD40B
:102C2000002070BD002044F8300F20216173A07394
:102C3000216941F0200121612073E2E710B500F025
:102C400011F8B0F5004F00D3002000EE100A044840
:102C5000B8EE400AD0ED020A20EE200A10BD0000B6
:102C6000200400203EB50CA00A2400680123CDE911
:102C7000004001AA80210948FEF784FB022302AA32
:102C8000802106480094FEF78DFA08B1FF203EBD72
:102C9000BDF8080040BA3EBD040000003404002026
:102CA0001CB505218DF80410010A8DF805108DF86A
:102CB00006000A200090032301AA80210148FEF7A4
:102CC00061FB1CBD340400201CB500218DF80410EC
:102CD000010A8DF805108DF806000A2000900323E4
:102CE00001AA80210148FEF74DFB1CBD34040020E1
:102CF00010B540F2C510FFF7E7FF0C489FED0A0A38
:102D000080ED000AB0EE0A0A80ED010A9FED080A84
:102D100080ED020A9FED070A80ED030ABDE810402E
:102D20004FF40160FFF7BCBFCDCCCC3C20040020A9
:102D3000CDCC4C35350E01452DE9F04F87B014212F
:102D40006846FDF789FA6C480024016841F01001DB
:102D50000160016801F010010591016841F4807182
:102D60000160016801F480710591016841F0200162
:102D70000160016801F020010591016841F08001C6
:102D80000160016801F080010591016841F00401D2
:102D90000160016801F004010591016841F0010141
:102DA0000160016801F001010591016841F0020133
:102DB0000160016801F002010591016841F008011C
:102DC0000160016801F008010591016841F04001CE
:102DD00001600068012200F040000590482147484A
:102DE000FEF7D1F84FF40079012249464448FEF736
:102DF000CAF84FF4027A012251464248FEF7C3F85E
:102E000049F2200B012259463F48FEF7BCF8002248
:102E10007F213E48FEF7B7F84FF400680022414694
:102E20003B48FEF7B0F8342002258DE831006946B2
:102E30003248FDF789FF482001260327CDE9000627
:102E4000CDE9024769462D48FDF77EFFCDF80080A9
:102E500069462E48CDE90145FDF776FFF8018DE87A
:102E6000310069462648FDF76FFFCDF800900397C3
:102E7000CDE9016469462248FDF766FFCDE90054BB
:102E8000694624480295FDF75FFF40F2C4508DE883
:102E9000310069461B48FDF757FFCDF800A00397A6
:102EA000CDE9016469461748FDF74EFFCDF800B043
:102EB0000397CDE9016469461348FDF745FF46F2E3
:102EC00018008DE8310069460F48FDF73DFF7F206F
:102ED000CDE90006CDE9024769460C48FDF734FF0D
:102EE000CDF800800397CDE9016469460848FDF7F5
:102EF0002BFF07B0BDE8F08F3038024000100240D1
:102F000000140240001C0240000402400020024065
:102F10000018024000080240144810B51249016030
:102F20006421416000214FF480428160C0E90312B6
:102F300041618161C1610162FEF770F808B1FDF77E
:102F400025FD00210948FEF729F808B1FDF71EFD0F
:102F500000210648FEF743F8002803D0BDE81040E2
:102F6000FDF714BD10BD00000054004034040020E3
:102F7000104810B50E4901604FF482714160002184
:102F800081600122C160C0E90412520282612022E4
:102F9000C0E90721416281620A21C162FEF7B0FEE9
:102FA000002803D0BDE81040FDF7F0BC10BD0000C4
:102FB00000300140880400200C4810B50A49016027
:102FC0004FF4E1314160002181600C22C160C0E911
:102FD00004128161C161FFF7D5FA002803D0BDE872
:102FE0001040FDF7D3BC10BD00500040E0040020AD
:102FF0000C4810B50A4901604FF4E13141600021ED
:1030000081600C22C160C0E904128161C161FFF7D7
:10301000B9FA002803D0BDE81040FDF7B7BC10BDD9
:10302000007C0040240500200C4810B50A490160CE
:103030004FF4E1314160002181600C22C160C0E9A0
:1030400004128161C161FFF79DFA002803D0BDE839
:103050001040FDF79BBC10BD00100140680500202A
:103060000C4810B50A4901604FF4E131416000217C
:1030700081600C22C160C0E904128161C161FFF767
:1030800081FA002803D0BDE81040FDF77FBC10BDD9
:1030900000480040AC0500200C4810B50A4901600A
:1030A0004FF4E1314160002181600C22C160C0E930
:1030B00004128161C161FFF765FA002803D0BDE801
:1030C0001040FDF763BC10BD00140140F005002066
:1030D000FEE7FEE77047000030B5154DAFB0286839
:1030E000144C6169401AB0F57A7F1ED3286860617C
:1030F000B4216846FDF7B0F82DAA69460E4801F0E4
:10310000FBF82D984FF6FF7382B269460B48FFF724
:1031100061FB01202070607028681930A060286869
:103120000C30E06006A000F093FA2FB030BD000034
:10313000080000201800002034060020240500208C
:103140005075745F446174615F446F6E650D0A0071
:103150000148FEF757BD00008804002010B5806BC1
:103160000021C187C186FEF74BFD10BDF8B50446AE
:1031700040684FF48273984221D1A0684FF4806573
:10318000B0F5004F01D0A8420AD12068066826F0A9
:10319000400606606068984211D1A068A8420ED02F
:1031A00000920B4600228021204600F039F80028CA
:1031B00004D0606D40F0200060650320F8BD0092EF
:1031C0000B4600220121EFE738B504461248134BA5
:1031D0000068B0FBF3F04FF47A73584300906068D6
:1031E000B0F5827F0DD10B4600920022802120464F
:1031F00000F016F870B1606D40F0200060650320AB
:1032000038BD009830B1401E009020688068C043EF
:103210000006F6D5002038BD0C00002000366E01F7
:103220002DE9F8431E46914688460446089DFDF761
:10323000AFFE401B351AFDF7ABFE07462548006878
:10324000C0F3CB30684338E0701C37D0FDF7A0FEE8
:10325000C01BA84203D215B1009860B32CE02068CF
:10326000416821F0E00141606068B0F5827F0BD1D8
:10327000A068B0F5004F02D0B0F5806F04D120688F
:10328000016821F040010160A06AB0F5005F09D13A
:103290002068016821F4005101602068016841F450
:1032A00000510160012084F85100002084F8500092
:1032B0000320BDE8F8830025401E00902068816847
:1032C00038EA010004D000214945BDD10020F0E7D3
:1032D0000121F9E70C0000207047FEF71DB900003E
:1032E00070B592B030216846FCF7B6FF14210CA8E7
:1032F000FCF7B2FF1A480025016841F080510160D7
:10330000006800F0805011901648016841F4404177
:1033100001600068022400F44040119001200090F8
:10332000000401908001CDE906400F260896D820C0
:10333000CDE9090404200B906846FEF7ABFAFEF7CE
:1033400085F94FF4A050CDE90E50E002CDE90C64B0
:10335000109005210CA8FEF7B1F912B070BD000065
:1033600040380240007000400248016841F470019A
:103370000160704788ED00E00148FEF7CFBF000014
:10338000E00400200148FEF7C9BF0000240500202A
:1033900010B5806B0021C185C184FEF7BDFF10BD53
:1033A00001680C3151E8002F22F4907241E80023AB
:1033B000002BF5D10168143151E8002F22F00102F1
:1033C00041E80023002BF5D1016B012909D10168E7
:1033D0000C3151E8002F22F0100241E80023002BAD
:1033E000F5D1202180F83E1000210163704708B517
:1033F00090F83E10222901D0022008BD82684FF4C7
:1034000080539A4201D1016921B1816A9A421BD04D
:103410004AB10AE00268816A5268C2F308020A806F
:10342000816A891C08E0026972B10268526802F080
:103430007F020A70816A491C8162C18D491E09049C
:10344000090CC18503D019E002685268F1E70168F0
:10345000CA6822F02002CA600168CA6822F4807239
:10346000CA6001684A6922F001024A61202180F89D
:103470003E10016B012903D0FFF7AAF9002008BD17
:103480000021016301680C3151E8002F22F0100285
:1034900041E80023002BF5D101680A68D20602D565
:1034A0000A6849680091818DFEF735FFE6E7000064
:1034B00070B5044600680169E26821F44051114387
:1034C00001612169A068E269084361691143084309
:1034D0002168CA6849F20C639A430243CA602068B3
:1034E0004169A26921F44071114341613149206869
:1034F000884202D03049884202D1FEF789F901E0C2
:10350000FEF776F9E2690023192164253226B2F527
:10351000004F626828D0A0FB0101930F9200FCF7D6
:1035200063FE0146B0FBF5F06FF01802504301EB6B
:10353000800006EB0010B0FBF5F000F0F002B1FBEC
:10354000F5F002EB0012B1FBF5F06FF018035843F1
:1035500001EB800006EB0010B0FBF5F000F00F006F
:1035600021681044886070BDA0FB010192185B4186
:10357000FCF73AFE0146B0FBF5F00201B1FBF5F0B5
:103580006FF01803584301EB800006EBC000B0FB5E
:10359000F5F000F0F80002EB4002B1FBF5F0584303
:1035A00001EB800006EBC000B0FBF5F000F0070077
:1035B000D6E7000000100140001401402DE9F04161
:1035C000984617460E460446069D27E0681C25D0FF
:1035D0002DB1FDF7DDFCA0EB0800A8421ED9206844
:1035E0000C3050E8001F21F4D07140E80012002A8E
:1035F000F5D12068143050E8001F21F0010140E8A7
:103600000012002AF5D1202084F83D0084F83E0005
:10361000002084F83C000320BDE8F08120680068A9
:1036200036EA000004D00020B842CFD00020F3E7F3
:103630000120F9E70148FEF771BE0000AC0500204B
:103640000148FEF76BBE0000F0050020FEE7000019
:103650000FB4054B10B503A9044A029800F0EAF82C
:1036600010BC5DF814FB00002D4000083004002061
:103670000907090E002804DB00F1E02080F800149F
:10368000704700F00F0000F1E02080F8141D704733
:1036900002E008C8121F08C1002AFAD1704770471B
:1036A000002001E001C1121F002AFBD17047000079
:1036B0002DE9FF5F82B00021DDE90430020DDDF865
:1036C00040B0034318D044F61050A2F2FF324243F8
:1036D0001514119801281FD0A5EB0B00401C5FEAC0
:1036E000000A4FF000064E4FDFF83891B0465046C2
:1036F00015D5CAF1000413E0119801244AA301284A
:1037000001D16FEA0B010298119AC0E90031C0E9BA
:10371000024206B0BDE8F09FCBF10000DFE70446AF
:103720000021404A491842EB0450CDE9001012E054
:10373000E00707D032463B4640464946FCF73EFE8E
:103740008046894632463B4610461946FCF736FE0F
:1037500006460F466410002CEAD1DDE90401DDE9DC
:103760000023BAF1000F06DAFCF728FE42464B466A
:10377000FCF724FE05E0FCF793FE42464B46FCF7BF
:103780008FFE04460E460022284BFDF72BF803D887
:103790004FF0FF30014607E00022254B204631461E
:1037A000FCF765FDFDF706F8102409E0002C0ADBA4
:1037B0000A220023FCF718FD039B30321A55641EC1
:1037C00050EA0102F2D1641C039AC4F111031444BB
:1037D000119A012A03D0012208430DD10AE00843BF
:1037E00004D000204FF0110B119072E7A3EB0B05F2
:1037F0006D1E0DE05B4504DD4FF0000205F1010593
:1038000004E003DA4FF00002A5F10105002AECD034
:1038100002981199C0E90231C0E9004579E700003A
:10382000000014400000F03F300000000000F043B2
:103830000000E03F2DE9FF4F95B09A4688460646C6
:103840000025EEE1252877D100242746F94A0121F9
:10385000039400E0044316F8013F203B01FA03F013
:103860001042F7D130782A2811D06FF02F0330782A
:10387000A0F13002092A16D8039A44F0020402EBA0
:10388000820203EB42021044761C0390EFE758F8E3
:10389000042B0392002A03DA504244F400540390AC
:1038A00044F00204761C30782E2816D116F8010F49
:1038B00044F004042A280DD06FF02F023078A0F1D4
:1038C0003003092B09D807EB870302EB4303C71822
:1038D000761CF3E758F8047B761C30786C280FD000
:1038E00006DC4C2817D068280DD06A2814D104E0D3
:1038F000742810D07A280FD10DE044F400140AE0A7
:1039000044F4801401E044F440147278824202D1FD
:1039100004F58014761C761C307866280BD013DCF6
:10392000582877D009DC002875D04528F6D04628DD
:10393000F4D047281AD193E118E0632835D06428E1
:1039400079D0652812D18BE1702873D008DC672804
:10395000F1D069286FD06E280DD06F2806D1ACE069
:1039600073282CD0752874D0782853D052461799D4
:1039700090476D1C54E1C4F30250022809D003287B
:103980000DD0D8F8001004280DD00D6008F10408FF
:1039900046E1D8F80010EA17C1E90052F6E7D8F876
:1039A00000100D80F2E70D70F0E718F8041B8DF899
:1039B000001000208DF80100EB46012003E058F8CC
:1039C00004BB4FF0FF3061074FF0000102D40DE05F
:1039D00009F101018946B9420FDA8145F8DB1BF88C
:1039E00009100029F4D108E009F10101894681425A
:1039F000FADB1BF809100029F6D103985346A0EB17
:103A0000090721463846179A00F080FA284400EB4F
:103A1000090507E044E008E10DE01BF8010B524600
:103A200017999047B9F10109F7D253462146384614
:103A3000179AF2E039E00A21C4F302524FF0000B6A
:103A40000091022A06D058F8040BC117032A09D0A6
:103A50000AE023E008F1070020F00702F2E8020183
:103A6000904605E000B2C117042A01D140B2C11747
:103A7000002906DA0A460021404261EB02012D22AC
:103A800002E0220504D52B228DF80420012203E058
:103A9000E20701D02022F7E7914657E00A2100E033
:103AA00010214FF0000B00910BE010214FF0000BA4
:103AB00044F004040827009103E008204FF0000BB5
:103AC0000090C4F30252022A05D058F8040B0021DA
:103AD000032A08D008E008F1070020F00702F2E806
:103AE0000201904603E080B2042A00D1C0B24FF038
:103AF000000922072AD53278702A07D0DDF800C0E5
:103B00008CF0100C5CEA0B0C05D00EE040228DF816
:103B10000420012208E050EA010306D030238DF88A
:103B200004308DF8052002229146009B83F00803A3
:103B300053EA0B030AD150EA010201D1620705D50D
:103B400030228DF804204FF001097F1E3278582A68
:103B500004D039A20C920CAA02920BE03BA2F9E726
:103B60005B46009AFCF740FB0C9B9B5C029A521E42
:103B70000292137050EA0102F2D1029804A9081AC5
:103B800000F1200B600702D524F4803400E0012707
:103B90005F4502DDA7EB0B0000E0002000EB0B010E
:103BA000009003984944401A0390E00306D453461A
:103BB0002146179A039800F0A9F90544002706E06A
:103BC00001A85246C05D179990476D1C7F1C4F4558
:103BD000F6DBE0030CD553462146179A039800F014
:103BE00095F9054404E030205246179990476D1C22
:103BF0000099481E00900029F5DC08E0029802991F
:103C000052460078491C0291179990476D1CBBF1F0
:103C10000001ABF1010BF1DC5BE100F065F905445B
:103C2000761C307800287FF40DAE19B02846BDE828
:103C3000F08F000009280100303132333435363737
:103C400038396162636465660000000030313233E8
:103C50003435363738394142434445460000000088
:103C6000600700D4062708F1070020F00700F0E8FD
:103C70000223804603F0004C5FEA0C0001D097A0BD
:103C800009E0200501D596A005E0E00701D095A048
:103C900001E0AFF24C001390307823F00043652828
:103CA0000CD006DC452809D046281DD047287FD1F6
:103CB0003BE0662818D067287AD136E00021112F22
:103CC00001DB112000E0781CCDE9000104A90CA85B
:103CD000FFF7EEFCDDE90D010C9A4FF0000B07F148
:103CE0000109109200914EE04FF000400097CDE99D
:103CF000011004A90CA8FFF7DBFCDDE90D020C9B09
:103D00000F994FF0000B91461093009211B9791C56
:103D100000EB0109B7EB090003D4C0F1FF3B07F149
:103D20000109A9EB0700019042E0012F00DA012709
:103D30000021112F01DD112000E03846CDE90001FE
:103D400004A90CA8FFF7B4FCDDE90D010C9A009161
:103D50004FF0000BB946109221070FD4009A4A4544
:103D600003DA914601E0A9F10109B9F1010F05DD7E
:103D7000109AA9F10101515C3029F4D0B84202DA5D
:103D800010F1040F03DA0121CDE9011010E0002841
:103D900003DC8344A9EB000102E0411C494500DD3E
:103DA0008946A0EB0B00401C01904FF000400290B0
:103DB000200705D40198484502DB4FF0FF30019001
:103DC00000208DF84B0002980DF14B07B0F1004F29
:103DD00025D002200C902B200D90029800280CDAA0
:103DE000404202902D200D9007E00A210298FCF736
:103DF00006FC3031029007F8011D0C99481E0C900A
:103E00000029F2DC02980028EFD1791E0D98087085
:103E1000307800F0200040F0450007F8020D11A8AE
:103E2000C01BC01D02901398007800B1012000EB68
:103E30000901019801EBE071029801440398401ACE
:103E4000401E0390E00306D453462146179A039878
:103E500000F05CF805441398007818B152461799A1
:103E600090476D1CE00323D553462146179A0398CB
:103E700000F04CF805441BE0BBF1000F07DB009895
:103E8000584504DD1098179910F80B0001E01799B8
:103E900030205246904701980BF1010B401E05F16E
:103EA0000105019004D12E205246179990476D1CB0
:103EB000B9F10001A9F10109DEDC05E017F8010BF9
:103EC0005246179990476D1C0299481E029000298E
:103ED000F4DC53462146179A03989EE62D00000015
:103EE0002B000000200000002DE9F04104460025D1
:103EF0001E461746880404D405E039462020B04702
:103F00006D1C641EF9D52846BDE8F0812DE9F0410D
:103F1000044600251E469046C80301D5302700E020
:103F20002027880404D505E041463846B0476D1C7B
:103F3000641EF9D52846BDE8F0810000B420FCF7E6
:103F40001BFD0020FCF7C6FC0020FCF7A1FCFEF7DF
:103F5000CFFE1B4E002500BF06EB4514204600F0A7
:103F6000A1F82046012100F05CF92046002100F074
:103F700022F92046032100F078F92046002100F0C4
:103F800008F92046012100F05EF92046002100F0EA
:103F900024F92046012100F032F96D1C072DDBDBEE
:103FA0004FF47A7000F01AF806A0FFF751FB00BF3B
:103FB000FCF7AAFDFCF7ECFCFFF78EF8F8E7000031
:103FC0003000002048454C4C4F2053544D3332466E
:103FD000343239494754360D0A00000070B50546A1
:103FE00000244FF47A7603E0304600F005F8641CB4
:103FF000AC42F9D370BD000070B54FF0E024002250
:1040000065690949A36909684843A1699942FCD0D7
:1040100002D2A3EB010302E0A5EB010633441A44EC
:104020000B468242F1D370BD1000002013B5FF2370
:10403000012269460248FEF7CDFB00981CBD000036
:104040006805002010B5FDF76FFAFFF749F9FEF794
:1040500073FEFEF78DFFFEF7AFFFFEF7C9FFFEF719
:10406000E3FFFEF7FDFFFFF717F8FEF755FFFFF739
:1040700065FF002010BD10B50446002100F06CF86B
:104080002077207F40070CD5207F40F0020020776A
:10409000227F0021204600F011F9207F20F002004D
:1040A000207710BD10B50446002100F055F82077A8
:1040B0000121204600F050F86077FF20A077A27F12
:1040C0002046BDE81040022100F0F8B808B50021F4
:1040D000009103236A460C2100F023F89DF80000AC
:1040E0009DF80110000440EA01209DF802100843E9
:1040F0004011FCF744FA9FED051B53EC112BFCF724
:104100005DF9FCF760FA00EE100A08BD000000003F
:104110000000803F10B504460F2100F01DF8E07745
:1041200010BD7FB51546044601891E464068002231
:10413000FCF729FF3223012201A92068FDF727FFA0
:104140003223324629462068FDF774FE2189012278
:104150006068FCF718FF7FBD13B50446018982B083
:1041600040680022FCF70FFF3223012203A92068D8
:10417000FDF70DFF3223012269462068FDF75AFE44
:10418000218901226068FCF7FEFE9DF8000004B062
:1041900010BD70B50D4604460121FFF7DDFF6077C5
:1041A000607F65F306106077627F2046BDE870404F
:1041B000012100F083B870B50D4604460021FFF7D9
:1041C000CBFF2077207F65F3C3002077227F204636
:1041D000BDE87040002100F071B870B50D4604468E
:1041E0000021FFF7B9FF2077207F65F3C710207704
:1041F000227F2046BDE87040002100F05FB870B516
:104200000D4604460021FFF7A7FF2077207F65F3C6
:1042100082002077227F2046BDE87040002100F018
:104220004DB870B50D4604460021FFF795FF207785
:10423000207F65F300002077227F2046BDE8704094
:10424000002100F03BB870B50D4604460021FFF791
:1042500083FF2077207F65F305102077227F20469B
:10426000BDE87040002100F029B870B50D46044645
:104270000121FFF771FF6077607F65F303006077CE
:10428000627F2046BDE87040012100F017B810B5EC
:1042900004460021FFF760FF2077207F00060CD442
:1042A000207F40F040002077227F0021204600F050
:1042B00005F8207F20F04000207710BD37B5044678
:1042C0009DF80400002280308DF804002189606888
:1042D000FCF759FE3223012201A92068FDF757FEA1
:1042E0003223012202A92068FDF751FE2189012213
:1042F0006068FCF748FE3EBDF0B5AA23B024002656
:104300000B704C708B1C354650F825706D1C3FBAF5
:1043100043F8047B1C2DF7DB5FF0000500EB8507FD
:104320006D1C3F6F0E2D3FBA43F8047BF6DB002572
:1043300000EB85076D1CD7F8A870022D3FBA43F833
:10434000047BF5DB0020A31C0D5C401C3544EEB261
:104350009842F9D30819E41C86701460F0BD00007F
:104360000000000000000102030406070809000025
:104370000000010203040000984300080000002030
:1043800034040000380800081847000834040020EE
:10439000C4060000A036000832018210032124F474
:1043A000138804122045100240081908393C1908E6
:1043B000DA042042401420024029291910AA2020A2
:1043C0005A1C4019083938AD1402408020191011C8
:1043D00032022C08024007391029A99940392019C6
:1043E0000839382910598139201A04102919290847
:1043F000298919203990A92029B929382958291043
:1044000059A1187EF0924B10E188DD3FACA3AA2998
:10441000110AEA3FC5D539AB353C923F46ED721AD9
:1044200052882BBFD882635C2C92F9BE7955C87133
:10443000176D9EBE10FF38BC3282693E80E258EB99
:10444000CE28DE3F7930C0BE13EDE93FB9369EA0DD
:10445000FD37923FD187905A258D2ABF50BFAA4180
:10446000382AF9BE0FD3A82561599EBE578F819D6A
:10447000EFBC683E308E5DFF4D7BDD3F6B4192624D
:104480004670182743F5C024CB23923F4CC793F9BD
:10449000D4C92BBF03106D6ED47AF9BE912DE9CC2F
:1044A00036169EBE9BA95DB2016570181692498FA3
:1044B0006AF4DD3FAFE6531FADE7E93F6E6AF515DD
:1044C0003E3338102D48A123D1662ABF22A11E7B7E
:1044D000E910F9BE88A0F5D4B4469EBE69E771DC48
:1044E000A889683E90201A950F8EDD3F6F6F5A099C
:1044F0000518F8EA3F119A24209220923F27C267BC
:10450000B921982BBF34DC7C256E63F9BEFB87D6BE
:104510005373019EBE316DED4D7745693E406BE2B0
:104520006C9267DD3F844BBBDE8704EA3FD0D64BFD
:10453000CA9627923FEA11DBE18D862BBF22791BB9
:10454000E1C167F9BE5390CF3884249EBE37B8B618
:10455000D32236693E6077D9A84A63DD3F204523E0
:10456000C0BBFAE93FF32BFFAD3528923FF13EE3A4
:10457000EB5F542BBF3576D9A9C957F9BEF5721335
:104580002277199EBE730A58337A29693E2011D2C8
:104590007D4C9DDD3FB09D21AFA6FCE93F2160C968
:1045A000689322923FB4EEC0B138622BBF28FFCC93
:1045B000128A52F9BE31BC78E7FA0A9EBE09AA6493
:1045C00061991F693EF0229298986ADD3F1D835FD2
:1045D00064F1FDE93FA4CCB56A2E2C923F5618E752
:1045E000669E5D2BBF83812D35AAE02F3279E51BB6
:1045F000B73370182C24163F31693E90EE6FF6EEFB
:104600009FDD3F24F2A078FAF9E93F0B06CBCF55A6
:104610002E923FD51FA90F93242BBF292593BB5B57
:10462000701816E44279213B3C9EBE3ADBB561A28C
:104630000D693EE0DDF6C2FEE0181E4A7F7AF069A1
:10464000FFE93FDCA0ACB1A229923F28E6996208BD
:104650006D2BBF840355ACA670180E6E1C686B746E
:10466000299EBE233CD320FF701450123F1872D0F5
:10467000E7DD3FB8A3C2808EF2E93FB1BB0E9A9747
:1046800023923F04B41C4BF6042BBF445850CF5C1C
:1046900031F9BE2D2FA13C28119EBE650433684B15
:1046A000DA683EA068CF3C2D8DDD3FFE7A21967CF6
:1046B00007EA3FD7A83E69C038923FC59F3CF0E962
:1046C000802BBFCF9474A49F8AF9BE819BA5670EEF
:1046D0006A9EBE94D99462FB6E693E709B0764EE3D
:1046E000381023AA1C7BC35F04EA3FA19EAE348727
:1046F0003E923FB416DC69383E2BBFA695B9537580
:104700007AF9BEAB33000E1489BB7C9EBEFC2144FB
:0847100086E646693E00000048
:04000005080001AD41
:00000001FF
