:020000040800F2
:10000000380700246D0300083F270008B9250008C1
:100010003D27000873040008572D00080000000069
:10002000000000000000000000000000432700085E
:100030009906000800000000412700084527000835
:100040008703000887030008870300088703000868
:100050008703000887030008870300088703000858
:100060008703000887030008870300087504000859
:100070008703000887030008870300088703000838
:100080008703000887030008870300088703000828
:100090008703000887030008870300088703000818
:1000A0008703000887030008870300088703000808
:1000B00087030008870300088703000887030008F8
:1000C00087030008870300088703000887030008E8
:1000D00087030008870300088703000887030008D8
:1000E000870300088703000800000000870300085A
:1000F00087030008870300088703000887030008B8
:1001000087030008870300088703000887030008A7
:100110008703000887030008870300088703000897
:100120008703000887030008870300088703000887
:100130008703000887030008870300088703000877
:1001400000000000000000000000000000000000AF
:100150008703000887030008870300088703000857
:100160008703000887030008870300088703000847
:1001700087030008870300088703000800000000C9
:100180008703000887030008870300088703000827
:100190008703000887030008870300088703000817
:1001A0008703000887030008870300080000000099
:1001B00087030008870300088703000887030008F7
:1001C000870300088703000800000000000000000B
:1001D000000000000000000087030008000000008D
:1001E000000000000000000000000000000000000F
:1001F00000000000000000008703000887030008DB
:100200008703000887030008000000008703000838
:100210008703000887030008870300088703000896
:1002200087030008000000008703000800000000AA
:100230008703000887030008000000008703000808
:100240008703000887030008870300088703000866
:100250008703000887030008870300088703000856
:100260008703000887030008870300088703000846
:1002700087030008870300088703000800000000C8
:100280008703000887030008870300088703000826
:10029000000000008703000887030008000000003A
:1002A0000000000087030008870300088703000898
:1002B00087030008870300088703000887030008F6
:1002C00087030008870300088703000800F002F88E
:1002D00000F03CF80AA090E8000C82448344AAF1A4
:1002E0000107DA4501D100F031F8AFF2090EBAE8A2
:1002F0000F0013F0010F18BFFB1A43F0010318475A
:10030000A82B0000C82B0000103A24BF78C878C181
:10031000FAD8520724BF30C830C144BF04680C600B
:10032000704700000023002400250026103A28BF53
:1003300078C1FBD8520728BF30C148BF0B60704757
:100340001FB502F09FFD1FBD10B510BD00F058F89D
:100350001146FFF7F5FF02F011FD00F076F803B447
:10036000FFF7F2FF03BC00F07DF80000094880476A
:1003700009480047FEE7FEE7FEE7FEE7FEE7FEE787
:10038000FEE7FEE7FEE7FEE704480549054A064B9F
:1003900070470000DD270008CD0200083801002466
:1003A0003807002438030024380300244FF00002EB
:1003B00000B5134694469646203922BFA0E80C505B
:1003C000A0E80C50B1F12001BFF4F7AF090728BF36
:1003D000A0E80C5048BF0CC05DF804EB890028BFB2
:1003E00040F8042B08BF704748BF20F8022B11F0DB
:1003F000804F18BF00F8012B704770477047704757
:10040000754600F02BF8AE4605006946534620F0CD
:100410000700854618B020B5FFF7B6FFBDE82040BD
:100420004FF000064FF000074FF000084FF0000BB0
:1004300021F00701AC46ACE8C009ACE8C009ACE863
:10044000C009ACE8C0098D46704710B50446AFF34B
:1004500000802046BDE81040FFF781BF004870478C
:10046000D800002401491820ABBEFEE72600020098
:100470007047FEE7014800F013B900006000002457
:10048000294A016891423AD0274A1832914236D01F
:10049000254A3032914232D0234A483291422ED0FE
:1004A000214A603291422AD01F4A7832914226D0A6
:1004B0001D4A9032914222D01B4AA83291421ED04E
:1004C0001A4A91421BD0194A1832914217D0174A42
:1004D0003032914213D0154A483291420FD0134A1C
:1004E000603291420BD0114A7832914207D00F4AC4
:1004F0009032914203D00D4AA832914211D1CAB232
:100500001823103AB2FBF3F26FF30901032A02F049
:100510000703074AD25CC26500D9091D81650846F8
:10052000704721F0FF01F9E710000240100402407B
:100530008E2E000830B5224A012301689142CAB2CA
:100540001BD01F4C1434A14217D01D4C2834A1429B
:1005500013D01B4C3C34A1420FD0194C5034A14253
:100560000BD0174C6434A14207D0154C7834A1420B
:1005700003D0134C8C34A1420CD11421114C083AF5
:10058000B2FBF1F10F4A803201F01F0504EB81014B
:10059000AB4010E00C4D1824103A0D44B2FBF4F1BE
:1005A000A82D00D80831094A01F01F0402EB81018F
:1005B000064AA3408032603080E80E0030BD000063
:1005C0000854025800580258F0FBFDBF00080240D2
:1005D00010B50279531E072B2DD8174C0168A14284
:1005E0001BD0154C1434A14217D0134C2834A1420F
:1005F00013D0114C3C34A1420FD00F4C5034A142C7
:100600000BD00D4C6434A14207D00B4C7834A1427E
:1006100003D0094C8C34A14203D10849074C443122
:1006200002E00749064C443104EB8202C0E91B2179
:1006300001219940416710BD08540258FC580258E6
:10064000FC08024010B583694FF0C074826A01460D
:10065000002053B1B3F5005F15D072B1012A0CD060
:10066000022A0AD0032A09D104E01AB1012A06D0CD
:10067000022A03D1C96AC90100D5012010BDC96A87
:10068000A142FAD010BD002AF7D0012AF2D0022AE6
:10069000F3D0032AF3D010BD704772B6FEE7000016
:1006A0002DE9FC5F0446F74E0020DFF8D883009068
:1006B0004FF41652F44808F11808A56DDFF8C493FA
:1006C000DFF8C0A3016809F1300920680AF1480A7F
:1006D000B1FBF2F1B04201912F68D5F800C0DFF80C
:1006E000ACB335D04146884232D0484530D0504531
:1006F0002ED058452CD0E5491831884228D0E349FE
:100700003031884224D0E1494831884220D0E04944
:1007100088421DD0DE491831884219D0DC49303179
:10072000884215D0DA494831884211D0DFF860E3B9
:100730000EF1600E70450BD0D54A7832904207D04A
:10074000D34B9033984203D0D149A83188427DD110
:1007500094F85C20082102F01F0201FA02F23A42EA
:100760004AD0B04232D0404530D048452ED05045D6
:100770002CD058452AD0C54A1832904226D0C34AB8
:100780003032904222D0C14A483290421ED0C04AF4
:1007900090421BD0BE4A1832904217D0BC4A303229
:1007A000904213D0BA4A483290420FD0B84A6032D1
:1007B00090420BD0B64A7832904207D0B44A903279
:1007C000904203D0B24AA832904203D1026802F0AC
:1007D000040202E0026802F008026AB1026822F034
:1007E0000402026094F85C0000F01F008140A960E0
:1007F000606D40F00100606594F85C00012100F03C
:100800001F008140394240D02068B04234D040457A
:1008100032D0484530D050452ED058452CD09B4A38
:100820001832904228D0994A3032904224D0974AC8
:100830004832904220D0964A90421DD0944A1832B5
:10084000904219D0924A3032904200E0AFE113D08A
:100850008F4A483290420FD08D4A603290420BD07E
:100860008B4A7832904207D0894A9032904203D026
:10087000874AA83290427DD1406910F0800F04D0A1
:10088000A960606D40F00200606594F85C0004218E
:1008900000F01F00814039423ED02068B04232D083
:1008A000404530D048452ED050452CD058452AD010
:1008B000764A1832904226D0744A3032904222D082
:1008C000724A483290421ED0714A90421BD0704A00
:1008D0001832904217D06E4A3032904213D06C4A90
:1008E000483290420FD06A4A603290420BD0684A38
:1008F0007832904207D0664A9032904203D0644AE0
:10090000A83290424ED1006810F0020F04D0A960C6
:10091000606D40F00400606594F85C00102100F008
:100920001F008140394258D02068B04234D0404541
:1009300032D0484530D050452ED058452CD0534A5F
:100940001832904228D0514A3032904224D04F4A37
:100950004832904220D04E4A90421DD04C4A183224
:10096000904219D04A4A3032904215D0484A483213
:10097000904200E014E00FD0454A603290420BD024
:10098000434A7832904207D0414A9032904203D095
:100990003F4AA832904207D1006800F0080006E004
:1009A000006872E70068B7E7006800F00400A0B1D3
:1009B000A96020680168490304D50068000308D5D0
:1009C000A16C07E00168C90503D4016821F00801A2
:1009D0000160216C09B12046884794F85C00202111
:1009E00000F01F008140394279D02068B04232D0F7
:1009F000404530D048452ED050452CD058452AD0BF
:100A0000224A1832904226D0204A3032904222D0D8
:100A10001E4A483290421ED01D4A90421BD01C4AAA
:100A20001832904217D01A4A3032904213D0184AE6
:100A3000483290420FD0164A603290420BD0144A8E
:100A40007832904207D0124A9032904203D0104A36
:100A5000A832904203D1006800F0100002E0006864
:100A600000F00200B0B3A96094F8350004282068B3
:100A700001680FD049037ED5006800032BD4616C58
:100A80002AE00000100002400C0000247000024028
:100A90001004024021F0160101602068416921F034
:100AA00080014161206C08B9A06C20B12068016808
:100AB00021F00801016094F85C303F21012003F02F
:100AC0001F0300229940A96084F8350084F834207F
:100AD000216D65E003E0E16B09B120468847606D58
:100AE00000287DD0606DC00759D02068042184F8AB
:100AF0003510B0422BD0404529D0484527D050452D
:100B000025D0584523D09D49884220D09B49183193
:100B100088421CD099493031884218D0984988427F
:100B200015D097491831884211D095493031884203
:100B30000DD093494831884209D0914960318842AB
:100B400005D08F497831884201D08D4990310168B4
:100B500021F00101016020680099019A491C00916F
:100B6000914202D80168C907F6D10068C00710D0C9
:100B700003200FE0FFE70168C905ACD40368012139
:100B8000002223F01003036084F8351084F8342029
:100B9000A1E7012084F83500002084F83400E16CDE
:100BA00000291DD002B02046BDE8F05F0847754916
:100BB00088421DD073491431884219D071492831B7
:100BC000884215D06F493C31884211D06D4950316F
:100BD00088420DD06B496431884209D0694900E0F0
:100BE00084E07831884203D066498C3188427DD1D7
:100BF00094F85C800427016808F01F0807FA08F7DA
:100C000017EA0C0F009746D04F0744D500980F0401
:100C1000686003D5C8033CD4A16CC1E7880638D40A
:100C20002068B0422DD055496039884229D04845C6
:100C300027D0504525D0584523D05049884220D050
:100C40004E49183188421CD04C493031884218D066
:100C50004B49884215D04A491831884211D0484939
:100C6000303188420DD046494831884209D070451C
:100C700007D0904205D0984203D04149A83188421C
:100C800003D1016821F0080102E0016821F00401AC
:100C90000160216C84E7022707FA08F717EA0C0FB6
:100CA00000974ED08F074CD500980F04686003D58D
:100CB000C80344D4616C73E7880640D42068B0420E
:100CC0002FD02E49603988422BD0484529D0504535
:100CD00027D0584525D02949884222D027491831A4
:100CE00088421ED025493031884200E044E018D0C7
:100CF0002349884215D022491831884211D0204911
:100D0000303188420DD01E494831884209D07045A3
:100D100007D0904205D0984203D01949A8318842A3
:100D200003D1016821F0140102E0016821F00A01F9
:100D30000160012184F83510002084F83400E16B53
:100D40002EE7082202FA08F212EA0C0F14D0090763
:100D500012D5016821F00E01016094F85C100120A9
:100D6000002201F01F0100FA01F16960606584F85A
:100D7000350084F8342012E7BDE8FC9F880002406B
:100D800010040240085402582DE9F05F044600F0B8
:100D9000EDFA002C07467DD0E24E022120684FF08C
:100DA0000308DFF884934FF00005DFF880A3B0421A
:100DB000DFF87CB334D0DB4A1832904230D048455B
:100DC0002ED050452CD058452AD0D94A18329042BE
:100DD00026D0D74A3032904222D0D54A483290426B
:100DE0001ED0D44A90421BD0D24A1832904217D01B
:100DF000D04A3032904213D0CE4A483290420FD07F
:100E0000CC4A603290420BD0CA4A7832904207D026
:100E1000C84A9032904203D0C64AA83290427DD14F
:100E200084F83510B04284F834502ED0BD491831C2
:100E300088422AD0484528D0504526D0584524D04D
:100E4000BB491831884220D0B949303188421CD082
:100E5000B7494831884218D0B649884215D0B549BB
:100E60001831884211D0B349303188420DD0B14990
:100E70004831884209D0AF496031884205D0AD4938
:100E80007831884201D0AB499031016821F00101ED
:100E9000016008E025E100BF00F068FAC01B0528EA
:100EA00001D920211AE120680068C007F4D1D4E9F3
:100EB00002032168103418438E4694E88410D4E964
:100EC000033809683A4310439B4A40EA0C006769BB
:100ED00018431140103C40EA0800042F40EA01008A
:100EE00003D1D4E90B12114308436168A1F129022F
:100EF000052A0BD9163A032A08D9083A012A05D936
:100F0000083A032A02D97439032901D840F4801021
:100F1000CEF800002068676A406900E020E0042FF6
:100F200020F0070047EA00070DD1D4E90A01074382
:100F300049B12046FFF786FB28B1402060650121BA
:100F400084F83510CDE0206847612046FFF798FA15
:100F500094F85C203F2102F01F029140816055E02F
:100F6000764A90421BD0754B1433984217D0734B7E
:100F70002833984213D0714B3C3398420FD06F4BBB
:100F8000503398420BD06D4B6433984207D06B4B73
:100F90007833984203D0694B8C3398427ED184F8E1
:100FA000351084F83450664B0168A26801EA030EDC
:100FB000402A74D0802A73D05FF00002D4E903780D
:100FC000D4E9053142EAD70242EAD8085B4AD4E9BB
:100FD000077C48EAD30848EAD10141EAD7015242E6
:100FE00041EA1C11142341EA0E01016020681044FB
:100FF000B0FBF3F08000E0652046FFF741FA94F87B
:101000005C20012102F01F02914041602068B04243
:1010100057D044491831884253D0484551D05045A3
:101020004FD058454DD042491831884249D04049A7
:101030003031884245D03E494831884241D03D490F
:1010400088423ED03B49183188423AD03949303144
:10105000884236D037494831884232D035496031EC
:1010600088422ED03349783188422AD03149903194
:10107000884226D02F49A831884222D02F49884261
:101080001FD02E49143188421BD02C492831884268
:1010900017D02A493C31884213D002E01DE017E006
:1010A00018E02649503188420BD0244964318842E7
:1010B00007D022497831884203D020498C318842B8
:1010C00029D12046FFF736FAA06880280CD00CE022
:1010D000102273E74FF4804270E74021616584F885
:1010E00035800120BDE8F09F6560216E20790860A1
:1010F000D4E9190141606068401E072808D82046DD
:10110000FFF766FAE06E0560D4E91C01416002E079
:10111000E566256765670120656584F83500002070
:10112000E0E700001000024040000240580002408A
:1011300070000240100402403F8010FE0854025824
:101140000F00FEFF2DE9F84F03247A4D00234FF0E6
:1011500001094FF0B04B4FF00F0AE4E009FA03F633
:10116000324078D00F7907F00307012F01D0022F0A
:101170001AD187684FEA430ED1F80CC004FA0EF872
:1011800027EA08070CFA0EFC4CEA070CC0F808C066
:10119000476891F804C0B743CCF3001C0CFA03FC79
:1011A0004CEA070CC0F804C00E79F643B6070BD022
:1011B000C6684FEA43088F6804FA08FC26EA0C0662
:1011C00007FA08F73743C7600E7906F00306022EC8
:1011D00012D1DE080F694FEA437C00EB8606B64663
:1011E000366A4FEADC6C0AFA0CF807FA0CF726EAC2
:1011F00008063743CEF820700F7906684FEA430897
:1012000007F0030704FA08FC07FA08F726EA0C06B9
:10121000374307604E6816F4403F1CD0464E37688F
:1012200047F00207376036689F0706F0020600960F
:1012300023F0030606F1B046B6463F0FD6F8086421
:10124000DFF8F8800AFA07FC404526EA0C0603D1CD
:101250004FF0000C3AE065E0DFF8E4C0604502D1F1
:101260004FF0010C32E0DFF8DCC0604502D14FF0F6
:10127000020C2BE0DFF8D0C0604502D14FF0030C28
:1012800024E0DFF8C8C0604502D14FF0040C1DE037
:10129000DFF8BCC0604502D14FF0050C16E0DFF866
:1012A000B4C0604502D14FF0060C0FE0DFF8A8C0D3
:1012B000604502D14FF0070C08E0DFF8A0C06045A0
:1012C00002D14FF0090C01E04FF00A0C0CFA07FCB8
:1012D0004CEA060CCEF808C44F68DBF80060FF0249
:1012E00026EA020600D516435F46CBF80060D1F827
:1012F00004C0DBF804605FEA8C2C26EA020600D505
:1013000016437E606E684F6826EA0206BF0300D56A
:1013100016436E602E684F6826EA0206FF0300D56A
:1013200016432E605B1C0A6832FA03F67FF416AF90
:10133000BDE8F88F80000058F444025800000258BD
:101340000004025800080258000C0258001002580D
:101350000014025800180258001C025800240258B9
:101360000AB1816170470904FBE700000148806809
:101370007047000000000024024881680278114490
:101380008160704700000024032010B500F0D4F8FD
:1013900000F03CFA0F4A104914681368C4F30322A2
:1013A00003F00F038A5CC95C02F01F0201F01F0109
:1013B000D0400A4A20FA01F11160094908600F2063
:1013C00000F010F808B1012010BD00F079F80020FD
:1013D00010BD000018440258962E0008100000248A
:1013E0000C00002470B50D4D04462878A0B14FF4D0
:1013F0007A71B1FBF0F00A490968B1FBF0F000F036
:1014000034FD48B9102C07D200222146501E00F0AE
:1014100073F800206C6070BD012070BD00000024D6
:101420000C000024154BF0B5083B427813491A60B4
:101430000B680A1F23F001030B6043681360057BF0
:10144000C67A827A437B2D07847B45EA0665C77B93
:1014500090F809C0067A90F800E045EAC24040EAF8
:10146000834040EA444040EA074040EA0C2040EA1A
:10147000460040EA0E000860F0BD0000A0ED00E06C
:10148000BFF35F8F044800210368034A23F48033CD
:10149000036070321160704724ED00E0074A40F0AD
:1014A0000100064970321060086840F4803008601E
:1014B000BFF34F8FBFF36F8F7047000024ED00E044
:1014C000054808B5016841F002010160006800F0BC
:1014D0000200009008BD0000F4440258002809DB17
:1014E000410900F01F028900012001F1E021904034
:1014F000C1F80001704700000E4BF0B41B680D46A8
:10150000C3F30223C3F10706042E00D90426191DD4
:10151000072901D2002300E0DB1E012404FA06F1B2
:101520009C40491E2940641E994014402143F0BC50
:1015300001F012BC0CED00E0064900F0070210B506
:101540004FF6FF040868044B204040EA022018438D
:10155000086010BD0CED00E00000FA05134970B5FD
:101560000A68D243520705D5096801F00701814294
:1015700013D118E00A6822F0070202430A60FFF75D
:10158000F5FE0A4D4FF47A760446083D07E000BFA9
:10159000FFF7ECFE001BB04201D9012070BD2868A6
:1015A000C0438004F4D4002070BD00000C480258F1
:1015B0002DE9F05F04000F467ED0DFF83882D8F8BE
:1015C000000000F00F00B8420CD2D8F8001021F053
:1015D0000F013943C8F80010D8F8000000F00F00E0
:1015E000B84269D12078844D40070AD5206929681E
:1015F00001F07001884204D9296821F0700101438B
:10160000296020787C4E361D00070AD56069316854
:1016100001F07001884204D9316821F07001014362
:1016200031602078C0060AD5A069316801F4E06114
:10163000884204D9316821F4E061014331602078A7
:10164000DFF8B4B180060BF1080B0CD5E169584600
:10165000DBF8002002F07002914204D9026822F007
:1016600070020A430260207880070AD5E068296882
:1016700001F00F01884204D9296821F00F010143CC
:1016800029602078C0073ED05B49A26828681839D5
:1016900020F47060104328606068022818D0032886
:1016A00019D00968012819D0490700294ADADFF85A
:1016B00048A1AAF1080A00E044E0DAF8002022F08C
:1016C00007020243CAF80020FFF750FE814612E0ED
:1016D00009688903E9E709688901E6E7C905E4E7DC
:1016E000FFF744FEA0EB090141F28830814202D9A4
:1016F0000320BDE8F09F6168DAF8000000F03800D0
:10170000B0EBC10FECD1207880070AD5E0682968DA
:1017100001F00F01884204D2296821F00F01014332
:101720002960D8F80010404601F00F01B9420BD9EA
:10173000016821F00F0139430160006800F00F00DB
:10174000B84201D00120D4E7207840070AD52069AB
:10175000296801F07001884204D2296821F07001E3
:1017600001432960207800070AD56069316801F0DB
:101770007001884204D2316821F070010143316068
:101780002078C0060AD5A069316801F4E06188427A
:1017900004D2316821F4E061014331602078800691
:1017A0000CD5E1695846DBF8002002F07002914246
:1017B00004D2026822F070020A43026000F026F8A8
:1017C0000E492A682B68C2F3032203F00F038A5CD8
:1017D000C95C02F01F0201F01F01D040084A20FA44
:1017E00001F111600749086007480068BDE8F05F33
:1017F000FFF7F8BD0020005218440258962E00084A
:10180000100000240C00002404000024454970B599
:1018100045480968434B103B11F0380208D00111CC
:10182000082A03D0102A0BD0182A0BD0084670BD06
:1018300019688906FBD51968C1F3C101C84070BD9C
:101840003A4870BD3749374D18310C1D24350A68A8
:10185000096826682D6802F0030406F00102C1F34E
:101860000511C5F3CC0515FB02F200EE102AB8EE07
:10187000400AE9B32F4ADFED2E0AB7EE001A6CB129
:10188000DFED2D1A012C01D0022C43D002EE101AEC
:101890001068F8EE422A81EEA22A1EE01C68A40617
:1018A00011D51B6801EE901A1168C3F3C103F8EE5D
:1018B000612AD84001EE900AC1F30800F8EE611ADF
:1018C00081EEA22A0BE001EE901ADFED1C2A00BF88
:1018D000F8EE611A106882EEA12AC0F3080001EE4A
:1018E000900AF8EE611A40EE201A31EE810A00E00B
:1018F00015E022EE000A1068C0F34620401C00EEFE
:10190000900AF8EE600A80EE201ABCEEC10A10EED2
:10191000100A70BD01EE901ADFED092AD8E7002009
:1019200070BD0000104402580090D00340787D0143
:1019300000000039304402580024744A0024744CDA
:1019400020BCBE4B2DE9F05F04007DD0FF4F207816
:10195000FE4D1837DFF8F483103DC00748D0D8F8A3
:101960000000396800F03800102815D0182803D17D
:1019700001F0030002280FD06068B0F5803F12D05C
:1019800010B1B0F5A02F18D0286820F4803028605E
:10199000286820F4802009E02868800328D5606842
:1019A0000028D2D024E0286840F4803028606068A5
:1019B00088B1FFF7DBFC064609E0286840F4802088
:1019C0002860F0E7FFF7D2FC801B64287ED82868E7
:1019D0008003F7D50CE0FFF7C9FC064605E000BF21
:1019E000FFF7C4FC801B6428F0D828688003F7D474
:1019F0002078800756D5D8F80000DFF85093396872
:101A000010F03800A9F10C090ED0182801D1880770
:101A10000AD0E068A8B3296821F0190101432960C0
:101A2000FFF7A4FC064628E02868400702D5E068D6
:101A300000288AD0E168286820F01900084328604F
:101A4000FFF794FC064606E0D2E000BFFFF78EFCED
:101A5000801B0228BAD828684007F7D5217CD9F81E
:101A6000002022F0FE4242EA0161C9F8001019E0AC
:101A7000FFF77CFC801B0228A8D828684007F7D510
:101A8000ECE7FFE7286820F001002860FFF76EFC14
:101A9000064604E0FFF76AFC801B022896D82868F7
:101AA0004007F7D42078C00646D5D8F80000DFF804
:101AB0009C92396800F03800A9F10409082812D076
:101AC000182805D101F00300012800E0CEE00AD07B
:101AD000E0690028286820D040F080002860FFF7E7
:101AE00045FC064615E02868C00502D5E069802857
:101AF0007ED194F82010D9F8002022F07C5242EADE
:101B00000161C9F8001017E0FFF730FC801B0228C4
:101B1000A0D82868C005F7D5EBE720F08000286042
:101B2000FFF724FC064604E0FFF720FC801B022898
:101B300090D82868C005F7D42078000729D58348B5
:101B40006169643000298146016811D041F00101CA
:101B50000160FFF70BFC064605E000BFFFF706FC3F
:101B6000801B022888D8D9F800008007F6D510E03D
:101B700021F001010160FFF7F9FB064605E000BF17
:101B8000FFF7F4FB801B022870D8D9F8000080070B
:101B9000F6D42078800623D5A0690028286810D0C4
:101BA00040F480502860FFF7E1FB064605E000BFE7
:101BB000FFF7DCFB801B022858D828688004F7D583
:101BC0000EE020F480502860FFF7D0FB064604E0CA
:101BD000FFF7CCFB801B022848D828688004F7D484
:101BE0002078400751D5DFF86891D9F8001000E05F
:101BF00015E141F48071C9F80010FFF7B7FB064604
:101C000005E000BFFFF7B2FB801B64282ED8D9F88F
:101C10000000C005F6D54D4EA068603601280AD0F8
:101C200008B1052813D0306820F00100306030681A
:101C300020F0040002E0306840F001003060A0684D
:101C400041F2883A98B1FFF791FB81460AE030688B
:101C500040F004003060EEE7FFF788FBA0EB0901DD
:101C6000514503D830688007F6D50EE072E0FFF7E3
:101C70007DFB814606E000BFFFF778FBA0EB090182
:101C8000514567D830688007F6D4606A00287CD058
:101C9000DFF8B8A0D8F800100AF1200A4FF6F87B58
:101CA0000AF10408C1F3C2010329AAF104096DD0A5
:101CB0000228286820F08070286003D0FFF756FBC8
:101CC000044681E0FFF752FB064604E0FFF74EFBB7
:101CD000801B022875D828688001F7D4E26A40F298
:101CE000F331386854F8283F884340EA021018431B
:101CF0003860217B4FF4FE0C22894FF0FE47208A8A
:101D00004902267D521E401EA1F5007189B2C2F320
:101D100008021143761E0CEA00400143484607EAD8
:101D200006621143CAF80010D9F8001021F0010131
:101D3000C9F80010D8F80030266A23EA0B0343EAFA
:101D4000C601C8F80010D9F8001004E01044025889
:101D50000048025835E0A26921F00C011143C9F88E
:101D600000100168E26921F002011143016001687D
:101D700041F480310160016841F400310160016883
:101D800041F480210160016801E06CE020E041F055
:101D900001010160286840F080702860FFF7E6FAD2
:101DA000044604E0FFF7E2FA001B022809D828687D
:101DB0008001F7D557E000BFFFF7D8FA001B0228D3
:101DC00002D90320BDE8F09F28688001F4D44AE0DE
:101DD00039680128DAF8000021D0A26A01F0030373
:101DE00093421CD1E26AC1F305118A4217D1216BDB
:101DF000C0F30802491E8A4211D1616BC0F346222A
:101E0000491E91420BD1A16BC0F30642491E91427B
:101E100005D1E16BC0F30660491E814201D001206B
:101E2000D0E7A16C4646D8F80000C0F3CC00814250
:101E300019D0D9F800004D4620F00100C9F8000083
:101E4000FFF794FA4FEA0007FFF790FAB842FBD089
:101E5000A26C306820EA0B0040EAC20030602868BB
:101E600040F0010028600020ACE7401EB0F1807F08
:101E700010B501D3012010BD4FF0E02460610F21A7
:101E8000601700F069FF0020A0610721216110BDEB
:101E9000F0B590F83C20012A43D0012280F83C2084
:101EA000D1E90242204ECD6922F440722243D1E9A9
:101EB000004322F480621A4322F400622243D1E9F3
:101EC000043422F480521A430B6B22F40052224352
:101ED0000C8B22F480421A43036822F4702242EAF7
:101EE0000442002422F08052B34242EA050202D0AA
:101EF0000E4DAB4210D10F8D22F4700CD1E9086267
:101F0000CD6A4CEA075121F08071314321F0007114
:101F1000114321F000522A435A6480F83C400020CB
:101F2000F0BD0220F0BD00000000014000040140AF
:101F3000F0B590F83C20012A41D0224E012480F8CF
:101F40003C40022280F83D2002681F4D5368B24297
:101F5000D2F808C001D0AA4203D14F6823F470031D
:101F60003B430F6823F070031F4357600268B2427F
:101F700019D0B2F1804F16D0144B9A4213D0144BA3
:101F80009A4210D0134B9A420DD0AA420BD0124B5A
:101F90009A4208D0114B9A4205D0114B9A4202D076
:101FA000104B9A4204D189682CF080031943916048
:101FB000002180F83D4080F83C100846F0BD02202A
:101FC000F0BD00000000014000040140000400409A
:101FD00000080040000C0040001800400040014094
:101FE00000E0004000E4004010B504464FF002025B
:101FF00049B104290ED0082913D094F847000128CC
:1020000016D0012010BD94F844000128F9D184F8BD
:1020100044200FE094F845000128F2D184F84520CF
:1020200008E094F846000128EBD184F8462001E04E
:1020300084F847200422206800F0AFFC206818498B
:10204000426C42F400424264206888421AD0B0F1E7
:10205000804F17D01349884214D01349884211D0B9
:10206000124988420ED0124988420BD01149884249
:1020700008D01149884205D01049884202D0104941
:10208000884207D181680F4A1140062906D0B1F570
:10209000803F03D0016841F001010160002010BDC4
:1020A000000001400004004000080040000C004017
:1020B00000040140001800400040014000E00040E2
:1020C00000E400400700010010B5040003D094F8BC
:1020D0003D0010B107E0012010BD002084F83C0055
:1020E000204600F023F8022084F83D002068211DDE
:1020F00000F0D4FB012084F8480084F83E0084F806
:102100003F0084F8400084F8410084F8420084F8DD
:10211000430084F8440084F8450084F8460084F8BD
:10212000470084F83D00002010BD00002DE9F84371
:10213000174980460068884227D11648016841F057
:102140000101016000684023134C4FF4807C134967
:1021500000F0010004F10C09009000200D15216031
:10216000CE14DF0189E8E1104FF44031C4E90810D2
:102170000F222046C4E90123FEF706FE08B1FEF750
:102180008CFAC8F82040C4F83880BDE8F883000015
:1021900000000140F044025860000024100002409A
:1021A00070B5044690F83C000025012814D03A4B45
:1021B000012684F83C60022084F83D002268906883
:1021C000184020F47F409060086870282FD010DC01
:1021D00010F00F0F03D022E04FF0020070BD4FEA65
:1021E0002012072A1BD2DFE802F0535353534B3916
:1021F0004100B0F1101F4BD009DCB0F5805F0FD06B
:10220000B0F5005F1ED0B0F5801F08D140E0A0F50A
:10221000801120393CD010293AD0202938D001250E
:1022200084F83D60002084F83C00284670BD4A6870
:102230002068D1E9021300F0BDFB2068816841F0FD
:10224000770109E04A682068D1E9021300F0B2FB87
:102250002068816841F480418160E1E7CA6849688B
:10226000206800F055FD2068502106E0CA684968E2
:10227000206800F05EFD2068602100F0A5FBCFE73C
:10228000CA684968206800F043FD20684021F4E7EF
:10229000226801461046F0E788FFCEFFF0B587B010
:1022A000044614216846FEF781F8144920688842E4
:1022B00022D11348016841F001010160016801F079
:1022C00001010591016841F01001016000680224DC
:1022D0000025694600F010000590032601278020A4
:1022E0008DE8F1000748FEF72DFF200269468DE8D2
:1022F000F1000548FEF726FF07B0F0BD00000140E1
:10230000E0440258000002580010025870B504461C
:1023100090F83C0000260D4601280BD0012084F8DF
:102320003C000C2A4AD007DC82B1042A20D0082ABB
:1023300006D131E0022070BD102A53D0142A63D098
:102340000126002084F83C00304670BD206800F073
:1023500045FB2068816941F008018161206881693D
:1023600021F00401816120682A698169114311E02B
:10237000206800F085FB2068816941F4006181617B
:102380002068816921F480618161206829698269FE
:1023900042EA01218161D4E7206800F0BDFB20689A
:1023A000C16941F00801C1612068C16921F00401DF
:1023B000C16120682A69C169114311E0206800F0F9
:1023C000F7FB2068C16941F40061C1612068C169FF
:1023D00021F48061C16120682969C26942EA012152
:1023E000C161AEE7206800F01FFC2068416D41F03C
:1023F000080141652068416D21F0040141652068B4
:102400002A69416D114311E0206800F047FC206803
:10241000416D41F4006141652068416D21F48061A6
:10242000416520682969426D42EA0121416588E7DA
:1024300010B5040003D094F83D0010B107E001206E
:1024400010BD002084F83C00204600F022F8022055
:1024500084F83D002068211D00F020FA012084F856
:10246000480084F83E0084F83F0084F8400084F877
:10247000410084F8420084F8430084F8440084F862
:10248000450084F8460084F8470084F83D000020A9
:1024900010BD704730B504464FF0020269B10429FF
:1024A00012D0082917D00C291CD0102921D094F85B
:1024B0004300012824D0012030BD94F83E000128BB
:1024C000F9D184F83E201DE094F83F000128F2D1B4
:1024D00084F83F2016E094F840000128EBD184F8FE
:1024E00040200FE094F841000128E4D184F8412015
:1024F00008E094F842000128DDD184F8422001E090
:1025000084F843200122206800F03AFA1E4920682E
:102510001E4A1F4B884209D0904207D0984205D0EE
:102520001C4DA84202D01C4DA84203D1456C45F475
:10253000004545642068884218D0B0F1804F15D01E
:102540001649884212D0164988420FD01549884250
:102550000CD090420AD01449884207D0984205D046
:102560001249884202D01249884207D18168114A33
:102570001140062906D0B1F5803F03D0016841F033
:1025800001010160002030BD000001400004014055
:102590000040014000440140004801400004004068
:1025A00000080040000C00400018004000E000401F
:1025B00000E4004007000100FEE70000094808B5FC
:1025C000016841F00101016000680022114600F03D
:1025D000010000900B20FEF78FFFBDE808400B20A4
:1025E000FEF77CBFD844025810B586B01421684667
:1025F000FDF7DCFE1948016841F0800101600168C7
:1026000001F080010591016841F00101016001685C
:1026100001F001010591016841F0020101600168CA
:1026200001F002010591016841F0100101600068AC
:1026300000220B4CFF2100F0100005902046FEF711
:102640008FFEFF200121002203238DE80F00694641
:102650002046FEF777FD06B010BD0000E0440258AA
:102660000004025810B59CB000241C21009414A84A
:10267000019402940394049405940694FDF796FE45
:10268000342107A8FDF792FE2B48F9222949C0E919
:102690000014C0E90242046144618461FFF714FD43
:1026A00008B1FDF7FAFF4FF48050009022486946C8
:1026B000FFF776FD08B1FDF7F0FF1F48FFF7B8FE02
:1026C00008B1FDF7EAFF20200694CDE904041A487A
:1026D00004A9FFF72DFC08B1FDF7DFFF14AB602064
:1026E0007D21042283E81300CDE91742124800221D
:1026F00014A919941A94FFF709FE08B1FDF7CDFF4C
:102700004FF4005007940894099401030A94CDE90A
:102710000B400D94CDE90F41074807A9119413947C
:10272000FFF7B6FB08B1FDF7B8FF0348FFF7B6FDAA
:102730001CB010BD0000014014000024FEE7FEE7BD
:1027400070477047FEF718BE30B59DB04C21684603
:10275000FDF72CFE202113A8FDF728FE0220FEF72E
:10276000FDFE1D48016821F440410160016800241C
:1027700001F440411B9101688904FCD502200A90B4
:1027800028230990C20301210C25CDE90012CDE9CF
:102790000B03CDE90D10CDE910540F90684612944B
:1027A000FFF7D0F808B172B6FEE740201A90082370
:1027B0000501CDE9163013ABCDE918053F21032201
:1027C00083E8160013A81146FEF7F2FE002801D098
:1027D00072B6FEE71DB030BD184802582748F0B564
:1027E000274A016841F470010160106800F00F0091
:1027F000072804D2106820F00F00C01D1060214986
:102800000020204C10340B681F4D43F001030B6077
:1028100020600B682B400B60136803F00F03072B3D
:1028200004D9136823F00F03DB1D1360154C174AFE
:102830001834174B261D371D2060124C154D2834B7
:102840003060261D3860371D23603B1D35601C1D20
:102850003A60251D2E1D1860331D226028603260ED
:1028600018600A6843F2D204064B0B4D22F4802212
:1028700060330A6018602C60F0BD000088ED00E055
:1028800000200052004402587FEDF6EA8002010168
:10289000000202020000FF01004000522DE9F04753
:1028A0002D4B4FF0804A2D4D026898422C4E2D4FF3
:1028B0002D4C09D0504507D0A84205D0B04203D0D6
:1028C000B84201D0A04205D1D1F804C022F0700274
:1028D0004CEA0202DFF894C0DFF894809842DFF8F7
:1028E000949015D0504513D0A84211D0B0420FD0CB
:1028F000B8420DD0A0420BD0604509D0404507D06A
:10290000484505D01C4DA84202D01C4DA84203D119
:10291000CD6822F440722A434D6922F080022A4396
:10292000026098428A68C2620A68826207D0A04246
:1029300005D0604503D0404501D0484501D1096923
:102940000163012141610169C90703D0016921F0D7
:1029500001010161BDE8F087000001400004004072
:1029600000080040000C004000040140004001400D
:10297000004401400048014000E0004000E4004005
:1029800010B5046A012301F01F018B409C430462CF
:102990008A40016A1143016210BD10B5046A042324
:1029A00001F00F018B409C4304628A40016A11438D
:1029B000016210BD42EA032283680A4323F47F4187
:1029C0000A43826070470000034B82681A400A4342
:1029D00042F00701816070478FFFCFFF2DE9F04F74
:1029E000DFF88480214EDFF88890DFF888B0026A33
:1029F000036AB042DFF880A022F0020C1F4F23F0E0
:102A000001020262426885698B680C6805EA080564
:102A100025F0030543EA0C0344EA050407D04845C2
:102A200005D0584503D0504501D0B84205D1CD68F6
:102A300023F008031D4325F00403B04207D04845A6
:102A400005D0584503D0504501D0B84205D122F4F5
:102A50004076D1E9055235432A4342608461496892
:102A600041630362BDE8F08F8FFFFEFF000001406D
:102A70000004014000400140004401400048014082
:102A8000F0B5DFF87CE01F4C1F4D026A036AA042DC
:102A900022F0200623F01003036242688369D1F814
:102AA00008C00F6803EA0E0323F4407E46EA0C13C5
:102AB0004EEA072601D0A84206D1CF6823F0800352
:102AC00043EA071323F04003A0420AD0A84208D0EB
:102AD0000E4CA04205D00E4CA04202D00D4CA0429C
:102AE00007D1D1E9054522F4406242EA840242EA74
:102AF000850242608661496881630362F0BD00001F
:102B0000FF8FFFFE00000140000401400040014033
:102B10000044014000480140F0B5DFF87CE01F4D63
:102B20001F4E026A036AA84222F4007723F48073DE
:102B300003624368C269D1F808C002EA0E020C6859
:102B400022F0030E47EA0C2244EA0E0401D0B04200
:102B500006D1CF6822F4006242EA072222F48062A2
:102B6000A8420AD0B04208D00E4DA84205D00E4D62
:102B7000A84202D00D4DA84207D1D1E9055623F451
:102B8000405343EA051343EA06134360C4614968AE
:102B9000C1630262F0BD00008FFFFEFF0000014034
:102BA0000004014000400140004401400048014051
:102BB000F0B5046A026A22F4805202624268C36974
:102BC00024F40054DFF848C08E680D6803EA0C0353
:102BD000104F23F4407344EA0634B84243EA052315
:102BE0000BD00D4DA84208D00C4DA84205D00C4D7D
:102BF000A84202D00B4DA84204D14D6922F4804274
:102C000042EA85124260C361496801640462F0BD12
:102C1000FF8FFFFE00000140000401400040014022
:102C20000044014000480140F0B5164F164B026ABF
:102C3000046A984222F4003524F480330362426827
:102C4000436D0E890C6803EA070344EA030445EA6E
:102C500006430BD00D4DA84208D00D4DA84205D01B
:102C60000C4DA84202D00C4DA84204D14D6922F46B
:102C7000803242EA05224260446549688165036208
:102C8000F0BD00008FFFFEFF000001400004014086
:102C9000004001400044014000480140F0B5164F9B
:102CA000164B026A046A984224F48013036222F4E9
:102CB00000144268436D0E890D6803EA070344EA75
:102CC000065443EA05230BD00D4DA84208D00D4D04
:102CD000A84205D00C4DA84202D00C4DA84204D108
:102CE0004D6922F4802242EA8522426043654968A8
:102CF000C1650462F0BD0000FF8FFFFE00000140CF
:102D000000040140004001400044014000480140EF
:102D100010B5036A046A23F00A0324F00104046274
:102D200084690B4324F0F00141EA021181610362DE
:102D300010BD10B5036A046A23F0A00324F0100448
:102D40000462846943EA011124F4704343EA0232C5
:102D50008261016210BDFEE7090700284FEA116198
:102D600004DB00F1E02080F80014704700F00F0051
:102D700000F1E02080F8141D704700001FB500240A
:102D80000094019402940394FEF77AFB01208DF8DD
:102D90000C4012228DF808208DF809404FF0105198
:102DA0008DF80D408DF800008DF80A008DF80E00AA
:102DB0008DF8014001918DF80B408DF80F006846A9
:102DC000FEF730FB0420FEF769FB2A490868800300
:102DD00011D4BFF34F8FBFF36F8F27480460BFF349
:102DE0004F8FBFF36F8F086840F400300860BFF367
:102DF0004F8FBFF36F8F0868C00322D41D48703017
:102E00000460BFF34F8F001F43F6FF7400681A4D34
:102E10001035C0F34E32C0F3C90304EA4216184617
:102E200046EA80772F60401EFAD2521EF5D2BFF3D9
:102E30004F8F086840F480300860BFF34F8FBFF3B6
:102E40006F8FFEF7A1FAFFF77FFCFFF7CDFBFFF7CF
:102E5000B5FBFFF707FC094864224FF48971C16292
:102E6000426300210648FFF715FB05480021FFF7E4
:102E7000BBF8FEE714ED00E050EF00E00000014079
:102E8000140000244FF04070E1EE100A7047000675
:102E900010160006101600000000010203040102D3
:102EA0000304060708090000C82E000800000024DB
:102EB0001400000008030008DC2E000814000024A1
:102EC0002407000024030008010000001000000097
:0C2ED000000000000090D0030090D00330
:04000005080002CD20
:00000001FF
