:020000040800F2
:100000005804002005010008231100087910000899
:1000100021110008710100087113000800000000A0
:100020000000000000000000000000002711000890
:1000300073010008000000002511000829110008C4
:100040001F0100081F0100081F0100081F01000810
:100050001F0100081F0100081F0100081F01000800
:100060001F0100081F0100081F0100081F010008F0
:100070001F0100081F0100081F0100081F010008E0
:100080001F0100081F0100081F0100081F010008D0
:100090001F0100081F0100081F0100081F010008C0
:1000A0001F0100081F0100081F0100081F010008B0
:1000B0001F0100081F0100081F0100081F010008A0
:1000C0001F0100081F0100081F0100081F01000890
:1000D0001F010008651300081F0100081F01000828
:1000E0001F0100081F0100081F010008DFF810D0E1
:1000F00000F02CF800480047B1130008AFF300806F
:10010000580400200648804706480047FEE7FEE7FF
:10011000FEE7FEE7FEE7FEE7FEE7FEE7FEE7FEE7B7
:100120008B110008ED000008D2B201E000F8012BAD
:10013000491EFBD270470022F6E710B513460A4667
:1001400004461946FFF7F0FF204610BD064C074D48
:1001500006E0E06840F0010394E807009847103497
:10016000AC42F6D3FFF7C6FFCC1E0008EC1E000819
:10017000FEE7704770B50546242000F0F9F800242A
:1001800040F6C426287800F011F9641CA4B26D1C56
:10019000B442F7D3262000F0EBF80024002000F052
:1001A00005F9641CA4B2B442F8D3BDE8704000F075
:1001B00079B810B5102000F0DBF8BDE81040012040
:1001C00000F0F4B810B5364C00220221204600F0B1
:1001D00084FA012000F07AF901220221204600F081
:1001E0007CFA012000F072F900F090F8122000F083
:1001F000BFF800F08BF8742000F0BAF8542000F03B
:10020000D5F87E2000F0B4F83B2000F0CFF80120B4
:1002100000F0AEF8F92000F0C9F8002000F0C6F8B0
:10022000002000F0C3F8112000F0A2F8012000F037
:10023000BDF8442000F09CF8002000F0B7F80C2036
:1002400000F0B4F8452000F093F8D32000F0AEF8A9
:10025000002000F0ABF8002000F0A8F8002000F02B
:10026000A5F83C2000F084F8012000F09FF8182049
:1002700000F07EF8802000F099F84E2000F078F829
:10028000002000F093F84F2000F072F8D32000F027
:100290008DF8002000F08AF8BDE8104000F036B874
:1002A0000008014010B5222000F062F8F72000F0AD
:1002B0007DF8202000F05CF8BDE8104000F026B882
:1002C00070B5242000F054F800240025FF2000F031
:1002D0006DF86D1CEDB20D2DF8D3641CE4B2D42C76
:1002E000F3D3262000F044F800250024002000F07D
:1002F0005DF8641CE4B20D2CF8D36D1CEDB2D42D66
:10030000F3D3BDE87040FFF7CDBF000010B5044C3B
:100310000821204600F0DCF90028F9D110BD0000CA
:100320000008014070B5114E0446002220213046DD
:1003300000F0D3F90025200601D5012200E00022BB
:100340008021304600F0C9F901222021304600F01A
:10035000C4F900222021304600F0BFF960066D1C70
:10036000040EEDB2082DE6D370BD00000008014078
:1003700070B50D4C054601221021204600F0ADF964
:1003800000221021204600F0A8F900220421204676
:1003900000F0A3F92846FFF7C5FF2046BDE87040EE
:1003A0000122102100F099B90008014070B50D4CF0
:1003B000054601221021204600F08FF9002210216D
:1003C000204600F08AF901220421204600F085F938
:1003D0002846FFF7A7FF2046BDE870400122102104
:1003E00000F07BB90008014072B6FEE710B590F846
:1003F00021100022022905D00421816380F82020E9
:10040000012010BD01680B6823F00E030B6001682A
:100410000B6823F001030B6090F84030C46B01219E
:1004200001FA03F3636080F8211080F82020104661
:1004300010BD000010B590F821100024022903D04F
:100440000421816301243DE001680A6822F00E0264
:100450000A6001680A6822F001020A601A4A01680B
:10046000914201D1012121E0174A1432914201D178
:1004700010211BE0144A2832914201D1891515E060
:10048000114A3C32914201D189140FE00E4A503298
:10049000914202D14FF4803108E00B4A643291421C
:1004A00002D14FF4801101E04FF08071064A083A02
:1004B0005160012180F82110002180F82010416B4B
:1004C00001B18847204610BD0800024070B50446BF
:1004D00000F008F90546601C02D004480078044486
:1004E00000F000F9401BA042FAD370BD00000020CC
:1004F0002DE9F84FDFF8B8910024A9F1040B234649
:100500000F2709F1040AABF1040EC9E00125A5404B
:100510002A40AA427DD1674ED1F804C0ACEB060850
:10052000B44532D014DCBCF1030F3AD009DCBCF185
:10053000000F2AD0BCF1010F1CD0BCF1020F31D149
:100540001DE0BCF1110F17D0BCF1120F2AD119E038
:10055000B8F5881F19D006DCB8F5803F15D0B8F57E
:10056000801F1FD111E0B8F5001F0ED0B8F5041F91
:1005700018D10AE0CB6815E0CB681B1D12E0CB68F0
:1005800008330FE0CB680C330CE08B682BB1012BE8
:100590004FF0080303D0456104E0042302E0056145
:1005A00000E00023FF2A01D8064601E000F104061E
:1005B0004FEA840501D9A5F12005D6F8008007FA95
:1005C00005FC28EA0C0803FA05F548EA0508C6F810
:1005D00000804D68ED0062D5374DAE6946F00106EA
:1005E000AE61AD6924F0030605F001050095334DB9
:1005F00006EB050CDCF80850A607360F07FA06F8DC
:1006000025EA0805DFF8B880404503D14FF000081F
:1006100017E044E0DFF8AC80404502D14FF001081C
:100620000FE0DFF8A480404502D14FF0020808E057
:10063000DFF89880404502D14FF0030801E04FF009
:10064000040808FA06F848EA0508CCF808804D685E
:10065000D9F80060ED024D4601D5164300E09643FF
:100660002E604D68DAF80060AD02554601D516439C
:1006700000E096432E604D68DBF80060AD035D46F8
:1006800001D5164300E096432E604D68DEF8006009
:10069000ED03754601D5164300E096432E60641CB9
:1006A0000D682A46E5407FF431AFBDE8F88F0000C1
:1006B0000804014000001110001002400000014039
:1006C00000080140000C01400010014000140140EE
:1006D0008068084000D0012070470AB1016170476E
:1006E0000904FBE701488068704700000000002013
:1006F0000248816802781144816070470000002040
:10070000074810B5016841F010010160032000F0B6
:1007100075F80F2000F006F800F024F8002010BD56
:100720000020024070B50D4D04464FF47A712878D0
:10073000B1FBF0F00A490968B1FBF0F000F0DCFA17
:1007400048B9102C07D200222146501E00F036F87E
:1007500000206C6070BD012070BD00000000002012
:100760000C0000200C4808B5816941F0010181614D
:10077000816901F001010091C16941F08051C161BD
:10078000C06900F0805000900448416821F0E061A9
:1007900041F00071416008BD0010024000000140BE
:1007A000002809DB00F01F02012191404009800070
:1007B00000F1E020C0F8001170470000F0B40E4BCB
:1007C0001B680C46C3F30223C3F10705042D00D9AF
:1007D0000425191D072901D2002300E0DB1E012694
:1007E00006FA05F1491E214099409E40761E1640AA
:1007F0003143F0BC00F0BDBD0CED00E0064900F057
:10080000070208684FF6FF03184040EA0220034A37
:1008100010430860704700000CED00E00000FA058E
:100820002DE9F0470F46050061D0434E306800F0D7
:100830000700B84209D2306820F007003843306022
:10084000306800F00700B84251D128683B4C81075E
:1008500012D5400703D5606840F4E06060602878F6
:10086000000703D5606840F4605060606068A96864
:1008700020F0F000084360602878C00728D068683E
:10088000012810D02168022810D0890700292EDA0B
:10089000616821F0030101436160FFF723FF804697
:1008A00041F288390DE021688903EFE78901EDE71E
:1008B000FFF718FFA0EB0801494502D90320BDE866
:1008C000F0876068696800F00C00B0EB810FEFD131
:1008D000306800F00700B8420BD9306820F00700FC
:1008E00038433060306800F00700B84201D0012082
:1008F000E5E72878400705D56068E96820F4E060FE
:10090000084360602878000706D56068296920F4EC
:10091000605040EAC100606000F038F86168084A41
:10092000C1F30311515CC8400649086006480068DD
:10093000FFF7F8FE0020C2E700200240001002404E
:10094000B21E00080C0000200400002004480549E5
:1009500000684968044AC1F30221515CC8407047ED
:100960000C00002000100240C21E00080448054987
:1009700000684968044AC1F3C221515CC84070470D
:100980000C00002000100240C21E00080E4A5168F0
:100990000E4801F00C03042B11D0082B0FD10C488A
:1009A000C1F38343C903C05C0AD55168084AC1F347
:1009B0004041921E515C054A5043B0FBF1F0704734
:1009C00004494843704700000010024000127A00BA
:1009D000A21E000800093D002DE9F84F040070D068
:1009E0002078C04DC00749D06868C0F38100012855
:1009F00007D06868C0F38100022809D16868C00385
:100A000006D52868800339D560680028E7D035E02E
:100A10006068B0F5803F0BD010B1B0F5A02F11D0B9
:100A2000286820F480302860286820F4802002E0C4
:100A3000286840F480302860606890B1FFF752FE6B
:100A400006460AE0286840F480202860F0E700BFEE
:100A5000FFF748FE801B642873D828688003F7D509
:100A60000CE0FFF73FFE064605E000BFFFF73AFE49
:100A7000801B6428F0D828688003F7D420789A4E29
:100A800080074FF001094FF0000839D5686810F071
:100A90000C0F07D06868C0F38100022809D168688C
:100AA000C00306D42868800714D52069012808D11E
:100AB00010E02069B0B1C6F80090FFF713FE0746BA
:100AC00005E00AE1FFF70EFEC01B0228C4D8286823
:100AD0008007F7D52868616920F0F80040EAC10076
:100AE00028600DE0C6F80080FFF7FCFD074604E033
:100AF000FFF7F8FDC01B022823D828688007F7D429
:100B0000207800072CD57948A169D9B1C0F80090A8
:100B1000FFF7E8FD074604E0FFF7E4FDC01B0228ED
:100B20000FD8686A8007F7D571484FF4FA5100680A
:100B3000B0FBF1F0009000BF0098411E0091FAD286
:100B40000EE080E0C0F80080FFF7CCFD074604E02F
:100B5000FFF7C8FDC01B022875D8686A8007F7D464
:100B60002078400760D5E8690027C00008D4E8690C
:100B700040F08050E861E869012700F08050009063
:100B80005C480168C90513D40168834641F480714B
:100B90000160FFF7A7FD824606E000BFFFF7A2FD58
:100BA000A0EB0A0064284ED8DBF80000C005F5D59C
:100BB000E06801280AD008B1052813D0286A20F07F
:100BC00001002862286A20F0040002E0286A40F050
:100BD00001002862E06841F2883B98B1FFF782FD8E
:100BE00082460BE0286A40F004002862EEE700BF6E
:100BF000FFF778FDA0EB0A0159455AD8286A80070B
:100C0000F6D50CE0FFF76EFD824605E0FFF76AFDC2
:100C1000A0EB0A0159454CD8286A8007F6D41FB1C9
:100C2000E86920F08050E861E06988B36968C1F341
:100C30008101022944D00228C6F8608004D0FFF761
:100C400051FD044638E034E0FFF74CFD074604E070
:100C5000FFF748FDC01B02282BD828688001F7D475
:100C6000206AB0F5803F05D16868A16820F40030A3
:100C700008436860D4E908010843696821F47411E5
:100C800008436860C6F86090FFF72CFD044606E054
:100C900025E000BFFFF726FD001B022809D82868C1
:100CA0008001F7D51BE000BFFFF71CFD001B0228E9
:100CB00002D90320BDE8F88F28688001F4D40EE043
:100CC0000128F7D06868226A00F48031914204D18B
:100CD000616A00F47010884201D00120EAE7002028
:100CE000E8E7000000100240000042428004424257
:100CF0000C0000200070004010B5401EB0F1807F55
:100D000001D3012010BD4FF0E02460610F21601776
:100D100000F02FFB0020A06107202061002010BD03
:100D200070477047F8B5016804460868CA684B699F
:100D300010F00F0F4FF0000559D003F0010602F438
:100D40009077374365D0C10705D0D10503D5616CD5
:100D500041F001016164410705D5D90703D0616CF9
:100D600041F002016164810705D5D90703D0616CA8
:100D700041F004016164010707D502F0200131430D
:100D800003D0616C41F008016164616C00293AD0C4
:100D9000800604D5900602D5204600F026FA206889
:100DA0004069616CC0F38010090700D460B320462D
:100DB00000F0F4F920684069400621D5206814301D
:100DC00050E8001F21F0400140E80012002AF5D150
:100DD000E06BA8B16D494163E06BFFF72BFB002886
:100DE00011D0E06B416B01B0BDE8F04008478306CD
:100DF0000FD593060DD52046BDE8F84000F0F5B9B3
:100E00002046FFF78EFFF8BD2046FFF78AFF656496
:100E1000F8BD266B2023012E7CD1C6067AD5D606D6
:100E200078D508684868009048694FF00206400687
:100E300040D5E16B086840680004000CE8D0A28D42
:100E40008242E5D9E085886920282DD020680C30C1
:100E500050E8001F21F4807140E80012002AF5D10B
:100E60002068143050E8001F21F0010140E8001212
:100E7000002AF5D12068143050E8001F21F040010D
:100E800040E80012002AF5D184F84230256320683A
:100E90000C3050E8001F21F0100140E80012002A39
:100EA000F5D1E06BFFF7A2FA6663A08DE18D401AE1
:100EB00081B22AE0A08DE18D401A81B2E08D002838
:100EC000A6D00029A4D022680C3252E8000F20F4EA
:100ED000907042E80007002FF5D12068143050E8E8
:100EE000002F22F0010240E80027002FF5D184F8FE
:100EF0004230256320680C3050E8002F22F01002A9
:100F000040E80023002BF5D166632046FFF708FF79
:100F1000F8BDFFE705062BD5150629D594F8410045
:100F20002128F5D1A068B0F5805F01D12069B0B16A
:100F3000206A411C2162216800784860E08C401ED4
:100F40000004000CE084E3D12068C16821F0800136
:100F5000C1602068C16841F04001C160D8E7206AE3
:100F60000088C0F308004860206A801C2062E5E722
:100F70004006CDD55006CBD5CA68204622F04002A7
:100F8000CA6084F8413000F076F8C1E78D1100089E
:100F900070B5040004D094F84100002510B106E0BB
:100FA000012070BD84F84050204600F023F8242032
:100FB00084F841002068C16821F40051C1602046D6
:100FC00000F074F92068016921F490410161206802
:100FD000416921F02A0141612068C16841F4005152
:100FE000C1606564202084F8410084F84200656394
:100FF000002070BD30B585B00024009401940294A7
:1010000003940068184988422CD11848816941F43A
:1010100080418161816901F480410491816941F0DD
:10102000040181618069124D00F0040004904FF4C6
:10103000007000900220019003200390694628462A
:10104000FFF756FA2815CDE90004694628460294B0
:10105000FFF74EFA002211462520FFF7AFFB2520AF
:10106000FFF79EFB05B030BD003801400010024084
:101070000008014070477047FEE7000070B586B079
:10108000002417480094019402940394816941F06C
:1010900020018161816901F020010491816941F0A1
:1010A0000401816180690F4E00F004000490002269
:1010B000B6213046FFF711FBB6200125CDE900052A
:1010C0000320CDE9024069463046FFF711FA0820B7
:1010D0008DE8310069463046FFF70AFA06B070BD68
:1010E00000100240000801400C4810B50A49016098
:1010F0004FF4E1314160002181600C22C160C0E900
:1011000004128161C161FFF743FF002803D0BDE8ED
:101110001040FFF769B910BD0038014010000020F1
:10112000FEE7FEE770477047FFF7E2BA30B58FB0D1
:1011300028216846FEF7FFFF14210AA8FEF7FBFFEF
:1011400001210804CDE90010002402940225049135
:10115000CDE907504FF4E01009906846FFF73CFCDA
:1011600008B172B6FEE70F20CDE90A054FF48060A2
:10117000CDE90C4002210AA80E94FFF751FB00288C
:1011800001D072B6FEE70FB030BD704710B5406AAF
:101190000021C185C184FFF7C4FD10BD01680C3179
:1011A00051E8002F22F4907241E80023002BF5D182
:1011B0000168143151E8002F22F0010241E80023B8
:1011C000002BF5D1016B012909D101680C3151E8DF
:1011D000002F22F0100241E80023002BF5D120213E
:1011E00080F8421000210163704708B590F8421062
:1011F000222901D0022008BD82684FF480539A4210
:1012000001D1016921B1816A9A421BD04AB10AE039
:101210000268816A5268C2F308020A80816A891CE6
:1012200008E0026972B10268526802F07F020A7037
:10123000816A491C8162C18D491E0904090CC1855E
:1012400003D01BE002685268F1E70168CA6822F027
:101250002002CA600168CA6822F48072CA6001680C
:101260004A6922F001024A61202180F842100021DF
:101270004163026B012A03D0FFF7FCFE002008BD8A
:10128000016301680C3151E8002F22F0100241E89F
:101290000023002BF5D101680A68D20602D50A683E
:1012A00049680091818DFFF73BFDE7E770B5044683
:1012B00000680169E26821F440511143016121692C
:1012C000A0680843616908432168CA6841F20C6359
:1012D0009A430243CA6020684169A26921F44071BF
:1012E000114341611E492068884202D1FFF73EFB4D
:1012F00001E0FFF72BFB00EBC00101EB001260687F
:1013000064218000B2FBF0F3B3FBF1F36FF0180639
:101310007343B2FBF0F5B2FBF0F605EB8305322325
:1013200003EB0515B5FBF1F5B6FBF1F605F0F0059D
:1013300005EB0615B2FBF0F6B2FBF0F0B0FBF1F0F6
:101340006FF01802504306EB800003EB0010B0FB77
:10135000F1F0216800F00F002844886070BD0000A3
:10136000003801400148FFF7DDBC000010000020FC
:10137000FEE70907090E002804DB00F1E02080F8F1
:101380000014704700F00F0000F1E02080F8141DF9
:10139000704702E008C8121F08C1002AFAD170473E
:1013A0007047002001E001C1121F002AFBD17047E5
:1013B000FFF7A6F9FFF7BAFEFFF760FEFFF794FE0E
:1013C000FEF700FFFEF77CFF03490846FEF7D2FE5A
:1013D000FEF7EFFEFEE70000DC130008FFFFFFFF53
:1013E000FFFFFFFFFFFFFFFFFFFFFFFFFFFFFFFF0D
:1013F000FFFFFFFFFFFFFFFFFFFFFFFFF807FFFFFC
:10140000FFFFFFFFFFFFFFFFFF80003FFFFFFFFF2A
:10141000FFFFFFFFFFFE00000FFFFFFFFFFFFFFFCB
:10142000FFFFF81FFF03FFFFFFFFFFFFFFFFFFF0BE
:101430007FFFE1FFFFFFFFFFFFFFFFFFC1FFFFF89F
:10144000FFFFFFFFFFFFFFFFFF87FFFFFC7C1FFF8A
:10145000FFFFFFFFFFFF1FFFFFFE71DFFFFFFFFF2B
:10146000FFFFFE3FFFFFFF87DFFFFFFFFFFFFFFCE8
:101470007FFFFFFFDFDFFFFFFFFFFFFFFCFFFFFF3F
:10148000FFFF9FFFFFFFFFFFFFF9FFFFFFFFFE3F93
:10149000FFFFFFFFFFFF0BFFFFFFFFF80FFFFFFF47
:1014A000FFFFFC03FFFFFFFFF9C3FFFFFFFFFFF894
:1014B000F3FFFFFFFFFFF1FFFFFFFFFFF3FFFFFF62
:1014C000FFFFFFF87FFFFFFFFFF3FFFFFFFFFFFFBF
:1014D000FC3FFFFFFFFFF3FFFFFFFFFFFFFF3FFFAB
:1014E000FFFFFFF3FFFFFFFFFFFFFF9FFFFFFFFF78
:1014F000F8FFFFFFFFFFFFFF8FFFFFFFFFF81FFF5A
:10150000FFFFFFFFFFC7FFFFFFFFFE3FFFFFFFFFE4
:10151000FFFFE7FFFFFFFFFF3FFFFFFFFFFFFFF3BF
:10152000FFFFFFFFFE7FFFFFFFFFFFFFF0FFFFFF5B
:10153000FFFE7FFFFFFFFFFFFFF03FFFFFFFFCFF0E
:10154000FFFFFFFFFFFFFB0FFFFFFFFCFFFFFFFBA6
:10155000FFFFFFFFC7FFFFFFFCFFFFFFF3FFFFFFE2
:10156000FFE7FFFFFFFCFFFFFFC3FFFFFFFFE7FFFA
:10157000FFFFF9FFFFFF9FFFFFFFFCE7FFFFFFF902
:10158000FFFFFFBFFFFFFFFC0FFFFFFFF9FFFFFFA4
:10159000F3FFFFFFFC7FFFFFFFF9FFFFFFC7FFFF28
:1015A000FFFEFFFFFFFFF9FFFFFFFFFFFFFFFEFF53
:1015B000FFFFFFF9FFFFFFE3FFFFFFFE7FFFFFFFDE
:1015C000F9FFF3FFFFFFFFFFFE7FFFFFFFF9FFE7DC
:1015D000E0FFFFFFFFFE7FFFFFFFF9FFCFC07FFFB0
:1015E000FFFFFE7FFFFFFFF9FF9FC87FFFFFFFFEAA
:1015F0007FFFFFFFF9FF9F997FFFFFFFFE7FFFFF48
:10160000FFF9FFFF927FFFFFFFFE7FFFFFFFFCFF61
:10161000FF82FFFFFFFFFE7FFFFFFFFCFFFFC0FF1A
:10162000FFFFFFFE1FFFFFFFFCFFFFE1FFFFFFFFCC
:10163000FE07FFFFFFFCFFFFFFFFFFFFFFFFF3FFC2
:10164000FFFFF07FFFFFE7FFFFFFFFF3FFFFFFE07C
:101650007FFFFFF3FFFFFFFFE3FFFFFFCF7FFFFFF2
:10166000F1FFFFFFFC07FFFFFF9FFFFFFF81BFFFB1
:10167000FFF80FFFFFFFDFFFFFFF01BFFFFFFCFFD2
:10168000FFFFFFCFFFFFFFE3BFFFFFF9FFFFFFFFFC
:10169000C7BFFFFFE7FFFFFFF1FFFFFFFFE03FFFD7
:1016A000FFFFFFFFFFF3FFFFFFFFF06F7FC3FFFFB1
:1016B000FFFFE7FFFFFFFFFFE77F81FFFFFFFFCF98
:1016C000FFFFFFFFFFF33F00FFFFFFFF9FFFFFFF55
:1016D000FFFFF33F6CFFFFFFFE3FFFFFFFFFFFF940
:1016E000FF0CE7FFFFF87FFFFFFFFFFFF87F88FF9A
:1016F000FFFFE0FFFFFFFFFFFFFC3FC1FFFFFF0316
:10170000FFFFFFFFFFFFFE0FF7E7FFF80FFFFFFFF1
:10171000FFFFFFFF83FF87E5E07FFFFFFFFFFFFF86
:10172000FFC0FFFF04E7FFFFFFFFFFFFFFFFF00326
:10173000E01EF3FFFFFFFFFFFFFFFFFE00007E7BC9
:10174000FFFFFFFFFFFFFFFFFFE007FF33FFFFFF8C
:10175000FFFFFFFFFFFFFFFFFF07FFFFFFFFFFFF91
:10176000FFFFFFFFFFFF8FFFFFFFFFFFFFFFFFFFF9
:10177000FFFFFFFFFFFFFFFFFFFFFFFFFFFFFFFF79
:10178000FFFFFFFFFFFFFFFFFFFFFFFFFFFFFFFF69
:10179000FFFFFFFFFFFFFFF000FFFFFFFFFFFFFF67
:1017A000FFFFFFFF00003FFFFFFFFFFFFFFFFFFF07
:1017B000F807FE0FFFFFFFFFFFFFFFFFFFE07FFFC8
:1017C00083FFFFFFFFFFFFFFFFFFC3FFFFE1FFFFFF
:1017D000FFFFFFFFFFFFFF0FFFFFF8FFFFFFFFFF10
:1017E000FFFFFFFE1FFFFFFC7FFFFFFFFFFFFFFF6D
:1017F000F87FFFFFFE43FFFFFFFFFFFFFFF8FFFF44
:10180000FFFF00FFFFFFFFFFFFFFF1FFFFFFFF3EB6
:101810003FFFFFFFFFFFFFE3FFFFFBFFFF1FFFFF98
:10182000FFFFFFFFC7FFFFF3FFFFDFFFFFFFFFFF2C
:10183000FF8FFFFFE7FFFFCFFFFFFFFFFFFF9FFFD0
:10184000FFECFFF9C1FFFFFFFFFFFF1FFFFFF9FFE5
:101850003BD07FFFFFFFFFFF3FFFFFF3FF019E3FF6
:10186000FFFFFFFFFE7FFFFFF6FFA0071FFFFFFF49
:10187000FFFE7FF83FFCFFBE90003FFFFFFFFCFF35
:10188000F1FFF9FFBFB4007FFF8007FCFFE7FFFF18
:10189000FFBFB7FF7FFC0001FDFFCFFFFFFFBFA72A
:1018A000FF7FF07FF039FFDFFF0FFF9FFFFF3FC794
:1018B000FFFE09FFDFFE07FF9FFFFF3FCFFFFFC3D4
:1018C000FFDFFEC7FF9FFFFF3FDFFFFFF3FFFFFDCF
:1018D000C7FF9FFFFF3FCFFFFFFFFFFFFCD7FF9F2B
:1018E000FFFF3FE3FFFFFFFFFFFE07FF9FFFFF3FFD
:1018F000F03FFFFFFFFFFF07FF9FFFFF3FFC007F61
:10190000FFFFFFFF9FFF9FFFFFBFFFC003FFFFFF22
:10191000FFFC7F9FFFFF9FFFFFC003FFFFFFFC3F18
:101920009FFFFF9FFFFFFE01FFFFFFFF0FCFFFFFA6
:101930009FFFFFFFF9FFFFFFFF2FC7FFFF9FFFFF85
:10194000FFFDFFFFFFFC7F41FFFF8FFFE00018FF5F
:10195000FFFFFC3F19FFFF87F8000001FFFFFFFFBB
:101960003FDFFFFF83C03FFF87FFFFFFFFBFDFFFBA
:10197000FF998FFFFFFFFFFFFFFF27DFFFFF9D3F67
:10198000FFFFFFFFFFFFFF77DFFFFF993FFFFFFF35
:10199000FFFFFFFFF7DFFFFFD39FFFFFFFFFEFFF1B
:1019A0001FFF9FFFFFC38FFFFFFFFFEFFE0FFF9F94
:1019B000FFFF83C3FFFFF7FFEFFCA7FFBFFFFE0B97
:1019C000E07FFFC7FFCFFCA7FFBFFFE009FC0000DF
:1019D0000FFFEFFEB7FF802003C3FF00003F7FE74C
:1019E000FE27FF8007FF87FFFFCFFE7FE7FF07FF90
:1019F000FFFFFF9FFFFFFFFF3FF3FFDCFFFFFFFF46
:101A00009FFFFFFFFF3FF9FFF9FFFFFFFF3FFFFFD2
:101A1000FFFF3FF8FFFBFFFFFFFF3FFFFFFFFF1F41
:101A2000FC7FFC7FFFFFFE7FFFFFFFFF9FFE0FF8A5
:101A3000FFFFFFFCFFFFFFFFFF8FFF87FBFFFFFFA5
:101A4000F8FFFFFFFFFFCFFFFFFEFFFFFFF9FFFFE4
:101A5000FFFFFFC7FFFFF8FFFFFFF3FFFFFFFFFFE1
:101A6000E3FFFFFFFFFFFFE3FFFFFFFFFFF3FFFFCA
:101A7000FFFFFC3F83FFFFFFFFFFF1FFFFFFFFFCC6
:101A80001E1FFFFFFFFFFFF8FFFFFFFFF9D87FFFDB
:101A9000FFFFFFFFF87FFFFFFFFDC1F3FFFFFFFF29
:101AA000FFFC3FFFFFFF3FDFFFFFFFFFFFFFFE0FDA
:101AB000FFFFFC3F9EFFFFFFFFFFFFFF07FFFFF958
:101AC000BFBADFFFFFFFFFFFFFC0FFFFE19F38FF4F
:101AD000FFFFFFFFFFFFE01FFE07C07FFFFFFFFFCD
:101AE000FFFFFFF800000FE0FFFFFFFFFFFFFFFF1A
:101AF000FF00007FFFFFFFFFFFFFFFFFFFFFF0077B
:101B0000FFFFFFFFFFFFFFFFFFFFFFFFFFFFFFFFE5
:101B1000FFFFFFFFFFFFFFFFFFFFFFFFFFFFFFFFD5
:101B2000FFFFFFFFFFFFFFFFFFFFFFFFFFFFFFFFC5
:101B3000FFFFFFFFFFFFFFFFFFFFFFFFFFFFFFE0D4
:101B400001FFFFFFFFFFFFFFFFFFFFFF00003FFF61
:101B5000FFFFFFFFFFFFFFFFFC0FFE0FFFFFFFFF79
:101B6000FFFFFFFFFFF87FFFC7FFFFFFFFFFFFFF44
:101B7000FFFFE1FFFFE3FFFFFFFFFFFFFFFFFFC7E7
:101B8000FFFFF01FFFFFFFFFFFFFFFFF8FFFFFF8CB
:101B9000CFFFFFFFFFFFFFFFFF1FFFCFF3E7FFFFB9
:101BA000FFFFFFFFFFFE7FFF9FF3FCFFFFFFFFFF35
:101BB000FFFFFE7FFF3FFBFC3FFFFFFFFFFFFFFC40
:101BC000FFFF47F9DF07FFFFFFFFFFFF1CFFFFDFFE
:101BD000FC1FC1FFFFFFFFFFE00E7FFFF7FE7FF856
:101BE0007FFFFFFFFF001E7FFFE7FFFFFE3FFFFFBE
:101BF000FFFE07FF3FF1EFFFFFFF1FFFFFFFFE7F2D
:101C0000FF3FE07FFFFFFF8FFFFFFFFE7FFFBFE093
:101C10003FFFFFFFE7FFFFFFFF3FFF3FCCBFFFFF9F
:101C2000FFF3FFFFFFFF3FFF3BECBFFFFFFFF3FFB3
:101C3000FFFFFF9FFF3FE83FFFFFFFF9FFFFFFFFB1
:101C40009FFF3FE07FFFFFFFFCFFFFFFFFCFFF3F56
:101C5000F0FFFFFFFFFEFFFFFFFFE7FF7FFFFFFF3C
:101C6000FFFFFE7FFFFFFFF0FE7FFFF9FFFFFFFE9C
:101C70001FFFFFFFF8FE7FFFF9FFFFFFFF87FFFF5A
:101C8000FFF9FCFFFFFCFFFFFFFFE3FFFFFFF9F899
:101C9000FFFFE07FFFFFFFF3FFFFFFF9F1FFFFE032
:101CA00077FFFFFF63FFFFFFFBE3FFFFF077FFFF1F
:101CB000FF07FFFFFFFBC7FFFFFE77FFFFFF1FFFD1
:101CC000FFFFF3E3FFFFFE7FFFFFFF3FFFFFFFFB91
:101CD000F3FFFFFEFFFFFFFF7FFFFFFFF9F9FFFFAD
:101CE000FFFFFFFFFF3FFFFFFFF9F8FFF07FFFFF60
:101CF000FFFF3FFFFFFFF9FCFFE01FFFFFFFFF3F7C
:101D0000FFFFFFF8FE7BEE1FFFFFFFFF3FFFFFFF20
:101D1000FC7E7FEEDFFFFFFFFF7FFFFFFFF87E7F90
:101D2000E49FFFFFFFFE7FFFFFFFF0FF3FF03FFF5D
:101D3000FFFFFE7FFFFFFFE3FF3FFC7FFFFFFFFE94
:101D40007FFFFFFFC7FFBFFFFEFFFFFFFE1FFFFF7D
:101D5000FF8FFF9FFFFCFFFFFFFE07FFFFFF1FFF3F
:101D60009FFFF9FFFFFFFE63FFFFFE3FFF9FFFFFA7
:101D70007FFFFFFFF3FFFFFC7FFF9FFFFC7FFFFF65
:101D8000FFF3FFFFFC7FFFBFFFF9FFFFFFFE87FFB1
:101D9000FFFE3FFF3FFFFFFFFFFFFC0FFFFFFF0FB7
:101DA000FF3FFFFC7FFFFFF9FFFFFFFF81FF3FFFCA
:101DB000FDFFFFFFF3FFFFFFFFE07F3FFFFFFFFFA0
:101DC000FFE3FFFFFFFFF81E7FFFFFFFFFFFC1FFE5
:101DD000FFFFFFFF0E7FFFFFFFFFFF09FFFFFFFF7A
:101DE000FFFCFFFFFFFFFFFC1DFFFFFFFFFFFCFFEE
:101DF000FFFFFFFE707CFFFFFFFFFFFE7FFFFFFF87
:101E0000FF727CFFFFFFFFFFFE3FFFFFFFFF3F7CF6
:101E1000FFFFFFFFFFFF1FFFFFFF9FBF7CFFFFFFD5
:101E2000FFFFFF87FFFFFF0F9E7CFFFFFFFFFFFF0E
:101E3000C1FFFFF827BE7DFFFFFFFFFFFFE07FFF31
:101E4000E0F13E79FFFFFFFFFFFFF803FF03F83FDC
:101E500003FFFFFFFFFFFFFE00000FFEFF07FFFF76
:101E6000FFFFFFFFFF80003FFFFFCFFFFFFFFFFFF0
:101E7000FFFFFE01FFFFFFFFFFFFFFFFFFFFFFFF71
:101E8000FFFFFFFFFFFFFFFFFFFFFFFFFFFFFFFF62
:101E9000FFFFFFFFFFFFFFFFFFFFFFFFFFFFFFFF52
:101EA000010202030405060708090A0B0C0D0E0FB8
:101EB00010100000000000000000010203040607EB
:101EC000080900000000010203040000EC1E0008E5
:101ED000000000201000000092130008FC1E000803
:101EE0001000002048040000A213000801000000B8
:0C1EF00010000000000000000024F400BE
:04000005080000ED02
:00000001FF
