:020000040800F2
:10000000A0060020E502000857420008FF3D000856
:1000100055420008FD030008BD4D00080000000027
:10002000000000000000000000000000C7450008BC
:10003000310600080000000059420008C9450008C8
:10004000FF020008FF020008FF020008FF0200088C
:10005000FF020008FF020008FF020008FF0200087C
:10006000FF020008FF020008FF0200080104000868
:100070000D040008FF020008FF020008FF0200084C
:10008000FF020008FF020008FF020008FF0200084C
:10009000FF020008FF020008FF020008FF0200083C
:1000A000FF020008FF020008FF020008FF0200082C
:1000B000FF020008FF020008FF020008FF0200081C
:1000C000FF020008FF020008FF020008FF0200080C
:1000D000FF020008B14D0008FF020008FF020008FF
:1000E000FF020008FF02000800000000FF020008F5
:1000F000FF020008FF020008FF020008FF020008DC
:10010000FF020008FF020008FF020008FF020008CB
:10011000FF020008FF020008FF020008FF020008BB
:10012000FF020008FF020008FF020008FF020008AB
:10013000FF020008FF020008FF020008FF0200089B
:1001400000000000000000000000000000000000AF
:10015000FF020008FF020008FF020008FF0200087B
:10016000FF020008FF020008FF020008FF0200086B
:10017000FF020008FF020008FF0200080000000064
:10018000FF020008FF020008FF020008FF0200084B
:10019000FF020008FF0200089D440008FF0200085B
:1001A000FF020008FF020008FF0200080000000034
:1001B000FF020008FF020008FF020008FF0200081B
:1001C000FF020008FF02000800000000000000001D
:1001D0000000000000000000FF0200080000000016
:1001E000000000000000000000000000000000000F
:1001F0000000000000000000FF020008FF020008ED
:10020000FF020008FF02000800000000FF020008D3
:10021000FF020008FF020008FF020008FF020008BA
:10022000FF02000800000000FF02000800000000BC
:10023000FF020008FF02000800000000FF020008A3
:10024000FF020008F1030008FF020008FF02000897
:10025000FF020008FF020008FF020008FF0200087A
:10026000FF020008FF020008FF020008FF0200086A
:10027000FF020008FF020008FF0200080000000063
:10028000FF020008FF020008FF020008FF0200084A
:1002900000000000FF020008FF020008000000004C
:1002A00000000000FF020008FF020008FF02000833
:1002B000FF020008FF020008FF020008FF0200081A
:1002C000FF020008FF020008FF020008DFF810D05C
:1002D00000F07CF8004800474D4E0008AFF3008066
:1002E000A00600200648804706480047FEE7FEE7D4
:1002F000FEE7FEE7FEE7FEE7FEE7FEE7FEE7FEE7D6
:1003000061460008CD0200082DE9F05F0546002097
:1003100092469B4688460646814640241BE0284676
:1003200041464746224600F041F853465A46C01A15
:10033000914110D311461846224600F028F82D1A94
:1003400067EB01084F4622460120002100F01FF80C
:1003500017EB00094E41201EA4F10104DFDC4846E2
:1003600031462A464346BDE8F09FD2B201E000F88C
:10037000012B491EFBD270470022F6E710B5134649
:100380000A4604461946FFF7F0FF204610BD202A12
:1003900004DB203A00FA02F1002070479140C2F1DC
:1003A000200320FA03F3194390407047202A04DB0E
:1003B000203A21FA02F00021704721FA02F3D040DE
:1003C000C2F120029140084319467047064C074D80
:1003D00006E0E06840F0010394E807009847103415
:1003E000AC42F6D3FFF776FF1450000844500008E3
:1003F000014800F013BC0000A4000020FEE700004C
:10040000014800F00BBC0000B0010020014800F0E2
:1004100005BC000028020020294A016891423AD018
:10042000274A1832914236D0254A3032914232D092
:10043000234A483291422ED0214A603291422AD03A
:100440001F4A7832914226D01D4A9032914222D0E2
:100450001B4AA83291421ED01A4A91421BD0194A17
:100460001832914217D0174A3032914213D0154AB0
:10047000483291420FD0134A603291420BD0114A58
:100480007832914207D00F4A9032914203D00D4A00
:10049000A832914211D1CAB21823103AB2FBF3F23A
:1004A0006FF30901032A02F00703074AD25CC26511
:1004B00000D9091D81650846704721F0FF01F9E761
:1004C0001000024010040240D44F000830B5224A08
:1004D000012301689142CAB21BD01F4C1434A142BF
:1004E00017D01D4C2834A14213D01B4C3C34A142E0
:1004F0000FD0194C5034A1420BD0174C6434A14298
:1005000007D0154C7834A14203D0134C8C34A1424F
:100510000CD11421114C083AB2FBF1F10F4A803290
:1005200001F01F0504EB8101AB4010E00C4D1824D5
:10053000103A0D44B2FBF4F1A82D00D80831094A55
:1005400001F01F0402EB8101064AA34080326030B3
:1005500080E80E0030BD00000854025800580258D0
:10056000F0FBFDBF0008024010B50279531E072BB7
:100570002DD8174C0168A1421BD0154C1434A14250
:1005800017D0134C2834A14213D0114C3C34A14253
:100590000FD00F4C5034A1420BD00D4C6434A1420B
:1005A00007D00B4C7834A14203D0094C8C34A142C3
:1005B00003D10849074C443102E00749064C443155
:1005C00004EB8202C0E91B2101219940416710BD63
:1005D00008540258FC580258FC08024010B58369C0
:1005E0004FF0C074826A0146002053B1B3F5005F3A
:1005F00015D072B1012A0CD0022A0AD0032A09D1DF
:1006000004E01AB1012A06D0022A03D1C96AC9013D
:1006100000D5012010BDC96AA142FAD010BD002A40
:10062000F7D0012AF2D0022AF3D0032AF3D010BD6A
:10063000704772B6FEE700002DE9F84F044601F05E
:1006400065F900903CB194F83500022806D080216D
:1006500061650020E4E00120BDE8F88FC74DC74E7A
:10066000C649183520683036DFF81483DFF8149354
:100670008842DFF814A3DFF814B32ED0A8422CD0A0
:10068000B0422AD0404528D0484526D0504524D0F5
:10069000584522D0BD4A183290421ED0BC4A9042E2
:1006A0001BD0BB4A1832904217D0B94A3032904220
:1006B00013D0B74A483290420FD0B54A60329042C8
:1006C0000BD0B34A7832904207D0B14A9032904270
:1006D00003D0AF4AA832904209D1026822F01E022C
:1006E00002602068426922F08002426103E00268F1
:1006F00022F00E02026027688F4238464DD0A84291
:100700004BD0B04249D0404547D0484545D05045F0
:1007100043D0584541D09D4A183290423DD09C4A22
:1007200090423AD09A4A1832904236D0984A3032A3
:10073000904232D0964A483290422ED0944A60324B
:1007400090422AD0924A7832904226D0904A9032F3
:10075000904222D08E4AA83290421ED08D4A9042BA
:100760001BD08C4A1432904217D08A4A28329042C9
:1007700013D0884A3C3290420FD0864A5032904281
:100780000BD0844A6432904207D0824A7832904239
:1007900003D0804A8C32974204D1206E026822F442
:1007A0008072026075492068884228D0A84226D00D
:1007B000B04224D0404522D0484520D050451ED0DC
:1007C00058451CD071491831884218D07049884268
:1007D00015D06F491831884211D06D4930318842A7
:1007E0000DD06B494831884209D06949603188424F
:1007F00005D067497831884201D065499031016858
:1008000021F0010101600EE001F080F80099401A2A
:10081000052808D9202262650321002084F83510BC
:1008200084F8340017E73868C007EDD1534A012136
:10083000206890422ED0A8422CD0B0422AD0404509
:1008400028D0484526D0504524D0584522D04F4B7B
:10085000183398421ED04E4B98421BD04C4B183345
:10086000984217D04A4B3033984213D0484B483304
:1008700098420FD0464B603398420BD0444B7833AC
:10088000984207D0424B9033984203D0404BA83354
:10089000984208D194F85C703F23A06D07F01F07C1
:1008A000BB40836007E094F85C30A06D03F01F0349
:1008B00001FA03F34360206890424DD0A8424BD028
:1008C000B04249D0404547D0484545D0504543D037
:1008D000584541D02D4A183290423DD02C4A904282
:1008E0003AD02B4A1832904236D0294A30329042C0
:1008F00032D0274A483290422ED0254A6032904268
:100900002AD0234A7832904226D0214A903290420F
:1009100022D01F4AA83290421ED01E4A90421BD0BD
:100920001C4A1432904217D01A4A2832904213D0EF
:10093000184A3C3290420FD0164A503290420BD0A7
:10094000144A6432904207D0124A7832904203D05F
:10095000104A8C3290420BD1D4E919024260E06E09
:1009600030B1026822F480720260D4E91C02426055
:10097000002084F8351084F834006DE61000024041
:10098000580002407000024088000240A00002406F
:1009900010040240085402582DE9F05F28B190F885
:1009A0003510022904D0802141650120BDE8F09F67
:1009B000904C904B0168183C18338E4ADFF83C92FB
:1009C000A1428D4CDFF838E28E4FDFF83CB2DFF801
:1009D0003CA28F4D8F4E31D091422FD099422DD0D5
:1009E000A1422BD0494529D0714527D0B94225D005
:1009F000DFF810C20CF1180C61451FD0DFF808C2F7
:100A0000ACF1600C614519D0DFF8FCC1ACF1480CC9
:100A1000614513D0DFF8F0C1ACF1300C61450DD069
:100A2000DFF8E4C1ACF1180C614507D0594505D099
:100A3000514503D0A94201D0B1422CD1DFF8B4C155
:100A40004FF0040880F83580ACF1180C61451DD0DA
:100A500091421BD0994219D0A14217D0494515D0D7
:100A6000714513D0B94211D06648183081420DD07B
:100A700065486038814209D063484838814205D0D2
:100A800061483038814201D05F481838086820F04A
:100A900001000860ABE0D1F800C02CF00E08DFF8D0
:100AA00054C1C1F80080ACF1180C0168614527D031
:100AB000914225D0994223D0A14221D049451FD04F
:100AC00071451DD0B9421BD0DFF838C10CF1180CAC
:100AD000614515D0DFF830C1ACF1600C61450FD035
:100AE000DFF824C1ACF1480C614509D0DFF818C12A
:100AF000ACF1300C614503D0DFF80CC1ACF1180C3F
:100B0000D1F800C02CF0010CC1F800C0DFF8E4807F
:100B10004FF0010C0168A8F11808414546D09142F8
:100B200044D0994242D0A14240D049453ED071457F
:100B30003CD0B9423AD0334A1832914236D0324A88
:100B4000603A914232D0304A483A91422ED02E4AF1
:100B5000303A91422AD02C4A183A914226D059452F
:100B600024D0514522D0A94220D0B1421ED02A4AD9
:100B700091421BD0284A1432914217D0264A28327B
:100B8000914213D0244A3C3291420FD0224A503233
:100B900091420BD0204A6432914207D01E4A7832EB
:100BA000914203D01C4A8C32914218D1016E0A68DE
:100BB00022F480720A6090F85C20816D02F01F02BE
:100BC0000CFA02F24A60D0E919124A60C16E31B1E2
:100BD0000A6822F480720A60D0E91C124A6000227E
:100BE000016D80F835C080F8342001B188470020BD
:100BF000DCE600002800024058000240700002407D
:100C000088000240A00002407004024088040240B4
:100C1000A0040240B8040240085402582DE9FC5FC9
:100C20000446F74E0020DFF8D88300904FF41652A8
:100C3000F44808F11808A56DDFF8C493DFF8C0A3E5
:100C4000016809F1300920680AF1480AB1FBF2F1A4
:100C5000B04201912F68D5F800C0DFF8ACB335D0B1
:100C60004146884232D0484530D050452ED0584574
:100C70002CD0E5491831884228D0E34930318842E8
:100C800024D0E1494831884220D0E04988421DD033
:100C9000DE491831884219D0DC493031884215D0FC
:100CA000DA494831884211D0DFF860E30EF1600E76
:100CB00070450BD0D54A7832904207D0D34B903351
:100CC000984203D0D149A83188427DD194F85C2064
:100CD000082102F01F0201FA02F23A424AD0B04261
:100CE00032D0404530D048452ED050452CD05845C4
:100CF0002AD0C54A1832904226D0C34A3032904298
:100D000022D0C14A483290421ED0C04A90421BD0E5
:100D1000BE4A1832904217D0BC4A3032904213D0AB
:100D2000BA4A483290420FD0B84A603290420BD053
:100D3000B64A7832904207D0B44A9032904203D0FB
:100D4000B24AA832904203D1026802F0040202E0E3
:100D5000026802F008026AB1026822F0040202602E
:100D600094F85C0000F01F008140A960606D40F0C5
:100D70000100606594F85C00012100F01F008140D3
:100D8000394240D02068B04234D0404532D0484546
:100D900030D050452ED058452CD09B4A1832904226
:100DA00028D0994A3032904224D0974A4832904213
:100DB00020D0964A90421DD0944A1832904219D0C1
:100DC000924A3032904200E0AFE113D08F4A48326D
:100DD00090420FD08D4A603290420BD08B4A7832CD
:100DE000904207D0894A9032904203D0874AA83275
:100DF00090427DD1406910F0800F04D0A960606DF1
:100E000040F00200606594F85C00042100F01F00CF
:100E1000814039423ED02068B04232D0404530D087
:100E200048452ED050452CD058452AD0764A183205
:100E3000904226D0744A3032904222D0724A4832D0
:100E400090421ED0714A90421BD0704A1832904294
:100E500017D06E4A3032904213D06C4A48329042DA
:100E60000FD06A4A603290420BD0684A7832904282
:100E700007D0664A9032904203D0644AA83290422A
:100E80004ED1006810F0020F04D0A960606D40F0F0
:100E90000400606594F85C00102100F01F008140A0
:100EA000394258D02068B04234D0404532D048450D
:100EB00030D050452ED058452CD0534A183290424D
:100EC00028D0514A3032904224D04F4A4832904282
:100ED00020D04E4A90421DD04C4A1832904219D030
:100EE0004A4A3032904215D0484A4832904200E097
:100EF00014E00FD0454A603290420BD0434A78321A
:100F0000904207D0414A9032904203D03F4AA832E3
:100F1000904207D1006800F0080006E0006872E720
:100F20000068B7E7006800F00400A0B1A96020687D
:100F30000168490304D50068000308D5A16C07E0E7
:100F40000168C90503D4016821F008010160216C22
:100F500009B12046884794F85C00202100F01F006A
:100F60008140394279D02068B04232D0404530D0FB
:100F700048452ED050452CD058452AD0224A183208
:100F8000904226D0204A3032904222D01E4A483227
:100F900090421ED01D4A90421BD01C4A18329042EB
:100FA00017D01A4A3032904213D0184A4832904231
:100FB0000FD0164A603290420BD0144A78329042D9
:100FC00007D0124A9032904203D0104AA832904281
:100FD00003D1006800F0100002E0006800F0020099
:100FE000B0B3A96094F835000428206801680FD0D8
:100FF00049037ED5006800032BD4616C2AE0000011
:101000001000024010000020700002401004024056
:1010100021F0160101602068416921F080014161E1
:10102000206C08B9A06C20B12068016821F008018B
:10103000016094F85C303F21012003F01F0300227F
:101040009940A96084F8350084F83420216D65E06A
:1010500003E0E16B09B120468847606D00287DD030
:10106000606DC00759D02068042184F83510B04263
:101070002BD0404529D0484527D0504525D058454C
:1010800023D09D49884220D09B49183188421CD0EA
:1010900099493031884218D09849884215D09749EB
:1010A0001831884211D09549303188420DD093498A
:1010B0004831884209D091496031884205D08F4932
:1010C0007831884201D08D499031016821F00101C9
:1010D000016020680099019A491C0091914202D850
:1010E0000168C907F6D10068C00710D003200FE0DF
:1010F000FFE70168C905ACD403680121002223F091
:101100001003036084F8351084F83420A1E701202F
:1011100084F83500002084F83400E16C00291DD0EB
:1011200002B02046BDE8F05F0847754988421DD0EF
:1011300073491431884219D071492831884215D039
:101140006F493C31884211D06D49503188420DD0F1
:101150006B496431884209D0694900E084E0783104
:10116000884203D066498C3188427DD194F85C80F6
:101170000427016808F01F0807FA08F717EA0C0FA0
:10118000009746D04F0744D500980F04686003D5F8
:10119000C8033CD4A16CC1E7880638D42068B042AB
:1011A0002DD055496039884229D0484527D050452F
:1011B00025D0584523D05049884220D04E49183177
:1011C00088421CD04C493031884218D04B49884263
:1011D00015D04A491831884211D0484930318842E7
:1011E0000DD046494831884209D0704507D0904219
:1011F00005D0984203D04149A831884203D1016803
:1012000021F0080102E0016821F004010160216C75
:1012100084E7022707FA08F717EA0C0F00974ED069
:101220008F074CD500980F04686003D5C80344D4D9
:10123000616C73E7880640D42068B0422FD02E49F5
:10124000603988422BD0484529D0504527D0584591
:1012500025D02949884222D02749183188421ED0FA
:1012600025493031884200E044E018D023498842C3
:1012700015D022491831884211D020493031884296
:101280000DD01E494831884209D0704507D09042A0
:1012900005D0984203D01949A831884203D101688A
:1012A00021F0140102E0016821F00A01016001212E
:1012B00084F83510002084F83400E16B2EE7082212
:1012C00002FA08F212EA0C0F14D0090712D50168CD
:1012D00021F00E01016094F85C100120002201F061
:1012E0001F0100FA01F16960606584F8350084F837
:1012F000342012E7BDE8FC9F880002401004024041
:10130000085402582DE9F05F044600F0FFFA002C63
:1013100007467DD0E24E022120684FF00308DFF837
:1013200084934FF00005DFF880A3B042DFF87CB370
:1013300034D0DB4A1832904230D048452ED0504548
:101340002CD058452AD0D94A1832904226D0D74AB4
:101350003032904222D0D54A483290421ED0D44AF0
:1013600090421BD0D24A1832904217D0D04A303225
:10137000904213D0CE4A483290420FD0CC4A6032CD
:1013800090420BD0CA4A7832904207D0C84A903275
:10139000904203D0C64AA83290427DD184F83510DD
:1013A000B04284F834502ED0BD49183188422AD03A
:1013B000484528D0504526D0584524D0BB4918313F
:1013C000884220D0B949303188421CD0B7494831D1
:1013D000884218D0B649884215D0B549183188429C
:1013E00011D0B349303188420DD0B14948318842DB
:1013F00009D0AF496031884205D0AD497831884283
:1014000001D0AB499031016821F00101016008E091
:1014100025E100BF00F07AFAC01B052801D9202180
:101420001AE120680068C007F4D1D4E902032168FA
:10143000103418438E4694E88410D4E903380968C0
:101440003A4310439B4A40EA0C0067691843114035
:10145000103C40EA0800042F40EA010003D1D4E91F
:101460000B12114308436168A1F12902052A0BD927
:10147000163A032A08D9083A012A05D9083A032A54
:1014800002D97439032901D840F48010CEF8000045
:101490002068676A406900E020E0042F20F0070020
:1014A00047EA00070DD1D4E90A01074349B12046B4
:1014B000FFF794F828B140206065012184F83510C9
:1014C000CDE0206847612046FEF7A6FF94F85C2037
:1014D0003F2102F01F029140816055E0764A904220
:1014E0001BD0754B1433984217D0734B2833984256
:1014F00013D0714B3C3398420FD06F4B503398420E
:101500000BD06D4B6433984207D06B4B78339842C5
:1015100003D0694B8C3398427ED184F8351084F81F
:101520003450664B0168A26801EA030E402A74D069
:10153000802A73D05FF00002D4E90378D4E9053142
:1015400042EAD70242EAD8085B4AD4E9077C48EA73
:10155000D30848EAD10141EAD701524241EA1C11BD
:10156000142341EA0E01016020681044B0FBF3F03F
:101570008000E0652046FEF74FFF94F85C200121D3
:1015800002F01F02914041602068B04257D04449A8
:101590001831884253D0484551D050454FD0584516
:1015A0004DD042491831884249D0404930318842B3
:1015B00045D03E494831884241D03D4988423ED0DD
:1015C0003B49183188423AD039493031884236D0C7
:1015D00037494831884232D03549603188422ED06F
:1015E0003349783188422AD031499031884226D017
:1015F0002F49A831884222D02F4988421FD02E4936
:10160000143188421BD02C492831884217D02A49EE
:101610003C31884213D002E01DE017E018E0264973
:10162000503188420BD024496431884207D0224986
:101630007831884203D020498C31884229D1204614
:10164000FEF744FFA06880280CD00CE0102273E75E
:101650004FF4804270E74021616584F835800120B5
:10166000BDE8F09F6560216E20790860D4E919011A
:1016700041606068401E072808D82046FEF774FFC6
:10168000E06E0560D4E91C01416002E0E566256773
:1016900065670120656584F835000020E0E70000FB
:1016A000100002404000024058000240700002401A
:1016B000100402403F8010FE085402580F00FEFF45
:1016C00070B5044600F022F90546601C02D00448BB
:1016D0000078044400F01AF9401BA042FAD370BD10
:1016E000040000202DE9F84F03247A4D00234FF029
:1016F00001094FF0B04B4FF00F0AE4E009FA03F68E
:10170000324078D00F7907F00307012F01D0022F64
:101710001AD187684FEA430ED1F80CC004FA0EF8CC
:1017200027EA08070CFA0EFC4CEA070CC0F808C0C0
:10173000476891F804C0B743CCF3001C0CFA03FCD3
:101740004CEA070CC0F804C00E79F643B6070BD07C
:10175000C6684FEA43088F6804FA08FC26EA0C06BC
:1017600007FA08F73743C7600E7906F00306022E22
:1017700012D1DE080F694FEA437C00EB8606B646BD
:10178000366A4FEADC6C0AFA0CF807FA0CF726EA1C
:1017900008063743CEF820700F7906684FEA4308F1
:1017A00007F0030704FA08FC07FA08F726EA0C0614
:1017B000374307604E6816F4403F1CD0464E3768EA
:1017C00047F00207376036689F0706F0020600966A
:1017D00023F0030606F1B046B6463F0FD6F808647C
:1017E000DFF8F8800AFA07FC404526EA0C0603D128
:1017F0004FF0000C3AE065E0DFF8E4C0604502D14C
:101800004FF0010C32E0DFF8DCC0604502D14FF050
:10181000020C2BE0DFF8D0C0604502D14FF0030C82
:1018200024E0DFF8C8C0604502D14FF0040C1DE091
:10183000DFF8BCC0604502D14FF0050C16E0DFF8C0
:10184000B4C0604502D14FF0060C0FE0DFF8A8C02D
:10185000604502D14FF0070C08E0DFF8A0C06045FA
:1018600002D14FF0090C01E04FF00A0C0CFA07FC12
:101870004CEA060CCEF808C44F68DBF80060FF02A3
:1018800026EA020600D516435F46CBF80060D1F881
:1018900004C0DBF804605FEA8C2C26EA020600D55F
:1018A00016437E606E684F6826EA0206BF0300D5C5
:1018B00016436E602E684F6826EA0206FF0300D5C5
:1018C00016432E605B1C0A6832FA03F67FF416AFEB
:1018D000BDE8F88F80000058F44402580000025818
:1018E0000004025800080258000C02580010025868
:1018F0000014025800180258001C02580024025814
:101900000AB1816170470904FBE700000148806863
:1019100070470000040000200248816802781144EA
:101920008160704704000020032010B500F0D4F857
:1019300001F076F80F4A104914681368C4F30322C3
:1019400003F00F038A5CC95C02F01F0201F01F0163
:10195000D0400A4A20FA01F11160094908600F20BD
:1019600000F010F808B1012010BD00F079F8002057
:1019700010BD000018440258045000081400002054
:101980001000002070B50D4D04462878A0B14FF42A
:101990007A71B1FBF0F00A490968B1FBF0F001F08F
:1019A000D8FE48B9102C07D200222146501E00F064
:1019B00073F800206C6070BD012070BD0400002031
:1019C00010000020154BF0B5083B427813491A600F
:1019D0000B680A1F23F001030B6043681360057B4B
:1019E000C67A827A437B2D07847B45EA0665C77BEE
:1019F00090F809C0067A90F800E045EAC24040EA53
:101A0000834040EA444040EA074040EA0C2040EA74
:101A1000460040EA0E000860F0BD0000A0ED00E0C6
:101A2000BFF35F8F044800210368034A23F4803327
:101A3000036070321160704724ED00E0074A40F007
:101A40000100064970321060086840F48030086078
:101A5000BFF34F8FBFF36F8F7047000024ED00E09E
:101A6000054808B5016841F002010160006800F016
:101A70000200009008BD0000F4440258002809DB71
:101A8000410900F01F028900012001F1E02190408E
:101A9000C1F80001704700000E4BF0B41B680D4602
:101AA000C3F30223C3F10706042E00D90426191D2F
:101AB000072901D2002300E0DB1E012404FA06F10D
:101AC0009C40491E2940641E994014402143F0BCAB
:101AD00003F07EB90CED00E0064900F0070210B5F6
:101AE0004FF6FF040868044B204040EA02201843E8
:101AF000086010BD0CED00E00000FA05134970B558
:101B00000A68D243520705D5096801F007018142EE
:101B100013D118E00A6822F0070202430A60FFF7B7
:101B2000F5FE0A4D4FF47A760446083D07E000BF03
:101B3000FFF7ECFE001BB04201D9012070BD286800
:101B4000C0438004F4D4002070BD00000C4802584B
:101B500010B500F01FFF05490968054AC1F30211DD
:101B6000515C01F01F01C84010BD00002044025824
:101B700004500008494930B5484C0B1D0A6814341C
:101B800009681D68246802F00303C5F30012C1F35D
:101B90000531C4F3CC04002914FB02F200EE102A34
:101BA000F8EE400A75D03F4A9FED3D1AB7EE000AA5
:101BB0006BB1DFED3D1A012B01D0022B64D002EE98
:101BC000101A1168F8EE422A81EEA22A21E0334C65
:101BD000283C23689B0612D5344B246801EE901AEA
:101BE0001168C4F3C104F8EE612AE34001EE903AB3
:101BF000C1F30801F8EE611A81EEA22A0BE001EEB2
:101C0000901ADFED2B2A00BFF8EE611A116882EE00
:101C1000A12AC1F3080101EE901A1168F8EE611AC9
:101C200040EE811A71EE800A62EE200AC1F346216D
:101C300001EE101AB8EE411A31EE001AC0EE811A08
:101C4000BCEEE11A80ED001A1168C1F3064101EE05
:101C5000101AB8EE411A31EE001AC0EE811ABCEE2D
:101C6000E11A80ED011A1168C1F3066101EE101A44
:101C7000B8EE411A31EE000A80EE801ABCEEC10ABD
:101C800080ED020A30BD04E001EE901ADFED092A72
:101C9000BAE70021016041608160F3E728440258FF
:101CA00000000039384402580024744A0090D003E0
:101CB0000024744C20BCBE4B494930B5484C0B1D28
:101CC0000A681C3409681D68246802F00303C5F320
:101CD0000022C1F30551C4F3CC04002914FB02F225
:101CE00000EE102AF8EE400A75D03F4A9FED3D1AEB
:101CF000B7EE000A6BB1DFED3D1A012B01D0022BCC
:101D000064D002EE101A1168F8EE422A81EEA22A7F
:101D100021E0334C283C23689B0612D5344B2468C1
:101D200001EE901A1168C4F3C104F8EE612AE34091
:101D300001EE903AC1F30801F8EE611A81EEA22A91
:101D40000BE001EE901ADFED2B2A00BFF8EE611ACE
:101D5000116882EEA12AC1F3080101EE901A116800
:101D6000F8EE611A40EE811A71EE800A62EE200AE6
:101D7000C1F3462101EE101AB8EE411A31EE001AF5
:101D8000C0EE811ABCEEE11A80ED001A1168C1F3B1
:101D9000064101EE101AB8EE411A31EE001AC0EEFB
:101DA000811ABCEEE11A80ED011A1168C1F30661D7
:101DB00001EE101AB8EE411A31EE000A80EE801AD8
:101DC000BCEEC10A80ED020A30BD04E001EE901ABB
:101DD000DFED092ABAE70021016041608160F3E785
:101DE0002844025800000039404402580024744A34
:101DF0000090D0030024744C20BCBE4B2DE9FE4F54
:101E00000546DFF800A450F8081B0024FD4FC94325
:101E1000019005F1280026460AF1240A00900801E5
:101E20001DD4686E50B1B0F5801F0CD0B0F5001F06
:101E30000ED0B0F5401F1ED001240FE0386840F4EA
:101E40000030386017E00198022102F007FA03E041
:101E50000098022102F092FA04000CD0264628884D
:101E6000C043C00523D4A86D05281ED2DFE800F0CA
:101E70000C11161B1B006A6EDAF8001021F44011D9
:101E80001143CAF80010EAE7386840F400303860BF
:101E900009E00198002102F0E1F903E00098002137
:101EA00002F06CFA0446C4B100E0012426462888FA
:101EB000DFF85083C04308F12C0840052FD4D5F833
:101EC000A400B0F5C00F28D010DCB8B1B0F5001FE9
:101ED00019D0B0F5800F0FD11AE0AA6DDAF8001012
:101EE00021F007011143CAF80010E0E7B0F5000F38
:101EF00013D0B0F5200F10D001240FE0386840F463
:101F00000030386009E00198002102F0A7F903E0F1
:101F10000098002102F032FA044694B1264628883F
:101F2000C043000530D4D5F8A800B0F1407F29D0D7
:101F300011DCC0B1B0F1807F1AD0B0F1007F10D1B8
:101F40001BE0D5F8A420D8F8001021F4600111435B
:101F5000C8F80010E3E7B0F1806F13D0B0F1A06FC4
:101F600010D001240FE0386840F40030386009E0F8
:101F70000198002102F072F903E00098002102F0BC
:101F8000FDF9044694B126462868DFF878B2C043CC
:101F90000BF1200B80011FD4E86CD8B110280FD0B2
:101FA000202812D0302815D0012414E0D5F8A8201C
:101FB000D8F8001021F0E0611143C8F80010E3E701
:101FC000386840F40030386004E00198022102F0E3
:101FD00045F9044674B126462888C043C0042BD472
:101FE000E86DB0F5005F20D00DDCA0B1B0F5805FEA
:101FF0000FD115E0EA6CDBF8001021F0300111433D
:10200000CBF80010E8E7B0F5405F13D0B0F5804F93
:1020100010D001240FE0386840F40030386009E047
:102020000198002102F01AF903E00098002102F063
:10203000A5F904468CB126462888C043800429D4DB
:10204000286EB0F5403F23D010DC08B3B0F5803FD8
:1020500014D0B0F5003F0FD115E0EA6DDAF80010AA
:1020600021F4E0411143CAF80010E5E7B0F5802FF4
:102070000ED0B0F5A02F0BD001240AE00198012169
:1020800002F0ECF803E00098012102F077F9044631
:1020900094B126462888C04340042AD4D5F8AC0021
:1020A000B0F1405F23D010DC08B3B0F1805F14D0F2
:1020B000B0F1005F0FD115E02A6EDAF8001021F4BC
:1020C000E0211143CAF80010E4E7B0F1804F0ED0D0
:1020D000B0F1A04F0BD001240AE00198012102F0D9
:1020E000BDF803E00098012102F048F9044674B1FC
:1020F00026462888C04300041FD4E86ED8B1B0F14A
:10210000805F0ED0B0F1005F10D0012414E0D5F84C
:10211000AC20D8F8001021F0E0411143C8F80010BD
:10212000E7E7386840F40030386004E001980121A6
:1021300002F094F8044674B126462868C043C001F2
:102140001ED4A86CD0B101280ED0022811D00328CB
:1021500014D0012413E0EA6EDAF8001021F04051A7
:102160001143CAF80010E8E7386840F400303860DE
:1021700004E00198022102F071F804466CB1264691
:102180002868C043400255D41F48016841F480715B
:102190000160FFF7BBFB81460EE0AA6CDBF8001084
:1021A00021F003011143CBF80010E9E7FFF7AEFB84
:1021B000A0EB090064283BD813480068C005F5D59A
:1021C000BCBBDFF84090B5F8B01009F14409D9F86C
:1021D000000001F4407100F44070884211D0D9F839
:1021E0000010D9F8002021F4407142F48032C9F87F
:1021F0000020D9F8002022F48032C9F80020C9F864
:10220000001003E02C44025800480258D5F8B000F2
:10221000B0F5807F19D1FFF779FB029011E000BF84
:10222000FFF774FB0299411A41F28830814208D9C4
:10223000032426462878DFF81494C043C00721D031
:102240003CE0D9F800008007EAD5D5F8B010C1F31A
:1022500001200328FE480DD0016821F47C51016063
:10226000B5F8B020D9F80010C2F30B021143C9F839
:102270000010DFE7F74A036802EA111223F47C51E9
:102280001143ECE7A86F182816D005DCA0B1082888
:1022900008D0102804D10AE020280DD028280BD01F
:1022A00001240AE00198012101F0D8FF03E0009821
:1022B000012102F063F8044664B126462878C04341
:1022C00080071ED4686F062819D2DFE800F0160CCC
:1022D00011161616AA6FD9F8001021F03801114313
:1022E000C9F80010EAE70198012101F0B7FF03E007
:1022F0000098012102F042F804467CB100E001247C
:1023000026462878C04340071FD4D5F890000628F9
:1023100019D2DFE800F0160C111616166A6FD9F8FC
:10232000001021F007011143C9F80010E9E70198F6
:10233000012101F093FF03E00098012102F01EF853
:102340000446A4B100E0012426462878C043800654
:102350002BD4D5F88C00B0F1405F24D011DC10B341
:10236000B0F1805F15D0B0F1005F10D116E0D5F864
:102370009020D8F8001021F007011143C8F8001090
:10238000E3E7B0F1804F0ED0B0F1A04F0BD00124A5
:102390000AE00198002101F061FF03E000980221AA
:1023A00001F0ECFF044694B126462878C04340066D
:1023B0002BD4D5F89800B0F5406F24D011DC10B3C1
:1023C000B0F5806F15D0B0F5006F10D116E0D5F8DC
:1023D0008C20D9F8001021F0E0411143C9F8001019
:1023E000E3E7B0F5805F0ED0B0F5A05F0BD001241D
:1023F0000AE00198002101F031FF03E0009802217A
:1024000001F0BCFF044694B126462878C04300067C
:102410002BD4D5F89C00B0F5C04F24D011DC10B3FC
:10242000B0F5005F15D0B0F5804F10D116E0D5F8AB
:102430009820D8F8001021F4E0511143C8F800109A
:10244000E3E7B0F5004F0ED0B0F5204F0BD00124DC
:102450000AE00198002101F001FF03E00098022149
:1024600001F08CFF044654B126462878C04300078B
:102470001ED4D5F88000B0F5805F0AD00FE0D5F803
:102480009C20D8F8001021F460411143C8F80010D6
:10249000EBE70098022101F071FF00B10126D5F8A9
:1024A0008020D9F8001021F440511143C9F80010E0
:1024B0002878C043C00613D4D5F89400B0F5807FC7
:1024C00005D10098022101F059FF00B10126D5F88D
:1024D0009420D8F8001021F440711143C8F800107E
:1024E0002868C043000316D4D5F8A00038B1B0F571
:1024F000803F09D0B0F5003F0BD001240AE00198DD
:10250000002101F0ABFE03E00098022101F036FF4C
:1025100004468CB126462868C043400322D4D5F82F
:102520008400B0F5801F11D0B0F5001F13D0B0F5B6
:10253000401F15D0012414E0D5F8A020D8F80010D1
:1025400021F440311143C8F80010E4E7386840F442
:102550000030386004E00098012101F00FFF0446CC
:102560005CB126462868C043C0031CD4286D70B1F6
:10257000B0F5803F10D0012414E0D5F88420D9F8BC
:10258000001021F440111143C9F80010EAE738683F
:1025900040F40030386004E00198022101F05EFE52
:1025A0000446DCB126462868C043800005D4009864
:1025B000022101F0E3FE00B101262868C043800338
:1025C0001BD4E86FB8B1B0F5807F10D0B0F5007FB4
:1025D00011D0B0F5407F0ED001240DE02A6DDBF85C
:1025E000001021F480311143CBF80010DBE738688C
:1025F00040F4003038607CB326462868C043C002EF
:1026000007D42A6FDAF8001021F000411143CAF80C
:1026100000102868C043800207D4AA6EDAF80010C0
:1026200021F080711143CAF800102868C0434000AF
:1026300009D40748016821F4004101600168D5F818
:10264000B420114301602868C04306E05444025896
:1026500010440258CFFFFF001DE007D46A6DDBF87D
:10266000001021F040511143CBF800102868C043FE
:10267000000208D4D5F88820D9F8001021F44001D0
:102680001143C9F8001028790024C04300F001006C
:10269000204309D00EE0EA6FD9F8001021F4407110
:1026A0001143C9F80010A8E70198002101F0D6FDF8
:1026B00000B106462879C04300F00200204305D14E
:1026C0000198012101F0CAFD00B106462879C043F6
:1026D00000F00400204305D10198022101F0BEFD65
:1026E00000B106462879C04300F00800204305D118
:1026F0000098002101F042FE00B106462879C0434F
:1027000000F01000204305D10098012101F036FEB1
:1027100000B106462879C04300F02000044304D1EC
:102720000098022101F02AFE00B916B10120BDE88F
:10273000FE8F0020FBE700002DE9F05F04000F464C
:102740007ED0DFF83882D8F8000000F00F00B842E1
:102750000CD2D8F8001021F00F013943C8F800104E
:10276000D8F8000000F00F00B84269D12078844DFD
:1027700040070AD52069296801F07001884204D910
:10278000296821F070010143296020787C4E361DB4
:1027900000070AD56069316801F07001884204D9E8
:1027A000316821F07001014331602078C0060AD5FC
:1027B000A069316801F4E061884204D9316821F4EC
:1027C000E061014331602078DFF8B4B180060BF19D
:1027D000080B0CD5E1695846DBF8002002F07002C6
:1027E000914204D9026822F070020A430260207804
:1027F00080070AD5E068296801F00F01884204D9F2
:10280000296821F00F01014329602078C0073ED0DC
:102810005B49A2682868183920F47060104328606A
:102820006068022818D0032819D00968012819D037
:10283000490700294ADADFF848A1AAF1080A00E0AE
:1028400044E0DAF8002022F007020243CAF8002030
:10285000FFF75CF8814612E009688903E9E7096837
:102860008901E6E7C905E4E7FFF750F8A0EB0901A5
:1028700041F28830814202D90320BDE8F09F6168AF
:10288000DAF8000000F03800B0EBC10FECD120788E
:1028900080070AD5E068296801F00F01884204D258
:1028A000296821F00F0101432960D8F80010404643
:1028B00001F00F01B9420BD9016821F00F01394332
:1028C0000160006800F00F00B84201D00120D4E799
:1028D000207840070AD52069296801F070018842F4
:1028E00004D2296821F07001014329602078000793
:1028F0000AD56069316801F07001884204D23168FC
:1029000021F07001014331602078C0060AD5A0692A
:10291000316801F4E061884204D2316821F4E06159
:1029200001433160207880060CD5E1695846DBF818
:10293000002002F07002914204D2026822F070027C
:102940000A43026000F06CF80E492A682B68C2F353
:10295000032203F00F038A5CC95C02F01F0201F03E
:102960001F01D040084A20FA01F1116007490860B0
:1029700007480068BDE8F05FFFF704B80020005288
:1029800018440258045000081400002010000020D1
:102990000800002030B500F043F80B4A0B490C4BFF
:1029A00015681468C5F3032204F00F048A5C095DFE
:1029B00002F01F0201F01F01D040064A20FA01F187
:1029C00019601060084630BD1844025804500008D1
:1029D000140000201000002000B5FFF7DBFF0549C0
:1029E0000968054AC1F30211515C01F01F01C8409A
:1029F00000BD00001C4402580450000800B5FFF759
:102A0000C9FF05490968054AC1F30221515C01F07B
:102A10001F01C84000BD00001C44025804500008BB
:102A2000454970B545480968434B103B11F03802E1
:102A300008D00111082A03D0102A0BD0182A0BD075
:102A4000084670BD19688906FBD51968C1F3C10134
:102A5000C84070BD3A4870BD3749374D18310C1D1C
:102A600024350A68096826682D6802F0030406F018
:102A70000102C1F30511C5F3CC0515FB02F200EE0E
:102A8000102AB8EE400AE9B32F4ADFED2E0AB7EE5E
:102A9000001A6CB1DFED2D1A012C01D0022C43D0AD
:102AA00002EE101A1068F8EE422A81EEA22A1EE009
:102AB0001C68A40611D51B6801EE901A1168C3F3B7
:102AC000C103F8EE612AD84001EE900AC1F3080074
:102AD000F8EE611A81EEA22A0BE001EE901ADFED0A
:102AE0001C2A00BFF8EE611A106882EEA12AC0F31A
:102AF000080001EE900AF8EE611A40EE201A31EE5D
:102B0000810A00E015E022EE000A1068C0F34620BA
:102B1000401C00EE900AF8EE600A80EE201ABCEE2F
:102B2000C10A10EE100A70BD01EE901ADFED092AFD
:102B3000D8E7002070BD0000104402580090D00378
:102B400040787D0100000039304402580024744A66
:102B50000024744C20BCBE4B2DE9F05F04007DD0F6
:102B6000FF4F2078FE4D1837DFF8F483103DC00783
:102B700048D0D8F80000396800F03800102815D087
:102B8000182803D101F0030002280FD06068B0F5C7
:102B9000803F12D010B1B0F5A02F18D0286820F4D3
:102BA00080302860286820F4802009E028688003AD
:102BB00028D560680028D2D024E0286840F480300E
:102BC0002860606888B1FEF7A1FE064609E0286823
:102BD00040F480202860F0E7FEF798FE801B642810
:102BE0007ED828688003F7D50CE0FEF78FFE0646F6
:102BF00005E000BFFEF78AFE801B6428F0D8286835
:102C00008003F7D42078800756D5D8F80000DFF885
:102C10005093396810F03800A9F10C090ED018282B
:102C200001D188070AD0E068A8B3296821F019010A
:102C300001432960FEF76AFE064628E0286840073F
:102C400002D5E06800288AD0E168286820F01900E1
:102C500008432860FEF75AFE064606E0D2E000BFB1
:102C6000FEF754FE801B0228BAD828684007F7D523
:102C7000217CD9F8002022F0FE4242EA0161C9F825
:102C8000001019E0FEF742FE801B0228A8D8286831
:102C90004007F7D5ECE7FFE7286820F0010028603F
:102CA000FEF734FE064604E0FEF730FE801B0228E5
:102CB00096D828684007F7D42078C00646D5D8F8BB
:102CC0000000DFF89C92396800F03800A9F104098F
:102CD000082812D0182805D101F00300012800E0CF
:102CE000CEE00AD0E0690028286820D040F08000BB
:102CF0002860FEF70BFE064615E02868C00502D5E1
:102D0000E06980287ED194F82010D9F8002022F0C4
:102D10007C5242EA0161C9F8001017E0FEF7F6FDA7
:102D2000801B0228A0D82868C005F7D5EBE720F063
:102D300080002860FEF7EAFD064604E0FEF7E6FDA7
:102D4000801B022890D82868C005F7D42078000797
:102D500029D583486169643000298146016811D012
:102D600041F001010160FEF7D1FD064605E000BF1C
:102D7000FEF7CCFD801B022888D8D9F80000800718
:102D8000F6D510E021F001010160FEF7BFFD064617
:102D900005E000BFFEF7BAFD801B022870D8D9F805
:102DA00000008007F6D42078800623D5A06900288B
:102DB000286810D040F480502860FEF7A7FD064632
:102DC00005E000BFFEF7A2FD801B022858D8286846
:102DD0008004F7D50EE020F480502860FEF796FDC1
:102DE000064604E0FEF792FD801B022848D82868BA
:102DF0008004F7D42078400751D5DFF86891D9F8DE
:102E0000001000E015E141F48071C9F80010FEF7F0
:102E10007DFD064605E000BFFEF778FD801B6428B7
:102E20002ED8D9F80000C005F6D54D4EA068603602
:102E300001280AD008B1052813D0306820F001001D
:102E40003060306820F0040002E0306840F001009B
:102E50003060A06841F2883A98B1FEF757FD81468C
:102E60000AE0306840F004003060EEE7FEF74EFD07
:102E7000A0EB0901514503D830688007F6D50EE074
:102E800072E0FEF743FD814606E000BFFEF73EFD1F
:102E9000A0EB0901514567D830688007F6D4606A15
:102EA00000287CD0DFF8B8A0D8F800100AF1200A7A
:102EB0004FF6F87B0AF10408C1F3C2010329AAF115
:102EC00004096DD00228286820F08070286003D0A3
:102ED000FEF71CFD044681E0FEF718FD064604E0FF
:102EE000FEF714FD801B022875D828688001F7D4EE
:102EF000E26A40F2F331386854F8283F884340EAE8
:102F0000021018433860217B4FF4FE0C22894FF0E9
:102F1000FE47208A4902267D521E401EA1F50071FF
:102F200089B2C2F308021143761E0CEA0040014345
:102F3000484607EA06621143CAF80010D9F80010A3
:102F400021F00101C9F80010D8F80030266A23EA00
:102F50000B0343EAC601C8F80010D9F8001004E0DA
:102F6000104402580048025835E0A26921F00C01D3
:102F70001143C9F800100168E26921F00201114310
:102F80000160016841F480310160016841F4003161
:102F90000160016841F480210160016801E06CE09A
:102FA00020E041F001010160286840F08070286055
:102FB000FEF7ACFC044604E0FEF7A8FC001B022868
:102FC00009D828688001F7D557E000BFFEF79EFCBE
:102FD000001B022802D90320BDE8F09F2868800169
:102FE000F4D44AE039680128DAF8000021D0A26A56
:102FF00001F0030393421CD1E26AC1F305118A4236
:1030000017D1216BC0F30802491E8A4211D1616BAE
:10301000C0F34622491E91420BD1A16BC0F3064278
:10302000491E914205D1E16BC0F30660491E814201
:1030300001D00120D0E7A16C4646D8F80000C0F3CB
:10304000CC00814219D0D9F800004D4620F0010093
:10305000C9F80000FEF75AFC4FEA0007FEF756FCDD
:10306000B842FBD0A26C306820EA0B0040EAC200F4
:103070003060286840F0010028600020ACE770470D
:103080002DE9F0470446006800210369426987681A
:1030900094F8816000F130095FEA025C03EA0205FE
:1030A0000AD51A0708D5816941F40061816120467B
:1030B00000F01DFABDE8F08715F0600F08D1680731
:1030C00006D5616F20468847216F20468847012139
:1030D00005F04100012805D1680703D4216F20467F
:1030E0008847012105F02200022806D1680704D490
:1030F000616F2046BDE8F04708470029DAD128076C
:103100004FF001085BD52068816941F008018161B9
:103110002068816941F0100181612068816941F472
:10312000006181612068016921F008010161206866
:10313000806810F4404F20D023E0E0680F2806D9C3
:103140002068616E006B0860606E001D0FE007284C
:1031500006D9B9F80000616E0880606E801C06E038
:103160002068616E90F830000870606E401C6066E8
:10317000B4F86A00401EA4F86A00B4F86A00002897
:10318000DBD1204601F090F984F88180D4F88400E6
:1031900018B12046FFF773FF8CE7052E07D0042EE9
:1031A00009D0032E86D1204600F0C4FA82E72046DB
:1031B00000F0CEFA7EE7204600F098F97AE715F4A1
:1031C000587FE9D068060AD5D4F8840040F004009E
:1031D000C4F884002068816941F040018161A8053C
:1031E0000AD5D4F8840040F00100C4F884002068B7
:1031F000816941F400718161E8050AD5D4F8840041
:1032000040F00800C4F884002068816941F48071AE
:103210008161A8060AD5D4F8840040F08000C4F883
:1032200084002068816941F020018161D4F8840024
:103230000028B1D0206840F26B32C7F381310368B7
:10324000032923F0010101602068016921EA0201DC
:10325000016102D084F881809BE72068104D81686D
:1032600021F440418160E06F50B10565E06FFDF7EA
:1032700093FB28B1D4F8840040F04000C4F88400E7
:10328000A06F002888D00565A06FFDF785FB00289A
:103290008CD0D4F8840040F04000C4F8840009E7E2
:1032A000654500082DE9F047040029D0594A4FF040
:1032B00000092068584B594D9042C4F8289006D018
:1032C000984204D0A84202D0E1680F2918D8E168DA
:1032D0004FF0010AE76B0831C9080AEB5716714332
:1032E000904205D0984203D0A84201D0082907D8BF
:1032F000904203D0984201D0A84204D1102902D9AB
:103300000120BDE8F08794F8810020B9204684F8B8
:10331000809000F085F8022084F881002068016820
:1033200021F0010101602068A1698268B1F1806F1C
:1033300002F4F81110D16268B2F5800F01D01AB111
:103340000AE0A26B22B107E0A26BB2F1805F03D169
:10335000026842F4805202606068400209D5E06869
:10336000072806D32068236D026822F480721A436E
:1033700003E02068026822F480720260A66AE069B5
:10338000E26B25683043E3680A4310431843A860A2
:10339000D4E90D02D4E90581636A25691843D4F89C
:1033A00020C00A43266810432843A56DD4E9017262
:1033B000D4E9123140EA080040EA0C0038430843DF
:1033C000104318432843F060606868B9206881683A
:1033D00021F4C05141F4006181602068816821F4CA
:1033E000C06141F4806181602068016D21F00101BC
:1033F00001656068400206D52068626DC16821F0F1
:1034000000411143C160C4F8849084F881A0002079
:1034100077E700000030014000380040003C0040E9
:10342000F0B5B5B0064614212EA8FCF7A5FFB821CB
:103430006846FCF7A1FF2849306888424AD100203D
:103440002B904FF480410546CDE900106846FEF709
:10345000D5FC08B1FDF7EDF82048016841F02001E6
:103460000160006800F0200033901C4814380168A7
:1034700041F04001016000682EAC022100F04000E4
:1034800033904FF4C240052384E8230003221448FC
:10349000CDE931232EA9FEF725F9124C0C21124853
:1034A00040228F03130184E82700C4E90435A56195
:1034B0002046C4E90757FDF725FF08B1FDF7B9F825
:1034C0000022B46756201146A663FEF7E5FA56209F
:1034D000FEF7D4FA35B0F0BD00140058F444025899
:1034E00000180258A4000020085402587047704782
:1034F0002DE9F84F044600689946174600F1200B65
:103500008A46FEF703FA064694F88100012839D16D
:10351000BAF1000F7ED0002FFCD094F88000012873
:1035200030D0A26800254FF0010884F88080032184
:1035300084F88110C4F88450C4F85CA06566A4F8CF
:103540006850656725672C34B2F5C02FA786E786DB
:10355000E58754F82C0D18D0C16821F4C02141F43E
:103560000031C160206841686FF30F013943416049
:103570002068016841F0010101606068B0F5800FCA
:1035800008D00CE00220BDE8F88F016841F400612A
:103590000160E7E72068016841F400710160E068BC
:1035A0000F281CD820E02068416989070BD5E16D00
:1035B00009680162E06D001DE065B4F86200401E1C
:1035C000A4F862000BE0FEF7A1F9811B494503D383
:1035D000B9F1FF3F03D09DE0B9F1000F32D0B4F84C
:1035E00062000028DFD179E007282FD872E0206838
:1035F000416989071ED5B4F8621001290DD9E16B24
:1036000059B1E16D09680162E06D001DE065B4F833
:10361000620000E07CE0801E09E0E06D0188ABF80C
:103620000010E06D801CE065B4F86200401EA4F854
:1036300062000BE0FEF76AF9811B494503D3B9F13B
:10364000FF3F03D066E0B9F1000F63D0B4F8620029
:103650000028CCD142E02068416989072ED5B4F812
:10366000621003290CD9E16B402909D9E16D096881
:103670000162E06D001DE065B4F86200001F1AE011
:10368000B4F8621001290CD9E16B51B1E06D0188E9
:10369000ABF80010E06D801CE065B4F86200801E9D
:1036A00009E0E16D097880F82010E06D401CE065CC
:1036B000B4F86200401EA4F862000BE0FEF726F9A1
:1036C000811B494503D3B9F1FF3F03D022E0B9F193
:1036D000000F1FD0B4F862000028BCD100224B4676
:1036E00008212046009600F04BFF28B1D4F8840052
:1036F00040F02000C4F88400204600F0D5FE84F895
:103700008180D4F8840084F8805000283FF43BAFD7
:10371000012038E7204600F0C7FED4F8841084F872
:10372000805041F48071C4F8841084F881800320B3
:1037300029E7000003A010B501F042FB0349012076
:10374000087010BD646F6E770D0A00000000002045
:103750007047401EB0F1807F10B501D3012010BD2D
:103760004FF0E02460610F21601701F031FB002071
:10377000A0610721216110BD30B590F884100129A6
:1037800018D0012280F884202421C0F8881000225B
:10379000202401680B680D6823F0005325F0010513
:1037A0000D60426601680B60C0F8884080F8842094
:1037B000104630BD022030BD7047704770B50446DA
:1037C00090F8840001281DD0012284F88420242050
:1037D000C4F8880020680568026822F001020260CF
:1037E0002068826822F060620A438260204600F00E
:1037F00097FF2268202100201560C4F8881084F803
:10380000840070BD022070BD70B5044690F884003D
:1038100001281DD0012284F884202420C4F88800C7
:1038200020680568026822F0010202602068826850
:1038300022F060420A438260204600F071FF226855
:10384000202100201560C4F8881084F8840070BD21
:10385000022070BD70477047704700002DE9F041AD
:1038600007680025044640F60F030226F869396808
:10387000BA6818420AD183067ED501F0200302F00F
:10388000805C53EA0C0377D0616F74E1CF4BDFF8B3
:1038900040C3134001EA0C0C53EA0C0C6CD05FEAF5
:1038A000C07C0CD05FEAC15C09D54FF0010CC7F8B1
:1038B00020C0D4F8907047F00107C4F890708707D3
:1038C00009D5D70707D027683E62D4F8906046F044
:1038D0000406C4F8906046070AD5D60708D02768C2
:1038E00004263E62D4F8906046F00206C4F8906068
:1038F00006070CD501F020061E4308D026680823D1
:103900003362D4F8903043F00803C4F890300305D4
:103910000BD54B0109D526684FF400633362D4F808
:10392000903043F02003C4F89030D4F89030002B4E
:103930003DD0800609D501F0200002F080510843F7
:1039400003D0616F09B1204688472168D4F8900000
:103950008968490602D410F0280F2AD0204600F0CA
:10396000C5FF2068806840061ED52068083050E8F2
:10397000001F21F0400100E021E040E80012002A91
:10398000F3D1D4F8800078B192490165D4F8800071
:10399000FDF702F800280AD0D4F88000016D00E09D
:1039A0002046BDE8F04108472046FFF755FFBDE837
:1039B000F0812046FFF750FFC4F89050F7E7D4F8A5
:1039C0006CC02023BCF1010F7ED15FEAC06C7BD5B7
:1039D0005FEAC16C78D510203862206880684006A4
:1039E00073D5D4F880107C4A0868904234D07A4A63
:1039F0001832904230D0784A303290422CD0764AF9
:103A00004832904228D0744A6032904224D0724AA0
:103A10007832904220D0704A903290421CD06E4A48
:103A2000A832904218D06D4A904215D06B4A183295
:103A3000904211D0694A303290420DD0674A4832E4
:103A4000904209D0654A6032904205D0634A78328C
:103A5000904201D0614A903240680004000CA6D028
:103A6000B4F85C208242A2D9A4F85E00C869B0F51F
:103A7000807F2FD0216851E8000F20F4807041E84A
:103A80000002002AF6D12068083050E8001F21F01B
:103A9000010140E80012002AF5D12068083050E802
:103AA000001F21F0400140E80012002AF5D1C4F8BF
:103AB0008C30E566216851E8000F20F0100041E8E5
:103AC0000002002AF6D101E040E00BE0D4F88000CB
:103AD000FCF7B2FD2667B4F85C00B4F85E10401A3B
:103AE00081B22FE0B4F85C00B4F85E10B4F85E2048
:103AF000401A81B2002AB2D00029B0D0226852E820
:103B0000000F20F4907042E80007002FF6D1344FE8
:103B1000206800F1080050E8002F02EA070240E8A0
:103B2000002CBCF1000FF3D1C4F88C30E56665675A
:103B3000206850E8002F22F0100240E80023002BFC
:103B4000F6D126672046FFF737FE30E7C60209D5D3
:103B5000560207D54FF4801038622046BDE8F04188
:103B6000FFF779BE06060AD501F0800602F40002CE
:103B7000164304D0A16F00297FF412AF17E7420665
:103B800011D54A060FD52046026852E8001F21F0E1
:103B9000400142E80014002CF6D1C0F88830856757
:103BA00000F02CF903E7020206D54A0004D52046AE
:103BB000BDE8F041FFF74EBEC001C6D50029C4DA0A
:103BC0002046BDE8F041FFF7F8BD000001000010FD
:103BD00020010004D74800081000024010040240F1
:103BE000FEFFFFEF10B5040003D0D4F8880010B139
:103BF00007E0012010BD002084F88400204600F07A
:103C000027F82420C4F888002068016821F0010109
:103C10000160A06A10B1204600F0A4FD204600F02B
:103C20008FFE0128E6D02068416821F49041416070
:103C30002068816821F02A0181602068016841F0D4
:103C4000010101602046BDE8104000F0EFBD00001A
:103C50002DE9F041B4B0074614212EA8FCF78CFBE7
:103C6000B8216846FCF788FB3349386888425FD141
:103C700000201E9001210446CDE900106846FEF7A1
:103C8000BDF808B1FCF7D5FC2C48016841F01001E3
:103C90000160006800F01000339028481038016877
:103CA00041F00101016000682EAB022100F001002B
:103CB00033904FF4C060072283E8130020482EA9F8
:103CC000CDE93142FDF70EFD1E4E29221E494FF46B
:103CD0008068304686E81600C6E903487461B4611E
:103CE000F46134627462FDF70DFB08B1FCF7A1FCCE
:103CF000144D2A22144940237835C7F880601831C2
:103D0000B763284685E81E016C61AC61EC612C62EA
:103D10006C62FDF7F7FA08B1FCF78BFC0022FD6737
:103D200025201146AF63FDF7B7FE2520FDF7A6FE5F
:103D300034B0BDE8F081000000100140F0440258AA
:103D400000000258B0010020100002402DE9F843A5
:103D50000446D0F88800984616460D46202802D022
:103D60000220BDE8F883A5B19EB10021C4F89010EF
:103D70002120C4F888001834FDF7C8FD814654F8A6
:103D8000100CA687E6872027183CB0F5805F02D08C
:103D900003E00120E5E7206910B12E46002510E080
:103DA00000260EE08021204600F0B8FFC0B9DEB149
:103DB00016F8010B21688862B4F85600401EA4F87A
:103DC0005600B4F856004B464FF00002CDF8008084
:103DD0000028E7D14FF04001204600F09FFF48B196
:103DE000C4F888700320BCE735F8020B2168C0F3E3
:103DF0000800E0E7C4F888700020B2E77047FEE7EB
:103E00002DE9F0411C4615460E4607462A2000F0D3
:103E10001BF9380A00F02CF9F8B200F029F9280A49
:103E200000F026F9E8B200F023F92B2000F00CF99D
:103E3000300A00F01DF9F0B200F01AF9200A00F083
:103E400017F9E0B200F014F9BDE8F0412C2000F0C1
:103E5000FBB80000002110B577230446EF22084686
:103E6000FFF7CEFF01220748D103FDF749FD2146A8
:103E70000548BDE810404FF461424FF0FF33FFF7B3
:103E800037BB0000001802581C000020EF2310B5BB
:103E90007821044600201A46FFF7B2FF01220748A6
:103EA000D103FDF72DFD04F561410548BDE8104043
:103EB0004FF461424FF0FF33FFF71ABB001802586E
:103EC0001C000020362010B500F0BEF8002000F0E5
:103ED000CFF83A2000F0B8F8052000F0C9F8B22079
:103EE00000F0B2F80C2000F0C3F80C2000F0C0F88D
:103EF000002000F0BDF8332000F0BAF8332000F0C5
:103F0000B7F8B72000F0A0F8352000F0B1F8BB20DA
:103F100000F09AF8192000F0ABF8C02000F094F8F7
:103F20002C2000F0A5F8C22000F08EF8012000F04F
:103F30009FF8C32000F088F8122000F099F8C42000
:103F400000F082F8202000F093F8C62000F07CF802
:103F50000F2000F08DF8D02000F076F8A42000F0BB
:103F600087F8A12000F084F8E02000F06DF8D02060
:103F700000F07EF8042000F07BF80D2000F078F8C7
:103F8000112000F075F8132000F072F82B2000F0DB
:103F90006FF83F2000F06CF8542000F069F84C20D6
:103FA00000F066F8182000F063F80D2000F060F8CB
:103FB0000B2000F05DF81F2000F05AF8232000F0DD
:103FC00057F8E12000F040F8D02000F051F804202C
:103FD00000F04EF80C2000F04BF8112000F048F8EB
:103FE000132000F045F82C2000F042F83F2000F0AC
:103FF0003FF8442000F03CF8512000F039F82F2021
:1040000000F036F81F2000F033F81F2000F030F8E1
:10401000202000F02DF8232000F02AF8212000F0C5
:1040200013F8112000F010F87820FDF749FB292043
:1040300000F00AF801220348BDE810401103FDF723
:104040005FBC00000018025801B5074800224FF479
:104050000041FDF755FC054801224FF47A7369468B
:10406000FFF746FA08BD0000001802581C000020A7
:10407000012201B50548D103FDF742FC04480122A5
:104080004FF47A736946FFF733FA08BD00180258F7
:104090001C000020094808B5016841F400110160C6
:1040A00000680022114600F4001000908120FDF706
:1040B000F3FCBDE808408120FDF7E0BCE044025875
:1040C0000D4808B5016841F0010101600068002257
:1040D000114600F0010000900B20FDF7DDFC0B20E5
:1040E000FDF7CCFC00220C201146FDF7D5FCBDE805
:1040F00008400C20FDF7C2BCD844025870B586B009
:1041000014216846FCF738F91F48016841F00401A2
:104110000160016801F004010591016841F080012E
:104120000160016801F080010591016841F04001E2
:104130000160016801F040010591016841F0010151
:10414000016000680022114E4FF4104100F00100A0
:1041500005903046FDF7D4FB0125032428030221F6
:10416000CDE90214CDE9000569463046FDF7BAFAFB
:10417000E8030021CDE90214CDE900056946304687
:10418000FDF7B0FA06B070BDE044025800180258BE
:1041900070B515484FF480050021124CEB01072241
:1041A000C0E90321C0E90513C1615A00016220235F
:1041B00041626E118162C162C0E90D21C0E90F3117
:1041C00041648164C16401654165816580E8700076
:1041D000FFF768F8002803D0BDE87040FCF729BA63
:1041E00070BD0000001400581C0000201848002179
:1041F00010B5164C0C224FF4E1330460C0E90131D4
:10420000C160C0E904128161C161016241628162E1
:10421000FFF7E8FC08B1FCF70CFA0D480021FFF7A6
:10422000F3FA08B1FCF705FA09480021FFF7C6FACE
:1042300008B1FCF7FEF90648FFF79EFA002803D004
:10424000BDE81040FCF7F5B910BD000000100140BA
:104250001C010020FEE7FEE7704700002DE9F04753
:10426000454D044689464FF0000A2868C043800740
:104270000AD0414E283E306820F080603060FDF763
:1042800045FB0746B04608E00120BDE8F08700BFC7
:10429000FDF73CFBC01B022867D8D8F800000001DE
:1042A000F6D4206829684FF4FE0721F47C313E02E1
:1042B00041EA00302860207AA389B4F804C04002A3
:1042C0002D4D2D495B1E227CACF1010C1035091DD2
:1042D000A0F5007080B2521ECCF3080C07EA03432D
:1042E00040EA0C00184306EA02621043286008689E
:1042F000626920F0C000104308600A68A06922F0DB
:10430000200202430A60281D0A6822F010020A6097
:1043100002684FF6F873E4699A4342EAC402026005
:104320000868B9F1000F40F010020A6011D0086867
:10433000B9F1010F11D040F400100860D8F8000066
:10434000444640F08060C8F80000FDF7DFFA0546FB
:104350000DE0086840F40020EFE740F48010ECE73F
:10436000FDF7D4FA401B022801D903208DE720680D
:104370000001F5D5504688E7284402582DE9F0475A
:10438000454D044689464FF0000A2868C04380071F
:104390000AD0414E283E306820F080503060FDF752
:1043A000B5FA0746B04608E00120BDE8F08700BF37
:1043B000FDF7ACFAC01B022867D8D8F800008000CF
:1043C000F6D4208829684FF4FE0721F07C713E0264
:1043D00041EA00502860207AA389B4F804C0400262
:1043E0002D4D2D495B1E227CACF1010C1835091DA9
:1043F000A0F5007080B2521ECCF3080C07EA03430C
:1044000040EA0C00184306EA02621043286008687C
:10441000626920F44060104308600A68A06922F4D1
:10442000007202430A60281D0A6822F480720A6042
:1044300002684FF6F873E4699A4342EAC4020260E4
:104440000868B9F1000F40F480720A6011D0086862
:10445000B9F1010F11D040F080700860D8F8000069
:10446000444640F08050C8F80000FDF74FFA05467A
:104470000DE0086840F48000EFE740F40000ECE74E
:10448000FDF744FA401B022801D903208DE720687C
:104490008000F5D5504688E7284402580148FEF7C9
:1044A000EFBD00001C00002010B5026840F26F3321
:1044B0005169946944F0080494610268946944F075
:1044C000100494610268146824F001041460026806
:1044D00014699C4314610268936823F44043936019
:1044E00090F88120042A0CD08A060AD5D0F88420BE
:1044F00042F08002C0F884200268936943F02003F0
:10450000936190F88120032A0CD04A060AD5D0F88E
:10451000842042F00402C0F884200268936943F0CA
:10452000400393618A050AD5D0F8842042F0010245
:10453000C0F884200268936943F400739361C9054D
:104540000AD5D0F8841041F00801C0F88410016841
:104550008A6942F480728A610021A0F86210A0F892
:104560006A1010BD10B5806B00210122A0F86A10FE
:10457000A0F8621080F88120FEF781FD10BD0000D8
:104580002DE9F0411C4616460D460746DDF8188019
:104590000AE000BFFDF7BAF9A0EB0800A04202D381
:1045A000601C01D00BE054B13868406935EA000066
:1045B00007D00020B042EDD00020BDE8F0810320FC
:1045C000FBE70120F6E77047FDF7A6B930B59DB0CF
:1045D0004C216846FBF7D0FE202113A8FBF7CCFE48
:1045E0000220FDF78BFA1D48016821F4404101606B
:1045F0000168002401F440411B9101688904FCD545
:1046000002200A902C230990C20301210C25CDE938
:104610000012CDE90B03CDE90D10CDE910540F9038
:1046200068461294FEF798FA08B172B6FEE7402089
:104630001A9008230501CDE9163013ABCDE9180512
:104640003F21032283E8160013A81146FEF774F8F1
:10465000002801D072B6FEE71DB030BD18480258E0
:104660002748F0B5274A016841F4700101601068DD
:1046700000F00F00072804D2106820F00F00C01DC2
:10468000106021490020204C10340B681F4D43F06E
:1046900001030B6020600B682B400B60136803F074
:1046A0000F03072B04D9136823F00F03DB1D1360DE
:1046B000154C174A1834174B261D371D2060124C15
:1046C000154D28343060261D3860371D23603B1D92
:1046D00035601C1D3A60251D2E1D1860331D22609B
:1046E0002860326018600A6843F2D204064B0B4D12
:1046F00022F4802260330A6018602C60F0BD000054
:1047000088ED00E000200052004402587FEDF6EAF8
:1047100080020101000202020000FF01004000527D
:1047200030B5416EB9B101680D4B03F108048A68D8
:104730008968C2F34262490F5D5C615C2D01B5FB83
:10474000F1F1A0F86A10995CA25C0901B1FBF2F1E9
:10475000A0F8681030BD0121A0F86A10F8E7000049
:10476000F44F000890F82810090706D50168836BFC
:104770004A6822F400421A434A6090F82810C90798
:1047800006D00168C36A4A6822F400321A434A60BC
:1047900090F82810890706D50168036B4A6822F44F
:1047A00080321A434A6090F82810490706D50168FC
:1047B000436B4A6822F480221A434A6090F828101A
:1047C000C90606D50168C36B8A6822F480521A4371
:1047D0008A6090F82810890606D50168036C8A68FB
:1047E00022F400521A438A6090F82810490611D525
:1047F0000168436C4A6822F480121A434A60416C93
:10480000B1F5801F06D10168836C4A6822F4C002AA
:104810001A434A6090F82810090606D50168C26C50
:10482000486820F400201043486070472DE9F843A1
:1048300000250446C0F89050FDF768F880462068CF
:1048400020266FF07E470068000713D500224346FC
:1048500031042046009700F061FA58B1216851E810
:10486000000F20F0800041E80002002AF6D1C4F8D1
:10487000886021E020680068400722D50022434676
:104880004FF480012046009700F048FAC8B1206834
:1048900050E8001F21F4907140E80012002AF6D180
:1048A0002068083050E8001F21F0010140E80012A4
:1048B000002AF5D1C4F88C60032084F88450BDE848
:1048C000F883C4F88860C4F88C60E566256700202A
:1048D00084F88450F3E710B5806B0021A0F85E10D7
:1048E000A0F85610FEF7B8FF10BD000010B5026822
:1048F00052E8001F21F4907142E80013002BF6D11A
:104900000E4B0268083252E8001F194042E80014BA
:10491000002CF6D1C16E012908D1026852E8001FAF
:1049200021F0100142E80013002BF6D100212022D3
:10493000C0F88C20C166416710BD0000FEFFFFEF8C
:104940002DE9F04304468068E24E87B0E24B2168CF
:10495000D4E90427D4F81CC010430A68002547EAAC
:104960000C073843324002430A602068E26841681D
:1049700021F44051114341602268A1699A4201D05B
:10498000206A01439668DFF854C3D54FD54806EA3C
:104990000C060E4396602168666ACA6A22F00F020E
:1049A0003243CA622268BA420ED1006800F0380071
:1049B00018286FD07ADCB8B308286CD010286BD1D7
:1049C0008BE0282868D18EE0C7498A4209D1006867
:1049D00000F0070006285FD2DFE800F0507D7F81FD
:1049E0008385C2498A4209D1006800F00700062881
:1049F0007BD2DFE800F0437072747678BC498A425B
:104A000009D1006800F0070006286ED2DFE800F048
:104A100036636567696BB7498A420BD1006800F05D
:104A20000700062861D200E043E0DFE800F02754E9
:104A300056585A5CB0498A4206D1006800F03800E6
:104A400018284CD0B7DD31E0AC498A4209D1006862
:104A500000F00700062848D2DFE800F0103D3F4193
:104A60004345A7498A420BD1006800F00700062899
:104A70003BD2DFE800F0033032343638002035E036
:104A8000A0498A4209D1006800F03800182826D0D1
:104A900091DD0BE023E01EE027E09B498A420AD12A
:104AA000006800F03800182819D084DD202888D14B
:104AB0001CE001201AE09A4217D18A48001D0068C4
:104AC00000F00700062810D2DFE800F00305070910
:104AD0000B0D02200AE0042008E0082006E0102068
:104AE00004E0202002E0402000E080208749DFF839
:104AF00020829A42874A4FF400434FEA21174FF031
:104B000000064ED110281AD006DC022809D004284D
:104B10000BD008287ED10DE020283ED0402879D146
:104B20003DE0FDF715F8014610E06846FDF722F874
:104B300001990BE003A8FDF7BFF8049906E010689F
:104B4000800605D51068C0F3C100C140002970D0AF
:104B5000606A676838F8102007EB4703B1FBF2F092
:104B6000834257D8B0EB073F54D800230846194674
:104B7000FBF7CAFB02467808130E120243EA012132
:104B800010183A4671410023FBF7BEFB624AA0F5BC
:104B9000407191423ED821688FE03946D8E71946E6
:104BA000D6E7D4F81CC04FF6EF799C4546D10828CB
:104BB00019D005DC58B101280CD0042875D10DE0BE
:104BC000102815D0202835D040286ED134E0FDF7CC
:104BD00003FF01E0FDF712FF014610E06846FCF715
:104BE000C9FF01990BE003A8FDF766F8049906E0F8
:104BF0001068800604D51068C0F3C100C140C1B17F
:104C0000636A606838F81330B1FBF3F1490001EBD7
:104C1000500100E049E0B1FBF0F0A0F1100149457E
:104C200043D84FF6F0732168C0F342021840104396
:104C300043E043E03946E3E71946E1E7082819D0A5
:104C400005DC58B101280CD004282ED10DE0102825
:104C500015D020282BD0402827D12AE0FDF7BCFE14
:104C600001E0FDF7CBFE014610E06846FCF782FF4D
:104C700001990BE003A8FDF71FF8049906E01068FE
:104C8000800604D51068C0F3C100C140B1B1636AA9
:104C9000606838F81330B1FBF3F101EB5001B1FB60
:104CA000F0F0A0F11001494505D9012506E039468B
:104CB000EDE71946EBE7216880B2C8600120A4F84F
:104CC0006A00A4F8680028466667A66707B0BDE8D2
:104CD000F0830000F369FFCF000C0058FFF4FF11D0
:104CE0000010014054440258004400400048004075
:104CF000004C00400050004000140140007800408B
:104D0000007C004000180140001C01400090D003CE
:104D1000DC4F000800440258FFFC0F002DE9F0476B
:104D2000994617460D460446089E4FF0000833E0AA
:104D3000701C31D0FCF7EAFDA0EB0900B04218D896
:104D4000BEB120680168490726D5802D24D0402DAA
:104D500022D0C169C94309070DD408250562204640
:104D6000FFF7C4FDC4F89050012084F88480BDE8AA
:104D7000F0870320FBE7C069C04300050CD421681D
:104D80004FF4006008622046FFF7B0FD2021C4F810
:104D9000901084F88480ECE72068C06935EA000050
:104DA00004D00020B842C3D00020E0E70120F9E79A
:104DB0000148FEF753BD00001C010020FEE7000083
:104DC000014A024900F024B8354E000818000020BE
:104DD000090700284FEA116104DB00F1E02080F8A8
:104DE0000014704700F00F0000F1E02080F8141D5F
:104DF000704702E008C8121F08C1002AFAD17047A4
:104E00007047002001E001C1121F002AFBD170474A
:104E10002DE9F04116460F460446002503E03946C9
:104E2000B047641C6D1C20780028F8D12846BDE8E6
:104E3000F081000013B50448FF2301226946FEF704
:104E400085FF00981CBD00001C0100201FB5002438
:104E50000094019402940394FCF7E2FD01208DF884
:104E60000C4012228DF808208DF8094003238DF89C
:104E70000D404FF010518DF800008DF80A008DF8AC
:104E80000E008DF8014001918DF80B308DF80F0068
:104E90006846FCF797FD0420FCF7D0FD45490868FB
:104EA000800311D4BFF34F8FBFF36F8F424804606C
:104EB000BFF34F8FBFF36F8F086840F40030086076
:104EC000BFF34F8FBFF36F8F0868C00323D43948F7
:104ED00070300460BFF34F8F001F43F6FF7C006803
:104EE000354D1035C0F34E32C0F3C9030CEA4216FB
:104EF000184600BF46EA80772F60401EFAD2521E45
:104F0000F4D2BFF34F8F086840F480300860BFF3DD
:104F10004F8FBFF36F8FFCF707FDFFF757FBFFF7CE
:104F2000EDF8FFF7B7F8FFF7CBF8FFF75FF9FFF7FA
:104F30002FF9FEF7C7FF21492F25E02600204FF467
:104F4000614301EB4007421C01F8105090B27E70A3
:104F50009842F6D31A4AFF210020451C02EB400676
:104F600002F81010A8B298427170F6D315A0FFF79E
:104F700027FF174D4FF47A762C701048FEF76AFF22
:104F80003046FCF79DFB2C700C48FEF77FFF304647
:104F9000FCF796FB2C700A48FEF75CFF3046FCF7E6
:104FA0008FFB2C700648FEF771FF3046FCF788FB3C
:104FB000E2E7000014ED00E050EF00E00000002404
:104FC00000C2012453544D3332483732330D0A00A6
:104FD0000000002000061016000610160100020056
:104FE0000400060008000A000C0010002000400029
:104FF0008000000101010103070100000804020410
:105000000801010100000000010203040102030481
:105010000607080944500008000000201C0000009A
:10502000F24D0008605000081C00002084060000BB
:10503000024E0008605000080000002400840300B5
:10504000024E0008000000000100000010000000F7
:10505000000000000090D0030090D003000000008A
:04000005080002CD20
:00000001FF
