:020000040800F2
:10000000300E0024E50200088F4B00081142000862
:100010008D4B0008D5040008035E000800000000B6
:100020000000000000000000000000003D4F00083C
:10003000D704000800000000B54C00083F4F00083E
:10004000FF020008FF020008FF020008FF0200088C
:10005000FF020008FF020008FF020008FF0200087C
:10006000FF020008FF020008FF020008FF0200086C
:10007000FF020008FF020008FF020008FF0200085C
:10008000FF020008FF020008FF020008FF0200084C
:10009000FF020008FF020008FF020008FF0200083C
:1000A000FF020008FF020008FF020008FF0200082C
:1000B000FF020008FF020008FF020008FF0200081C
:1000C000FF020008FF020008FF020008FF0200080C
:1000D000FF020008FF020008FF020008FF020008FC
:1000E000FF020008FF02000800000000FF020008F5
:1000F000FF020008FF020008FF020008FF020008DC
:10010000FF020008FF020008FF020008FF020008CB
:10011000FF020008FF020008FF020008FF020008BB
:10012000FF020008FF020008FF020008FF020008AB
:10013000FF020008FF020008FF020008FF0200089B
:1001400000000000000000000000000000000000AF
:10015000FF020008FF020008FF020008FF0200087B
:10016000FF020008FF020008FF020008FF0200086B
:10017000FF020008FF020008FF0200080000000064
:10018000FF020008FF020008FF020008FF0200084B
:10019000FF020008FF020008FF020008FF0200083B
:1001A000FF020008FF020008FF0200080000000034
:1001B000FF020008FF020008FF020008FF0200081B
:1001C000FF020008FF02000800000000000000001D
:1001D0000000000000000000FF0200080000000016
:1001E000000000000000000000000000000000000F
:1001F0000000000000000000FF020008FF020008ED
:10020000FF020008FF02000800000000FF020008D3
:10021000FF020008FF020008FF020008FF020008BA
:10022000FF02000800000000FF02000800000000BC
:10023000FF020008FF02000800000000FF020008A3
:10024000FF020008FF020008FF020008FF0200088A
:10025000FF020008FF020008FF020008FF0200087A
:10026000FF020008FF020008FF020008FF0200086A
:10027000FF020008FF020008FF0200080000000063
:10028000FF020008FF020008FF020008FF0200084A
:1002900000000000FF020008FF020008000000004C
:1002A00000000000FF020008FF020008FF02000833
:1002B000FF020008FF020008FF020008FF0200081A
:1002C000FF020008FF020008FF020008DFF810D05C
:1002D00000F07CF800480047915E0008AFF3008012
:1002E000300E00240648804706480047FEE7FEE738
:1002F000FEE7FEE7FEE7FEE7FEE7FEE7FEE7FEE7D6
:10030000DD4F0008CD0200082DE9F05F0546002012
:1003100092469B4688460646814640241BE0284676
:1003200041464746224600F041F853465A46C01A15
:10033000914110D311461846224600F028F82D1A94
:1003400067EB01084F4622460120002100F01FF80C
:1003500017EB00094E41201EA4F10104DFDC4846E2
:1003600031462A464346BDE8F09FD2B201E000F88C
:10037000012B491EFBD270470022F6E710B5134649
:100380000A4604461946FFF7F0FF204610BD202A12
:1003900004DB203A00FA02F1002070479140C2F1DC
:1003A000200320FA03F3194390407047202A04DB0E
:1003B000203A21FA02F00021704721FA02F3D040DE
:1003C000C2F120029140084319467047064C074D80
:1003D00006E0E06840F0010394E807009847103415
:1003E000AC42F6D3FFF776FF345F0008545F000895
:1003F00010B5324904460068884202D0304A904223
:1004000002D1D1F8080302E02E48D0F8080310F416
:10041000403F10D002F0C0FD6168B1F5803F06D0CA
:10042000B1F5003F03D0B1F5403F26D101E0090C02
:1004300017E0800821E000214FF4002001F092FE37
:1004400061688A03920B18D18A140C2A15D2DFE84E
:1004500002F0140606060606060B0D0F1113890C92
:100460004900B0FBF1F008E0000906E0400904E0B3
:10047000800902E0C00900E0000A134940088842F0
:1004800004D82068816821F4407108E00F4988424F
:1004900007D82068816821F4407141F4807181603F
:1004A00010BD0B4988422068816804D821F440714E
:1004B00041F40071F3E741F44071F0E7002002409D
:1004C0000021024000600258105E5F0020BCBE00A8
:1004D00040787D01FEE7704772B6FEE72DE9F047F0
:1004E0000F4690F85C109CB0044601294FF00009BB
:1004F00015D00026DFF8F880012084F85C001896FB
:100500001996216841450ED13A4D0095284603F0D1
:100510008EFE8246206803F08AFE60B10EE0022063
:100520001CB0BDE8F087206E84F85C6040F02000CD
:1005300020660120F4E7BAF1000F09D0216E4FF0D8
:10054000010941F020002066484684F85C60E7E736
:1005500020684146884201D0A84201D1264800E0E7
:10056000264840F61F72D7F800C0254BBCF1000F9B
:1005700023D0D0F808C0D7F804802CF4404C4CEAC3
:10058000080CC0F808C0D4F800C08C4501D0AC45B8
:1005900007D18968AB6801F0010103F00103194339
:1005A00002E0996801F001010029CDD1BD683968E8
:1005B000836829439343194317E0876827F440472A
:1005C000876027688F4201D0AF4207D18968AB6846
:1005D00001F0010103F00103194302E0996801F001
:1005E00001010029B0D1816891438160ACE700002E
:1005F0000020024000210240002302400063025814
:10060000006002582DE9F84F4FF0000B0446FE4EF3
:100610000D46CDF800B0DA4690F85C00FB4F01289B
:1006200008D04FF0010984F85C90206803F0FBFDCE
:1006300018B154E20220BDE8F88F286800280FDBCB
:100640002168B1420CD0CA69030327D090FAA0F008
:10065000B0FA80F000F01F0309FA03F00243CA6108
:10066000D5E900124FF00C0C20681F23C1F3846100
:100670000CEA921C02F01F02604493409140026B0E
:100680009A430A430263206803F0CDFD8046206848
:1006900003F0C5FD58EA000003D048E1C0F38460D0
:1006A000D8E7AA682968206803F0C5FD2068B04231
:1006B00004D1C2686969C2F3C1020BE0D44A12686E
:1006C000B9EB127F02D0C168C90605D4C268696956
:1006D000C2F38202520004E0C268696902F01002AB
:1006E000520891402A69042A5AD02B6800EB8202F2
:1006F000B04202F1600207D103F0F84013680843EA
:1007000040F00040106008E0D2F800C003F0F8406C
:1007100008430CF00041014311602068B0421CD135
:100720002A69E96900EB8200026E22F080720A43B6
:10073000026695F8201020682A6901290AD0002154
:10074000B042AAD100EB8200026E22F000720A438E
:100750000266ECE04FF00071F2E795F8212029697C
:10076000012A17D05FF0000200EB8100016E21F03A
:10077000004111430166297E20682A6901290CD0B5
:100780000021036902F01F02914023F4F0420A4362
:100790000261CCE04FF00042E6E74FF40061F0E781
:1007A000B04273D1002103F034FD000320684FF004
:1007B00000016DD003F02DFD90FAA0F0B0FA80F1A9
:1007C0002868020369D090FAA0F0B0FA80F0814264
:1007D00004D100222068114603F03CFD206801216D
:1007E00003F017FD000320684FF0010158D003F01B
:1007F00010FD90FAA0F0B0FA80F12868020354D0FE
:1008000090FAA0F0B0FA80F0814204D12068002272
:10081000012103F01FFD2068022103F0FAFC000310
:1008200020684FF0020143D003F0F3FC90FAA0F0EF
:10083000B0FA80F1286802033FD090FAA0F0B0FA35
:1008400080F0814204D120680022022103F002FDE1
:100850002068032103F0DDFC000320684FF0030152
:100860002ED003F0D6FC90FAA0F0B0FA80F1286800
:1008700002032AD090FAA0F0B0FA80F0814256D15B
:1008800020680022032103F0E5FC50E020E0FFE7B0
:1008900003F0BFFCC0F3846192E7C0F3846096E785
:1008A00003F0B7FCC0F38461A7E7C0F38460ABE753
:1008B00003F0AFFCC0F38461BCE7C0F38460C0E721
:1008C00003F0A7FCC0F38461D1E7C0F38460D5E7EF
:1008D000016E2A7801F0F841B1EB826F03D1016E0D
:1008E00021F00041016620682978426E02F0F8424A
:1008F000B2EB816F03D1416E21F000414166206867
:100900002978826E02F0F842B2EB816F03D1816EDA
:1009100021F00041816620682978C26E02F0F84219
:10092000B2EB816F03D1C16E21F00041C166206836
:10093000816811F0010F71D1364AB042EB68296825
:100940000FD1D0F8B0C003F01808C1F3130322FA96
:1009500008F20A402CEA030C4CEA020CC0F8B0C0C2
:100960000EE0D0F8C0C003F01808C1F3130322FA58
:1009700008F20A402CEA030C4CEA020CC0F8C0C092
:100980002548E96881427DD1286801031BD090FA8F
:10099000A0F1B1FA81F1491C01F01F0109294FEAC8
:1009A00000313CD8002911D090FAA0F1B1FA81F1C0
:1009B00001F1010101F01F0109FA01F209D100BFA3
:1009C000C0F3846109E0C0F38461E4E7C0F38461AB
:1009D000EEE790FAA0F1B1FA81F101F1010101F025
:1009E0001F0142EA816102D1C0F3846003E090FA02
:1009F000A0F0B0FA80F000F1010000F01F0000EB61
:100A0000400041EA005140E00060025800210240ED
:100A10000010005CFFFF0F000000FF4765E00029A9
:100A20000FD000BF90FAA0F1B1FA81F101F10101FC
:100A300001F01F0109FA01F206D100BFC0F3846181
:100A400006E0C0F38461F1E790FAA0F1B1FA81F118
:100A500001F1010101F01F0142EA816102D1C0F3FD
:100A6000846003E090FAA0F0B0FA80F0434A00F10D
:100A7000010000F01F0000EB400002EB005041EAD3
:100A8000000100E005E041F00071AA68206803F071
:100A9000D2FBD5F800C0BCF1000F26DA384B206835
:100AA0003849DFF8E490984201D0B84201D10A46B3
:100AB00000E04A469268984202F0E07201D0B842E3
:100AC00009D19D68D7F8088005F0010508F00108F4
:100AD00045EA080502E0B56805F001054DB1216E53
:100AE0004FF0010A41F020002066504684F85CB0C7
:100AF000A1E5264DAC451CD115021AD4B042F4D163
:100B0000984202D0B84200D049468B6842F40000B7
:100B100023F0E07202438A601E491D480968B1FB58
:100B2000F0F04000801C00E0401E00900028FBD147
:100B3000DBE7194DAC450CD1D5010AD4B042D4D174
:100B4000984202D0B84200D049468B6842F080708B
:100B50000EE0124DAC45C8D15502C6D4B042C4D146
:100B6000984202D0B84200D049468B6842F48000D7
:100B700023F0E07202438A60B7E70000000020FE25
:100B8000002002400023024000630258000052C7C8
:100B9000400D030014000024000021C3000084CB9A
:100BA0002DE9F8434FF0000504002E46009502D0D1
:100BB000206E18B108E00120BDE8F883204600F05F
:100BC00043F9656684F85C5020688168C1F3407120
:100BD00019B181688E4A1140816020688168C1F333
:100BE000007181B981688B4A114041F08051816068
:100BF0008A4989480968B1FBF0F0401C00E0401EBA
:100C000000900028FBD120688168C1F3007141B9D0
:100C1000216E012641F010012166616E41F0010153
:100C2000616603F000FB216EC90600D420B1206E7E
:100C3000012640F01000E0E0206E20F4807040F0CB
:100C40000200206620688168754D11F0010F1ED1E9
:100C5000744B754A984201D0904207D199689768C1
:100C600001F0010107F00107394302E0A96801F032
:100C7000010161B9984201D0904201D16B4800E076
:100C80006B488268616822F47C120A4382602168A2
:100C9000A9421FD1637ED4E90207E26B5B033A43AA
:100CA000082805D00C280FD01C280FD018280FD0EA
:100CB0005FF0000000F00C0794F8200043EA4703BF
:100CC0001A4342EA00400FE00420F3E70820F1E76E
:100CD0001C20EFE7627E94F82030A768E06B520397
:100CE00042EA03423843104394F82020012A04D1F9
:100CF000A28C504B03EB42421043A26A2AB1E36A32
:100D000002F47872024343EA0200CA68A9420BD196
:100D1000494B1A400243CA602068626B016921F0A6
:100D200040611143016103E0444B1A400243CA6031
:100D3000206803F078FA0746206803F070FA07434A
:100D40004ED12068A946484506D1217E94F8382026
:100D5000890341EA420103E0227E216B41EA8231AC
:100D6000C26844F203039A430A43C26094F8440001
:100D70000128206803D0016921F0010122E04845E3
:100D80000ED1D4E9121CD4E9143502692C4F41EA82
:100D90000C012B433A401943114341F0010111E08A
:100DA000D4E91317B4F848C0DFF89880636D02697E
:100DB00008EB0C4C224D394343EA0C036D1E2A40CC
:100DC0001943114301612068236C026922F07042CB
:100DD0001A4302612068484502D02046FFF708FB0D
:100DE0002069012820680BD0016B21F00F010163FD
:100DF000206E20F0020040F0010020663046DBE665
:100E0000E269016B521E21F00F011143EFE7000070
:100E1000C0FFFF5FC0FFFF7F400D030014000024F0
:100E200000600258002002400021024000230240DE
:100E3000006302580000FEFF0740F0FF03C0F0FF10
:100E40001FF800FC0100FFFFF0B587B00546142134
:100E50006846FFF791FA304C4FF003032F482E6895
:100E600000252F4A216886422E4801F1010116D142
:100E70000129216007D1116841F02001116011683A
:100E800001F020010591016841F001010160006855
:100E90006946009300F001000590234818E0234FB5
:100EA000BE421BD10129216007D1116841F0200108
:100EB0001160116801F020010591016841F0040101
:100EC000016000686946009300F00400059018482E
:100ED000CDE9013500F02CF907B0F0BD15498E427F
:100EE000FAD1016841F080710160016801F0807100
:100EF0000591016841F004010160006800F0040000
:100F000005904FF08060014602F0D2FC4FF0006087
:100F1000014602F0CDFCDFE7000000240020024083
:100F2000D8440258E0440258000002580021024010
:100F300000080258006002582DE9F05F04001746CF
:100F40000D464FF0000B0FD075B1607901280ED01F
:100F50004FF0010A84F805A002212171286807F0EA
:100F60001006042805D04BE00120BDE8F09F0220C8
:100F7000FBE700F0F1F980464FF003095FB125E08F
:100F800000F0EAF9A0EB0800012805D92068406BC1
:100F9000384201D012E03A4F2068406B3842EFD11E
:100FA0002168A869086418E000F0D6F9A0EB0800F1
:100FB00001280BD92068406B002807DA216941F02D
:100FC0000801216184F804900320CEE72068406B7B
:100FD0000028E9DB2168A869486440F2FF332168F2
:100FE000EA69B340886CB240984310438864206833
:100FF000FF222B6AB240C16CB34091431943C164D4
:101000002869012808D122681F236969906BB340C1
:10101000B14098430143916323680721E868DA6B84
:10102000B140012822EA010203D0022826D0A86894
:1010300020B30021AF682868384308434FF480414B
:10104000B0401043D8632068B14002688A43026010
:101050002268116840F6FE736868B3409943B04057
:1010600008431060C021B140206802688A430260D2
:1010700084F804A000206071584676E70121D9E782
:101080000080002070B5040003D02079002510B145
:1010900005E0012070BD2046657100F007F80221CF
:1010A0002171012025612071002070BD10B586B02E
:1010B000044614216846FFF75FF911492068884209
:1010C0001BD11048016841F000510160006800F038
:1010D000005005900B480838016841F0010101609B
:1010E00000680321002200F00100059030208DE807
:1010F00007000548694600F01BF806B010BD000067
:1011000000740040E84402580000025870B50446DC
:1011100000F022F90546601C02D00448007804441F
:1011200000F01AF9401BA042FAD370BD0800002459
:101130002DE9F84F03247A4D00234FF001094FF0B9
:10114000B04B4FF00F0AE4E009FA03F6324078D0D2
:101150000F7907F00307012F01D0022F1AD18768FA
:101160004FEA430ED1F80CC004FA0EF827EA08073C
:101170000CFA0EFC4CEA070CC0F808C0476891F85E
:1011800004C0B743CCF3001C0CFA03FC4CEA070C78
:10119000C0F804C00E79F643B6070BD0C6684FEA14
:1011A00043088F6804FA08FC26EA0C0607FA08F7D9
:1011B0003743C7600E7906F00306022E12D1DE080F
:1011C0000F694FEA437C00EB8606B646366A4FEA63
:1011D000DC6C0AFA0CF807FA0CF726EA0806374323
:1011E000CEF820700F7906684FEA430807F003072E
:1011F00004FA08FC07FA08F726EA0C0637430760EA
:101200004E6816F4403F1CD0464E376847F0020740
:10121000376036689F0706F00206009623F0030643
:1012200006F1B046B6463F0FD6F80864DFF8F880FE
:101230000AFA07FC404526EA0C0603D14FF0000CE1
:101240003AE065E0DFF8E4C0604502D14FF0010C00
:1012500032E0DFF8DCC0604502D14FF0020C2BE039
:10126000DFF8D0C0604502D14FF0030C24E0DFF876
:10127000C8C0604502D14FF0040C1DE0DFF8BCC0CF
:10128000604502D14FF0050C16E0DFF8B4C06045B0
:1012900002D14FF0060C0FE0DFF8A8C0604502D184
:1012A0004FF0070C08E0DFF8A0C0604502D14FF016
:1012B000090C01E04FF00A0C0CFA07FC4CEA060C92
:1012C000CEF808C44F68DBF80060FF0226EA020689
:1012D00000D516435F46CBF80060D1F804C0DBF8B8
:1012E00004605FEA8C2C26EA020600D516437E6075
:1012F0006E684F6826EA0206BF0300D516436E608B
:101300002E684F6826EA0206FF0300D516432E60BA
:101310005B1C0A6832FA03F67FF416AFBDE8F88F5B
:1013200080000058F444025800000258000402589B
:1013300000080258000C025800100258001402580D
:1013400000180258001C0258002402580AB181619A
:1013500070470904FBE700000148806870470000FF
:101360000800002438B5040003D094F8D50310B168
:1013700007E0012038BD002084F8D403204600F0A7
:1013800025F8032084F8D503206804F073FC207C42
:101390008DF8000094E80F0004F002FC022560B90B
:1013A0002068012104F0FEFC38B9207C8DF8000093
:1013B00094E80F0004F09EFC10B184F8D553D8E7F0
:1013C000012084F8D503002038BD000010B5B0B06E
:1013D0000446B8216846FEF7CFFF0F4920688842CF
:1013E00017D100204FF48021CDE900108A00684613
:1013F000219201F005F808B1FFF76EF800F0B0FC9B
:101400000648016841F000710160006800F000705A
:101410002E9030B010BD000000000440D8440258A7
:1014200002488168027811448160704708000024F6
:10143000032010B500F078F801F0F4FD0F4A1049D0
:1014400014681368C4F3032203F00F038A5CC95CB9
:1014500002F01F0201F01F01D0400A4A20FA01F1F8
:101460001160094908600F2000F010F808B1012050
:1014700010BD00F02BF8002010BD000018440258E9
:10148000245F0008180000241400002470B50D4DDE
:1014900004462878A0B14FF47A71B1FBF0F00A4904
:1014A0000968B1FBF0F002F00BFA48B9102C07D232
:1014B00000222146501E00F017F800206C6070BD1D
:1014C000012070BD0800002414000024054808B560
:1014D000016841F002010160006800F00200009024
:1014E00008BD0000F44402580E4BF0B41B680D46D2
:1014F000C3F30223C3F10706042E00D90426191DE5
:10150000072901D2002300E0DB1E012404FA06F1C2
:101510009C40491E2940641E994014402143F0BC60
:1015200004F078BC0CED00E0064900F0070210B5AD
:101530004FF6FF040868044B204040EA022018439D
:10154000086010BD0CED00E00000FA052DE9F04147
:1015500004004FF000050DD094F83200052809D0A2
:1015600094F83200022805D094F832004FF4802617
:1015700018B105E00120BDE8F081002084F83100B9
:10158000204600F069F82068016821F400610160DC
:10159000A068402814D1D4E90010D4E905C2276915
:1015A000E36940F040004CEA020C0A6840EA0C0093
:1015B000DFF89CC03843184302EA0C02104308606D
:1015C000A068244A60280DD1D4E90001D4F81CC0D9
:1015D0002369076843EA0C0341F06001174019438F
:1015E00039430160A06878B9D4E90010D4E9033C1C
:1015F000E76943EA0C03D1F800C0184338430CEA0A
:10160000020C40EA0C000860E069B04217D1606843
:1016100041F61F71B0F5807F206808D0D4E90862D8
:1016200043688B4342EA06221343436007E0D4E950
:101630000A6382688A4343EA06231A43826094F865
:10164000320010B9012084F83200284693E70000E8
:10165000933EF8FF93FEFBFFF0B587B004461421DC
:101660006846FEF789FE244A4FF0030523492668A1
:101670000024234B10688E42224900F1010019D149
:101680000128106007D1186840F010001860186831
:1016900000F010000590086840F004000860086839
:1016A0006946029400F0040005901020CDE9000581
:1016B00015481CE0114F1037BE421AD101281060A6
:1016C00007D1186840F010001860186800F010008A
:1016D0000590086840F010000860086869460294A8
:1016E00000F0100005908020CDE900050748FFF7C5
:1016F0001FFD07B0F0BD0000040000240090004072
:10170000EC440258E0440258000802580010025805
:101710002DE9F04F02688346FE484FF0000A8DB075
:101720000C468242564602D10025012001E00125E7
:101730000020E8460027814607EB47017F1C08EBA5
:10174000C101F8B203F024FA20B108204FF0010AD9
:10175000CBF85400FFB2022FEED3BAF1000F7CD1C8
:10176000DFF8B0E3DEF80000C00707D0DEF80010B5
:1017700046F0010621F00101CEF80010E6480068AD
:10178000C00706D0E44846F00206016821F00101D6
:10179000016005EB45030C93E048424608EBC303A8
:1017A000DFF87CB30121DC469F6800EB8707D7F8A0
:1017B000008428F48078C7F80084DBF80070FF0705
:1017C00032D0DCF80070B9F1010F27F00107CCF836
:1017D00000705CD1069B00EB8303D3F8007447F0E4
:1017E0000207C3F80074079B3BB100EB8303D3F8F7
:1017F000007447F02007C3F80074099B4BB121EA3D
:10180000030300EB8303D3F8047447F48027C3F881
:1018100004740A9BDBB321EA030700EB8703D3F8C8
:10182000047447F0806730E00C9F52F8377077B34C
:1018300000EB8707D7F800C42CF0010CC7F800C4F0
:101840005F683FB100EB8707D7F800C42CF0100C9D
:10185000C7F800C4D3F80CC000E057E1BCF1000F9A
:1018600009D021EA0C0700EB8707D7F804C42CF451
:10187000803CC7F804C41B694BB121EA030700EBA5
:101880008703D3F8047427F08077C3F8047409EB56
:101890004903D4F800C0CDF830C0914652F83370F7
:1018A000BC4518D009EBC302D4F804C0D2F80480B8
:1018B000C44510D0D4F808C0D2F80880C4450AD076
:1018C000D4F80CC0D2F80C80C44504D0D4F810C0B1
:1018D0001269944551D10C9ABA4219D109EBC3024D
:1018E000D4F804C0D2F80480C44511D1D4F80CC097
:1018F000D2F80C80C4450BD1D4F810C012699445BD
:1019000006D1DBF8003043F00103CBF8003034E0BF
:1019100000EB870709EBC302D7F8003423F001037B
:10192000C7F8003453683BB100EB8303D3F800746D
:1019300027F01007C3F80074936800EB8303D3F813
:10194000007427F48077C3F80074D3684BB121EAA0
:10195000030700EB8703D3F8047427F48037C3F838
:10196000047412694AB121EA020300EB8302D2F83F
:10197000043423F08073C2F80434A3685A4600EBA1
:101980008303D3F8007427F4407747EA452747F4E8
:101990008077C3F80074DBF800C063695F1ECCF386
:1019A000074C674508D95F4FD2F800C007EB0347E3
:1019B0002CF47F033B4313601268D207226800EBCC
:1019C0008202D2F800343FD023F003035B1CC2F83C
:1019D000003462684AB100EB8202D2F8003423F08E
:1019E000300343F01003C2F80034E268D3030AD591
:1019F00021EA020300EB8302D2F8043423F4E0234B
:101A000043F480330AE05AB121EA020300EB830277
:101A1000D2F8043423F0E06343F08073C2F8043456
:101A20002269D30307D5914300EB8100D0F8041459
:101A300021F4E0214AE0EAB3914300EB8100D0F8C1
:101A4000041421F0E0614EE001EB450723F00303AD
:101A50003B43C2F8003462685AB100EB8202D2F80C
:101A6000003423F0300343EA451343F01003C2F877
:101A70000034E268D3030CD521EA020300EB8302B1
:101A8000D2F8043423F4E02343EA854343F480335B
:101A90000CE06AB121EA020300EB8302D2F80434BD
:101AA00023F0E06343EA856343F08073C2F80434B3
:101AB000226900E01BE0D3030BD5914300EB8100CA
:101AC000D0F8041421F4E02141EA854141F4403189
:101AD0000BE062B1914300EB8100D0F8041421F0D7
:101AE000E06141EA856141F04071C0F80414F007FB
:101AF00005D0DEF8001041F00101CEF80010B0076B
:101B000004D50548016841F0010101600DB050465F
:101B1000BDE8F08F0050005200A0005200B000520B
:101B200000B400520000FFFFF8B500250446FFF79F
:101B300013FC064624B100206065206D10B170E0F2
:101B400001256EE0204600F073F841F28830A06570
:101B5000258A6FF0FF012268D4F814C00F02636B6E
:101B600007EB0545E06801EB0C27D4F81CC01843CF
:101B700093683D432D4F28433B4040EA0C001843F7
:101B800090602068236AC26822F4E0221A43C2608F
:101B90002368228EA06B40EA024018612268E06B45
:101BA0005061D4E90003026801EB032322F4F851E9
:101BB00019430160A06D0022202133460090204689
:101BC00003F054F805002CD12068626AC168521EE7
:101BD00021F0FF011143C1602068A268016821F073
:101BE0004001114301602068D4E90A12D0F808319D
:101BF000114323F0A0421143C0F808112068016886
:101C000041F001010160A069022804D120688168C7
:101C100041F002018160E068B0F1806F03D00220E2
:101C200020652846F8BD0120FAE70000F4F8E0F846
:101C3000F0B5B5B0044614212EA8FEF79DFBB821DF
:101C40006846FEF799FB2D492068884254D1002050
:101C500013904FF000710446CDE90010684600F083
:101C6000CFFB08B1FEF738FC2548016841F40011AC
:101C70000160016801F400113391016841F4804171
:101C80000160006800F4804033901D480C3001680A
:101C900041F020010160016801F0200133910168E9
:101CA00041F01001016000680A210225309400F023
:101CB000100033900326134FCDE931614FF470705B
:101CC000CDE92E052EA93846FFF732FA09213094C6
:101CD0006802CDE93161CDE92E052EA93846FFF71E
:101CE00027FA0B213094A802CDE93161CDE92E0508
:101CF00005482EA9FFF71CFA35B0F0BD0050005280
:101D0000D44402580014025800100258134970B508
:101D10000A68D243520705D5096801F007018142DC
:101D200013D118E00A6822F0070202430A60FFF7A5
:101D300013FB0A4D4FF47A760446083D07E000BFD6
:101D4000FFF70AFB001BB04201D9012070BD2868D3
:101D5000C0438004F4D4002070BD00000C48025839
:101D60000248016841F08071016070470C480258D8
:101D700010B501F011F905490968054AC1F30211CE
:101D8000515C01F01F01C84010BD00002044025802
:101D9000245F00084A4930B5494C0B1D0A680C34D1
:101DA00009681D68246802F0030305F00102C1F30D
:101DB0000511C4F3CC04002914FB02F200EE102A32
:101DC000F8EE400A76D0414A9FED3E1ADFED3E1A0A
:101DD000B7EE000A23B1012B5AD0022B18D15CE0D8
:101DE000374C283C23689B0612D5394B246801EEFA
:101DF000901A1168C4F3C104F8EE612AE34001EEC1
:101E0000903AC1F30801F8EE611A81EEA22A07E0C8
:101E100002EE101A1168F8EE422A81EEA22A45E07D
:101E200001EE901A1168F8EE611A40EE811A71EE17
:101E3000800A62EE200AC1F3462101EE101AB8EEC4
:101E4000411A31EE001AC0EE811ABCEEE11A80EDA3
:101E5000001A1168C1F3064101EE101AB8EE411ADA
:101E600031EE001AC0EE811ABCEEE11A80ED011AC3
:101E70001168C1F3066101EE101AB8EE411A31EE95
:101E8000000A80EE801ABCEEC10A80ED020A30BD65
:101E900001EE901ADFED0F2A03E001EE901ADFED5C
:101EA0000E2A1168F8EE611A82EEA12AC1F3080128
:101EB000B6E7FFE7002101604160816030BD0000AE
:101EC00028440258000000390024744C3044025861
:101ED0000090D0030024744A20BCBE4B494930B561
:101EE000484C0B1D0A68143409681D68246802F008
:101EF0000303C5F30012C1F30531C4F3CC04002978
:101F000014FB02F200EE102AF8EE400A75D03F4AA8
:101F10009FED3D1AB7EE000A6BB1DFED3D1A012BC4
:101F200001D0022B64D002EE101A1168F8EE422A9A
:101F300081EEA22A21E0334C283C23689B0612D56F
:101F4000344B246801EE901A1168C4F3C104F8EE12
:101F5000612AE34001EE903AC1F30801F8EE611AFC
:101F600081EEA22A0BE001EE901ADFED2B2A00BFD2
:101F7000F8EE611A116882EEA12AC1F3080101EEA0
:101F8000901A1168F8EE611A40EE811A71EE800A1B
:101F900062EE200AC1F3462101EE101AB8EE411A92
:101FA00031EE001AC0EE811ABCEEE11A80ED001A83
:101FB0001168C1F3064101EE101AB8EE411A31EE74
:101FC000001AC0EE811ABCEEE11A80ED011A116808
:101FD000C1F3066101EE101AB8EE411A31EE000AA3
:101FE00080EE801ABCEEC10A80ED020A30BD04E02A
:101FF00001EE901ADFED092ABAE700210160416085
:102000008160F3E728440258000000393844025840
:102010000024744A0090D0030024744C20BCBE4BB2
:10202000494930B5484C0B1D0A681C3409681D68C5
:10203000246802F00303C5F30022C1F30551C4F381
:10204000CC04002914FB02F200EE102AF8EE400A3C
:1020500075D03F4A9FED3D1AB7EE000A6BB1DFED38
:102060003D1A012B01D0022B64D002EE101A116828
:10207000F8EE422A81EEA22A21E0334C283C236864
:102080009B0612D5344B246801EE901A1168C4F3F4
:10209000C104F8EE612AE34001EE903AC1F3080171
:1020A000F8EE611A81EEA22A0BE001EE901ADFED44
:1020B0002B2A00BFF8EE611A116882EEA12AC1F343
:1020C000080101EE901A1168F8EE611A40EE811ACB
:1020D00071EE800A62EE200AC1F3462101EE101A69
:1020E000B8EE411A31EE001AC0EE811ABCEEE11AC8
:1020F00080ED001A1168C1F3064101EE101AB8EE26
:10210000411A31EE001AC0EE811ABCEEE11A80EDE0
:10211000011A1168C1F3066101EE101AB8EE411AF6
:1021200031EE000A80EE801ABCEEC10A80ED020A90
:1021300030BD04E001EE901ADFED092ABAE7002174
:10214000016041608160F3E72844025800000039D3
:10215000404402580024744A0090D0030024744C78
:1021600020BCBE4B2DE9F04FA14A0546DFF87CA20A
:1021700080F48070DFF8809289B013119F4C08437F
:102180009C48AAF104064FF0805C4FF0005828D01C
:10219000DFF858B285F480670F430BF1080B4FD07E
:1021A00085F400670F4360D085F480570F4372D0E9
:1021B00085F400570F434FF480394FF4003E69D047
:1021C00085F400270F4373D085F480370F4370D018
:1021D00085F480460E436DD085F400420A436AD0F0
:1021E0002AE0DAF8001001F00701052924D2DFE81F
:1021F00001F0F9AA6A259F0006A8FFF7CBFD079812
:1022000009B0BDE8F08F6846FFF768FE0098F7E771
:1022100003A8FFF705FF0398F2E72068C0F3C100A9
:1022200022FA00F0ECE72268D2056ED561456CD148
:102230001846E5E74145E3D00020E1E74846DFE7FF
:10224000DBF8001001F46001B1F5800F3BD005DC34
:1022500000294AD0B1F5001FEED174E0B1F5C00FEE
:10226000ECD0B1F5000FE7D162E0DBF8001001F02F
:10227000E061B1F1007F26D004DCB1B3B1F1807F21
:10228000DAD160E0B1F1407FD8D0B1F1806FD3D125
:102290004EE000E01BE0DAF8001001F4E041B1F597
:1022A000005F10D008DC01B3B1F5805FC4D14AE013
:1022B00035E058E065E088E0B1F5405FBED0B1F5AB
:1022C000804FB9D134E020688000B5D5A0E7DAF8B6
:1022D000001001F4E021B1F5403F6DD006DC61B1A2
:1022E00049457BD07145A7D158E07BE0B1F5802FFF
:1022F00066D0B1F5A02F9FD10DE000F06FFE7FE713
:102300006846FFF7EBFD01987AE728E003A8FFF79E
:1023100087FE049874E7216889038AD48CE7DBF888
:10232000001011F440310ED0494510D0714583D1D1
:102330003168256801F040516D077FF574AF0029C1
:102340007FF471AF69E720680001E7D55BE720689B
:102350008000E3D503A8FFF763FE059850E72268E5
:102360009203DBD566E7306810F480303AD04845F8
:10237000D4D120680001D1D56846FFF7AFFD02989F
:102380003EE7DBF8001001F0E041B1F1405F13D00F
:1023900008DC71B1614521D04145BFD12068800082
:1023A000B4D449E7B1F1804F0AD0B1F1A04FB2D017
:1023B00042E7FFF7DDFC23E720684007AED52CE7B6
:1023C0002068C005AAD533E708E0DAF8001011F05C
:1023D0004051A0D0614505D041459FD12068000102
:1023E0008ED429E72068800198D505E7504402582B
:1023F0000090D00340787D010080BB00004402586B
:102400002DE9FE4F0546DFF800A450F8081B002414
:10241000FD4FC943019005F1280026460AF1240A20
:10242000009008011DD4686E50B1B0F5801F0CD02B
:10243000B0F5001F0ED0B0F5401F1ED001240FE0F4
:10244000386840F40030386017E00198022102F04B
:1024500055FC03E00098022102F0E0FC04000CD0DF
:1024600026462888C043C00523D4A86D05281ED25F
:10247000DFE800F00C11161B1B006A6EDAF8001082
:1024800021F440111143CAF80010EAE7386840F41B
:102490000030386009E00198002102F02FFC03E0D1
:1024A0000098002102F0BAFC0446C4B100E0012407
:1024B00026462888DFF85083C04308F12C084005E1
:1024C0002FD4D5F8A400B0F5C00F28D010DCB8B1D7
:1024D000B0F5001F19D0B0F5800F0FD11AE0AA6D2A
:1024E000DAF8001021F007011143CAF80010E0E704
:1024F000B0F5000F13D0B0F5200F10D001240FE07D
:10250000386840F40030386009E00198002102F09A
:10251000F5FB03E00098002102F080FC044694B132
:1025200026462888C043000530D4D5F8A800B0F16D
:10253000407F29D011DCC0B1B0F1807F1AD0B0F15A
:10254000007F10D11BE0D5F8A420D8F8001021F4AA
:1025500060011143C8F80010E3E7B0F1806F13D0B9
:10256000B0F1A06F10D001240FE0386840F40030C3
:10257000386009E00198002102F0C0FB03E00098F8
:10258000002102F04BFC044694B126462868DFF88F
:1025900078B2C0430BF1200B80011FD4E86CD8B196
:1025A00010280FD0202812D0302815D0012414E094
:1025B000D5F8A820D8F8001021F0E0611143C8F840
:1025C0000010E3E7386840F40030386004E0019818
:1025D000022102F093FB044674B126462888C043CA
:1025E000C0042BD4E86DB0F5005F20D00DDCA0B1A5
:1025F000B0F5805F0FD115E0EA6CDBF8001021F038
:1026000030011143CBF80010E8E7B0F5405F13D07C
:10261000B0F5804F10D001240FE0386840F400304E
:10262000386009E00198002102F068FB03E000989F
:10263000002102F0F3FB04468CB126462888C043F3
:10264000800429D4286EB0F5403F23D010DC08B3B5
:10265000B0F5803F14D0B0F5003F0FD115E0EA6D22
:10266000DAF8001021F4E0411143CAF80010E5E760
:10267000B0F5802F0ED0B0F5A02F0BD001240AE0CA
:102680000198012102F03AFB03E00098012102F0D9
:10269000C5FB044694B126462888C04340042AD48A
:1026A000D5F8AC00B0F1405F23D010DC08B3B0F136
:1026B000805F14D0B0F1005F0FD115E02A6EDAF818
:1026C000001021F4E0211143CAF80010E4E7B0F152
:1026D000804F0ED0B0F1A04F0BD001240AE001983A
:1026E000012102F00BFB03E00098012102F096FBB0
:1026F000044674B126462888C04300041FD4E86EFF
:10270000D8B1B0F1805F0ED0B0F1005F10D00124DD
:1027100014E0D5F8AC20D8F8001021F0E0411143C6
:10272000C8F80010E7E7386840F40030386004E08B
:102730000198012102F0E2FA044674B126462868A5
:10274000C043C0011ED4A86CD0B101280ED002280D
:1027500011D0032814D0012413E0EA6EDAF8001037
:1027600021F040511143CAF80010E8E7386840F4FE
:102770000030386004E00198022102F0BFFA0446FC
:102780006CB126462868C043400255D41F480168F2
:1027900041F480710160FEF7DFFD81460EE0AA6C16
:1027A000DBF8001021F003011143CBF80010E9E73A
:1027B000FEF7D2FDA0EB090064283BD8134800685F
:1027C000C005F5D5BCBBDFF84090B5F8B01009F1F5
:1027D0004409D9F8000001F4407100F440708842C7
:1027E00011D0D9F80010D9F8002021F4407142F43A
:1027F0008032C9F80020D9F8002022F48032C9F8CC
:102800000020C9F8001003E02C4402580048025888
:10281000D5F8B000B0F5807F19D1FEF79DFD02908C
:1028200011E000BFFEF798FD0299411A41F288308D
:10283000814208D9032426462878DFF81494C0433F
:10284000C00721D03CE0D9F800008007EAD5D5F8D0
:10285000B010C1F301200328FE480DD0016821F417
:102860007C510160B5F8B020D9F80010C2F30B021A
:102870001143C9F80010DFE7F74A036802EA1112B2
:1028800023F47C511143ECE7A86F182816D005DC1F
:10289000A0B1082808D0102804D10AE020280DD0C3
:1028A00028280BD001240AE00198012102F026FA21
:1028B00003E00098012102F0B1FA044664B1264613
:1028C0002878C04380071ED4686F062819D2DFE835
:1028D00000F0160C11161616AA6FD9F8001021F088
:1028E00038011143C9F80010EAE70198012102F00C
:1028F00005FA03E00098012102F090FA04467CB149
:1029000000E0012426462878C04340071FD4D5F8AC
:102910009000062819D2DFE800F0160C11161616E2
:102920006A6FD9F8001021F007011143C9F80010AF
:10293000E9E70198012102F0E1F903E000980121A3
:1029400002F06CFA0446A4B100E00124264628787F
:10295000C04380062BD4D5F88C00B0F1405F24D062
:1029600011DC10B3B0F1805F15D0B0F1005F10D171
:1029700016E0D5F89020D8F8001021F00701114397
:10298000C8F80010E3E7B0F1804F0ED0B0F1A04FCF
:102990000BD001240AE00198002102F0AFF903E016
:1029A0000098022102F03AFA044694B126462878AB
:1029B000C04340062BD4D5F89800B0F5406F24D022
:1029C00011DC10B3B0F5806F15D0B0F5006F10D1E9
:1029D00016E0D5F88C20D9F8001021F0E041114321
:1029E000C9F80010E3E7B0F5805F0ED0B0F5A05F46
:1029F0000BD001240AE00198002102F07FF903E0E6
:102A00000098022102F00AFA044694B1264628787A
:102A1000C04300062BD4D5F89C00B0F5C04F24D09D
:102A200011DC10B3B0F5005F15D0B0F5804F10D1B8
:102A300016E0D5F89820D8F8001021F4E0511143A1
:102A4000C8F80010E3E7B0F5004F0ED0B0F5204F06
:102A50000BD001240AE00198002102F04FF903E0B5
:102A60000098022102F0DAF9044654B1264628788B
:102A7000C04300071ED4D5F88000B0F5805F0AD0AF
:102A80000FE0D5F89C20D8F8001021F460411143E4
:102A9000C8F80010EBE70098022102F0BFF900B17E
:102AA0000126D5F88020D9F8001021F440511143B7
:102AB000C9F800102878C043C00613D4D5F8940094
:102AC000B0F5807F05D10098022102F0A7F900B18E
:102AD0000126D5F89420D8F8001021F44071114354
:102AE000C8F800102868C043000316D4D5F8A00029
:102AF00038B1B0F5803F09D0B0F5003F0BD00124CC
:102B00000AE00198002102F0F9F803E000980221A0
:102B100002F084F904468CB126462868C04340037D
:102B200022D4D5F88400B0F5801F11D0B0F5001F75
:102B300013D0B0F5401F15D0012414E0D5F8A02023
:102B4000D8F8001021F440311143C8F80010E4E730
:102B5000386840F40030386004E00098012102F049
:102B60005DF904465CB126462868C043C0031CD406
:102B7000286D70B1B0F5803F10D0012414E0D5F875
:102B80008420D9F8001021F440111143C9F8001035
:102B9000EAE7386840F40030386004E00198022128
:102BA00002F0ACF80446DCB126462868C043800039
:102BB00005D40098022102F031F900B101262868FD
:102BC000C04380031BD4E86FB8B1B0F5807F10D04C
:102BD000B0F5007F11D0B0F5407F0ED001240DE09C
:102BE0002A6DDBF8001021F480311143CBF800107E
:102BF000DBE7386840F4003038607CB3264628684C
:102C0000C043C00207D42A6FDAF8001021F0004157
:102C10001143CAF800102868C043800207D4AA6E86
:102C2000DAF8001021F080711143CAF8001028680A
:102C3000C043400009D40748016821F40041016005
:102C40000168D5F8B420114301602868C04306E04C
:102C50005444025810440258CFFFFF001DE007D42F
:102C60006A6DDBF8001021F040511143CBF80010E1
:102C70002868C043000208D4D5F88820D9F800108D
:102C800021F440011143C9F8001028790024C04301
:102C900000F00100204309D00EE0EA6FD9F80010DF
:102CA00021F440711143C9F80010A8E701980021F0
:102CB00002F024F800B106462879C04300F0020073
:102CC000204305D10198012102F018F800B1064611
:102CD0002879C04300F00400204305D10198022167
:102CE00002F00CF800B106462879C04300F0080055
:102CF000204305D10098002102F090F800B106466B
:102D00002879C04300F01000204305D1009801212C
:102D100002F084F800B106462879C04300F0200094
:102D2000044304D10098022102F078F800B916B1EA
:102D30000120BDE8FE8F0020FBE700002DE9F05FD9
:102D400004000F467ED0DFF83882D8F8000000F08B
:102D50000F00B8420CD2D8F8001021F00F0139430F
:102D6000C8F80010D8F8000000F00F00B84269D190
:102D70002078844D40070AD52069296801F0700148
:102D8000884204D9296821F0700101432960207824
:102D90007C4E361D00070AD56069316801F070016C
:102DA000884204D9316821F07001014331602078F4
:102DB000C0060AD5A069316801F4E061884204D9EF
:102DC000316821F4E061014331602078DFF8B4B16B
:102DD00080060BF1080B0CD5E1695846DBF80020A2
:102DE00002F07002914204D9026822F070020A4394
:102DF0000260207880070AD5E068296801F00F0199
:102E0000884204D9296821F00F0101432960207804
:102E1000C0073ED05B49A2682868183920F470606A
:102E2000104328606068022818D0032819D0096868
:102E3000012819D0490700294ADADFF848A1AAF188
:102E4000080A00E044E0DAF8002022F0070202431A
:102E5000CAF80020FEF780FA814612E0096889036B
:102E6000E9E709688901E6E7C905E4E7FEF774FACE
:102E7000A0EB090141F28830814202D90320BDE86C
:102E8000F09F6168DAF8000000F03800B0EBC10F85
:102E9000ECD1207880070AD5E068296801F00F019D
:102EA000884204D2296821F00F0101432960D8F833
:102EB0000010404601F00F01B9420BD9016821F022
:102EC0000F0139430160006800F00F00B84201D0E3
:102ED0000120D4E7207840070AD52069296801F04D
:102EE0007001884204D2296821F0700101432960F1
:102EF000207800070AD56069316801F070018842C6
:102F000004D2316821F07001014331602078C0069D
:102F10000AD5A069316801F4E061884204D23168C1
:102F200021F4E06101433160207880060CD5E1692D
:102F30005846DBF8002002F07002914204D2026889
:102F400022F070020A43026000F06CF80E492A6811
:102F50002B68C2F3032203F00F038A5CC95C02F002
:102F60001F0201F01F01D040084A20FA01F1116050
:102F70000749086007480068BDE8F05FFEF786BAB9
:102F80000020005218440258245F00081800002452
:102F9000140000240C00002430B500F043F80B4A64
:102FA0000B490C4B15681468C5F3032204F00F0499
:102FB0008A5C095D02F01F0201F01F01D040064A41
:102FC00020FA01F119601060084630BD184402581B
:102FD000245F0008180000241400002400B5FFF747
:102FE000DBFF05490968054AC1F30211515C01F094
:102FF0001F01C84000BD00001C440258245F0008A7
:1030000000B5FFF7C9FF05490968054AC1F3022168
:10301000515C01F01F01C84000BD00001C44025873
:10302000245F0008454970B545480968434B103B8B
:1030300011F0380208D00111082A03D0102A0BD051
:10304000182A0BD0084670BD19688906FBD5196887
:10305000C1F3C101C84070BD3A4870BD3749374D12
:1030600018310C1D24350A68096826682D6802F09D
:10307000030406F00102C1F30511C5F3CC0515FBED
:1030800002F200EE102AB8EE400AE9B32F4ADFED53
:103090002E0AB7EE001A6CB1DFED2D1A012C01D00B
:1030A000022C43D002EE101A1068F8EE422A81EE8C
:1030B000A22A1EE01C68A40611D51B6801EE901A16
:1030C0001168C3F3C103F8EE612AD84001EE900AFB
:1030D000C1F30800F8EE611A81EEA22A0BE001EEBE
:1030E000901ADFED1C2A00BFF8EE611A106882EE1C
:1030F000A12AC0F3080001EE900AF8EE611A40EE32
:10310000201A31EE810A00E015E022EE000A106874
:10311000C0F34620401C00EE900AF8EE600A80EEF4
:10312000201ABCEEC10A10EE100A70BD01EE901A12
:10313000DFED092AD8E7002070BD000010440258D6
:103140000090D00340787D010000003930440258DF
:103150000024744A0024744C20BCBE4B2DE9F05F5F
:1031600004007DD0FF4F2078FE4D1837DFF8F48340
:10317000103DC00748D0D8F80000396800F038008A
:10318000102815D0182803D101F0030002280FD011
:103190006068B0F5803F12D010B1B0F5A02F18D004
:1031A000286820F480302860286820F4802009E016
:1031B0002868800328D560680028D2D024E02868D9
:1031C00040F480302860606888B1FEF7C5F8064694
:1031D00009E0286840F480202860F0E7FEF7BCF89A
:1031E000801B64287ED828688003F7D50CE0FEF7A2
:1031F000B3F8064605E000BFFEF7AEF8801B642872
:10320000F0D828688003F7D42078800756D5D8F8FE
:103210000000DFF85093396810F03800A9F10C096C
:103220000ED0182801D188070AD0E068A8B3296811
:1032300021F0190101432960FEF78EF8064628E0C7
:103240002868400702D5E06800288AD0E16828682D
:1032500020F0190008432860FEF77EF8064606E0D5
:10326000D2E000BFFEF778F8801B0228BAD82868A1
:103270004007F7D5217CD9F8002022F0FE4242EA2F
:103280000161C9F8001019E0FEF766F8801B0228FA
:10329000A8D828684007F7D5ECE7FFE7286820F0B2
:1032A00001002860FEF758F8064604E0FEF754F8DF
:1032B000801B022896D828684007F7D42078C006DB
:1032C00046D5D8F80000DFF89C92396800F0380045
:1032D000A9F10409082812D0182805D101F003002B
:1032E000012800E0CEE00AD0E0690028286820D05C
:1032F00040F080002860FEF72FF8064615E02868A9
:10330000C00502D5E06980287ED194F82010D9F854
:10331000002022F07C5242EA0161C9F8001017E057
:10332000FEF71AF8801B0228A0D82868C005F7D538
:10333000EBE720F080002860FEF70EF8064604E078
:10334000FEF70AF8801B022890D82868C005F7D439
:103350002078000729D583486169643000298146B7
:10336000016811D041F001010160FDF7F5FF06464B
:1033700005E000BFFDF7F0FF801B022888D8D9F8D0
:1033800000008007F6D510E021F001010160FDF793
:10339000E3FF064605E000BFFDF7DEFF801B0228C5
:1033A00070D8D9F800008007F6D42078800623D59D
:1033B000A0690028286810D040F480502860FDF7EC
:1033C000CBFF064605E000BFFDF7C6FF801B0228C5
:1033D00058D828688004F7D50EE020F48050286083
:1033E000FDF7BAFF064604E0FDF7B6FF801B022892
:1033F00048D828688004F7D42078400751D5DFF8F2
:103400006891D9F8001000E015E141F48071C9F825
:103410000010FDF7A1FF064605E000BFFDF79CFF89
:10342000801B64282ED8D9F80000C005F6D54D4E73
:10343000A068603601280AD008B1052813D030688A
:1034400020F001003060306820F0040002E03068B5
:1034500040F001003060A06841F2883A98B1FDF771
:103460007BFF81460AE0306840F004003060EEE700
:10347000FDF772FFA0EB0901514503D830688007C2
:10348000F6D50EE072E0FDF767FF814606E000BF6B
:10349000FDF762FFA0EB0901514567D8306880074E
:1034A000F6D4606A00287CD0DFF8B8A0D8F8001005
:1034B0000AF1200A4FF6F87B0AF10408C1F3C201B1
:1034C0000329AAF104096DD00228286820F0807031
:1034D000286003D0FDF740FF044681E0FDF73CFF84
:1034E000064604E0FDF738FF801B022875D82868DF
:1034F0008001F7D4E26A40F2F331386854F8283F8B
:10350000884340EA021018433860217B4FF4FE0CD8
:1035100022894FF0FE47208A4902267D521E401E16
:10352000A1F5007189B2C2F308021143761E0CEABC
:1035300000400143484607EA06621143CAF80010FA
:10354000D9F8001021F00101C9F80010D8F80030B6
:10355000266A23EA0B0343EAC601C8F80010D9F82B
:10356000001004E0104402580048025835E0A269F7
:1035700021F00C011143C9F800100168E26921F043
:10358000020111430160016841F48031016001686A
:1035900041F400310160016841F48021016001685B
:1035A00001E06CE020E041F001010160286840F09A
:1035B00080702860FDF7D0FE044604E0FDF7CCFEE5
:1035C000001B022809D828688001F7D557E000BF02
:1035D000FDF7C2FE001B022802D90320BDE8F09FC0
:1035E00028688001F4D44AE039680128DAF800003C
:1035F00021D0A26A01F0030393421CD1E26AC1F315
:1036000005118A4217D1216BC0F30802491E8A4274
:1036100011D1616BC0F34622491E91420BD1A16BBF
:10362000C0F30642491E914205D1E16BC0F306602A
:10363000491E814201D00120D0E7A16C4646D8F84E
:103640000000C0F3CC00814219D0D9F800004D46EB
:1036500020F00100C9F80000FDF77EFE4FEA0007E8
:10366000FDF77AFEB842FBD0A26C306820EA0B006E
:1036700040EAC2003060286840F001002860002065
:10368000ACE700002DE9F047040029D0594A4FF07B
:1036900000092068584B594D9042C4F8289006D034
:1036A000984204D0A84202D0E1680F2918D8E168F6
:1036B0004FF0010AE76B0831C9080AEB571671434E
:1036C000904205D0984203D0A84201D0082907D8DB
:1036D000904203D0984201D0A84204D1102902D9C7
:1036E0000120BDE8F08794F8810020B9204684F8D5
:1036F000809000F085F8022084F88100206801683D
:1037000021F0010101602068A1698268B1F1806F38
:1037100002F4F81110D16268B2F5800F01D01AB12D
:103720000AE0A26B22B107E0A26BB2F1805F03D185
:10373000026842F4805202606068400209D5E06885
:10374000072806D32068236D026822F480721A438A
:1037500003E02068026822F480720260A66AE069D1
:10376000E26B25683043E3680A4310431843A860BE
:10377000D4E90D02D4E90581636A25691843D4F8B8
:1037800020C00A43266810432843A56DD4E901727E
:10379000D4E9123140EA080040EA0C0038430843FB
:1037A000104318432843F060606868B92068816856
:1037B00021F4C05141F4006181602068816821F4E6
:1037C000C06141F4806181602068016D21F00101D8
:1037D00001656068400206D52068626DC16821F00D
:1037E00000411143C160C4F8849084F881A0002096
:1037F00077E700000030014000380040003C004006
:1038000030B5B5B0044614212EA8FCF7B5FDB8219B
:103810006846FCF7B1FD2249206888423ED100206D
:103820002B904FF480410446CDE900106846FEF726
:10383000E7FD08B1FCF750FE1A48016841F020018D
:103840000160006800F020003390164814380168C9
:1038500041F001010160016801F00101339101684B
:1038600041F00201016000680225072100F002001A
:103870003390A8032E90CDE92F54CDE931410A4869
:103880002EA9FDF755FC082128202E90CDE92F54B4
:10389000CDE9314105482EA9FDF74AFC35B030BDD0
:1038A00000140058F4440258000002580004025862
:1038B000024A136883430B431360704704040058A3
:1038C000401EB0F1807F10B501D3012010BD4FF034
:1038D000E02460610F21601702F09CFA0020A061D3
:1038E0000721216110BD0000F0B590F83C20012AAD
:1038F00043D0012280F83C20D1E90242204ECD691C
:1039000022F440722243D1E9004322F480621A4338
:1039100022F400622243D1E9043422F480521A4393
:103920000B6B22F4005222430C8B22F480421A4388
:10393000036822F4702242EA0442002422F08052FA
:10394000B34242EA050202D00E4DAB4210D10F8DB8
:1039500022F4700CD1E90862CD6A4CEA075121F0DB
:103960008071314321F00071114321F000522A434C
:103970005A6480F83C400020F0BD0220F0BD0000F9
:103980000000014000040140F0B590F83C20012AFD
:1039900041D0224E012480F83C40022280F83D2094
:1039A00002681F4D5368B242D2F808C001D0AA4243
:1039B00003D14F6823F470033B430F6823F0700377
:1039C0001F4357600268B24219D0B2F1804F16D03F
:1039D000144B9A4213D0144B9A4210D0134B9A4274
:1039E0000DD0AA420BD0124B9A4208D0114B9A42EA
:1039F00005D0114B9A4202D0104B9A4204D18968EB
:103A00002CF0800319439160002180F83D4080F83C
:103A10003C100846F0BD0220F0BD0000000001404F
:103A2000000401400004004000080040000C004079
:103A3000001800400040014000E0004000E4004069
:103A400010B5040003D094F83D0010B107E0012048
:103A500010BD002084F83C00204600F023F802202E
:103A600084F83D002068211D01F018FB012084F836
:103A7000480084F83E0084F83F0084F8400084F851
:103A8000410084F8420084F8430084F8440084F83C
:103A9000450084F8460084F8470084F83D00002083
:103AA00010BD000008B5184A01681848914207D1B6
:103AB000016841F001010160006800F001000BE0C5
:103AC000134A91420AD111480838016841F00401B3
:103AD0000160006800F00400009008BD0D4A9142AA
:103AE00007D1016841F002010160006800F00200A6
:103AF000F2E7094A9142F0D1016841F48031016056
:103B0000006800F48030E7E700000140F04402580C
:103B100000080040000401400040014070B5044628
:103B200090F83C000025012814D03A4B012684F877
:103B30003C60022084F83D0022689068184020F420
:103B40007F409060086870282FD010DC10F00F0FB5
:103B500003D022E04FF0020070BD4FEA2012072A86
:103B60001BD2DFE802F0535353534B394100B0F1FD
:103B7000101F4BD009DCB0F5805F0FD0B0F5005FAF
:103B80001ED0B0F5801F08D140E0A0F5801120398B
:103B90003CD010293AD0202938D0012584F83D6046
:103BA000002084F83C00284670BD4A682068D1E9AE
:103BB000021301F0E5FA2068816841F0770109E01D
:103BC0004A682068D1E9021301F0DAFA20688168B6
:103BD00041F480418160E1E7CA684968206801F0EA
:103BE0007DFC2068502106E0CA684968206801F021
:103BF00086FC2068602101F0CDFACFE7CA684968E9
:103C0000206801F06BFC20684021F4E7226801463F
:103C10001046F0E788FFCEFF70B586B00446142149
:103C20006846FCF7A9FB25680023284E0222264996
:103C300003242748B5420CD10D6845F002050D60FC
:103C4000096801F00201059101218DE81E0004912F
:103C500024E0204EB54211D10C6844F002040C60FF
:103C6000096801F002010591A9158DE80E00694669
:103C700026E000BFFDF75CFA06B070BD164EB542F7
:103C80000ED10D6845F002050D60096801AD009286
:103C900001F0020185E81C00CDE904416946E9E72D
:103CA0000E488542E8D1086840F0040008600868C2
:103CB000694600F004000590A8148DE80D0008483E
:103CC000CDE90332D6E70000E0440258000001408D
:103CD0000004025800080040000401400040014078
:103CE0000008025870B5044690F83C0000260D46C6
:103CF00001280BD0012084F83C000C2A4AD007DCB4
:103D000082B1042A20D0082A06D131E0022070BDF9
:103D1000102A53D0142A63D00126002084F83C00D6
:103D2000304670BD206801F03FFA2068816941F09B
:103D3000080181612068816921F0040181612068A6
:103D40002A698169114311E0206801F07FFA206837
:103D5000816941F4006181612068816921F4806199
:103D6000816120682969826942EA01218161D4E781
:103D7000206801F0B7FA2068C16941F00801C1610B
:103D80002068C16921F00401C16120682A69C16904
:103D9000114311E0206801F0F1FA2068C16941F493
:103DA0000061C1612068C16921F48061C16120683E
:103DB0002969C26942EA0121C161AEE7206801F0C8
:103DC00019FB2068416D41F0080141652068416D93
:103DD00021F00401416520682A69416D114311E019
:103DE000206801F041FB2068416D41F400614165AC
:103DF0002068416D21F48061416520682969426D28
:103E000042EA0121416588E710B5040003D094F827
:103E10003D0010B107E0012010BD002084F83C00F7
:103E2000204600F022F8022084F83D002068211D81
:103E300001F034F9012084F8480084F83E0084F849
:103E40003F0084F8400084F8410084F8420084F880
:103E5000430084F8440084F8450084F8460084F860
:103E6000470084F83D00002010BD704730B590F841
:103E70008410012918D0012280F884202421C0F860
:103E800088100022202401680B680D6823F000537D
:103E900025F001050D60426601680B60C0F888409E
:103EA00080F88420104630BD022030BD70B5044635
:103EB00090F8840001281DD0012284F88420242059
:103EC000C4F8880020680568026822F001020260D8
:103ED0002068826822F060620A438260204601F016
:103EE00021FB2268202100201560C4F8881084F886
:103EF000840070BD022070BD70B5044690F8840047
:103F000001281DD0012284F884202420C4F88800D0
:103F100020680568026822F0010202602068826859
:103F200022F060420A438260204601F0FBFA2268D8
:103F3000202100201560C4F8881084F8840070BD2A
:103F4000022070BD10B5040003D0D4F8880010B171
:103F500007E0012010BD002084F88400204600F016
:103F600027F82420C4F888002068016821F00101A6
:103F70000160A06A10B1204601F0F6FA204601F077
:103F8000D7FB0128E6D02068416821F490414160C8
:103F90002068816821F02A0181602068016841F071
:103FA000010101602046BDE8104001F041BB000066
:103FB0002DE9F041B4B0074614212EA8FCF7DCF936
:103FC000B8216846FCF7D8F95C4C02263868072708
:103FD0005B49103C594D4FF00008884225D1002024
:103FE000CDF878800122CDE900206846FEF708FA76
:103FF00008B1FCF771FA286840F0100028602868C2
:1040000000F010003390206840F00100206020682C
:104010004FF4C0612E912EA900F001003390CDE93C
:104020002F684848CDE9318728E0474988422AD19E
:104030000020CDF874800221CDE900106846FEF71B
:10404000DFF908B1FCF748FA3C480838016841F448
:1040500080210160006800F480203390206840F0E7
:104060000200206020682EA900F0020033904FF477
:10407000406081E841013548CDE93187FDF758F8C6
:1040800034B0BDE8F0813249884224D10020CDF817
:1040900078800121CDE900106846FEF7B1F908B13A
:1040A000FCF71AFA286840F020002860286800F021
:1040B00020003390206840F0040020602068C02178
:1040C0002E912EA900F004003390CDE92F682148ED
:1040D000CDE93187D2E720498842D1D10020CDF8FF
:1040E00078800121CDE900106846FEF789F908B112
:1040F000FCF7F2F9286840F080002860286800F09A
:1041000080003390206840F01000206020682EA9C5
:10411000124C00F010003390042081E84101CDE9F9
:1041200031802046FDF704F82EAA08200B2182E8F2
:104130004101CDE931812EA920469FE7F044025884
:1041400000100140000002580048004000040258DE
:104150000014014000080258001C014000100258E1
:104160002DE9F8430446D0F88800984616460D46D7
:10417000202802D00220BDE8F883A5B19EB100211D
:10418000C4F890102120C4F888001834FDF7E4F832
:10419000814654F8100CA687E6872027183CB0F516
:1041A000805F02D003E00120E5E7206910B12E46D0
:1041B000002510E000260EE08021204601F0A6FC3C
:1041C000C0B9DEB116F8010B21688862B4F8560058
:1041D000401EA4F85600B4F856004B464FF00002BB
:1041E000CDF800800028E7D14FF04001204601F0D3
:1041F0008DFC48B1C4F888700320BCE735F8020B89
:104200002168C0F30800E0E7C4F888700020B2E736
:10421000FEE700EB8100006E00F0F8407047806818
:10422000C0F3C00070478068C0F3800070478068AA
:10423000C0F38000704710B5042404EAD15407236A
:10424000C1F3045120448B408A4041699943114392
:10425000416110BD00EB8101034B51F8600F20F06C
:1042600000401043086070470060025830B58DB0C0
:1042700000246846242109940A940B94FCF77CF8E6
:104280001B480425194A0121C0E900248460C0E9C3
:10429000044504764476C16180F820408462C4629B
:1042A0000463C463046480F84440FCF779FC08B1FB
:1042B000FCF712F90E4809A90994FCF70FF908B1A7
:1042C000FCF70AF90B4806210B4A03928DE813000C
:1042D00007486946CDE904548DF82140FCF792F96E
:1042E000002801D0FCF7F8F80DB030BD00200240E6
:1042F00020000024000021430000FF4730B589B0B2
:1043000024216846FCF738F818480024164A04258A
:104310000121C0E900248460C0E9044504764476A4
:10432000C16180F820408462C4620463C463046491
:1043300080F84440FCF734FC08B1FCF7CDF80C4899
:1043400006210C4A03928DE8130008486946CDE91E
:1043500004548DF82140FCF755F9002801D0FCF7F2
:10436000BBF809B030BD00000021024090000024DD
:104370000004002A0000FF4730B589B024216846B8
:10438000FBF7FAFF1A4808221849002404250160A7
:104390000121C0E90142C460C0E9044504764476C5
:1043A000C16180F820408462C46280F83840446370
:1043B0000463C463046480F84440FCF7F1FB08B173
:1043C000FCF78AF80B4806210B4A03928DE813008C
:1043D00007486946CDE904540794FCF713F900280F
:1043E00001D0FCF779F809B030BD00000060025838
:1043F00000010024020030040000FF4700B589B02E
:1044000024216846FBF7B8FF1249114808600846A6
:10441000FCF738FE08B1FCF75FF80020009002219D
:10442000019004900246CDE902010A486946FCF772
:1044300083FD08B1FCF750F8064810226946FCF7E6
:104440007BFD002801D0FCF747F809B000BD000053
:1044500000740040700100242DE9F04387B014215E
:104460006846FBF789FF4048016841F01001016090
:10447000016801F010010591016841F0040101603B
:10448000016801F004010591016841F0200101601B
:10449000016801F020010591016841F0800101608F
:1044A000016801F080010591016841F0010101609E
:1044B000016801F001010591016841F0020101600C
:1044C000016801F002010591016841F040010160BD
:1044D000016801F040010591016841F008010160A7
:1044E000006843F6FF76DFF88480002200F00800C1
:1044F000314605904046FCF729FFDFF874904FF4F1
:104500008067002239464846FCF720FF00240096C9
:10451000012569464046CDE901540394FCF708FEA5
:10452000E8036946CDE9000412480294FCF700FE56
:104530004FF6FF706946CDE900040F480294FCF77E
:10454000F7FD00976946CDE9015448460394FCF70E
:10455000EFFD03206946CDE9000408480294FCF70A
:10456000E7FD07B0BDE8F083E044025800180258A8
:104570000008025800040258000C025800100258AB
:1045800010B586B018216846FBF7F6FE17480021E3
:10459000154A012400F10C0C202302600822C0E916
:1045A00001418CE81A008161C161C0E9081481628F
:1045B000C162C0E90C128163C163FDF7B5FA08B1AD
:1045C000FBF78AFF4FF0011041F2883269460094F0
:1045D000CDE902400548FDF79BF8002801D0FBF724
:1045E0007BFF06B010BD0000005000528401002483
:1045F0000A48602310B5084C0021042204600261BF
:10460000C0E90113C161FCF7A1FF002803D0BDE898
:104610001040FBF761BF10BD00900040E001002496
:104620000A48602310B5084C00210422046002618E
:10463000C0E90113C161FCF789FF002803D0BDE880
:104640001040FBF749BF10BD109000401402002439
:1046500070B514484FF480050021114CEB01032282
:10466000C0E90321C0E90513C1615A0001626E115E
:1046700041628162C162C0E90D21C163016441648C
:104680008164C16401654165816580E87000FEF761
:10469000F9FF002803D0BDE87040FBF71DBF70BDD7
:1046A000001400584802002410B59CB000241C21BE
:1046B000009414A80194029403940494059406941D
:1046C000FBF75AFE342107A8FBF756FE28484FF6A1
:1046D000FF722649C0E90014C0E902420461446146
:1046E0008461FFF7ADF908B1FBF7F6FE4FF4805097
:1046F00000901F486946FFF711FA08B1FBF7ECFE7E
:104700001B48FFF781FB08B1FBF7E6FE184804A938
:1047100004940694FFF738F908B1FBF7DDFE60203A
:104720001694CDE914041248002214A91794189481
:1047300019941A94FFF7D6FA08B1FBF7CDFE4FF49F
:1047400000500794089407A909940A94CDE90B40F6
:1047500007480D941394FFF7C7F808B1FBF7BCFEA8
:104760000348FFF759FA1CB010BD0000004001409B
:10477000B403002410B59CB000241C21009414A89C
:10478000019402940394049405940694FBF7F4FDB9
:10479000342107A8FBF7F0FD2A484FF6FF7228499D
:1047A000C0E90014C0E90242046144618461FFF77A
:1047B00047F908B1FBF790FE4FF480500090214874
:1047C0006946FFF7ABF908B1FBF786FE1D48FFF716
:1047D0001BFB08B1FBF780FE1A4804A9049405945A
:1047E0000694FFF7D1F808B1FBF776FE6020169427
:1047F000CDE914041348042214A9179418941994A9
:104800001A94FFF76FFA08B1FBF766FE4FF40050F9
:1048100007940894099401030A94CDE90B400D9480
:10482000CDE90F41074807A911941394FFF75CF8ED
:1048300008B1FBF751FE0348FFF7EEF91CB010BDBD
:1048400000000140D002002410B58EB000241C21CD
:10485000009407A801940294039404940594069488
:10486000FBF78AFD1D484FF6FF711B4AC0E9002483
:10487000C0E9024104618461FFF7E2F808B1FBF787
:104880002BFE4FF48050009014486946FFF746F91C
:1048900008B1FBF721FE1148FFF7B6FA08B1FBF7A4
:1048A0001BFE0E4804A904940694FFF76DF808B1A6
:1048B000FBF712FE6020CDE907040848082207A98B
:1048C00009940B94FFF70EFA08B1FBF705FE0348B5
:1048D000FFF7A2F90EB010BD000800401C03002431
:1048E00010B59CB000241C21009414A801940294DB
:1048F0000394049405940694FBF73EFD342107A825
:10490000FBF73AFD2A484FF6FF722849C0E9001428
:10491000C0E90242046144618461FFF791F808B183
:10492000FBF7DAFD4FF48050009021486946FFF70D
:10493000F5F808B1FBF7D0FD1D48FFF765FA08B19F
:10494000FBF7CAFD1A4804A9049405940694FFF7DE
:104950001BF808B1FBF7C0FD60201694CDE91404E4
:104960001348082214A91794189419941A94FFF75D
:10497000B9F908B1FBF7B0FD4FF400500794089463
:10498000099401030A94CDE90B400D94CDE90F4140
:10499000074807A911941394FEF7A6FF08B1FBF787
:1049A0009BFD0348FFF738F91CB010BD000401401F
:1049B000680300241848002110B5164C0C224FF44F
:1049C000E1330460C0E90131C160C0E904128161D2
:1049D000C161016241628162FFF7B4FA08B1FBF77D
:1049E0007BFD0D480021FFF787FA08B1FBF774FD46
:1049F00009480021FFF75AFA08B1FBF76DFD064898
:104A0000FFF734FA002803D0BDE81040FBF764BD7F
:104A100010BD0000001C0140BC0500241848002106
:104A200010B5164C0C224FF4E1330460C0E901319B
:104A3000C160C0E904128161C161016241628162A9
:104A4000FFF780FA08B1FBF747FD0D480021FFF79B
:104A500053FA08B1FBF740FD09480021FFF726FA99
:104A600008B1FBF739FD0648FFF700FA002803D02C
:104A7000BDE81040FBF730BD10BD00000010014044
:104A8000000400241848002110B5164C0C224FF4E5
:104A9000E1330460C0E90131C160C0E90412816101
:104AA000C161016241628162FFF74CFA08B1FBF714
:104AB00013FD0D480021FFF71FFA08B1FBF70CFDAD
:104AC00009480021FFF7F2F908B1FBF705FD064898
:104AD000FFF7CCF9002803D0BDE81040FBF7FCBC81
:104AE00010BD000000480040940400241848002134
:104AF00010B5164C0C224FF4E1330460C0E90131CB
:104B0000C160C0E904128161C161016241628162D8
:104B1000FFF718FA08B1FBF7DFFC0D480021FFF79B
:104B2000EBF908B1FBF7D8FC09480021FFF7BEF903
:104B300008B1FBF7D1FC0648FFF798F9002803D02D
:104B4000BDE81040FBF7C8BC10BD000000140140D8
:104B5000280500240C48102370B50A4A012402607D
:104B6000002143710225C471817145728172C17245
:104B70000174FCF7F7FB002803D0BDE87040FBF799
:104B8000ABBC70BD0000044050060024FEE7FEE709
:104B9000F0B503004FF0000004460BD0022B09D8FB
:104BA00041B100220A604A60022B8A60CA600A6131
:104BB00002D007E00120F0BD294A1268D20734D0A4
:104BC0004FF40074274D002205EB8203D3F8043420
:104BD000DE0707D003F0020604F00207BE4201D14F
:104BE000561C0E60DE0607D503F0200604F02007F1
:104BF000BE4201D1561C4E60DE0507D503F4007697
:104C000004F40077BE4201D1561C8E60DE0311D53C
:104C100003F4802604F48027BE420BD19E0302F1E8
:104C2000010604D446F4803603E00F4CCAE746F090
:104C30008076CE60DE010FD503F0806604F08067D9
:104C4000BE4209D19B0102F1010302D443F4803337
:104C500001E043F080730B61521C022AB4D3F0BD13
:104C600000B4005200B00052220204042DE9F041C9
:104C7000984616460F460446069D08E0681C06D076
:104C8000FCF76AFBA0EB0800A8420AD84DB12068E7
:104C9000006A384000D00120B042EFD10020BDE8CA
:104CA000F0814FF400702065606D40F00100606598
:104CB0000120F4E7704730B5AFB0B8216846FBF784
:104CC0005BFB00230F24022004904FF40022C02538
:104CD000CDE90023CDE9020440F686320590CDE906
:104CE000060568462893CDE90832FDF789FB0028C0
:104CF00001D072B6FEE72FB030BD00002DE9F047BD
:104D0000454D044689464FF0000A2868C043800795
:104D10000AD0414E283E306820F080603060FCF7B9
:104D20001BFB0746B04608E00120BDE8F08700BF46
:104D3000FCF712FBC01B022867D8D8F8000000015E
:104D4000F6D4206829684FF4FE0721F47C313E0236
:104D500041EA00302860207AA389B4F804C04002F8
:104D60002D4D2D495B1E227CACF1010C1035091D27
:104D7000A0F5007080B2521ECCF3080C07EA034382
:104D800040EA0C00184306EA0262104328600868F3
:104D9000626920F0C000104308600A68A06922F030
:104DA000200202430A60281D0A6822F010020A60ED
:104DB00002684FF6F873E4699A4342EAC40202605B
:104DC0000868B9F1000F40F010020A6011D00868BD
:104DD000B9F1010F11D040F400100860D8F80000BC
:104DE000444640F08060C8F80000FCF7B5FA05467C
:104DF0000DE0086840F40020EFE740F48010ECE795
:104E0000FCF7AAFA401B022801D903208DE720688D
:104E10000001F5D5504688E7284402582DE9F047AF
:104E2000454D044689464FF0000A2868C043800774
:104E30000AD0414E283E306820F080503060FCF7A8
:104E40008BFA0746B04608E00120BDE8F08700BFB6
:104E5000FCF782FAC01B022867D8D8F8000080004F
:104E6000F6D4208829684FF4FE0721F07C713E02B9
:104E700041EA00502860207AA389B4F804C04002B7
:104E80002D4D2D495B1E227CACF1010C1835091DFE
:104E9000A0F5007080B2521ECCF3080C07EA034361
:104EA00040EA0C00184306EA0262104328600868D2
:104EB000626920F44060104308600A68A06922F427
:104EC000007202430A60281D0A6822F480720A6098
:104ED00002684FF6F873E4699A4342EAC40202603A
:104EE0000868B9F1000F40F480720A6011D00868B8
:104EF000B9F1010F11D040F080700860D8F80000BF
:104F0000444640F08050C8F80000FCF725FA0546FA
:104F10000DE0086840F48000EFE740F40000ECE7A3
:104F2000FCF71AFA401B022801D903208DE72068FC
:104F30008000F5D5504688E7284402587047FCF7B2
:104F40006FBA000070B59CB04C216846FBF714FAAC
:104F5000202113A8FBF710FA0220FCF7D7FE1E4809
:104F6000016821F4404101600168002401F44041DE
:104F70001B9101688904FCD502200A902C2309901A
:104F8000C20301210D910525CDE90012CDE90B03E6
:104F90000C261294CDE90E50CDE910646846FEF758
:104FA000DDF808B172B6FEE740201A90082305012B
:104FB000CDE9163013ABCDE918053F21032283E874
:104FC000160013A81146FDF7B9FE002801D072B6ED
:104FD000FEE71CB070BD0000184802582748F0B525
:104FE000274A016841F470010160106800F00F0069
:104FF000072804D2106820F00F00C01D106021495E
:105000000020204C10340B681F4D43F001030B604F
:1050100020600B682B400B60136803F00F03072B15
:1050200004D9136823F00F03DB1D1360154C174AD6
:105030001834174B261D371D2060124C154D28348F
:105040003060261D3860371D23603B1D35601C1DF8
:105050003A60251D2E1D1860331D226028603260C5
:1050600018600A6843F2D204064B0B4D22F48022EA
:1050700060330A6018602C60F0BD000088ED00E02D
:1050800000200052004402587FEDF6EA8002010140
:10509000000202020000FF01004000522DE9F0472B
:1050A0002D4B4FF0804A2D4D026898422C4E2D4FCB
:1050B0002D4C09D0504507D0A84205D0B04203D0AE
:1050C000B84201D0A04205D1D1F804C022F070024C
:1050D0004CEA0202DFF894C0DFF894809842DFF8CF
:1050E000949015D0504513D0A84211D0B0420FD0A3
:1050F000B8420DD0A0420BD0604509D0404507D042
:10510000484505D01C4DA84202D01C4DA84203D1F1
:10511000CD6822F440722A434D6922F080022A436E
:10512000026098428A68C2620A68826207D0A0421E
:1051300005D0604503D0404501D0484501D10969FB
:105140000163012141610169C90703D0016921F0AF
:1051500001010161BDE8F08700000140000400404A
:1051600000080040000C00400004014000400140E5
:10517000004401400048014000E0004000E40040DD
:1051800042EA032283680A4323F47F410A43826090
:1051900070470000034B82681A400A4342F007013F
:1051A000816070478FFFCFFF2DE9F04FDFF88480DB
:1051B000214EDFF88890DFF888B0026A036AB042B7
:1051C000DFF880A022F0020C1F4F23F001020262E0
:1051D000426885698B680C6805EA080525F00305B7
:1051E00043EA0C0344EA050407D0484505D0584576
:1051F00003D0504501D0B84205D1CD6823F0080353
:105200001D4325F00403B04207D0484505D058455A
:1052100003D0504501D0B84205D122F44076D1E9FF
:10522000055235432A434260846149684163036201
:10523000BDE8F08F8FFFFEFF000001400004014039
:10524000004001400044014000480140F0B5DFF853
:105250007CE01F4C1F4D026A036AA04222F0200628
:1052600023F01003036242688369D1F808C00F6815
:1052700003EA0E0323F4407E46EA0C134EEA0726A7
:1052800001D0A84206D1CF6823F0800343EA071378
:1052900023F04003A0420AD0A84208D00E4CA042FE
:1052A00005D00E4CA04202D00D4CA04207D1D1E94E
:1052B000054522F4406242EA840242EA85024260E5
:1052C0008661496881630362F0BD0000FF8FFFFEC5
:1052D0000000014000040140004001400044014042
:1052E00000480140F0B5DFF87CE01F4D1F4E026A18
:1052F000036AA84222F4007723F4807303624368B0
:10530000C269D1F808C002EA0E020C6822F0030E4E
:1053100047EA0C2244EA0E0401D0B04206D1CF681D
:1053200022F4006242EA072222F48062A8420AD0F4
:10533000B04208D00E4DA84205D00E4DA84202D072
:105340000D4DA84207D1D1E9055623F4405343EA55
:10535000051343EA06134360C4614968C1630262EE
:10536000F0BD00008FFFFEFF00000140000401407F
:10537000004001400044014000480140F0B5046A8B
:10538000026A22F4805202624268C36924F4005423
:10539000DFF848C08E680D6803EA0C03104F23F451
:1053A000407344EA0634B84243EA05230BD00D4D5E
:1053B000A84208D00C4DA84205D00C4DA84202D0FE
:1053C0000B4DA84204D14D6922F4804242EA851275
:1053D0004260C361496801640462F0BDFF8FFFFE53
:1053E0000000014000040140004001400044014031
:1053F00000480140F0B5164F164B026A046A984205
:1054000022F4003524F4803303624268436D0E8930
:105410000C6803EA070344EA030445EA06430BD099
:105420000D4DA84208D00D4DA84205D00C4DA84204
:1054300002D00C4DA84204D14D6922F4803242EAD8
:10544000052242604465496881650362F0BD000041
:105450008FFFFEFF000001400004014000400140BA
:105460000044014000480140F0B5164F164B026A57
:10547000046A984224F48013036222F40014426800
:10548000436D0E890D6803EA070344EA065443EAB4
:1054900005230BD00D4DA84208D00D4DA84205D0D4
:1054A0000C4DA84202D00C4DA84204D14D6922F403
:1054B000802242EA8522426043654968C1650462F0
:1054C000F0BD0000FF8FFFFE00000140000401401E
:1054D00000400140004401400048014010B5036A0B
:1054E000046A23F00A0324F00104046284690B4374
:1054F00024F0F00141EA02118161036210BD10B590
:10550000036A046A23F0A00324F01004046284698F
:1055100043EA011124F4704343EA023282610162DA
:1055200010BD000030B5416EB9B101680D4B03F1FB
:1055300008048A688968C2F34262490F5D5C615C55
:105540002D01B5FBF1F1A0F86A10995CA25C09018C
:10555000B1FBF2F1A0F8681030BD0121A0F86A108B
:10556000F8E70000145F000890F82810090706D536
:105570000168836B4A6822F400421A434A6090F83B
:105580002810C90706D00168C36A4A6822F40032AD
:105590001A434A6090F82810890706D50168036B02
:1055A0004A6822F480321A434A6090F8281049076A
:1055B00006D50168436B4A6822F480221A434A6088
:1055C00090F82810C90606D50168C36B8A6822F4D2
:1055D00080521A438A6090F82810890606D501681F
:1055E000036C8A6822F400521A438A6090F82810EB
:1055F000490611D50168436C4A6822F480121A43A7
:105600004A60416CB1F5801F06D10168836C4A681D
:1056100022F4C0021A434A6090F82810090606D501
:105620000168C26C486820F400201043486070474D
:105630002DE9F84300250446C0F89050FBF78CFE96
:105640008046206820266FF07E470068000713D54B
:105650000022434631042046009700F057FA58B123
:10566000216851E8000F20F0800041E80002002A84
:10567000F6D1C4F8886021E020680068400722D590
:10568000002243464FF480012046009700F03EFA86
:10569000C8B1206850E8001F21F4907140E8001262
:1056A000002AF6D12068083050E8001F21F00101DF
:1056B00040E80012002AF5D1C4F88C60032084F879
:1056C0008450BDE8F883C4F88860C4F88C60E5664F
:1056D0002567002084F88450F3E7000010B50268C5
:1056E00052E8001F21F4907142E80013002BF6D11C
:1056F0000E4B0268083252E8001F194042E80014BD
:10570000002CF6D1C16E012908D1026852E8001FB1
:1057100021F0100142E80013002BF6D100212022D5
:10572000C0F88C20C166416710BD0000FEFFFFEF8E
:105730002DE9F04304468068E24E87B0E24B2168D1
:10574000D4E90427D4F81CC010430A68002547EAAE
:105750000C073843324002430A602068E26841681F
:1057600021F44051114341602268A1699A4201D05D
:10577000206A01439668DFF854C3D54FD54806EA3E
:105780000C060E4396602168666ACA6A22F00F0210
:105790003243CA622268BA420ED1006800F0380073
:1057A00018286FD07ADCB8B308286CD010286BD1D9
:1057B0008BE0282868D18EE0C7498A4209D1006869
:1057C00000F0070006285FD2DFE800F0507D7F81FF
:1057D0008385C2498A4209D1006800F00700062883
:1057E0007BD2DFE800F0437072747678BC498A425D
:1057F00009D1006800F0070006286ED2DFE800F04B
:1058000036636567696BB7498A420BD1006800F05F
:105810000700062861D200E043E0DFE800F02754EB
:1058200056585A5CB0498A4206D1006800F03800E8
:1058300018284CD0B7DD31E0AC498A4209D1006864
:1058400000F00700062848D2DFE800F0103D3F4195
:105850004345A7498A420BD1006800F0070006289B
:105860003BD2DFE800F0033032343638002035E038
:10587000A0498A4209D1006800F03800182826D0D3
:1058800091DD0BE023E01EE027E09B498A420AD12C
:10589000006800F03800182819D084DD202888D14D
:1058A0001CE001201AE09A4217D18A48001D0068C6
:1058B00000F00700062810D2DFE800F00305070912
:1058C0000B0D02200AE0042008E0082006E010206A
:1058D00004E0202002E0402000E080208749DFF83B
:1058E00020829A42874A4FF400434FEA21174FF033
:1058F00000064ED110281AD006DC022809D0042850
:105900000BD008287ED10DE020283ED0402879D148
:105910003DE0FCF72DFA014610E06846FCF7DEFAA0
:1059200001990BE003A8FCF77BFB049906E01068E3
:10593000800605D51068C0F3C100C140002970D0B1
:10594000606A676838F8102007EB4703B1FBF2F094
:10595000834257D8B0EB073F54D800230846194676
:10596000FAF7D2FC02467808130E120243EA01212C
:1059700010183A4671410023FAF7C6FC624AA0F5B6
:10598000407191423ED821688FE03946D8E71946E8
:10599000D6E7D4F81CC04FF6EF799C4546D10828CD
:1059A00019D005DC58B101280CD0042875D10DE0C0
:1059B000102815D0202835D040286ED134E0FDF7CE
:1059C0000DFB01E0FDF71CFB014610E06846FCF70B
:1059D00085FA01990BE003A8FCF722FB049906E085
:1059E0001068800604D51068C0F3C100C140C1B181
:1059F000636A606838F81330B1FBF3F1490001EBDA
:105A0000500100E049E0B1FBF0F0A0F11001494580
:105A100043D84FF6F0732168C0F342021840104398
:105A200043E043E03946E3E71946E1E7082819D0A7
:105A300005DC58B101280CD004282ED10DE0102827
:105A400015D020282BD0402827D12AE0FDF7C6FA10
:105A500001E0FDF7D5FA014610E06846FCF73EFA92
:105A600001990BE003A8FCF7DBFA049906E0106843
:105A7000800604D51068C0F3C100C140B1B1636AAB
:105A8000606838F81330B1FBF3F101EB5001B1FB62
:105A9000F0F0A0F11001494505D9012506E039468D
:105AA000EDE71946EBE7216880B2C8600120A4F851
:105AB0006A00A4F8680028466667A66707B0BDE8D4
:105AC000F0830000F369FFCF000C0058FFF4FF11D2
:105AD0000010014054440258004400400048004077
