:020000040800F2
:10000000B812002005010008C7360008612D00085D
:10001000C53600089D0B00080B3D000800000000DD
:10002000000000000000000000000000B9370008D8
:10003000D70B000800000000C9360008BB370008D5
:100040001F0100081F0100081F0100081F01000810
:100050001F0100081F0100081F0100081F01000800
:100060001F0100081F0100081F0100081F010008F0
:10007000A10B00081F0100081F0100081F01000854
:100080001F0100081F0100081F0100081F010008D0
:100090001F0100081F0100081F0100081F010008C0
:1000A0001F0100081F0100081F0100081F010008B0
:1000B0001F0100081F0100081F0100081F010008A0
:1000C0001F0100081F0100081F0100081F01000890
:1000D0001F0100081F0100081F0100081F01000880
:1000E0001F0100081F0100081F010008DFF810D0E1
:1000F00000F06CFC00480047E54A0008AFF30080C0
:10010000B81200200648804706480047FEE7FEE791
:10011000FEE7FEE7FEE7FEE7FEE7FEE7FEE7FEE7B7
:100120003B380008ED000008202A04DB203A21FAC1
:1001300002F00021704721FA02F3D040C2F1200200
:10014000914008431946704740EA01039B0703D0DA
:1001500009E008C9121F08C0042AFAD203E011F806
:10016000013B00F8013B521EF9D27047D2B201E0C8
:1001700000F8012B491EFBD270470022F6E710B5AC
:1001800013460A4604461946FFF7F0FF204610BD05
:10019000F0B480EA0102D40F4200B2EB410F02D268
:1001A0000246084611464A0042D0C30DDDB2C1F3F3
:1001B000C752AD1A202D35DAC1F3160141F4000201
:1001C00004B15242C5F1200602FA06F12A41104458
:1001D000B3EBD05F23D0C4B1012DA0EBC35009DC39
:1001E000F0BC4FF0004202EAC352DBB200F500005F
:1001F00000F007BB400000F1807000EBC350A0F19D
:10020000807040EAD170490009E0490841EAC071B4
:10021000A0EBC35000F50000400800EBC350F0BC59
:1002200000F0E6BA6142012202EB4101001BF6E751
:10023000F0BC704781F00041AAE780F00040A7E7DA
:1002400080EA010210B502F00043400022D04A00CB
:100250001FD0010E01EB1261C0F35600C2F356022B
:1002600040F4000042F40002A0FB022000047F39A9
:10027000140400D0401C50EA124001D44000491E32
:10028000C2B20C0604EBD010401C4008802A02D0F9
:1002900003E0002010BD20F00100002900DA00205A
:1002A000184310BD30B480EA010202F0004530F07E
:1002B000004221F0004013D090B1C30DD40DC2F321
:1002C0001601C0F31600E41A41F4000140F40002E4
:1002D0007D34914201D3641C00E04900002C02DA15
:1002E00030BC002070474FF400000023914201D33E
:1002F000891A034340084FEA4101F7D151B19142B5
:1003000002D14FF0004105E002D24FF0010101E0BF
:100310006FF0010103EBC450284430BC00F068BA10
:10032000420005D0C0F3C7525242914201DC002086
:10033000704700EBC15070472DE9FE4F804681EABF
:100340000300C00F0C46009021F0004123F000454F
:10035000B8EB0200A94105D24046214690461C4612
:100360000B46024623F00040104347D0270DC7F349
:100370000A00C3F30A510290401A019040286BDA38
:10038000C3F3130040F4801B0098924620B1002371
:10039000D2EB030A63EB0B0B01985946C0F1400204
:1003A000504600F004FA06460D4650465946019A5A
:1003B00000F00CFA10EB08006141002487EA1152AA
:1003C00084EAE7731A4340D0009A62B3019A012A83
:1003D0004FEA075215DC001B61EB02014FF00042AF
:1003E00002EA0752CDE90042001C41F58011324675
:1003F0002B4600F043FA03B0BDE8F08F404621469B
:10040000F9E7001B61EB0201001C41F580130018A5
:100410005B412018A2F5001747EB030140EAD570B5
:10042000B6196D4111E06D084FEA360645EAC07510
:100430004FEA0752001B61EB0201001C41F58011DD
:1004400049084FEA30000019514132462B4603B0AB
:10045000BDE8F04F00F003BA0098012240000023ED
:10046000D0EB020263EBE073009821464FEAE074A0
:10047000B8EB000061EB0401E9E783F000435BE7C0
:1004800081F0004158E72DE9FE4F81EA030404F0B2
:10049000004421F0004100944FF0000B23F0004392
:1004A00050EA01045ED052EA03045BD0C3F30A545D
:1004B000C1F30A552C44A4F2F3340194A0FB025476
:1004C000C1F3130141F48011C3F3130343F4801308
:1004D00001FB024400FB034E840A970A44EA81545C
:1004E00047EA8357A4FB076802958D0A05FB078539
:1004F0004FEA932C04FB0C542705029D4FEA065843
:1005000047EA1637B5EB08056EEB070C870E920E1F
:1005100047EA811742EA8312A7FB0201B6EB0B01FF
:1005200064EB00042B0D43EA0C335E1844EB1C50C3
:10053000DA465146E7FB0201C5F313044FEA0B33D9
:1005400043EA14534FEA0432019C43EA0603A4F140
:100550000C040294009CCDE900B400F08FF903B0C4
:10056000BDE8F08F00200146F9E72DE9F04D81EA62
:10057000030404F0004B21F0004514464FF0000A3C
:1005800023F0004150EA050220D054EA01021DD0B8
:10059000C5F30A570246C5F31303C1F31300C1F3B1
:1005A0000A5640F4801543F48013A7EB0608101B8D
:1005B000D64608F2FD3873EB050002D308F10108B6
:1005C00001E092185B41B8F1000F03DA0020014608
:1005D000BDE8F08D00204FF48011064684460EE001
:1005E000171B73EB050705D3121B63EB05030643CB
:1005F0004CEA010C49084FEA300092185B4150EA7E
:100600000107EDD152EA030012D082EA040083EA26
:100610000501084305D0101BAB4106D2012200237F
:1006200006E000224FF0004302E06FF00102531099
:100630001AEB06004CEB085110EB0A0041EB0B01E2
:10064000BDE8F04D00F00BB970B521F00043034355
:100650000CD0C1F30A550024D5EB040564EB040368
:10066000D617AD1AB34102DB0020014670BD201839
:1006700041EB025170BD96230022114600F0C1B833
:100680000EB540F2334102910021CDE900110A4636
:100690000B4600F0F3F803B000BD20F00040C10DA0
:1006A000C0F3160040F400007F2901DA00207047F3
:1006B000962903DCC1F19601C840704796398840FD
:1006C000704700F0004230F000400AD0C10D01F543
:1006D0006071C0F3160042EA0151C208400711439D
:1006E000704700200146704701F0004330B421F00C
:1006F000004150EA010206D00A0DA2F56072C1F372
:100700001301002A02DC30BC00207047440F44EA89
:10071000C104C100E01830BC00EBC25000F068B862
:1007200030B50B46014600202022012409E021FAC1
:1007300002F59D4205D303FA02F5491B04FA02F5BE
:100740002844151EA2F10102F1DC30BD2DE9F05F55
:100750000546002092469B46884606468146402430
:100760001BE02846414647462246FFF7DDFC53463C
:100770005A46C01A914110D311461846224600F03D
:1007800016F82D1A67EB01084F462246012000217A
:1007900000F00DF817EB00094E41201EA4F10104F2
:1007A000DFDC484631462A464346BDE8F09F202A12
:1007B00004DB203A00FA02F1002070479140C2F1B8
:1007C000200320FA03F3194390407047202A06DBE8
:1007D000CB17203A41FA02F043EAE07306E041FA0F
:1007E00002F3D040C2F120029140084319467047FD
:1007F0000029A8BF7047401C490008BF20F0010035
:10080000704710B4B0FA80FC00FA0CF050EA010412
:1008100004BF10BC704749B1CCF1200421FA04F4A4
:1008200011FA0CF118BF012121430843A3EB0C017D
:10083000CB1D4FEA00614FEA102042BF002010BCE0
:10084000704700EBC35010440029A4BF10BC704790
:10085000401C490008BF20F0010010BC704710B5D3
:10086000141E73F1000408DA401C41F100019218D3
:100870005B411A4301D120F0010010BD2DE9F04D7C
:1008800092469B4611B1B1FA81F202E0B0FA80F2D1
:1008900020329046FFF78BFF04460F4640EA0A00DD
:1008A00041EA0B0153465A46084313D0114653EA16
:1008B000010019D0C8F140025046FFF735FC05464B
:1008C0000E46504659464246FFF771FF084305D091
:1008D000012004E020463946BDE8F08D00200543A4
:1008E00046EAE0762C4337430A986305E40AA0EB16
:1008F00008000022FD0A44EA47540A3002D50020CD
:100900000146E9E7010510196941DDE908450019CB
:100910006941BDE8F04DA2E70EB5C10F80EAE07075
:100920000844CA07002140F233438DE80E000A460E
:100930000B46FFF7A3FF03B000BDC1F30A52C1F39A
:10094000130140F2FF3341F480119A4202DA002091
:100950000146704740F233439A42A2F2334202DC2E
:100960005242FFF7E1BBFFF722BF000030B5041E83
:1009700071F1000404DB4FF00044404264EB0101DC
:10098000141E73F1000405DB1C464FF00043524275
:1009900063EB04038B4208BF824230BD30B5041EB6
:1009A00071F1000404DB4FF00044404264EB0101AC
:1009B000141E73F1000405DB1C464FF00043524245
:1009C00063EB0403994208BF904230BD064C074DCB
:1009D00006E0E06840F0010394E80700984710340F
:1009E000AC42F6D3FFF786FB084F0008284F0008FB
:1009F00070B5044600688168C943C90717D181688A
:100A000021F00101816000F03BFD05460AE000BFD6
:100A100000F036FD401B022804D920688068C043DE
:100A2000C00706D020688068C043C007F0D000200F
:100A300070BDA06A40F01000A062E06A40F00100C2
:100A4000E062012070BD10B50146406A826A12F072
:100A5000500F05D0006A026BBDE8104008461047F1
:100A6000816A41F40071816201688968C1F3424181
:100A700007290CD1017B51B9816A21F4807181620F
:100A8000816AC90403D4816A41F00101816200F0E6
:100A900023F910BD10B5406A816A41F040018162BE
:100AA000C16A41F00401C16200F018F910BD10B52F
:100AB000406A00F012F910BDF8B500260446009611
:100AC00000688168C943C9072DD0816841F00101E0
:100AD0008160164816490068B0FBF1F000E0401E46
:100AE00000900028FBD100F0CBFC054616E000BFCB
:100AF00000F0C6FC401B022810D920688068C04363
:100B0000C0070BD0A06A40F01000A062E06A40F07D
:100B10000100E06284F824600120F8BD206880684C
:100B2000C043C007E4D10020F8BD0000240000202D
:100B300040420F0070B505460020144903F024FE22
:100B400006460C462846FFF7BCFD03F01DFE324664
:100B50002346FFF792FC00220D4BFFF706FDFFF73F
:100B6000C3FD01464FF07E540A48FFF711FB0146D2
:100B70002046FFF797FBFFF7A4FD4FF06632064BC8
:100B8000FFF77BFCBDE87040FFF7AEBD00002440DE
:100B900000DCAE400FCF5B3B66127140FEE7000009
:100BA000014800F055BA0000E001002030B590F88F
:100BB00040500124AC40C56B6C60046863604368BE
:100BC000102B036803D099600068C26030BD9A6042
:100BD0000068C16030BD704772B6FEE7F8B500240A
:100BE000009490F824202546012A12D0012280F892
:100BF00024204A681F23072A0DD20668776B521EED
:100C000002EB820293409F430B6893401F4377633C
:100C100019E00220F8BD06680D2A0AD2376BD21FF0
:100C200002EB820293409F430B6893401F4337635C
:100C300009E0F76A0D3A02EB820293409F430B688A
:100C400093401F43F7620A68072306680A2A0AD3FB
:100C5000F7680A3A02EB420293409F438B68934045
:100C60001F43F76008E0376902EB420293409F435D
:100C70008B6893401F4337610A68102A01D0112AFC
:100C800020D1124B02689A4217D193681B0219D4E3
:100C9000936843F4000393600968102912D10C494A
:100CA0000C4A0968B1FBF2F101EB8101490000E057
:100CB000491E00910029FBD104E0816A41F0200126
:100CC0008162012480F824502046F8BD00240140B0
:100CD0002400002040420F0070477047704700001A
:100CE0002DE9F0414FF0000704003D467ED0A06A98
:100CF000002628B9E66284F82460204600F07EF8D9
:100D00002046FFF775FEA16AC90600D420B1A06A8B
:100D100040F01000A06269E0A16A21F4885141F01E
:100D20000201A1626268E169237B0A4347EA430149
:100D30000A43A1684FF48077B94209D0012907D04E
:100D40005FF0000194F814C0BCF1010F02D00AE07A
:100D50003946F7E7F3B1A36A43F02003A362E36ADD
:100D600043F00103E3622368D3F804C02CF4694C18
:100D70004CEA010CC3F804C021688B68DFF870C02E
:100D800003EA0C0313438B60A168B9420BD001291D
:100D900009D00CE0DFF85CC0A3690CEB43330B43D4
:100DA00043F40061DFE7218A0D05A5F58015216870
:100DB000CB6A23F470032B43CB62216889680E4B06
:100DC0001940914208D1E662A16A21F0020141F086
:100DD0000101A162BDE8F081A06A20F0020040F0AC
:100DE0001000A062E06A40F00100E0620120F1E73B
:100DF000FDF7E1FF00E0FFFFFE0E1FFF70B586B0BC
:100E00000025064600950195029503950068214945
:100E100088423DD12049886940F400708861886922
:100E200000F400700490886940F0040088618869CB
:100E300000F004000490886940F008008861886927
:100E4000032400F0080004900220CDE90004694664
:100E5000124800F01FFA0120CDE90004694610484D
:100E600000F018FA104C0F48C4E900058020C4E9CE
:100E7000025040002061800060612020C4E9060526
:100E8000204600F08FF908B1FFF7A6FE34626662D3
:100E900006B070BD0024014000100240000801406F
:100EA000000C014008000240600000202DE9F047DE
:100EB000894604463B4900683B4F0E1D90468842D8
:100EC00001D0B84207D1306810F4702F03D001254B
:100ED0002846BDE8F08794F8240001280CD00120B2
:100EE00084F824002046FFF7E7FD05004FF00000DE
:100EF00004D084F82400EBE70220EAE7A16A40F678
:100F00000162914341F48071A1622168B94218D114
:100F1000326812F4702F14D0A16A41F48011A162DA
:100F20003168490505D5A16A21F4005141F4805189
:100F3000A162A16AC9040AD5E16A21F00601E16251
:100F400006E0A26A22F48012A2624968E9E7E06240
:100F500084F82400216A15488862216A1448C8620E
:100F6000216A1448086321686FF002000860206855
:100F7000816841F480718160216843464A464C3162
:100F8000206A00F03DF920688168C1F342410729D9
:100F9000816803D041F48011816099E741F4A00198
:100FA000FAE700000024014000280140470A000839
:100FB000AF0A0008950A000810B590F82110002427
:100FC000022903D00421816301243DE001680A68FD
:100FD00022F00E020A6001680A6822F001020A602B
:100FE0001A4A0168914201D1012121E0174A1432C5
:100FF000914201D110211BE0144A2832914201D1C3
:10100000891515E0114A3C32914201D189140FE053
:101010000E4A5032914202D14FF4803108E00B4A1F
:101020006432914202D14FF4801101E04FF080719F
:10103000064A083A5160012180F82110002180F809
:101040002010416B01B18847204610BD08000240C6
:101050002DE9F05FC16B0C6801680B68D0F840C0E7
:10106000042202FA0CF2494DDFF824A1494E4A4FFE
:10107000DFF828B1DFF828E122422CD05A072AD520
:101080000A68920603D40A6822F004020A60016822
:10109000A94201D1042219E0514501D1402215E0B5
:1010A000B14202D14FF4806210E0B94202D14FF454
:1010B00080420BE0594502D14FF4802206E0714591
:1010C00002D14FF4800201E04FF080622F490839CD
:1010D0004A60C16A3BE04FF0020808FA0CF818EACF
:1010E000040F4FF000094FF0010235D05FEA83781A
:1010F00032D50B689B0605D40B6823F00A030B60FE
:1011000080F821200168A94201D1022219E051454D
:1011100001D1202215E0B14202D14FF4007210E05B
:10112000B94202D14FF400520BE0594502D14FF4BD
:10113000003206E0714502D14FF4001201E04FF099
:101140000072124908394A6080F82090816A0029AB
:101150001AD0BDE8F05F0847082505FA0CF52542CE
:1011600012D01B0710D50B6823F00E030B6090F80C
:101170004010C36B02FA01F15960826380F82120AC
:1011800080F82090016BE2E7BDE8F09F0800024084
:101190001C0002403000024044000240580002405F
:1011A0006C00024030B528B308C813491422194412
:1011B000B1FBF2F18900C1631049816302214177DB
:1011C0001A6843F6F0718A43D0E900142143D0E94C
:1011D00002452C4321430469214344692143846926
:1011E00021431143196000214163012242770177B5
:1011F000084630BD012030BDF8FFFDBF00000240B1
:1012000070B5044690F82000002501280CD001207C
:1012100084F8200094F821600020012E06D084F884
:1012200020000225284670BD022070BD022684F8E9
:101230002160A0632068066826F00106066020464B
:10124000FFF7B4FCE06A00282068016802D041F092
:101250000E0106E021F0040101602068016841F000
:101260000A0101602068016841F001010160D9E7CD
:1012700070B5044600F004F90546601C02D004482D
:101280000078044400F0FCF8401BA042FAD370BD83
:10129000180000202DE9F84FDFF8B8910024A9F1DB
:1012A000040B23460F2709F1040AABF1040EC9E031
:1012B0000125A5402A40AA427DD1674ED1F804C03D
:1012C000ACEB0608B44532D014DCBCF1030F3AD0C5
:1012D00009DCBCF1000F2AD0BCF1010F1CD0BCF11D
:1012E000020F31D11DE0BCF1110F17D0BCF1120F6C
:1012F0002AD119E0B8F5881F19D006DCB8F5803F6F
:1013000015D0B8F5801F1FD111E0B8F5001F0ED021
:10131000B8F5041F18D10AE0CB6815E0CB681B1D97
:1013200012E0CB6808330FE0CB680C330CE08B681D
:101330002BB1012B4FF0080303D0456104E00423D7
:1013400002E0056100E00023FF2A01D8064601E023
:1013500000F104064FEA840501D9A5F12005D6F86D
:10136000008007FA05FC28EA0C0803FA05F548EAAC
:101370000508C6F800804D68ED0062D5374DAE69AE
:1013800046F00106AE61AD6924F0030605F00105E3
:101390000095334D06EB050CDCF80850A607360F18
:1013A00007FA06F825EA0805DFF8B880404503D1BA
:1013B0004FF0000817E044E0DFF8AC80404502D170
:1013C0004FF001080FE0DFF8A480404502D14FF054
:1013D000020808E0DFF89880404502D14FF003088A
:1013E00001E04FF0040808FA06F848EA0508CCF8CE
:1013F00008804D68D9F80060ED024D4601D51643CE
:1014000000E096432E604D68DAF80060AD02554664
:1014100001D5164300E096432E604D68DBF800606E
:10142000AD035D4601D5164300E096432E604D683E
:10143000DEF80060ED03754601D5164300E09643E3
:101440002E60641C0D682A46E5407FF431AFBDE88C
:10145000F88F000008040140000011100010024045
:101460000000014000080140000C01400010014054
:10147000001401400AB1016170470904FBE7000054
:1014800001488068704700001800002070B5040013
:1014900025D094F83D00002520B984F83C50204622
:1014A00000F076FA242084F83D002068016821F0DD
:1014B000010101602068016841F400410160206879
:1014C000016821F40041016000F0A6FC4D4A61680A
:1014D000914201D84C4900E04C49884201D2012098
:1014E00070BD4B492368B0FBF1F15E6826F03F0602
:1014F0000E435E606368934206D94FF49673594376
:101500004FF47A73B1FBF3F12368491C1E6A26F08D
:101510003F06314319626168914210D84900401E6C
:10152000B0FBF1F2521CC2F30B02042A01D20420D8
:1015300022E0B0FBF1F0401CC0F30B001CE0A268FD
:10154000F2B301EBC10303EB0116431EB3FBF6F349
:101550005B1C43F480431B0549D092B301EBC102ED
:1015600002EB0111401EB0FBF1F0401CC0F30B0078
:1015700040F4804040F400402168CA694CF6FF7393
:101580009A431043C861D4E90710014320680268F8
:1015900022F0C00211430160D4E903010143206835
:1015A000826848F2FF339A4311438160D4E9050110
:1015B00008432168CA6822F0FF021043C86001E0B6
:1015C0000EE016E02068016841F001010160256429
:1015D000202084F83D00256384F83E50002070BD33
:1015E00001EB4106431EB3FBF6F35B1CB3E701209E
:1015F000C2E701EB4101401EB0FBF1F0401CC0F31B
:101600000B00B7E7A086010080841E0000093D00A2
:1016100040420F002DE9F84F0025DDF8289098464C
:1016200017468A4604460095FFF72AFF064694F8B7
:101630003D0020287AD119230122864920460096B0
:1016400001F096FC0028F5D194F83C0001286DD0FB
:10165000012084F83C0020680168C90703D10168B3
:1016600041F0010101602068016821F4006101601E
:10167000222084F83D00102084F83E002564676233
:10168000A4F82A80608D20857348E06233464A467C
:101690005146204601F07CFB00287CD1208DDFF8EC
:1016A000BC81202768B1012814D002282068016875
:1016B0001ED041F48061016020684169806900901A
:1016C000BBE02068416981690091016841F40071C3
:1016D0000160B2E02068016821F48061016072B6A7
:1016E0002068416981690091016841F400710AE054
:1016F00041F40061016072B620684169816900911E
:10170000016821F48061016062B696E0032865D823
:1017100001280CD002284B464FF0000241462046DB
:1017200000960BD001F024FCA8BB0CE090E0324600
:101730004946204601F0C2FC68BB71E001F018FC8C
:1017400048BB72B633E02068016821F48061016013
:1017500072B620680069616A0870606A401C606245
:10176000208D401E2085608D401E60853C4846F2DD
:10177000A8110068B0FBF1F0C0EBC00000EB8000E6
:101780000090401E009007D020684069C043400789
:101790000DD50098F5E727E044F8305F6773A5732F
:1017A000206940F02000206162B625731CE02068AB
:1017B000016841F40071016020680069616A087085
:1017C000606A401C6062218D491E2185618D491E21
:1017D000618562B621680969017025E03246494693
:1017E000204601F06BFC10B10120BDE8F88F2068A5
:1017F0000069616A0870606A401C6062208D401E4A
:1018000081B22185608D401E608520684269D24387
:10181000520712D4032903D1016821F480610160C9
:1018200020680069616A0870606A401C6062208DEF
:10183000401E2085608D401E6085208D00287FF42D
:1018400065AF84F83D7084F83E5084F83C50CCE796
:101850000220CAE7020010000000FFFF04000100A0
:10186000240000202DE9F84F1F4690468A46044682
:10187000DDF82890FFF704FE054694F83D00202887
:101880007FD11923012240492046009501F070FBC9
:10189000002876D194F83C00012872D0012084F809
:1018A0003C0020680168C90703D1016841F00101CB
:1018B00001602068016821F400610160212084F842
:1018C0003D00102084F83E0000262664C4F82480E1
:1018D0006785608D20852D48E0622B464A4651463B
:1018E000204601F0CBFA90B92068416980690090E8
:1018F00036E02A464946204601F018FC50B1206CDB
:10190000042804D12068016841F4007101600120BD
:10191000BDE8F88F606A216800780861606A401C41
:101920006062618D491E6185218D491E89B22185C4
:1019300022685369DB435B070BD451B10078106117
:10194000606A401C6062608D401E6085208D401E74
:1019500020852A464946204601F0DEFA0028CED1ED
:10196000208D0028C5D154F83D0B016841F4007169
:101970000160202004F81E09E67766770020C7E79B
:10198000FFE70220C4E70000020010000000FFFF94
:1019900010B586B000210091019102910391006879
:1019A0000F4988421AD10F4CA06940F00800A0618D
:1019B000A069694600F008000490C0200090122041
:1019C0000190032003900848FFF764FCE06940F4AD
:1019D0000010E061E06900F40010049006B010BD52
:1019E0000054004000100240000C01400248816891
:1019F000027811448160704718000020074810B534
:101A0000016841F010010160032000F075F80F201B
:101A100000F006F800F024F8002010BD002002407D
:101A200070B50D4D04464FF47A712878B1FBF0F093
:101A30000A490968B1FBF0F000F044FD48B9102CE8
:101A400007D200222146501E00F036F800206C60BC
:101A500070BD012070BD000018000020240000208F
:101A60000C4808B5816941F001018161816901F08B
:101A700001010091C16941F08051C161C06900F06C
:101A8000805000900448416821F0E06141F000710D
:101A9000416008BD0010024000000140002809DB41
:101AA00000F01F02012191404009800000F1E02078
:101AB000C0F8001170470000F0B40E4B1B680C46D4
:101AC000C3F30223C3F10705042D00D90425191D12
:101AD000072901D2002300E0DB1E012606FA05F1EA
:101AE000491E214099409E40761E16403143F0BC6D
:101AF00002F06CB90CED00E0064900F0070208683E
:101B00004FF6FF03184040EA0220034A10430860E2
:101B1000704700000CED00E00000FA052DE9F041EF
:101B2000040004D094F89102002518B107E00120C8
:101B3000BDE8F08184F89052204600F04DF8032073
:101B400084F891026571206802F0D6F894E80F00DD
:101B500002F0C5F8022698BB0021206802F0D3F8F5
:101B600070BB002001270BE000EB800104EBC101FA
:101B70004F740874CD740D624D62401CC0B28D620A
:101B800021798142F0D8002012E000BF00EB8001F3
:101B900004EBC10181F8515181F8500181F8535192
:101BA000C1F86051C1F86451401CC0B2C1F868511D
:101BB00021798142EAD894E80F0002F094F810B13C
:101BC00084F89162B3E7657384F89172206802F03B
:101BD00088F80020ACE7000008B500680649884294
:101BE00008D10648C16941F40001C161C06900F42F
:101BF0000000009008BD0000005C004000100240A2
:101C00002DE9F84305460078354CC00754D0E0690B
:101C10000026C00008D4E06940F08050E061E0692F
:101C2000012600F0805000902E480168C90512D4AA
:101C30000168804641F480710160FFF721FC07468E
:101C400005E000BFFFF71CFCC01B642823D8D8F8B0
:101C50000000C005F6D5206A10F4407021D0A98894
:101C600001F4407181421CD0206A1F49012220F4F6
:101C700040700A6000220A602062C00711D0FFF79E
:101C8000FFFB074641F2883808E000BFFFF7F8FB8A
:101C9000C11B414502D90320BDE8F883206A8007B3
:101CA000F4D5206A696820F44070084320621EB1B0
:101CB000E06920F08050E0612878800705D56068F1
:101CC000A96820F44040084360602878C00605D524
:101CD0006068E96820F48000084360600020DBE76A
:101CE0000010024000700040400442422DE9F047DD
:101CF0000F46050061D0434E306800F00700B8423F
:101D000009D2306820F0070038433060306800F0B6
:101D10000700B84251D128683B4C810712D54007D3
:101D200003D5606840F4E06060602878000703D560
:101D3000606840F4605060606068A96820F0F0005E
:101D4000084360602878C00728D06868012810D050
:101D50002168022810D0890700292EDA616821F055
:101D6000030101436160FFF78BFB804641F2883934
:101D70000DE021688903EFE78901EDE7FFF780FBBC
:101D8000A0EB0801494502D90320BDE8F08760684F
:101D9000696800F00C00B0EB810FEFD1306800F003
:101DA0000700B8420BD9306820F007003843306094
:101DB000306800F00700B84201D00120E5E728783C
:101DC000400705D56068E96820F4E060084360607A
:101DD0002878000706D56068296920F4605040EA39
:101DE000C100606000F038F86168084AC1F303116F
:101DF000515CC8400649086006480068FFF710FEBD
:101E00000020C2E70020024000100240AA4E000855
:101E1000240000201C00002004480549006849688F
:101E2000044AC1F30221515CC840704724000020DD
:101E300000100240BA4E000804480549006849688D
:101E4000044AC1F3C221515CC840704724000020FD
:101E500000100240BA4E00080E4A51680E4801F0C8
:101E60000C03042B11D0082B0FD10C48C1F3834372
:101E7000C903C05C0AD55168084AC1F34041921EAB
:101E8000515C054A5043B0FBF1F0704704494843A8
:101E9000704700000010024000127A009A4E0008BD
:101EA00000093D002DE9F84F040070D02078C04DA6
:101EB000C00749D06868C0F38100012807D068686E
:101EC000C0F38100022809D16868C00306D52868DC
:101ED000800339D560680028E7D035E06068B0F548
:101EE000803F0BD010B1B0F5A02F11D0286820F49E
:101EF00080302860286820F4802002E0286840F4C0
:101F000080302860606890B1FFF7BAFA06460AE0B0
:101F1000286840F480202860F0E700BFFFF7B0FA9F
:101F2000801B642873D828688003F7D50CE0FFF77E
:101F3000A7FA064605E000BFFFF7A2FA801B642857
:101F4000F0D828688003F7D420789A4E80074FF0A5
:101F500001094FF0000839D5686810F00C0F07D060
:101F60006868C0F38100022809D16868C00306D4FC
:101F70002868800714D52069012808D110E020695D
:101F8000B0B1C6F80090FFF77BFA074605E00AE11A
:101F9000FFF776FAC01B0228C4D828688007F7D557
:101FA0002868616920F0F80040EAC10028600DE06F
:101FB000C6F80080FFF764FA074604E0FFF760FA0E
:101FC000C01B022823D828688007F7D42078000790
:101FD0002CD57948A169D9B1C0F80090FFF750FA23
:101FE000074604E0FFF74CFAC01B02280FD8686AC6
:101FF0008007F7D571484FF4FA510068B0FBF1F053
:10200000009000BF0098411E0091FAD20EE080E0DF
:10201000C0F80080FFF734FA074604E0FFF730FA13
:10202000C01B022875D8686A8007F7D4207840075B
:1020300060D5E8690027C00008D4E86940F0805006
:10204000E861E869012700F0805000905C48016871
:10205000C90513D40168834641F480710160FFF71C
:102060000FFA824606E000BFFFF70AFAA0EB0A006B
:1020700064284ED8DBF80000C005F5D5E0680128DB
:102080000AD008B1052813D0286A20F00100286280
:10209000286A20F0040002E0286A40F0010028626B
:1020A000E06841F2883B98B1FFF7EAF982460BE01D
:1020B000286A40F004002862EEE700BFFFF7E0F96D
:1020C000A0EB0A0159455AD8286A8007F6D50CE0DA
:1020D000FFF7D6F9824605E0FFF7D2F9A0EB0A0137
:1020E00059454CD8286A8007F6D41FB1E86920F01A
:1020F0008050E861E06988B36968C1F38101022911
:1021000044D00228C6F8608004D0FFF7B9F904462D
:1021100038E034E0FFF7B4F9074604E0FFF7B0F920
:10212000C01B02282BD828688001F7D4206AB0F59C
:10213000803F05D16868A16820F4003008436860DA
:10214000D4E908010843696821F474110843686000
:10215000C6F86090FFF794F9044606E025E000BF5A
:10216000FFF78EF9001B022809D828688001F7D5EF
:102170001BE000BFFFF784F9001B022802D90320EF
:10218000BDE8F88F28688001F4D40EE00128F7D06C
:102190006868226A00F48031914204D1616A00F4D7
:1021A0007010884201D00120EAE70020E8E7000033
:1021B00000100240000042428004424224000020FD
:1021C0000070004070B5040009D0606A002540B17D
:1021D00025616561A56294F8510040B10CE00120D1
:1021E00070BD6068B0F5827FF4D0E561F2E784F8F5
:1021F0005050204600F040F8022084F8510020683A
:10220000016821F040010160A088218900F48270FA
:1022100001F404410843A18901F400610843217CD1
:1022200001F002010843217D01F001010843218BE7
:1022300001F400710843217F01F03801084394F84C
:10224000201001F080010843218D01F40051084362
:1022500021680860A069042101EA104021684860F3
:102260002068C16921F40061C1616565012084F8BD
:102270005100002070BD000000B585B00021009124
:1022800001910291039100680F4988421AD10F48C9
:10229000816941F480518161816901F48051049127
:1022A000816941F0040181618069694600F00400A0
:1022B0000490B02000900220019003200390044875
:1022C000FEF7E8FF05B000BD0030014000100240FD
:1022D000000801402DE9FF4F81B01D46934604469A
:1022E0004FF001090E9EFFF7CBF8074694F8510016
:1022F0006168012806D0B1F5827F3CD1A168C9BBD5
:10230000042838D10298002871D0BBF1000FFBD00F
:10231000002DF9D094F8500001282CD04FF0010A7C
:1023200084F850A094F85100042802D0052084F8C5
:1023300051004FF00008C4F85480C4F838B0E58765
:10234000A58702992163E586A586C4F84080C4F874
:10235000448020680168490603D4016841F04001C7
:102360000160E068B0F5006F606808D0F0B3012D3F
:1023700049D081E0FFE7022005B0BDE8F08F08B149
:10238000012D39D1206B21680088C860206B801C2A
:102390002063E08E401EE0862EE020688168890779
:1023A0000FD5E18E69B1B9F1010F0AD1216B09880E
:1023B000C160206B801C2063E08E401EE0864FF0E1
:1023C000000920688168C9070CD0E18F51B1C0684D
:1023D000A16B0880A06B801CA063E08F401EE0878B
:1023E0004FF00109FFF74CF8C01B01E00BE067E07C
:1023F000B04201D3701C50D1E08E0028CDD1E08FC7
:102400000028CAD13EE0206B216800780873206B59
:10241000401C2063E08E401EE0862DE0206881682D
:1024200089070FD5E18E69B1B9F1010F0AD1216B8E
:1024300009780173206B401C2063E08E401EE0860B
:102440004FF0000920688168C9070CD0E18F51B1B5
:10245000C068A16B0870A06B401CA063E08F401E99
:10246000E0874FF00109FFF70BF8C01BB04202D321
:10247000701C01D011E086B1E08E0028CED1E08F33
:102480000028CBD13A463146204601F01EF950B122
:102490002020606584F8508012E084F851A084F810
:1024A0005080032068E7A06818B92068C168806878
:1024B000009084F851A084F85080606D0028F1D01D
:1024C000012059E710B5401EB0F1807F01D30120F3
:1024D00010BD4FF0E02460610F21601701F076FC21
:1024E0000020A06107202061002010BD10B590F8E9
:1024F0003C20012A22D0012280F83C20CA688C6846
:1025000022F4407222434C6822F4806222430C6819
:1025100022F4006222430C6922F4805222434C6967
:1025200022F400522243C969002322F480420A4364
:1025300001684A6480F83C30002010BD022010BDC4
:1025400070B590F83C20012A26D0012480F83C4048
:10255000022280F83D2003685A689D6822F07006C8
:102560000A6832435A600D4B02689A4208D0B2F1B1
:10257000804F05D00A4B9A4202D00A4B9A4204D1AE
:10258000496825F080031943916080F83D4000219F
:1025900080F83C10084670BD022070BD002C014040
:1025A000000400400008004010B5040003D094F877
:1025B0003D0010B107E0012010BD002084F83C0070
:1025C000204600F01FF8022084F83D00211D2068FD
:1025D00001F034F9012084F8460084F83E0084F8C4
:1025E0003F0084F8400084F8410084F8420084F8F9
:1025F000430084F8440084F8450084F83D0000203E
:1026000010BD000038B505460068184A18499042C8
:102610001FD1886940F4006088618869164C00F415
:10262000006000901348206010206060002080212E
:10263000C4E90201490021618900C4E90510E06193
:102640002046FEF7AFFD08B1FEF7C6FA6C62656280
:1026500038BDB0F1804FFBD1C86940F00100C861BE
:10266000C86900F00100009038BD0000002C014056
:10267000001002401C000240E001002070B504463A
:1026800090F83C000025012817D0012684F83C6012
:10269000022084F83D002068826822F0770222F44C
:1026A0007F4282600868502838D00DDC20284FD047
:1026B00005DC90B3102811D14AE0022070BD30280B
:1026C00046D040280AD13BE060282FD070280DD09A
:1026D000B0F5805F03D0B0F5005F12D0012584F81B
:1026E0003D60002084F83C00284670BDCB68D1E9ED
:1026F0000121206801F060F92068816841F07701CC
:1027000009E0CB68D1E90121206801F055F9206882
:10271000816841F480418160E1E719E0CA68496855
:10272000206801F0FDF95021206806E0CA68496878
:10273000206801F006FA6021206801F047F9CEE731
:10274000CA684968206801F0EBF940212068F4E785
:10275000226801461046F0E77047000010B586B0C9
:1027600000210091019102910391124C03681249DA
:1027700002221248A34209D18B6943F004038B6102
:10278000896901F00401049181150BE0B3F1804FD8
:102790000ED18B6943F004038B61896901F0040158
:1027A00004910821CDE9001269460392FEF772FDFB
:1027B00006B010BD002C014000100240000801408E
:1027C00070B5044690F83C0000260D4601280FD055
:1027D000012084F83C006AB1042A1DD0082A2FD0B9
:1027E0000C2A3FD00126002084F83C00304670BD02
:1027F000022070BD206801F0F1F82068816941F085
:10280000080181612068816921F0040181612068EB
:1028100081692A69114311E0206801F007F92068F5
:10282000816941F4006181612068816921F48061DE
:102830008161206881692A6941EA02218161D2E7C8
:10284000206801F01FF92068C16941F00801C161E9
:102850002068C16921F00401C1612068C1692A6949
:10286000114311E0206801F039F92068C16941F491
:102870000061C1612068C16921F48061C161206883
:10288000C1692A6941EA0221C161ACE710B50400BF
:1028900003D094F83D0010B107E0012010BD0020E6
:1028A00084F83C00204600F01EF8022084F83D0029
:1028B000211D206800F0C2FF012084F8460084F842
:1028C0003E0084F83F0084F8400084F8410084F81A
:1028D000420084F8430084F8440084F8450084F8FA
:1028E0003D00002010BD70470021014800F01CB9D8
:1028F000500100207047000010B50446022249B183
:1029000004290ED0082913D094F84100012816D0CC
:10291000012010BD94F83E000128F9D184F83E2032
:102920000FE094F83F000128F2D184F83F2008E03E
:1029300094F840000128EBD184F8402001E084F8AD
:1029400041200122206800F0B5FF0F49206888422D
:1029500003D1426C42F4004242642068884208D0AD
:10296000B0F1804F05D00949884202D00849884219
:1029700004D1816801F00701062903D0016841F004
:1029800001010160002010BD002C01400004004046
:10299000000800402DE9F04117460D0004464FF0B5
:1029A00000060CD0042D11D0082D16D094F841004B
:1029B000022819D094F84100012818D07CE094F83E
:1029C0003E00022810D094F83E00F5E794F83F004E
:1029D000022809D094F83F00EEE794F8400002285E
:1029E00002D094F84000E7E70220BDE8F081002F14
:1029F00062D0002B60D04649464ADFF81CC1022055
:102A00004DB1042D18D0082D27D084F841000C2D8D
:102A100044D0012679E084F83E00606A8162606AF1
:102A20003946C262606AC0F830C02268606A3432D7
:102A3000FEF7E6FB88BB21E084F83F00A06A8162D4
:102A4000A06A3946C262A06AC0F830C02268A06A93
:102A50003832FEF7D5FB00BB15E084F84000E06A91
:102A60008162E06A3946C262E06AC0F830C022681A
:102A7000E06A3C32FEF7C4FB78B909E02068C1681F
:102A800041F400711EE02068C16841F4806119E0E2
:102A90002068C16841F4006114E00DE0206B8162A0
:102AA000206B3946C262206BC0F830C02268206BB0
:102AB0004032FEF7A5FB08B1012096E72068C16807
:102AC00041F48051C16001222946206800F0F2FEE5
:102AD00012492068884203D1426C42F400424264A9
:102AE0002068884208D0B0F1804F05D00C49884258
:102AF00002D00C49884204D1816801F007010629FF
:102B000003D0016841F00101016030466DE700002B
:102B1000CF3800082D39000865390008002C014025
:102B2000000400400008004070B50D0004464FF05E
:102B3000000607D0042D0CD0082D11D00C2D16D076
:102B4000012645E02068C16821F40071C160606A17
:102B500013E02068C16821F48061C160A06A0CE0C4
:102B60002068C16821F40061C160E06A05E0206866
:102B7000C16821F48051C160206BFEF71DFA00226C
:102B80002946206800F096FE174B41F2111120688B
:102B90008A10984209D1036A0B4206D1036A134294
:102BA00003D1436C23F4004343642068036A0B425F
:102BB00006D1016A114203D1016821F001010160CF
:102BC00001203DB1042D08D0082D09D084F8410022
:102BD000304670BD84F83E00FAE784F83F00F7E71E
:102BE00084F84000F4E70000002C014070B50400B8
:102BF00004D094F84100002510B106E0012070BD1A
:102C000084F84050204600F023F8242084F8410046
:102C10002068C16821F40051C160204600F0CAFF5D
:102C20002068016921F4904101612068416921F027
:102C30002A0141612068C16841F40051C1606564A6
:102C4000202084F8410084F842006563002070BDB4
:102C500030B585B000240094019402940394006878
:102C60001449884224D11448816941F4804181612A
:102C7000816901F480410491816941F0040181611D
:102C800080690E4D00F0040004904FF40070009035
:102C9000022001900320039069462846FEF7FAFAC5
:102CA0002815CDE90004694628460294FEF7F2FA99
:102CB00005B030BD0038014000100240000801405E
:102CC0002DE9F843044690F84100984616460D4613
:102CD000202802D00220BDE8F88385B17EB1002013
:102CE0006064212084F84100FEF7CAFBA684814677
:102CF000E684A0682027B0F5805F02D003E00120C1
:102D0000E9E7206910B12E4600250EE000260CE010
:102D10008021204600F0AAFFA8B9C6B116F8010B21
:102D200021684860E08C401EE084E08C4B464FF008
:102D30000002CDF800800028EAD14FF04001204683
:102D400000F094FF40B184F841700320C3E735F8E8
:102D5000020BC0F30800E3E784F841700020BAE7F3
:102D6000FEE701684A69D24352050FD46FF48062CE
:102D70004A61002140F8301F2022427381730269AA
:102D800042F0040202610173012070470020704785
:102D90002DE9F84F0446C06A1E4693460D46216849
:102DA0000A6842F480620A60082807D0012805D02A
:102DB00010F5803F02D0206B112804D120680168F3
:102DC00041F4807101604FF001195B4600224946D1
:102DD0002046009600F0CCF84FF4007840B120680F
:102DE0000068C00501D5C4F840800320BDE8F88F15
:102DF0002069DFF884A0B0F5804F0FD0062021684D
:102E000000EAD51747F0F000086133465A460AF148
:102E10000601204600F0F4F858BB03E0E8B240F0A9
:102E200001001CE02168E8B2086133465A46514669
:102E3000204600F0E5F8E0B9206841698169009119
:102E4000016841F4807101605B46002249462046DA
:102E5000009600F08DF80028C1D147F0F1002168FC
:102E6000086133465A465146204600F0C9F800280A
:102E7000BCD00120BAE7000002000100F8B504460A
:102E8000C06A1E460D461746082807D0012805D0FF
:102E900010F5803F02D0206B122804D12068016811
:102EA00041F480710160134600224FF00111204669
:102EB000009600F05DF840B120680068C00502D5BA
:102EC0004FF4007020640320F8BD2069B0F5804FF6
:102ED0000ED00620216800EAD51040F0F00008610D
:102EE00033463A460B49204600F08AF878B902E0AA
:102EF00005F0FE0000E0E8B22168086105493346AC
:102F00003A46891F204600F07BF80028DCD00120DB
:102F1000F8BD00000800010070B516460D460446D5
:102F20001EE02046FFF71DFF08B1012070BD681CA0
:102F300016D0FEF7A5FA801BA84200D885B92068F4
:102F40004069C04340070BD5002044F8300F2021D2
:102F50006173A073216941F0200121612073E4E7CE
:102F600020684069C0434007DBD4002070BD0000EA
:102F70002DE9F047984617460D460446C1F307462B
:102F8000DDF820902AE000BFB8F1FF3F26D0FEF721
:102F900077FAA0EB0901414502D8B8F1000F1DD125
:102FA0002068012E16D0806925EA00000004000C7C
:102FB00012D00020B84211D1002044F8300F202157
:102FC0006173A073216941F0200121612073012008
:102FD000BDE8F0874069E7E70120EBE72068012EB4
:102FE0000AD0806925EA00000004000C06D0002009
:102FF000B842C9D00020EBE74069F3E70120F7E7CA
:103000002DE9F047984616460D4604464FF0000954
:103010004FF0200AC1F3074723E020684069C0430E
:10302000400515D42068016841F4007101602168F1
:103030006FF480604861C4F8309084F83DA084F853
:103040003E90216C41F00401216484F83C9021E021
:10305000701C06D0FEF714FAA0EB0800B04203D8AB
:1030600016B1012F1FD021E02068012F15D08069F3
:1030700025EA00000004000C18D000BF44F8309F7F
:1030800084F80DA084F80E90216941F0200121619F
:1030900084F80C900120BDE8F087406925EA000023
:1030A0000004000CEAD12068406901E020688069D2
:1030B00025EA00000004000CAFD1ECE72DE9F04157
:1030C000002590460E460446202728E04069C0436C
:1030D000C0060CD454F8301B6FF01000486144F85F
:1030E00010596777A577206A2062257714E0FEF7EC
:1030F000C7F9A0EB0800B04200D886B92068406943
:10310000C04340060BD544F8305F6773A573206950
:1031100040F02000206125730120BDE8F081206887
:103120004169C9434906D1D40020F6E770B5164677
:103130000D4604461EE02046FFF713FE08B10120AD
:1031400070BD681C16D0FEF79BF9801BA84200D802
:1031500085B920684069C04300060BD5002044F8BB
:10316000300F20216173A073216941F0200121619A
:103170002073E4E720684069C0430006DBD40020E8
:1031800070BD000010B500F009F8FDF774FABDE855
:1031900010400149FDF754B80AD7A33A3EB50CA038
:1031A0000A2400680123CDE9004001AA80210948D2
:1031B000FEF758FB022302AA802106480094FEF77E
:1031C00029FA08B1FF203EBDBDF8080040BA3EBD57
:1031D00002000000A400002010B500F00FF8B0F5C8
:1031E000004F00D30020FDF746FA03498968BDE887
:1031F0001040FDF725B80000080000203EB50CA0E7
:103200000A2400680123CDE9004001AA8021094871
:10321000FEF728FB022302AA802106480094FEF74D
:10322000F9F908B1FF203EBDBDF8080040BA3EBD27
:1032300004000000A400002010B500F00FF8FDF716
:103240001AFA04498968FCF7FBFFBDE810400249FF
:10325000FCF7F6BF080000200000C8413EB50CA0F6
:103260000A2400680123CDE9004001AA8021094811
:10327000FEF7F8FA022302AA802106480094FEF71E
:10328000C9F908B1FF203EBDBDF8080040BA3EBDF7
:1032900003000000A40000201CB505218DF80410D7
:1032A000010A8DF805108DF806000A20009003230E
:1032B00001AA80210148FEF7D5FA1CBDA400002018
:1032C0001CB500218DF80410010A8DF805108DF849
:1032D00006000A200090032301AA80210148FEF77E
:1032E000C1FA1CBDA400002070B540F2C510FFF764
:1032F000E7FF0D4C0D4D4FF08240C4E900056FF023
:103300000E01FDF70DF82946A060FCF799FF014674
:103310000748FCF7C7FFE060FDF7BFF9BDE8704064
:1033200080B2FFF7B9BF0000080000200AD7A33C15
:10333000ACC5A73B3EB500211C48009101911A4A3B
:1033400002910260921582600124047301750325C5
:103350004FF460220561C2614160FDF7C1FC08B114
:10336000FDF73AFC07200094CDE9014069460F487B
:10337000FDF734FC08B1FDF72FFC08200090022077
:10338000019069460948FDF729FC08B1FDF724FCC6
:103390001020CDE9000569460448FDF71FFC002810
:1033A00001D0FDF719FC3EBD002401403000002093
:1033B000094808B5416941F00101416140690022B5
:1033C00000F00100009011460C20FEF775FBBDE8EF
:1033D00008400C20FEF762BB0010024030B585B0FB
:1033E000002420480094019402940394816941F0E0
:1033F00010018161816901F010010491816941F03E
:1034000020018161816901F020010491816941F00D
:1034100004018161816901F004010491816941F035
:10342000080181618069104D00F0080004900022BD
:1034300044212846FEF71EF8442000900120CDE9E3
:1034400001040220039069462846FDF723FF40F659
:103450000440CDE90004694604480294FDF71AFFD0
:1034600005B030BD0010024000080140000C0140D2
:103470000D4810B50B4901606421416000214FF4F3
:1034800080428160C0E9031241618161C1610162D2
:10349000FDF7FCFF002803D0BDE81040FDF79CBB02
:1034A00010BD000000540040A4000020114810B5D9
:1034B0000F4901604FF4827141604FF40041816017
:1034C0000021C1604FF480220161C0E90512202271
:1034D000C0E90721416281620A21C162FEF772FEE2
:1034E000002803D0BDE81040FDF776BB10BD0000FA
:1034F00000300140F800002010B596B000240F9471
:1035000010941194129413941C2108A81494FCF79D
:1035100034FE20216846FCF730FE28482649C0E9E1
:1035200000145921C0E90241046144618461FFF73C
:103530003BF808B1FDF750FB4FF480500F900FA9F6
:103540001E48FFF79BF808B1FDF746FB1B48FFF745
:103550009DF908B1FDF740FB139413A91748149483
:10356000FEF7EEFF08B1FDF737FB6020CDE9080458
:1035700004200A94CDE90B400D94002208A90F48BD
:103580000E94FFF71DF908B1FDF726FB00944FF4E8
:103590000050CDE904400294019403946946074821
:1035A0000794FEF7A3FF08B1FDF716FB0348FFF7EA
:1035B000D5F816B010BD0000002C014050010020CD
:1035C00010B58EB000240794089409940A940B94C3
:1035D0001C2168460C94FCF7D0FD1E484FF080413A
:1035E00001604721C0E9011440F2E731C0E903144A
:1035F0008461FEF7D9FF08B1FDF7EEFA4FF4805071
:10360000079007A91348FFF739F808B1FDF7E4FA66
:103610001048FFF73BF908B1FDF7DEFA0B940BA950
:103620000C480C94FEF78CFF08B1FDF7D5FA60202A
:10363000CDE9000402940C22694606480494FFF781
:10364000BFF808B1FDF7C8FA0248FFF787F80EB0D7
:1036500010BD0000980100200C4810B50A49016017
:103660004FF4E1314160002181600C22C160C0E96A
:1036700004128161C161FFF7B9FA002803D0BDE8E7
:103680001040FDF7A9BA10BD003801402402002007
:103690000B4810B5094901600821017102218171AF
:1036A00000218172C1720173FEF738FA002803D03D
:1036B000BDE81040FDF790BA10BD0000005C00406E
:1036C0006C020020FEE7FEE77047F8B515460E468F
:1036D0000B46009204460122022100F011F840B985
:1036E0003346002280212046009500F009F800288A
:1036F00004D0606D40F0200060650320F8BD00003C
:103700002DE9F8431E46914688460446089DFDF77C
:10371000B7FE401B351AFDF7B3FE07462548006883
:10372000C0F3CB30684338E0701C37D0FDF7A8FEFB
:10373000C01BA84203D215B1009860B32CE02068EA
:10374000416821F0E00141606068B0F5827F0BD1F3
:10375000A068B0F5004F02D0B0F5806F04D12068AA
:10376000016821F040010160A06AB0F5005F09D155
:103770002068016821F4005101602068016841F46B
:1037800000510160012084F85100002084F85000AD
:103790000320BDE8F8830025401E00902068816862
:1037A00038EA010004D000214945BDD10020F0E7EE
:1037B0000121F9E7240000207047FEF717B930B562
:1037C00093B028216846FCF7D8FC14210AA8FCF71E
:1037D000D4FC002401200F9410941194010412943D
:1037E0008DE8130004904FF4E010CDE90810022595
:1037F00007956846FEF756FB08B172B6FEE70F2044
:10380000CDE90A054FF48060CDE90C4002210AA8F9
:103810000E94FEF76BFA08B172B6FEE712200F9015
:103820004FF40040CDE911040FA8FEF7E9F9002894
:1038300001D072B6FEE713B030BD7047F0B5026834
:10384000194B1A4C1A4D4FF08047984205D0B84298
:1038500003D0A04201D0A84203D122F070064A68EA
:103860003243984205D0B84203D0A04201D0A842CA
:1038700003D122F44074CA6822434C6922F08002CA
:10388000224302608A68C2620A688262984201D159
:1038900009690163012141610169C90703D0016917
:1038A00021F001010161F0BD002C01400004004045
:1038B0000008004010B501F01F030121046A99407F
:1038C0008C430462016A9A401143016210BD10B535
:1038D000446A0121626A824205D121778069F8B980
:1038E00084F83E101CE0A26A824206D102222277AE
:1038F0008069A8B984F83F1012E0E26A824206D1DA
:1039000004222277806958B984F8401008E0226BBD
:10391000824205D108222277806908B984F84110D3
:103920002046FEF7E1FF0020207710BD10B5446A65
:10393000616A814201D101200DE0A16A814201D179
:10394000022008E0E16A814201D1042003E0216BFA
:10395000814201D1082020772046FEF7CBFF0020CE
:10396000207710BD10B5446A0121626A824203D1FA
:10397000217784F83E1019E0A26A824204D1022025
:10398000207784F83F1011E0E26A824204D10420DB
:10399000207784F8401009E0226B824204D108208D
:1039A000207784F8411001E084F83D102046FEF7AE
:1039B000D3FE0020207710BD10B5846842EA0322B0
:1039C00024F47F440A432243826010BD826822F0BF
:1039D00070020A4342F007018160704730B5036A04
:1039E000026A22F0010202624268846924F07305CF
:1039F0000C682C4323F002058B682B430A4DA84228
:103A00000BD123F00805CB6822F440722B434D699B
:103A100023F0040315438A692A434260846149689C
:103A20004163036230BD0000002C014030B5026AE2
:103A3000036A23F010030362436884690D6824F469
:103A4000E64444EA05248D6822F0200242EA051289
:103A50000B4DA8420ED1CD6822F0800242EA051239
:103A60004D6923F4406343EA85038D6922F04002E7
:103A700043EA85034360846149688163026230BD23
:103A8000002C014030B5036A026A22F4807202629F
:103A90004268C46923F4007324F073050C682C4356
:103AA0008D6843EA05230C4DA8420ED1CD6823F45E
:103AB000006343EA05234D6922F4405242EA0512AD
:103AC0008D6923F4806342EA05124260C46149684B
:103AD000C163036230BD0000002C014030B5046AB0
:103AE000026A22F4805202624268C3690D6823F4BC
:103AF000E64343EA05238D6824F4005444EA053480
:103B0000064DA84204D14D6922F4804242EA851252
:103B10004260C36149680164046230BD002C014009
:103B200010B5036A046A24F001040462846924F075
:103B3000F00444EA021423F00A020A438461026298
:103B400010BD10B5036A046A24F01004046284698D
:103B500023F0A00324F4704444EA023243EA011142
:103B60008261016210BD01680C3151E8002F22F41E
:103B7000907241E80023002BF5D10168143151E81F
:103B8000002F22F0010241E80023002BF5D1016B48
:103B9000012909D101680C3151E8002F22F01002EF
:103BA00041E80023002BF5D1202180F842100021AC
:103BB0000163704770B5044600680169E26821F44A
:103BC0004051114301612169A068084361690843BC
:103BD0002168CA6841F20C639A430243CA602068B4
:103BE0004169A26921F44071114341611E49206875
:103BF000884202D1FEF720F901E0FEF70DF900EB53
:103C0000C00101EB0012606864218000B2FBF0F398
:103C1000B3FBF1F36FF018067343B2FBF0F5B2FBA0
:103C2000F0F605EB8305322303EB0515B5FBF1F543
:103C3000B6FBF1F605F0F00505EB0615B2FBF0F664
:103C4000B2FBF0F0B0FBF1F06FF01802504306EB5E
:103C5000800003EB0010B0FBF1F0216800F00F00D2
:103C60002844886070BD0000003801402DE9F84309
:103C7000984617460D460446089E24E0701C22D044
:103C8000FDF7FEFBA0EB0800B0421AD8CEB12068C9
:103C9000C168490717D5802D15D0402D13D0016874
:103CA000C94309070FD401680025406800902046E9
:103CB000FFF759FF0820606484F840500120BDE8F8
:103CC000F8830320FBE72068006835EA000004D091
:103CD0000020B842D2D00020F1E70120F9E700200F
:103CE000704700207047012120F8401F002101800B
:103CF000818001820846704730F8401F21F43F411F
:103D000001800020704700207047FEE770B5044630
:103D100040F674112348FCF730FA224D002000BF12
:103D200000EB400105EB0112002102F5FA7200BF21
:103D300004FA01F31B0201D5482300E0162302EB2D
:103D40004106491CC9B233820829F1D35FF008014A
:103D500004FA01F31B0201D5482300E0162302EB0D
:103D60004106491CC9B226F8103C1029F0D3102195
:103D700004FA01F31B0201D5482300E0162322F8C0
:103D80001130491CC9B21829F2D3401CC0B22828EE
:103D9000C6D3BDE8704040F2BA43024A002102484F
:103DA000FEF7F8BD44050020500100200FB4054B7C
:103DB00010B503A9044A029800F056F910BC5DF84A
:103DC00014FB000071470008280000200907090EB5
:103DD000002804DB00F1E02080F80014704700F0B8
:103DE0000F0000F1E02080F8141D70472DE9F0412C
:103DF0004F1E00EBC7010446D1E9000115461E46DF
:103E000037F006020DD02A463346FCF73CFB7F1EF6
:103E100004EBC703D3E90023FCF78EFA37F0060260
:103E2000F1D1022F25D0042F13D0062F18BFBDE8E3
:103E3000F0812A463346FCF726FBD4E90A23FCF737
:103E40007BFA2A463346FCF71EFBD4E90823FCF72D
:103E500073FA2A463346FCF716FBD4E90623FCF72F
:103E60006BFA2A463346FCF70EFBD4E90423FCF731
:103E700063FA2A463346FCF706FBD4E90223FCF733
:103E80005BFA2A463346FCF7FEFAD4E90023BDE884
:103E9000F041FCF751BA00000022134610460149D8
:103EA000FCF763BB0000F03F0122FCF7CDBB002212
:103EB000134610461146FCF758BB02E008C8121F13
:103EC00008C1002AFAD170477047002001E001C103
:103ED000121F002AFBD1704701490860704700009B
:103EE0002C0000202DE9FF5F82B00021DDE90430C5
:103EF000020DDDF840B0034318D044F61050A2F292
:103F0000FF3242431514119801281FD0A5EB0B0076
:103F1000401C5FEA000A4FF000064E4FDFF8389170
:103F2000B046504615D5CAF1000413E0119801249B
:103F30004AA3012801D16FEA0B010298119AC0E946
:103F40000031C0E9024206B0BDE8F09FCBF10000AD
:103F5000DFE704460021404A491842EB0450CDE90E
:103F6000001012E0E00707D032463B464046494683
:103F7000FCF789FA8046894632463B461046194688
:103F8000FCF781FA06460F466410002CEAD1DDE901
:103F90000401DDE90023BAF1000F06DAFCF773FA39
:103FA00042464B46FCF76FFA05E0FCF7DEFA424664
:103FB0004B46FCF7DAFA04460E460022284BFCF783
:103FC000EDFC03D84FF0FF30014607E00022254BFF
:103FD00020463146FCF7B0F9FCF7AFFC102409E0AD
:103FE000002C0ADB0A220023FCF7B0FB039B3032D3
:103FF0001A55641E50EA0102F2D1641C039AC4F1FE
:1040000011031444119A012A03D0012208430DD14F
:104010000AE0084304D000204FF0110B119072E722
:10402000A3EB0B056D1E0DE05B4504DD4FF00002B8
:1040300005F1010504E003DA4FF00002A5F10105E6
:10404000002AECD002981199C0E90231C0E900457C
:1040500079E70000000014400000F03F300000004D
:104060000000F0430000E03F2DE9FF4F95B09A4675
:10407000884606460025EEE1252877D1002427460C
:10408000F94A0121039400E0044316F8013F203B64
:1040900001FA03F01042F7D130782A2811D06FF0DE
:1040A0002F033078A0F13002092A16D8039A44F081
:1040B000020402EB820203EB42021044761C0390DE
:1040C000EFE758F8042B0392002A03DA504244F435
:1040D0000054039044F00204761C30782E2816D148
:1040E00016F8010F44F004042A280DD06FF02F02B7
:1040F0003078A0F13003092B09D807EB870302EBD6
:104100004303C718761CF3E758F8047B761C307815
:104110006C280FD006DC4C2817D068280DD06A28F0
:1041200014D104E0742810D07A280FD10DE044F4A3
:1041300000140AE044F4801401E044F4401472785E
:10414000824202D104F58014761C761C30786628F1
:104150000BD013DC582877D009DC002875D045280F
:10416000F6D04628F4D047281AD193E118E0632806
:1041700035D0642879D0652812D18BE1702873D0AE
:1041800008DC6728F1D069286FD06E280DD06F2821
:1041900006D1ACE073282CD0752874D0782853D081
:1041A0005246179990476D1C54E1C4F302500228FF
:1041B00009D003280DD0D8F8001004280DD00D60C8
:1041C00008F1040846E1D8F80010EA17C1E90052E6
:1041D000F6E7D8F800100D80F2E70D70F0E718F858
:1041E000041B8DF8001000208DF80100EB46012023
:1041F00003E058F804BB4FF0FF3061074FF00001B7
:1042000002D40DE009F101018946B9420FDA814576
:10421000F8DB1BF809100029F4D108E009F10101CD
:1042200089468142FADB1BF809100029F6D1039870
:104230005346A0EB090721463846179A00F080FA4A
:10424000284400EB090507E044E008E10DE01BF815
:10425000010B524617999047B9F10109F7D253461D
:1042600021463846179AF2E039E00A21C4F3025297
:104270004FF0000B0091022A06D058F8040BC1172A
:10428000032A09D00AE023E008F1070020F0070222
:10429000F2E80201904605E000B2C117042A01D1FC
:1042A00040B2C117002906DA0A460021404261EBFC
:1042B00002012D2202E0220504D52B228DF80420D4
:1042C000012203E0E20701D02022F7E7914657E000
:1042D0000A2100E010214FF0000B00910BE01021AB
:1042E0004FF0000B44F004040827009103E008207D
:1042F0004FF0000B0090C4F30252022A05D058F888
:10430000040B0021032A08D008E008F1070020F080
:104310000702F2E80201904603E080B2042A00D1CD
:10432000C0B24FF0000922072AD53278702A07D090
:10433000DDF800C08CF0100C5CEA0B0C05D00EE030
:1043400040228DF80420012208E050EA010306D043
:1043500030238DF804308DF8052002229146009B11
:1043600083F0080353EA0B030AD150EA010201D19A
:10437000620705D530228DF804204FF001097F1E19
:104380003278582A04D039A20C920CAA02920BE07F
:104390003BA2F9E75B46009AFCF7D8F90C9B9B5CC3
:1043A000029A521E0292137050EA0102F2D1029850
:1043B00004A9081A00F1200B600702D524F4803408
:1043C00000E001275F4502DDA7EB0B0000E00020C5
:1043D00000EB0B01009003984944401A0390E0035E
:1043E00006D453462146179A039800F0A9F90544CC
:1043F000002706E001A85246C05D179990476D1C42
:104400007F1C4F45F6DBE0030CD553462146179A37
:10441000039800F095F9054404E0302052461799BE
:1044200090476D1C0099481E00900029F5DC08E0BB
:104430000298029952460078491C029117999047B8
:104440006D1CBBF10001ABF1010BF1DC5BE100F095
:1044500065F90544761C307800287FF40DAE19B05C
:104460002846BDE8F08F00000928010030313233C2
:1044700034353637383961626364656600000000A0
:10448000303132333435363738394142434445468A
:1044900000000000600700D4062708F1070020F0A4
:1044A0000700F0E80223804603F0004C5FEA0C00AE
:1044B00001D097A009E0200501D596A005E0E0070E
:1044C00001D095A001E0AFF24C001390307823F0BA
:1044D000004365280CD006DC452809D046281DD0AD
:1044E00047287FD13BE0662818D067287AD136E08C
:1044F0000021112F01DB112000E0781CCDE9000123
:1045000004A90CA8FFF7EEFCDDE90D010C9A4FF0B1
:10451000000B07F10109109200914EE04FF00040AE
:104520000097CDE9011004A90CA8FFF7DBFCDDE939
:104530000D020C9B0F994FF0000B914610930092C7
:1045400011B9791C00EB0109B7EB090003D4C0F1E4
:10455000FF3B07F10109A9EB0700019042E0012FA1
:1045600000DA01270021112F01DD112000E038467B
:10457000CDE9000104A90CA8FFF7B4FCDDE90D01A9
:104580000C9A00914FF0000BB946109221070FD4FE
:10459000009A4A4503DA914601E0A9F10109B9F10F
:1045A000010F05DD109AA9F10101515C3029F4D009
:1045B000B84202DA10F1040F03DA0121CDE901104B
:1045C00010E0002803DC8344A9EB000102E0411C59
:1045D000494500DD8946A0EB0B00401C01904FF0DF
:1045E00000400290200705D40198484502DB4FF0B7
:1045F000FF30019000208DF84B0002980DF14B0721
:10460000B0F1004F25D002200C902B200D90029885
:1046100000280CDA404202902D200D9007E00A217C
:104620000298FCF77DF83031029007F8011D0C99D3
:10463000481E0C900029F2DC02980028EFD1791E68
:104640000D980870307800F0200040F0450007F821
:10465000020D11A8C01BC01D02901398007800B174
:10466000012000EB0901019801EBE071029801447F
:104670000398401A401E0390E00306D45346214697
:10468000179A039800F05CF805441398007818B165
:104690005246179990476D1CE00323D55346214697
:1046A000179A039800F04CF805441BE0BBF1000F8B
:1046B00007DB0098584504DD1098179910F80B0097
:1046C00001E0179930205246904701980BF1010BF9
:1046D000401E05F10105019004D12E205246179984
:1046E00090476D1CB9F10001A9F10109DEDC05E07C
:1046F00017F8010B5246179990476D1C0299481EF6
:1047000002900029F4DC53462146179A03989EE64E
:104710002D0000002B000000200000002DE9F041DA
:10472000044600251E461746880404D405E0394691
:104730002020B0476D1C641EF9D52846BDE8F081E5
:104740002DE9F041044600251E469046C80301D5D8
:10475000302700E02027880404D505E0414638468C
:10476000B0476D1C641EF9D52846BDE8F0810000F5
:1047700013B54FF0FF33012269460248FEF7A0FA55
:1047800000981CBD240200202DE9F04DC84A0024E9
:1047900090B0914205DA21F00043934201D805D14F
:1047A00020B110B0BDE8F04DFFF77EBBB1F5801F22
:1047B0001BDA53EA000209D0002911DA0120FFF7C1
:1047C0008BFB10B0BDE8F04DFFF771BB0220FFF787
:1047D00083FBFFF761FB10B081F00041BDE8F08D75
:1047E0006FF035043622FBF72FFF04EB2152C1F3A3
:1047F0001308B049A2F2FF33414401F4801282F061
:104800007F6103EB225281F04051009241EA08019E
:104810000022A94BFBF731FE044608F10200A74E27
:10482000C0F313000D467E44032867D2D6E9002367
:104830002046FCF79BF81ED10098002802BFD6E95D
:10484000000110B0BDE8F08DFCF766F807460C4695
:104850009B4A9C4BFBF717FE06460D469A4A9B4B1C
:1048600038462146FBF70FFE10B032462B46BDE816
:10487000F04DFBF761BD4FF05532954B2046294670
:10488000FBF701FE0022934BFBF7FAFD06460F46AD
:1048900022462B4610461946FBF7F5FD32463B46AD
:1048A000FBF7F1FD064600980F46F0B1FCF734F82F
:1048B00080468A46824A834BFBF7E5FD32463B46FB
:1048C000FBF7DEFD22462B46FBF7D7FD05460C46DF
:1048D0007D4A7E4B40465146FBF7D5FD10B02A4637
:1048E0002346BDE8F04DFBF7C8BD0B4610B032467D
:1048F00020462946BDE8F04DFBF7BFBD00224FF032
:1049000080432046FBF718FD02460B462046294609
:10491000FBF72BFE06460F460098FBF7FDFFCDE99F
:10492000040132463B4610463946FBF7ACFD0C907D
:1049300069480C9A4044019009910B461046FBF7D8
:10494000A2FD8246024665488B46C8F151080B46D7
:1049500008F5D72803217844FFF748FA52465B460A
:10496000FBF791FD0A905E480D9152465B4604218B
:104970007844FFF73BFA099B0C9AFBF784FD8446C9
:1049800001980D9B40EA080860460A9AFBF7D4FCA0
:1049900083460891B8F1000F4EDD4FF0FF322046FC
:1049A0002946FBF751FE22462B46FBF76CFD80465D
:1049B00000988A4660B3DDE90401414A414BFBF7A8
:1049C00062FD099100905A4640465146089BFBF70C
:1049D000B3FC32463B46FBF756FD099B009AFBF7BA
:1049E000ABFC42465346FBF74BFD22462B46FBF7FA
:1049F00044FD04460D46DDE90401334A334BFBF721
:104A000042FD10B022462B46BDE8F04DFBF735BD08
:104A10005A464046089BFBF78FFC32463B46FBF765
:104A200032FD42465346FBF72BFD10B022462B4683
:104A3000BDE8F04DFBF724BD009840B3DDE904016B
:104A40001F4A204BFBF71FFD80468A465A462046E8
:104A50002946089BFBF711FD32463B46FBF713FD49
:104A600042465346FBF709FD22462B46FBF705FD60
:104A700004460D46DDE90401134A144BFBF703FD20
:104A800010B022462B46BDE8F04DFBF7F6BC0B46B6
:104A90005A4620462946FBF7F0FC32463B46FBF7D8
:104AA000F2FC10B022462B46BDE8F04DFBF7E8BC07
:104AB0000000F07F645F09000000F03FD6060000B0
:104AC000763C7935EF39EA3D0000E0FE422EE63FC4
:104AD0005555D53F0000E03F86EBF9FF6E0500001D
:104AE0006C050000ADF5027DFCF788FFFEF767FE60
:104AF000FEF774FCFEF75CFCFEF7D8FCFEF760FDE9
:104B0000FEF7AAFDFEF7C4FDFEF7F6FCFEF712FC69
:104B1000FEF7AEFCFEF7E8FB03224C494C48FCF7DD
:104B2000C5F90020FFF7F2F84AA0FFF73FF9A022ED
:104B30004C4908A8FBF708FB4A49A022A03130A83D
:104B4000FBF702FBA022484958A8FBF7FDFAAA2070
:104B50008DF8000200208DF80402642000900123EB
:104B600081AA80A94148FDF7B5FB9DF804029DF894
:104B70000012884202D03EA0FFF718F94FF08040A3
:104B80004721816240F2E731C1624C1C04640C2170
:104B90003948FDF7B1FE00BF4FF47A70FCF768FBAF
:104BA0002A4D6888FBF76CFDDFF8D0904FF066382F
:104BB00042464B46FBF767FC6FF00B02FBF744FDE8
:104BC000FBF792FD0646FBF77CFD04460F462C4999
:104BD0003046FBF735FBFBF774FD0022294BFBF752
:104BE0004FFC22463B46FBF7C0FCFBF77DFDFBF785
:104BF000A1FFFBF766FD82468B462888FBF740FD48
:104C000042464B46FBF73FFC00221F4BFBF73BFCA9
:104C10006FF00B02FBF718FD80468946FEF70CFB90
:104C2000FBF74FFD06460F46FEF7D6FAFBF749FDA8
:104C300004460D46FEF7A6FAFBF743FD8DE8F00F9C
:104C400002460B4611A0FFF7B1F8A5E700000020CF
:104C50003000002053544D333246313033434254F8
:104C6000360D0A00B84C0008F84D0008F800002086
:104C70006572720D0A0000009801002066660A4005
:104C800000002041008040400000FA3F563A252EA7
:104C9000356609493A252E356609503A252E35667E
:104CA000094261743A252E3566094E54433A252E41
:104CB00035660D0A000000000000FF000000FF0044
:104CC0000000FF000000FF000000FF000000FF00E8
:104CD0000000FF000000FF000000FF000000FF00D8
:104CE0000000FF000000FF000000FF000000FF00C8
:104CF0000000FF000000FF000000FF000000FF00B8
:104D00000000FF000000FF00FF000000FF000000A7
:104D1000FF000000FF000000FF000000FF00000097
:104D2000FF000000FF000000FF000000FF00000087
:104D3000FF000000FF000000FF000000FF00000077
:104D4000FF000000FF000000FF000000FF00000067
:104D5000FF000000FF0000000000FF000000FF0057
:104D60000000FF000000FF000000FF000000FF0047
:104D70000000FF000000FF000000FF000000FF0037
:104D80000000FF000000FF000000FF000000FF0027
:104D90000000FF000000FF000000FF000000FF0017
:104DA0000000FF000000FF00000000000000000005
:104DB00000000000000000000000000000000000F3
:104DC00000000000000000000000000000000000E3
:104DD00000000000000000000000000000000000D3
:104DE00000000000000000000000000000000000C3
:104DF00000000000000000000000000000000000B3
:104E000000000000000000000000000000000000A2
:104E10000000000000000000000000000000000092
:104E20000000000000000000000000000000000082
:104E30000000000000000000000000000000000072
:104E40000000000000000000FF000000FF00000064
:104E5000FF000000FF000000FF000000FF00000056
:104E6000FF000000FF000000FF000000FF00000046
:104E7000FF000000FF000000FF000000FF00000036
:104E8000FF000000FF000000FF000000FF00000026
:104E9000FF000000FF0000000102020304050607F6
:104EA00008090A0B0C0D0E0F101000000000000086
:104EB00000000102030406070809000000000102C7
:104EC000030400000000000004FA97999999D93F63
:104ED000AF788E1DC571CC3F9FC678D0099AC33F6D
:104EE000935555555555E53F599322942449D23F42
:104EF000DE03CB966446C73F44523EDF12F1C23F09
:104F00000000000000000000284F00080000002002
:104F100030000000BA3E0008584F00083000002062
:104F200088120000CA3E00080000000000000000D7
:104F30000000000000000000000000000000000071
:104F400001000000100000000000000000127A00C4
:084F5000000000000000000059
:04000005080000ED02
:00000001FF
