:020000040800F2
:1000000010F3002085020008C539000845360008B5
:10001000C33900086D1800084140000800000000C6
:10002000000000000000000000000000C9390008C6
:10003000B119000800000000C7390008CB390008DA
:100040009F0200089F0200089F0200089F0200080C
:100050009F0200089F0200089F0200089F020008FC
:100060009F0200089F0200089F0200089F020008EC
:100070009F0200089F0200089F0200089F020008DC
:100080009F0200089F020008DD1600089F0200087A
:100090009F0200089F0200089F0200089F020008BC
:1000A0009F0200089F0200089F0200089F020008AC
:1000B0009F0200089F0200089F0200089F0200089C
:1000C0009F0200089F0200089F0200089F0200088C
:1000D0009F0200089F0200082940000835400008E0
:1000E0009F0200089F0200089F0200089F0200086C
:1000F0009F0200089F0200089F0200089F0200085C
:100100009F0200089F0200089F0200089F0200084B
:100110009F0200089F0200089F0200089F0200083B
:10012000011900089F0200089F0200089F020008B2
:100130009F0200089F0200089F0200089F0200081B
:100140009F0200089F0200089F0200089F0200080B
:100150009F0200089F0200089F0200089F020008FB
:100160009F0200089F0200089F0200089F020008EB
:100170009F0200089F0200089F0200080000000084
:100180009F0200089F0200089F0200089F020008CB
:100190009F0200089F0200089F0200089F020008BB
:1001A0009F0200089F0200089F0200084B1C012BC1
:1001B00098BF70472DE9F003911C9B08B1F80480AB
:1001C000B1F802900A8831F802CC8044814402449C
:1001D0008444D9F80070D8F800601568DCF8004055
:1001E000C9F80060C8F80070CCF800501460D9F865
:1001F0000470D8F804605568DCF80440C9F804605D
:10020000C8F80470CCF80450546008315B1ED5D196
:10021000BDE8F00370474B1C012B98BF70472DE9D8
:10022000F003911C9B08B1F80480B1F802900A8891
:1002300031F802CC00EB580800EB590900EB5202F0
:1002400000EB5C0CD9F80070D8F800601568DCF899
:100250000040C9F80060C8F80070CCF80050146085
:1002600008315B1EDFD1BDE8F0037047DFF810D026
:1002700001F0C8F900480047694C0008AFF300805E
:1002800010F300200648804706480047FEE7FEE7D7
:10029000FEE7FEE7FEE7FEE7FEE7FEE7FEE7FEE736
:1002A000693A00086D0200089FED1A1AF5EE000A7F
:1002B00040EE010ABDEEE00AF5EEC00A10EE100AAB
:1002C000F1EE10FA38BF401E00EE100A1349F7EEA7
:1002D000001AB8EEC00A30EEC00ADFED0F0A20EEB9
:1002E000200AFCEEC00A10EE900AC0F3080000EEEF
:1002F000900A01EB8000F8EE600A90ED011A70EEB2
:10030000600A90ED000A71EEE01A21EE800A00EE1C
:10031000810A704783F9223E00000044A0F10008E2
:100320009FED3D0A5FEA920C57D000BFD0ED000A66
:1003300090ED011A0B1D60EEA00A083041EE010A93
:10034000F5EEC00AF1EE10FAA6BFB1EEE01A81EDAB
:10035000001A81ED000AD0ED000A90ED011A191D76
:1003600060EEA00A083041EE010AF5EEC00AF1EE97
:1003700010FAA6BFB1EEE01A83ED001A83ED000A71
:10038000D0ED000A90ED011A0B1D60EEA00A0830B6
:1003900041EE010AF5EEC00AF1EE10FAA6BFB1EE89
:1003A000E01A81ED001A81ED000A90ED001AD0EDFF
:1003B000010A191D21EE011A083000EEA01AB5EE4F
:1003C000C01AF1EE10FAA6BFF1EEC10AC3ED000AA1
:1003D00083ED000ABCF1010CA8D112F0030208BFA2
:1003E000704700BFD0ED000A90ED011A0B4660EE99
:1003F000A00A091D083041EE010AF5EEC00AF1EE2F
:1004000010FAA6BFB1EEE01A83ED001A83ED000AE0
:10041000521EE7D170470000000000002DE9F041B6
:1004200006462DED028B8C460088736801EB800434
:100430004508274601EB850004EB85025FEA950835
:100440007DD000BFD1ED003AD4ED001A91ED012A24
:1004500094ED013A73EEA16A91ED024A91ED031A0F
:10046000D4ED022AD4ED035A90ED008A90ED017A82
:1004700090ED020A90ED036A92ED005AD2ED014A26
:10048000D2ED027AD2ED030AC1ED006A72EE036A80
:1004900073EEE13A74EEC71AC1ED016A74EE226A96
:1004A00074EE622A37EEC04AC1ED026A71EE256A27
:1004B000C1ED036A72EE436A31EE652A38EE051A21
:1004C00035EE483A80ED001A37EE241A80ED011A15
:1004D00030EE271A80ED021A36EE201A80ED031A4C
:1004E00030EEC61A93ED000AD3ED010A63EE804A9E
:1004F00026EEA05A66EE805A63EEA03A74EE854A64
:1005000075EEE33AC4ED004A63EE204AC4ED013AC9
:1005100061EE803A61EEA00A23EE000A74EEE31A5F
:1005200030EE800AC2ED001A82ED010A93ED020A54
:10053000D3ED030A62EE803A22EE203A00E024E096
:1005400062EEA01A22EE002A73EE832A10301031D8
:1005500072EE611AC4ED022A24EE202AC4ED031AB9
:1005600061EE001A61EE200A24EE000A103332EE2A
:10057000611A103430EE800A82ED021A82ED030A0D
:100580001032B8F101087FF45DAF294602236046BE
:10059000726800F035FB72682946BDEC028B384664
:1005A000BDE8F041022300F02BBB2DE9F34F2DED08
:1005B000048B87B00B980088470801EB870000EB9D
:1005C000870606EB8705CDE90056DDF82C80A5F1FE
:1005D000040C0CEB8703CDE902014FEA5709D8F868
:1005E00004800427CDE90497D1ED000A96ED000AB6
:1005F00090ED011A95ED013A70EE802A70EEC03A46
:10060000D1ED010A96ED010A041F321F30EE802A57
:1006100070EEC01A31EE230AD0ED000A32EE415AD4
:1006200033EEC11A30EE434A71EEE04A95ED000A0E
:1006300070EEA11A35EE435A74EE805A72EEE04A1B
:1006400070EEA20A71EEC01A31EE031A74EEC04ABF
:1006500030EE800A062708F1080A81ED000A90EDC5
:10066000010AD5ED010A08F1100B30EE020A08F17B
:10067000180830EE200A81ED010A80ED004AC0ED35
:10068000015AC6ED004A86ED015A85ED001AC5ED06
:10069000011ADDF810900830083108350836A9F144
:1006A00002095FEA590900F0078100BFD1ED000A95
:1006B00096ED000AD0ED011AD5ED014A30EE802A00
:1006C00030EEC05AD1ED010A96ED010A70EE802A93
:1006D00030EEC01A31EE850AD5ED000A30EE644ADC
:1006E00090ED000A31EE403A30EE011A73EE205AD6
:1006F00032EE403A30EE020A31EE601A73EE603AA2
:1007000030EE200A32EEE13A75EE611A81ED000A10
:1007100090ED010AD5ED010A33EE643A30EE220A7B
:1007200071EEA41A30EE200A81ED010AD4ED002A00
:10073000DCED004A54ED010A1CED010A32EEA47A08
:1007400032EEE49A72EEE42A52ED018A70EE807A7B
:1007500030EEC02A72EEE82AD2ED000A93ED000ACC
:1007600013ED018A30EEC05A72EE886A77EEE82AFD
:1007700035EE026A32EEC85A77EE602A72EEC04A4F
:1007800070EEC02A70EE870A72EEC22A30EE800A3E
:1007900038EE682A84ED000A12ED010A53ED010AD1
:1007A00032EE492A30EE270A30EE200A04ED010A23
:1007B0009AED000ADAED010A64EE007A25EEA07ADD
:1007C00065EE805A24EE204A37EE877A35EEC44A29
:1007D00080ED007A80ED014A26EEA04A66EE005ACE
:1007E00066EE200A26EE800A083034EE654A0831AB
:1007F00030EE800A82ED004A083C02ED010A9BEDD2
:10080000000ADBED010ADDF814E023EE804A63EE16
:10081000205A23EE003A63EEA03A083A34EE254A15
:100820000BEB8E0B33EE633A86ED004A0AF1080AB1
:1008300086ED013AB1EE643A083663EE003A25EEF1
:10084000203A25EE000A64EEA00A33EEC33A30EEF9
:10085000C00A8CED003A0CED010A98ED000AD8EDC3
:10086000010A08EB870861EE803A21EE203A21EE7A
:10087000001A61EEA01AACF1080C33EE833A31EEA7
:10088000611A85ED003A62EE801A85ED011A22EEBA
:10089000201A62EEA00A22EE000A083531EE611A33
:1008A00030EE800A83ED001A03ED010A083BB9F12E
:1008B00001097FF4FBAE00BFD1ED000A96ED000AFE
:1008C00091ED011AD0ED015A30EE802A70EEC00A87
:1008D00096ED010A95ED015A042371EE001A71EEAE
:1008E000404A35EEA00A90ED001A31EEE54A70EE6E
:1008F000E50A30EE453A95ED000A34EE454A30EE11
:10090000855A74EEC12A72EE413A71EE240A31EE34
:10091000021A72EE802A73EEC03A70EEC00A31EE0F
:10092000000A81ED000A90ED010A95ED011A30EE02
:10093000210A30EE010A81ED010A9AED000A9AEDD2
:10094000011A63EE001A22EE812A22EE800A23EEBB
:10095000011A71EE821A30EE410AC0ED001A80EDE4
:10096000010A9BED000A9BED011A63EE801A24EE4A
:10097000012A24EE000A23EE811A71EE821A30EE6B
:10098000410AC6ED001A86ED010A98ED010A98EDBC
:10099000001A60EE801A25EE012A60EE810A25EE2B
:1009A000000A32EE211A30EEC00A85ED001A85EDFC
:1009B000010A0B984268DDE9030100F021F90B9868
:1009C000042304994268029800F01AF90B98042352
:1009D00004994268019800F013F90B9804990423D4
:1009E0004268009807B0BDEC048B02B0BDE8F04F40
:1009F00000F006B92DE9F0410488984617460D46E7
:100A00000646012A20D1281DF4B1A0F1080114F0F6
:100A1000010F06D091ED020AB1EE400A81ED020A03
:100A200008315FEA540C0FD091ED020AB1EE400A92
:100A300081ED020A91ED040AB1EE400A81ED040A4B
:100A40001031BCF1010CEFD1B4F5807F1BD008DC74
:100A5000102C13D0202C16D0402C19D0802C0DD067
:100A60001CE0B4F5007F13D0B4F5806F06D0B4F568
:100A7000006F08D0B4F5805F0AD00FE029463046F9
:100A8000FFF7CCFC0AE029463046FFF78EFD05E073
:100A9000214601232846726800F0B2F8B8F1000F31
:100AA00004D0B1892846B268FFF780FB012F18BF38
:100AB000BDE8F08100EE104AB7EE001A002CF8EE07
:100AC000400A81EE200A08BFBDE8F081A5F10800C8
:100AD00014F0010F0ED0D0ED020A60EE800AC0EDD6
:100AE000020AD0ED030AF1EE600A60EE800AC0ED62
:100AF000030A0830610808BFBDE8F081D0ED020AA2
:100B000060EE800AC0ED020AD0ED030AF1EE600A41
:100B100060EE800AC0ED030AD0ED040A60EE800AA0
:100B2000C0ED040AD0ED050AF1EE600A60EE800A1D
:100B3000C0ED050A1030491EE0D1BDE8F08100008B
:100B40002DE9F00100235FEA910C16D0BCF1004FB3
:100B50003FD20124BCF1010F0FDB00BF50F8045B52
:100B600003FA85F303EB254550F8043B05FA83F5BA
:100B7000641C05EB2343A445F0DA11F0030C22D0EA
:100B8000BCF1004F35D2ACF10105002D15DD841EFE
:100B90001CF0010F02D134F9026F3344B4F9027032
:100BA00000266D1008D000BF34F9048F3B44B4F91F
:100BB000027046446D1EF7D13344BCF1010C5CBF9A
:100BC00030F91C00034493FBF1F01080BDE8F00104
:100BD000704750F8044B03FA84F303EB244450F8B5
:100BE000043B04FA83F404EB2343BCF1010CF0D181
:100BF000C3E730F9024BBCF1010C2344F9D1E2E721
:100C00002DE9FF4F2DED108B82B09FEDFEFA0B46C4
:100C10001C46DB084FF0000C0CEB030505EB03084A
:100C200008EB030909EB030606EB030A00EBCC070C
:100C300000EBC60697ED001AD6ED000A0AEB030B8F
:100C400000EBC50500EBCA0A31EE200A71EE601A0E
:100C500095ED002ADAED000A0BEB030E00EBC80855
:100C600032EE201A00EBCB0B32EE602AD8ED002AD0
:100C7000DBED000A00EBC90900EBCE0E99ED003A5E
:100C80009EED004A72EEA03A72EEE02A73EE040A7C
:100C900033EE443A70EE636A70EE233A31EE600A46
:100CA00071EE200A33EEA01A73EEE00A87ED001A07
:100CB000C6ED000A97ED011AD6ED010AD5ED013A0D
:100CC00098ED014A31EE206A71EE600A9AED011A40
:100CD00099ED015A73EE814A73EEC13A9BED011A08
:100CE00034EE017A34EE411A9EED014A75EE045A53
:100CF00035EE444A36EE475A36EE076A34EEE57A68
:100D000074EEA54A76EE245A76EE644AC7ED015A8F
:100D1000C6ED014A76EE874AC8ED004A76EEC74A2C
:100D2000CBED004A75EE404A35EE000AC8ED014AA7
:100D30008BED010A32EE430A32EE032A20EE0F0A4F
:100D400062EE0F4A33EEC42AA4448C4522EE0F3AD9
:100D500033EE842A30EEC34A62EE0F3A30EE833A25
:100D600031EEC02A31EE800A71EE630A31EE231AA9
:100D700072EEE41A72EEA42A70EE013A30EE410AE5
:100D8000C5ED003A8EED000A32EE200A8AED000A27
:100D900032EE600A89ED000A33EE620A85ED010A3F
:100DA00033EE220A8EED010A34EE610A8AED010A61
:100DB00034EE210A89ED010AFFF42EAF082B3FBF64
:100DC00002B0BDEC108B04B0BDE8F08F4FF0000C0A
:100DD000CDF804C04FF0010CCDF800C0DDF804C020
:100DE000159DAC444FEA8C0505EB0C07CDF804C00B
:100DF00007EB0C094FEA4C0808EB0C0609EB0C0A50
:100E000002EBCC0C02EBC80802EBC60602EBC505F0
:100E100002EBC70702EBC90902EBCA0A9CED00DA34
:100E20009CED018AD8ED00CA96ED00CAD5ED00BA56
:100E300097ED00BAD9ED00AADAED008AD8ED017A73
:100E400096ED01AA95ED017AD7ED016A99ED016A57
:100E5000DAED019ADDF800C00CEB0307FD1805EB95
:100E6000030A0AEB030808EB030606EB030B00EB8F
:100E7000CC0900EBC808D9ED000A98ED000A00EB98
:100E8000C70700EBC606D7ED001A96ED001A70EE04
:100E9000803A0BEB030E70EEC00A31EE810A00EBD4
:100EA000C50500EBCB0B31EEC11AD5ED001A9BED59
:100EB000002A00EBCA0A00EBCE0E31EE824A71EE38
:100EC000C21A9AED002ADEED002A32EE223A32EE04
:100ED000622A73EEC42A73EE843A30EE435A30EE3F
:100EE000030A33EE803A73EEC0DA89ED003A99EDE9
:100EF000010A98ED013AD7ED013A95ED014A70EEFD
:100F000003EA30EE433A96ED010A9AED01EADEED8E
:100F1000014A33EE809A73EEC03A9BED010A74EEFB
:100F2000005A34EE404A3EEE240A7EEE644A3EEE1B
:100F3000E5EA7EEEA55A79EE40EA39EE009A32EE05
:100F4000AE0A72EEEE2A75EE89EA35EEC99A7EEEA9
:100F5000455AC9ED01EA3EEE055A2BEEADEA67EEC1
:100F600009EA2BEE899A67EE2DDA3EEE2EEA39EE8B
:100F70006D9A88ED00EA67EEA5DA88ED019A2CEE0D
:100F8000809A6CEEA55A27EE800A39EE2D9A35EE3E
:100F9000C00A85ED009A66EE055A85ED010A2AEE33
:100FA000A20A2AEE855A66EE222A30EE250A8BED39
:100FB000000A35EE620A73EEA42A8BED010A31EEC7
:100FC000420A31EE021A33EEE42A62EE8F3A20EE44
:100FD0000F0A21EE0F1A22EE0F2A70EEC02A30EE11
:100FE000800A71EEC10A71EE811A33EE421A33EEB5
:100FF000022A34EE633A34EE234A70EE043A30EEBD
:10100000444A01E0F304353F72EE834A72EEC32A8C
:1010100032EE613A32EE210A71EE601A71EE200A68
:101020002DEE232A28EE031A2DEE033A68EE233A1A
:10103000A44432EE011A28EE842A8C4587ED001A6A
:1010400033EE631A29EE843A87ED011A29EE801AED
:1010500028EE800A32EE011A30EE430A26EEA42A68
:101060008EED001A8EED010A2BEE240A26EEA11A4F
:101070006BEE211A30EE010A2CEE221A86ED000AE0
:1010800031EEC20A6AEE221A86ED010A2AEE200A21
:101090006CEE200A31EE000A8AED000A30EEE10A19
:1010A0008AED010AFFF4D8AEDDF800C00CF1010CA6
:1010B000CDF800C063453FF691AEDDF854C04FF661
:1010C000FF7404EACC0CCDF854C0072B3FF6A0AD5A
:1010D00002B0BDEC108B04B0BDE8F08F2DE9F05FDD
:1010E0000546002092469B46884606468146402497
:1010F0001BE0284641464746224600F0D0F85346BA
:101100005A46C01A914110D311461846224600F0A3
:10111000B7F82D1A67EB01084F462246012000213F
:1011200000F0AEF817EB00094E41201EA4F10104B7
:10113000DFDC484631462A464346BDE8F09FD2B23E
:1011400001E000F8012B491EFBD270470022F6E7B0
:1011500010B513460A4604461946FFF7F0FF20462D
:1011600010BD421C10F8011B0029FBD1801A7047EA
:101170002DE9FE4F81EA030404F0004421F0004110
:1011800000944FF0000B23F0004350EA01045ED0BE
:1011900052EA03045BD0C3F30A54C1F30A552C444A
:1011A000A4F2F3340194A0FB0254C1F3130141F4FF
:1011B0008011C3F3130343F4801301FB024400FBCB
:1011C000034E840A970A44EA815447EA8357A4FBF2
:1011D000076802958D0A05FB07854FEA932C04FBEF
:1011E0000C542705029D4FEA065847EA1637B5EB1F
:1011F00008056EEB070C870E920E47EA811742EA4C
:101200008312A7FB0201B6EB0B0164EB00042B0D6C
:1012100043EA0C335E1844EB1C50DA465146E7FBB8
:101220000201C5F313044FEA0B3343EA14534FEAA8
:101230000432019C43EA0603A4F10C040294009CCE
:10124000CDE900B400F04AF803B0BDE8F08F00200B
:101250000146F9E730B50B46014600202022012463
:1012600009E021FA02F59D4205D303FA02F5491B74
:1012700004FA02F52844151EA2F10102F1DC30BD8A
:10128000202A04DB203A00FA02F100207047914046
:10129000C2F1200320FA03F3194390407047202A3B
:1012A00004DB203A21FA02F00021704721FA02F310
:1012B000D040C2F12002914008431946704710B552
:1012C000141E73F1000408DA401C41F10001921869
:1012D0005B411A4301D120F0010010BD2DE9F04D12
:1012E00092469B4611B1B1FA81F202E0B0FA80F267
:1012F00020329046FFF7C4FF04460F4640EA0A003A
:1013000041EA0B0153465A46084313D0114653EAAB
:10131000010019D0C8F140025046FFF7C0FF054652
:101320000E46504659464246FFF7AAFF084305D0ED
:10133000012004E020463946BDE8F08D0020054339
:1013400046EAE0762C4337430A986305E40AA0EBAB
:1013500008000022FD0A44EA47540A3002D5002062
:101360000146E9E7010510196941DDE90845001961
:101370006941BDE8F04DA2E72DE9FE4F804681EAC4
:101380000300C00F0C46009021F0004123F00045FF
:10139000B8EB0200A94105D24046214690461C46C2
:1013A0000B46024623F00040104347D0270DC7F3F9
:1013B0000A00C3F30A510290401A019040286BDAE8
:1013C000C3F3130040F4801B0098924620B1002321
:1013D000D2EB030A63EB0B0B01985946C0F14002B4
:1013E0005046FFF74DFF06460D4650465946019AB6
:1013F00000F01AF910EB08006141002487EA11524D
:1014000084EAE7731A4340D0009A62B3019A012A32
:101410004FEA075215DC001B61EB02014FF000425E
:1014200002EA0752CDE90042001C41F58011324624
:101430002B46FFF753FF03B0BDE8F08F404621462F
:10144000F9E7001B61EB0201001C41F58013001855
:101450005B412018A2F5001747EB030140EAD57065
:10146000B6196D4111E06D084FEA360645EAC075C0
:101470004FEA0752001B61EB0201001C41F580118D
:1014800049084FEA30000019514132462B4603B05B
:10149000BDE8F04FFFF713BF009801224000002382
:1014A000D0EB020263EBE073009821464FEAE07450
:1014B000B8EB000061EB0401E9E783F000435BE770
:1014C00081F0004158E72DE9F04D81EA030404F072
:1014D000004B21F0004514464FF0000A23F0004174
:1014E00050EA050220D054EA01021DD0C5F30A5784
:1014F0000246C5F31303C1F31300C1F30A5640F4C7
:10150000801543F48013A7EB0608101BD64608F29B
:10151000FD3873EB050002D308F1010801E09218D1
:101520005B41B8F1000F03DA00200146BDE8F08D01
:1015300000204FF48011064684460EE0171B73EB23
:10154000050705D3121B63EB050306434CEA010CA8
:1015500049084FEA300092185B4150EA0107EDD18B
:1015600052EA030012D082EA040083EA050108432C
:1015700005D0101BAB4106D20122002306E0002259
:101580004FF0004302E06FF0010253101AEB060027
:101590004CEB085110EB0A0041EB0B01BDE8F04D9C
:1015A000FFF78DBEC1F30A52C1F3130140F2FF33BE
:1015B00041F480119A4202DA00200146704740F25D
:1015C00033439A42A2F2334202DC5242FFF767BE33
:1015D000FFF756BE30B5041E71F1000404DB4FF076
:1015E0000044404264EB0101141E73F1000405DB6A
:1015F0001C464FF00043524263EB0403994208BF7C
:10160000904230BD064C074D06E0E06840F0010313
:1016100094E8070098471034AC42F6D3FEF72AFE50
:10162000A4F90008C4F90008202A06DBCB17203AE9
:1016300041FA02F043EAE07306E041FA02F3D040D7
:10164000C2F12002914008431946704710B5014687
:10165000806B026C12F0500F05D0026CD20626D5BA
:1016600000F071FA10BD016C41F400710164016871
:101670008A6812F0405F17D1027EAAB9CA6A12F4D2
:10168000700F02D08A6852050ED44A6822F02002F8
:101690004A60016C21F480710164016CC90403D4B7
:1016A000016C41F00101016400F038FA10BD806B5B
:1016B000C26CBDE810400846104710B5806B402151
:1016C0000164416C41F00401416400F03CFA10BD3A
:1016D00010B5806B00F036FA10BD0000014800F034
:1016E00033BA000000580020464910B54A6822F479
:1016F00040324A604A6843681A434A6001684A684F
:1017000022F480724A6001684A68036942EA03224F
:101710004A6001684A6822F040724A6001684A687B
:1017200083681A434A6001688A6822F400628A600A
:1017300001688A68C3681A438A60816A6FF07062C0
:10174000D14201688A6822F070628A6001688A6802
:101750000CD0836A1A438A6001688A6822F040527A
:101760008A6001688A68C36A1A4301E022F0405225
:101770008A6001688A6822F002028A6001688A68C9
:10178000037E42EA43028A6090F820100029016833
:101790004A680FD042F400624A6001684A6822F445
:1017A00060424A6001684A68174C436A04EB43335D
:1017B0001A4301E022F400624A600168CA6A22F416
:1017C0007002CA620168CA6A838B104C04EB03532F
:1017D0001A43CA6201688A6822F400728A6001684A
:1017E0008A6890F8303042EA43228A6001688A6849
:1017F00022F480628A6001688A68406942EA802037
:10180000886010BD0023014000E0FFFF0000F0FFF2
:101810000549B1FBF0F00549421E0B68DA62096820
:10182000400888637047000000A24A04A8580020BE
:1018300010B50B4C0020607004210A4801F052FBE7
:1018400009494FF4806201F5006000F093FA054900
:1018500001200968486160780028FCD010BD0000B4
:101860003C000020A858002000500020FEE70000A7
:101870002DE9F0410E462DED028B82B080464FF4EB
:1018800080676A4639463046FFF75AF978009FED7F
:10189000198A194D810000BF05EB8002401C80B2FF
:1018A00082ED008A8842F7D35FF00004BDF8001093
:1018B00036F81400401A00B2214602F0C3FB05EBD3
:1018C000C400641C80ED000AA4B280ED018ABC4211
:1018D000ECD30123002208490848FFF78BF84FF4A6
:1018E000805241460448FEF71BFD02B0BDEC028B5E
:1018F000BDE8F08100000000045A002010520008EA
:10190000014800F03DBB0000485800200168182342
:10191000CAB2103AB2FBF3F2054B6FF30901032A86
:101920009B5CC36500D9091D8165084670470000AE
:10193000F051000810B5014600208B698A6A4FF00B
:10194000C07453B1B3F5005F15D072B1012A0CD049
:10195000022A0AD0032A09D104E01AB1012A06D0CA
:10196000022A03D1C96AC90100D5012010BDC96A84
:10197000A142FAD010BD002AF7D0012AF2D0022AE3
:10198000F3D0032AF3D010BD30B50468256825F4E0
:1019900080252560046863608368402B036803D05A
:1019A00099600068C26030BD9A600068C16030BD57
:1019B000704772B6FEE7704778B50024009490F83F
:1019C0003C20012A19D0012280F83C200A68072314
:1019D0000568092A13D9EE680A3A02EB42029340DD
:1019E0009E43EE600B788A680A3B03EB43039A4000
:1019F0000368DD682A43DA6010E0022078BD2E69B2
:101A000002EB420293409E432E610B788A6803EBFF
:101A100043039A4003681D692A431A614A681F23D9
:101A2000072A13D205686E6B521E02EB82029340A6
:101A30009E436E630A8893B20A79521E02EB8202B9
:101A400093400268556B2B43536327E005680D2ACA
:101A500012D22E6BD21F02EB820293409E432E6362
:101A60000B790A88DB1F92B203EB83039A40036869
:101A70001D6B2A431A6311E0EE6A0D3A02EB8202F3
:101A800093409E43EE620B790A880D3B92B203EBC2
:101A900083039A400368DD6A2A43DA621B4B0568B8
:101AA000194A9D420AD10D68122D07D1556825F4B7
:101AB00000055560556845F48005556005689D42F0
:101AC0001DD1134D0B68AB4201D0112B17D15368B8
:101AD00023F480035360536843F4000353600968A0
:101AE000A9420CD10B490C4A0968B1FBF2F101EB98
:101AF0008101490000E0491E00910029FBD180F8D6
:101B00003C40002078BD000000230140002001403F
:101B1000120000104C00002040420F0010B5064992
:101B200000680968884206D10421044801F03EFAA1
:101B300003490120487010BD00580020A85800201B
:101B40003C0000207047704770B504460068066886
:101B5000456816F0020F05F020012AD049B3216C28
:101B6000C90603D4216C41F400712164816811F02D
:101B7000405F17D1217EA9B9C16A11F4700F02D05C
:101B8000816849050ED4416821F020014160206C34
:101B900020F480702064206CC00403D4206C40F0DA
:101BA000010020642046FFF7B9FF21686FF01200A2
:101BB000086016F0040F05F0800132D089B3206C64
:101BC000C00603D4206C40F4005020642068816873
:101BD00011F4401F1ED1816B11F4401F02D08168A7
:101BE000490517D44168490514D4816811F0405F54
:101BF00010D1217E71B9416821F080014160206CD3
:101C000020F480502064206CC00503D4206C40F088
:101C1000010020642046FFF7CEFE21686FF00C0023
:101C2000086016F0010F05F040010FD071B1206877
:101C30000068C0070AD0206C40F480302064204641
:101C400000F043F821686FF00100086016F0200FE3
:101C500005F080610ED000290CD0606C40F00200CD
:101C6000606420686FF0200505602046FFF76BFF79
:101C70002068056070BD70B504004FF0000503D00A
:101C8000206C002610B107E0012070BD204600F056
:101C90001DF8666484F83C60206CC00610D4206C8B
:101CA00020F4885040F0020020642046FFF71CFD1D
:101CB0006664206C20F0020040F00100206400E027
:101CC000012584F83C60284670BD704770B586B029
:101CD000064614216846FFF739FA214930688842E0
:101CE0003BD120480025016841F480710160006803
:101CF00000F4807005901B481438016841F0010120
:101D000001600068694600F0010005902020009005
:101D10000320CDE90105144800F0A4FA144C13483F
:101D2000C4E900050015A560C4E9035040006061E6
:101D30008000C4E9060525622046656200F0F0F9DE
:101D400008B1FFF736FEB463002211461220A663E5
:101D500000F016FC122000F005FC06B070BD00007B
:101D6000002001404438024000000240106402405C
:101D700048580020F8B5044600200E46009094F81C
:101D80003C10012907D0012184F83C1021688B68A0
:101D9000DB0702D011E00220F8BD8B6843F001039D
:101DA0008B604049404B0968B1FBF3F101EB410105
:101DB00000E0491E00910029FBD121688B68DB05FA
:101DC00003D58B6823F480738B6021688B68DB07F5
:101DD0005DD0236C40F20165AB4343F48073236410
:101DE0004968490505D5216C21F4005141F4805121
:101DF0002164216CC90404D5616C21F00601616481
:101E000000E0606484F83C00A16B2948274DC8635A
:101E1000A16B28480864A16B2748C86421686FF04B
:101E2000220008602068416841F0806141602068BC
:101E3000816841F4807181602168134632464C31DB
:101E4000A06B00F0D7F968681C49C006206806D06E
:101E5000884224D1816811F0405F13D01FE088428E
:101E6000F8D0174A904203D1D1F80423D206F1D01A
:101E7000144A904213D1D1F8041301F01F01102924
:101E8000E8D30CE0816841F08041816007E0206C7C
:101E900040F010002064606C40F00100606400209D
:101EA000F8BD00004C00002040420F00002301401C
:101EB0004D160008D1160008BB160008002001408E
:101EC00000210140002201402DE9F0410446876DC8
:101ED00000F0E8FA064694F835000025022806D0FE
:101EE0008020606584F834500120BDE8F0812068CE
:101EF000016821F0160101602068416921F080012C
:101F00004161206C08B9A06C20B12068016821F003
:101F1000080101602068016821F0010101600CE006
:101F200000F0C0FA801B052807D920206065032037
:101F300084F8350084F83450D7E720680068C0077B
:101F4000EED194F85C103F208840B860012084F8FE
:101F5000350084F834500020C7E790F83510022986
:101F600003D08021416501207047052180F835109C
:101F70000068016821F00101016000207047000045
:101F80002DE9F84304464FF00009CDF8009063486E
:101F90004FF41651A56D0068B0FBF1F72E6894F868
:101FA0005C10082000FA01F131420FD021680A6864
:101FB00052070BD50A6822F004020A6094F85C10FC
:101FC0008840A860606D40F00100606594F85C1086
:101FD0004FF0010808FA01F0304208D02168496941
:101FE000090604D5A860606D40F00200606594F8B1
:101FF0005C1004208840304208D0216809688907B5
:1020000004D5A860606D40F00400606594F85C1031
:1020100010208840304218D021680968090714D57B
:10202000A86020680168490304D50068000308D54A
:10203000A16C07E00168C90503D4016821F008011B
:102040000160216C09B12046884794F85C1020207B
:102050008840304231D021680968C9062DD5A86072
:1020600094F8350005282068016806D0490347D553
:10207000006800031DD4616C1CE021F016010160B2
:102080002068416921F080014161206C08B9A06C91
:1020900020B12068016821F00801016094F85C100B
:1020A0003F208840A86084F8358084F83490216D02
:1020B0001FE0E16B09B120468847606D00282BD0F6
:1020C000606DC00714D0052084F8350020680168D1
:1020D00021F0010101600098401C0090B84203D833
:1020E00020680068C007F6D184F8358084F8349001
:1020F000E16C002910D001B02046BDE8F04308474C
:102100000168C905D5D4016821F01001016084F887
:10211000358084F83490CCE7BDE8F8834C0000208B
:102120002DE9F041044600F0BDF906465CB10220FD
:1021300084F83500002584F834502068016821F0C7
:10214000010101600DE00120BDE8F08100F0AAF975
:10215000801B052805D920206065032084F8350000
:10216000F2E720680068C007F0D1226811682048B3
:102170000140D4E901031843D4E90336334318433B
:1021800063691843A3691843E3691843236A184332
:102190000843616A042903D1D4E90B1319430843A6
:1021A000106020684069666A20F0070130460E43DF
:1021B000012704280CD1A06A0643E06A40B12046FA
:1021C000FFF7B8FB20B14020606584F83570BAE7AE
:1021D000206846612046FFF799FB94F85C203F2178
:1021E00091408160656584F835700020ACE700009F
:1021F0003F8010F02DE9F0410446866D90F83400E0
:10220000002501280DD0012084F8340094F83570A1
:102210000020012F07D084F8340002252846BDE8AD
:10222000F0810220FBE7022784F8357060652046C4
:10223000FFF7AAFB94F85C103F208840B06020684C
:10224000016841F016010160206C20B1206801682E
:1022500041F0080101602068016841F0010101605E
:10226000DCE700002DE9F84FDFF8F8A10022012497
:1022700003254FF00F090AF1040BAAF1040E00BF69
:102280000B6804FA02F63340B34270D10F7907F0BD
:102290000307012F01D0022F16D187684FEA4208A9
:1022A00005FA08FC27EA0C07D1F80CC00CFA08FC68
:1022B0004CEA070CC0F808C04768B7430E79C6F36C
:1022C000001696403E4346600E79F643B6070AD0A4
:1022D000C7684FEA420C05FA0CF6B7438E6806FA57
:1022E0000CF63E43C6600E7906F00306022E10D1AE
:1022F000D60800EB8608D8F8206057074FEAD76C5D
:1023000009FA0CF7BE430F6907FA0CF73743C8F810
:10231000207006684FEA420C05FA0CF7BE430F79AD
:1023200007F0030707FA0CF7374307604E6816F407
:10233000403F1CD04C4E376847F4804737603668C2
:1023400022F0030706F480460096484E07EB060C81
:10235000DCF8086897073F0F09FA07F826EA08062D
:10236000DFF80C81404503D14FF0000841E072E0F6
:10237000DFF80081404502D14FF0010839E0DFF875
:10238000F880404502D14FF0020832E0DFF8EC80DF
:10239000404502D14FF003082BE0DFF8E4804045D0
:1023A00002D14FF0040824E0DFF8D880404502D184
:1023B0004FF005081DE0DFF8D080404502D14FF016
:1023C000060816E0DFF8C480404502D14FF0070848
:1023D0000FE0DFF8BC80404502D14FF0080808E06C
:1023E000DFF8B080404502D14FF0090801E04FF01E
:1023F0000A0808FA07F848EA0608CCF80888DAF864
:1024000000605746D1F804C09E435FEACC2C00D54B
:102410001E433E60DBF800605F46D1F804C09E4377
:102420005FEA8C2C00D51E433E60DEF800607746E4
:10243000D1F804C09E435FEA8C3C00D51E433E6049
:10244000084F083F3E68D1F804C09E435FEACC3C89
:1024500000D51E433E60521C102AFFF411AFBDE8A8
:10246000F88F0000083C0140443802400030014031
:10247000000002400004024000080240000C02403C
:10248000001002400014024000180240001C0240EC
:1024900000200240002402400AB181617047090413
:1024A000FBE7000001488068704700004000002002
:1024B0000248816802781144816070474000002022
:1024C0000B4810B5016841F400710160016841F4E6
:1024D00080610160016841F480710160032000F0B7
:1024E0006FF80F2000F006F800F024F8002010BD6F
:1024F000003C024070B50D4D04464FF47A712878C7
:10250000B1FBF0F00A490968B1FBF0F000F018FBEC
:1025100048B9102C07D200222146501E00F030F896
:1025200000206C6070BD012070BD000040000020E4
:102530004C0000200A4808B5016841F48041016060
:10254000006800F4804000900548001F016841F0D9
:1025500080510160006800F08050009008BD0000CC
:1025600044380240002809DB00F01F02012191409D
:102570004009800000F1E020C0F800117047000021
:10258000F0B40E4B1B680C46C3F30223C3F10705DE
:10259000042D00D90425191D072901D2002300E0CC
:1025A000DB1E012606FA05F1491E214099409E4096
:1025B000761E16403143F0BC01F046BE0CED00E043
:1025C000064900F0070208684FF6FF03184040EA8A
:1025D0000220034A10430860704700000CED00E041
:1025E0000000FA052DE9F0470E46050065D0DFF83A
:1025F0001481D8F80000F7B200F00F00B04207D203
:1026000088F80070D8F8000000F00F00B04254D1F4
:1026100028683D4C810712D5400703D5206840F457
:10262000E05020602878000703D5206840F460401F
:1026300020602068A96820F0F00008432060287816
:10264000C0072DD0304968680839012812D0022807
:1026500013D0032811D00968890700292DDA2168D1
:1026600021F0030101432160FFF71CFF814641F285
:10267000883A0EE009688903EFE709688901ECE709
:10268000FFF710FFA0EB0901514502D90320BDE877
:10269000F0872068696800F00C00B0EB810FEFD183
:1026A000D8F80010404601F00F01B14207D9077079
:1026B000006800F00F00B04201D00120E7E7287861
:1026C000400705D52068E96820F4E0500843206001
:1026D0002878000706D52068296920F4604040EA80
:1026E000C100206000F038F82168084AC1F30311E6
:1026F000515CC8400649086006480068FFF7FAFECA
:102700000020C4E7003C024008380240F8510008AD
:102710004C00002044000020044805490068096876
:10272000044AC1F38221515CC84070474C0000202C
:102730000838024008520008044805490068096842
:10274000044AC1F34231515CC84070474C0000203C
:102750000838024008520008154810B5006810F00B
:102760000C02144813D01449042A0FD0082A0ED1A1
:102770000F4C241F2268236802F03F025B0207D53A
:102780002068C0F38810A0FB010106E0084610BDD8
:102790002168C1F38811A1FB00010023FEF79EFC14
:1027A0002168C1F30141491C4900B0FBF1F010BDA3
:1027B000083802400024F40040787D012DE9F84FEC
:1027C00004006ED02078DFF84C93C007A9F104050F
:1027D0004AD009F104000168C1F38101012908D040
:1027E0000068C0F3810002280AD1D9F80000400235
:1027F00006D52868800337D560680028E1D033E02B
:102800006068B0F5803F10D0B0F5A02F286810D0D8
:1028100020F480302860286820F4802028606068D8
:10282000A8B1FFF73FFE06460DE0286840F480306F
:10283000F4E740F480202860F7E700BFFFF732FE9E
:10284000801B642873D828688003F7D50CE0FFF755
:1028500029FE064605E000BFFFF724FE801B642822
:10286000F0D828688003F7D42078DFF8AC8280079E
:102870004FF0000A3ED5A748001D016811F00C0F6B
:1028800008D00068C0F3810002280BD1D9F80000FD
:10289000400207D42868800716D5E068012800D1D7
:1028A00012E033E1E068B8B10120C8F80000FFF79A
:1028B000F9FD064605E000BFFFF7F4FD801B022886
:1028C000C0D828688007F7D52868216920F0F8006B
:1028D00040EAC10028600DE0C8F800A0FFF7E2FD63
:1028E000064604E0FFF7DEFD801B02281FD828689B
:1028F0008007F7D42078000722D5864F8748616982
:10290000703771B101210160FFF7CCFD064604E08C
:10291000FFF7C8FD801B022809D838688007F7D563
:102920000EE0C0F800A0FFF7BDFD064605E082E01E
:10293000FFF7B8FD801B02287DD838688007F7D4E0
:102940002078400768D5DFF8CCB100270BF13C0BAD
:10295000DBF80000C0000BD4DBF8001041F0805120
:10296000CBF80010DBF80000012700F08050009049
:102970006B4E3068C00510D4306840F48070306011
:10298000FFF790FD009005E0FFF78CFD0099401ADD
:10299000022850D83068C005F6D55E4EA0686C3667
:1029A00001280FD00528306810D020F001003060D9
:1029B000306820F004003060A068B8B1FFF772FD05
:1029C00000900FE0306840F00100F4E740F00400B0
:1029D0003060F7E7FFF766FD0099411A41F2883051
:1029E000814266D830688007F4D50EE0FFF75AFDC3
:1029F000009007E0FFF756FD0099411A41F2883038
:102A0000814256D830688007F4D42FB1DBF800102B
:102A100021F08051CBF80010A069C8B33D49091DD1
:102A20000968C1F3810102294AD00228504607D023
:102A3000C8F8600000E03CE0FFF734FD04463BE0EE
:102A40004746C8F86000FFF72DFD064605E000BFC9
:102A5000FFF728FD801B02282BD828688001F7D4B7
:102A6000D4E907010843A16A2E4A490802EB014153
:102A7000626A41EA8211084394F82C1040EA01612D
:102A8000C9F8001001203866FFF70CFD044606E087
:102A90003EE000BFFFF706FD001B022809D82868AA
:102AA0008001F7D534E000BFFFF7FCFC001B0228D3
:102AB00002D90320BDE8F88F28688001F4D427E00C
:102AC0000128F7D0D9F80000E26900F480019142B2
:102AD0001CD1226A00F03F01914217D147F6C07124
:102AE000626A0140B1EB821F10D1A26A4FF0FF333E
:102AF00000F4403103EB5202B1EB024F06D194F8DF
:102B00002C1000F07060B0EB016F01D00120D1E714
:102B10000020CFE70438024000004742800E4742C1
:102B2000007000400000FFFF4FF0E021042808691A
:102B300003D020F004000861704740F00400FAE779
:102B400010B5401EB0F1807F01D3012010BD4FF0C1
:102B5000E02460610F21601701F076FB0020A06186
:102B600007202061002010BD70B590F83C20012A9C
:102B700032D0012480F83C40022280F83D200368D6
:102B80005A689D6822F070060A6832435A60134BF7
:102B900002689A4214D0B2F1804F11D0104B9A4281
:102BA0000ED0104B9A420BD00F4B9A4208D00F4BCD
:102BB0009A4205D00E4B9A4202D00E4B9A4204D153
:102BC000496825F080031943916080F83D40002159
:102BD00080F83C10084670BD022070BD0000014026
:102BE0000004004000080040000C004000040140C8
:102BF000004001400018004010B5040003D094F8D4
:102C00003D0010B107E0012010BD002084F83C0019
:102C1000204600F01FF8022084F83D00211D2068A6
:102C200000F02AFF012084F8460084F83E0084F872
:102C30003F0084F8400084F8410084F8420084F8A2
:102C4000430084F8440084F8450084F83D000020E7
:102C500010BD000008B501680B48B1F1804F0BD0E2
:102C60000A4A914207D1016841F0020101600068FF
:102C700000F00200009008BD016841F00101016010
:102C8000006800F00100F5E7403802400004004011
:102C900070B5044690F83C000025012817D00126A5
:102CA00084F83C60022084F83D002068826822F0AD
:102CB000770222F47F4282600868502838D00DDC09
:102CC00020284FD005DC90B3102811D14AE0022013
:102CD00070BD302846D040280AD13BE060282FD074
:102CE00070280DD0B0F5805F03D0B0F5005F12D032
:102CF000012584F83D60002084F83C00284670BD22
:102D0000CB68D1E90121206800F027FF20688168A5
:102D100041F0770109E0CB68D1E90121206800F09A
:102D20001CFF2068816841F480418160E1E719E07F
:102D3000CA684968206800F0E5FF5021206806E075
:102D4000CA684968206800F0EEFF6021206800F042
:102D50000EFFCEE7CA684968206800F0D3FF402123
:102D60002068F4E7226801461046F0E710B586B007
:102D7000044614216846FEF7E9F90D4920688842A7
:102D800014D10C480021026842F001020260006880
:102D900000F001000590802000900220CDE90201A2
:102DA0000190049069460448FFF75CFA06B010BD34
:102DB00000040040303802400000024070B5044674
:102DC00090F83C0000260D4601280FD0012084F821
:102DD0003C006AB1042A1DD0082A2FD00C2A3FD00B
:102DE0000126002084F83C00304670BD022070BDF2
:102DF000206800F0C5FE2068816941F0080181610A
:102E00002068816921F004018161206881692A6953
:102E1000114311E0206800F0E3FE2068816941F46D
:102E2000006181612068816921F48061816120688D
:102E300081692A6941EA02218161D2E7206800F0B4
:102E400005FF2068C16941F00801C1612068C169BE
:102E500021F00401C1612068C1692A69114311E0B0
:102E6000206800F027FF2068C16941F40061C1615A
:102E70002068C16921F48061C1612068C1692A6943
:102E800041EA0221C161ACE710B5040003D094F817
:102E90003D0010B107E0012010BD002084F83C0087
:102EA000204600F01EF8022084F83D00211D206815
:102EB00000F0E2FD012084F8460084F83E0084F82A
:102EC0003F0084F8400084F8410084F8420084F810
:102ED000430084F8440084F8450084F83D00002055
:102EE00010BD704710B50446022249B104290ED026
:102EF000082913D094F84100012816D0012010BDF4
:102F000094F83E000128F9D184F83E200FE094F8AF
:102F10003F000128F2D184F83F2008E094F84000F7
:102F20000128EBD184F8402001E084F841200122FF
:102F3000206800F005FE16492068164A884201D034
:102F4000904203D1436C43F40043436420688842B9
:102F500013D0B0F1804F10D00F4988420DD00F49E7
:102F600088420AD00E49884207D0904205D00D49C8
:102F7000884202D00C49884204D1816801F00701DF
:102F8000062903D0016841F001010160002010BD55
:102F9000000001400004014000040040000800401F
:102FA000000C0040004001400018004030B50446CD
:102FB0000D460068002200F0C3FD194B41F21111CB
:102FC00020688A10984202D0164B984209D1036AB1
:102FD0000B4206D1036A134203D1436C23F400432E
:102FE00043642068036A0B4206D1016A114203D18F
:102FF000016821F00101016001203DB1042D08D0DC
:10300000082D09D084F84100002030BD84F83E002E
:10301000FAE784F83F00F7E784F84000F4E700009F
:10302000000001400004014018B5034690F83E003E
:10303000202822D181B17AB193F83C0001281CD01C
:10304000012083F83C001863184600F093FF002825
:1030500003D1196B012901D0012018BD19680A6834
:103060004968009119680C3151E8002F42F01002B4
:1030700041E80024002CF5D118BD022018BD000045
:10308000074A90420AD10748A0F80011012180F8B0
:1030900002110A0201460248FFF7C6BF704700004E
:1030A0007C59002008EA002070470000F8B501684C
:1030B00004460868CA684B6910F00F0F4FF000050E
:1030C00059D003F0010602F49077374365D0C10769
:1030D00005D0D10503D5216C41F0010121644107E0
:1030E00005D5D90703D0216C41F002012164810785
:1030F00005D5D90703D0216C41F0040121640107F3
:1031000007D502F02001314303D0216C41F00801C2
:103110002164216C00293AD0800604D5900602D59E
:10312000204600F041FE20684069216CC0F3801009
:10313000090700D460B3204600F00FFE2068406904
:10314000400621D52068143050E8001F21F04001CE
:1031500040E80012002AF5D1A06BA8B16C490165C6
:10316000A06BFEF7FAFE002811D0A06B016D01B034
:10317000BDE8F040084783060FD593060DD52046DD
:10318000BDE8F84000F010BE2046FFF78DFFF8BD07
:103190002046FFF789FF2564F8BD266B2023012E0A
:1031A00079D1C60677D5D60675D5086848680090E7
:1031B0004869400640D5A16B086840680004000CCF
:1031C000EAD0A28D8242E7D9E085C869B0F5807F58
:1031D0002DD020680C3050E8001F21F4807140E8A9
:1031E0000012002AF5D12068143050E8001F21F0A9
:1031F000010140E80012002AF5D12068143050E89F
:10320000001F21F0400140E80012002AF5D184F8A7
:103210003E30256320680C3050E8001F21F010017B
:1032200040E80012002AF5D1A06BFEF74DFEA08DFC
:10323000E18D401A81B229E0A08DE18D401A81B262
:10324000E08D0028A8D00029A6D020680C3050E8D6
:10325000002F22F4907240E80026002EF5D120685D
:10326000143050E8002F22F0010240E80026002E22
:10327000F5D184F83E30256320680C3050E8002FEB
:1032800022F0100240E80023002BF5D12046FFF782
:10329000F7FEF8BDFFE705062BD5150629D594F8EE
:1032A0003D002128F5D1A068B0F5805F01D12069EB
:1032B000B0B1206A411C2162216800784860E08C2E
:1032C000401E0004000CE084E3D12068C16821F0B6
:1032D0008001C1602068C16841F04001C160D8E749
:1032E000206A0088C0F308004860206A801C2062C1
:1032F000E5E74006CDD55006CBD5CA68204622F07A
:103300004002CA6084F83D3000F019F9C1E70000BE
:103310004B3D000870B5040004D094F83D00002532
:1033200010B106E0012070BD84F83C50204600F04A
:1033300023F8242084F83D002068C16821F400515E
:10334000C160204600F090FD2068016921F49041A1
:1033500001612068416921F02A0141612068C1684A
:1033600041F40051C1602564202084F83D0084F8B8
:103370003E00002070BD0000F0B587B00446142167
:103380006846FDF7E3FE3A4B2768002239490224DC
:103390000325072638489F421CD1364B14331F683B
:1033A00047F010071F601B6803F0100305930B68BC
:1033B00043F001030B60096802AB01F001010591C4
:1033C0006902CDE9001483E864006946FEF74AFF0C
:1033D00007B0F0BD274BDFF8A4C0103367451FD1FD
:1033E0001F6847F400371F601B6803F40033059320
:1033F0000B6843F001030B60096802AF01F00101A3
:1034000005910C21CDE9001487E864006946FEF7B8
:1034100029FF002211462620FFF7B2F8262023E0DC
:1034200017488742D4D1186840F480201860186883
:1034300000F480200590086840F0020008600868E9
:1034400002AF00F0020005904FF44060CDE90004A7
:1034500087E8640069460B48FEF704FF0022114626
:103460002720FFF78DF82720FFF77CF8B0E7000052
:10347000001001403038024000000240004400408B
:103480000048004000040240704700002DE9F84366
:10349000044690F83D001F4616460D4620284CD1A4
:1034A000C5B1BEB194F83C00012846D0012084F893
:1034B0003C004FF00008C4F84080212084F83D0013
:1034C000FEF7F0FFA6848146E684A068B0F5805F31
:1034D00003D004E00120BDE8F883206928B12E461E
:1034E0005FF0000584F83C800EE00026FAE78021BA
:1034F000204600F05CFDA0B9AEB116F8010B2168C2
:103500004860E08C401EE084E08C4B464FF00002A7
:1035100000970028EBD14FF04001204600F047FD16
:1035200030B10320D7E735F8020BC0F30800E6E717
:10353000202084F83D000020CDE70220CBE7704733
:1035400070B5204E96F80201002833D0304631780D
:1035500001251D4CB0F80001012907D051B1062901
:103560000ED0082913D00A2918D019E0012817D144
:10357000257015E0012813D11448657005700FE01F
:1035800001280DD112A000F03DFE022017E0012815
:1035900006D113A000F036FE032010E001280AD067
:1035A000B6F80011074806F58076FDF7CFFD00203C
:1035B000B070308070BD0EA000F024FE042060705A
:1035C000D6E7000008EA0020540000200500002093
:1035D0007B6D616C767D364B6270730D0A00000066
:1035E0007B6D616C767D384B6270730D0A00000054
:1035F0007B6D616C767D31304B6270730D0A00001B
:103600000FB40E4870B505AA049900F00BFE0B48E4
:10361000FDF7A7FD0A4A11684906FCD5084C0021B0
:10362000064B241D05E05D5C256015686D06FCD524
:10363000491C8142F7D370BC5DF814FB10EB0020ED
:1036400000440040FEE700007FB5002416480094C7
:103650000194029413490394C0E900148460046146
:10366000047680F820404FF08051C1620125C56189
:103670004FF04071C460816280F830404561FEF7D0
:10368000FAFA08B1FEF795F90520CDE9000569467B
:1036900002940548FEF790F9002801D0FEF789F959
:1036A0007FBD00000020014000580020094808B5F7
:1036B000016841F4800101600068002200F480008C
:1036C000009011463820FEF75BFFBDE80840382027
:1036D000FEF748BF3038024070B586B01421684606
:1036E000FDF734FD25480024016841F00401016024
:1036F000016801F004010591016841F08001016059
:10370000016801F080010591016841F0010101604B
:10371000016801F001010591016841F002010160B9
:103720000068174E00F00200059001220321304688
:10373000FEF7B2FE4FF4005001258DE831006946D6
:103740001048FEF78FFD02200095CDE90140694643
:103750000D48FEF787FD0C208DE8310069460B48C7
:10376000FEF780FD03200090CDE901546946304604
:103770000394FEF777FD06B070BD000030380240BC
:10378000000402400008024000000240001C024009
:1037900010B58EB000240794089409940A940B94F1
:1037A0001C2168460C94FDF7D1FC1C484FF0804169
:1037B000C0E900148460C46004618461FFF71CFAEE
:1037C00008B1FEF7F6F84FF48050079007A91348A8
:1037D000FFF75EFA08B1FEF7ECF81048FFF754FB6C
:1037E00008B1FEF7E6F82020CDE90B040BA90B4841
:1037F000FFF7BAF908B1FEF7DCF86020CDE9000464
:1038000002940422694605480494FFF7D7FA002879
:1038100001D0FEF7CEF80EB010BD0000A858002071
:1038200010B58EB000240794089409940A940B9460
:103830001C2168460C94FDF789FC1E481C49016058
:103840004721C0E90114C721C0E903148461FFF7CF
:10385000D3F908B1FEF7ADF84FF48050079007A9EF
:103860001448FFF715FA08B1FEF7A3F81148FFF75F
:103870000BFB08B1FEF79DF80B940BA90D480C94B7
:10388000FFF772F908B1FEF794F860200090642009
:10389000CDE901040422694606480494FFF78EFA34
:1038A00008B1FEF786F80348FFF760FA0EB010BDC6
:1038B00000040040F05800200C4810B50A4901608F
:1038C0004FF4E1314160002181600C22C160C0E908
:1038D00004128161C161FFF71DFD002803D0BDE81E
:1038E0001040FEF766B810BD0010014038590020A6
:1038F0000C4810B50A4901604FF4E13141600021E4
:1039000081600C22C160C0E904128161C161FFF7CE
:1039100001FD002803D0BDE81040FEF74AB810BDF5
:10392000004400407C5900200C4810B50A49016051
:103930004FF4E1314160002181600C22C160C0E997
:1039400004128161C161FFF7E5FC002803D0BDE8E6
:103950001040FEF72EB810BD00480040C0590020AE
:1039600010B5034608460FE003EB800494ED000A0F
:1039700003EB8104D4ED000AB4EEE00AF1EE10FA94
:1039800000D20846491C89B29142EDD910BD000011
:10399000034610B50020012210E000BF03EB8004B5
:1039A00094ED000A03EB8204D4ED000AB4EEE00AC1
:1039B000F1EE10FA00D21046521C92B28A42EDD3B8
:1039C00010BDFEE7FEE770477047FEF771BD0000CF
:1039D00030B593B030216846FDF7B8FB14210CA830
:1039E000FDF7B4FB1E480025016841F080510160DD
:1039F000006800F0805011901A48016841F440417D
:103A000001600068022400F4404011900120009001
:103A1000000401908001CDE90640192008904FF480
:103A20009070CDE9090404200B906846FEF7C6FEAD
:103A300008B172B6FEE70CA90F2081E831004FF4FF
:103A4000A0500F904FF48050109004210CA8FEF766
:103A5000C9FD002801D072B6FEE713B030BD0000EA
:103A600040380240007000400248016841F4700193
:103A70000160704788ED00E0F0B50268254C264DE6
:103A8000264E274F274B4FF0804CA04209D060456F
:103A900007D0A84205D0B04203D0B84201D0984226
:103AA00004D122F0700E4A6842EA0E02A0421BD0F6
:103AB000604519D0A84217D0B04215D0B84213D0F3
:103AC000984211D0184DA8420ED0184DA8420BD0E4
:103AD000174DA84208D0174DA84205D0164DA84250
:103AE00002D0164DA84203D122F44075CA682A4379
:103AF0004D6922F080022A4302608A68C2620A6825
:103B00008262A04201D0984201D10969016301217A
:103B10004161F0BD00000140000400400008004089
:103B2000000C0040000401400040014000440140FE
:103B30000048014000180040001C004000200040E8
:103B400010B501F01F030121046A99408C430462FF
:103B5000016A9A401143016210BD10B5846842EABF
:103B6000032224F47F440A432243826010BD82680A
:103B700022F070020A4342F00701816070470000A2
:103B8000F0B5026A22F001020262036A42688469A7
:103B9000124E24F073050C682C4323F002058B6849
:103BA0002B430D4DA84201D0B04205D123F00807A8
:103BB000CB683B4323F00403A84201D0B04205D1B7
:103BC0004D6922F4407215438A692A434260846138
:103BD000496841630362F0BD0000014000040140F8
:103BE000F0B5026A22F010020262026A4368846938
:103BF0000D6824F4E64444EA05248D6822F020028E
:103C000042EA05120F4D104EA84201D0B04206D133
:103C1000CF6822F0800242EA071222F04002A84256
:103C200001D0B04207D14D6923F4406343EA8503D4
:103C30008D6943EA85034360846149688163026258
:103C4000F0BD00000000014000040140F0B5026A30
:103C500022F480720262026A4368C46922F400722C
:103C600024F073050C68124E2C438D6842EA05223D
:103C70000E4DA84201D0B04206D1CF6822F40062B6
:103C800042EA072222F48062A84201D0B04207D162
:103C90004D6923F4405343EA05138D6943EA051344
:103CA0004360C4614968C1630262F0BD0000014025
:103CB0000004014030B5026A22F480520262046AB4
:103CC0004268C3690D6823F4E64343EA05238D681F
:103CD00024F4005444EA0534084DA84202D0084DAB
:103CE000A84204D14D6922F4804242EA8512426022
:103CF000C36149680164046230BD000000000140F6
:103D00000004014010B5036A046A24F0010404624F
:103D1000846924F0F00444EA021423F00A020A43FE
:103D20008461026210BD10B5036A23F010030362C0
:103D30008369046A23F4704343EA023224F0A00347
:103D400043EA01118261016210BD10B5806B002150
:103D5000C185C184FFF7A8F910BD01680C3151E895
:103D6000002F22F4907241E80023002BF5D1016866
:103D7000143151E8002F22F0010241E80023002B0A
:103D8000F5D1016B012909D101680C3151E8002FEF
:103D900022F0100241E80023002BF5D1202180F809
:103DA0003E1000210163704708B590F83E102229AB
:103DB00001D0022008BD82684FF480539A4201D19D
:103DC000016921B1816A9A421BD04AB10AE00268B6
:103DD000816A5268C2F308020A80816A891C08E07D
:103DE000026972B10268526802F07F020A70816A49
:103DF000491C8162C18D491E0904090CC18503D08B
:103E000019E002685268F1E70168CA6822F02002EE
:103E1000CA600168CA6822F48072CA6001684A698F
:103E200022F001024A61202180F83E10016B012935
:103E300003D0FFF729FB002008BD002101630168C2
:103E40000C3151E8002F22F0100241E80023002B32
:103E5000F5D101680A68D20602D50A68496800915E
:103E6000818DFFF70DF9E6E770B50446006801693A
:103E7000E26821F44051114301612169A068E269BF
:103E800008436169114308432168CA6849F20C6319
:103E90009A430243CA6020684169A26921F44071D3
:103EA0001143416131492068884202D0304988423B
:103EB00002D1FEF741FC01E0FEF72EFCE26900238F
:103EC000192164253226B2F5004F626828D0A0FB84
:103ED0000101930F9200FDF701F90146B0FBF5F0E7
:103EE0006FF01802504301EB800006EB0010B0FBAE
:103EF000F5F000F0F002B1FBF5F002EB0012B1FBBF
:103F0000F5F06FF01803584301EB800006EB00104A
:103F1000B0FBF5F000F00F0021681044886070BD20
:103F2000A0FB010192185B41FDF7D8F80146B0FBF8
:103F3000F5F00201B1FBF5F06FF01803584301EB07
:103F4000800006EBC000B0FBF5F000F0F80002EBDB
:103F50004002B1FBF5F0584301EB800006EBC000D6
:103F6000B0FBF5F000F00700D6E7000000100140BC
:103F70000014014081628285C285002101642222F1
:103F800080F83E2080F83C10016921B10168CA68C0
:103F900042F48072CA6001684A6942F001024A61D3
:103FA0000068C16841F02001C160002070472DE920
:103FB000F041984617460E460446069D27E0681CC9
:103FC00025D02DB1FEF76EFAA0EB0800A8421ED94D
:103FD00020680C3050E8001F21F4D07140E8001236
:103FE000002AF5D12068143050E8001F21F00101AB
:103FF00040E80012002AF5D1202084F83D0084F822
:104000003E00002084F83C000320BDE8F0812068D9
:10401000006836EA000004D00020B842CFD000206B
:10402000F3E70120F9E700000148FFF73FB800007F
:104030007C5900200148FFF739B80000C059002022
:10404000FEE700000A4A00EE100A02EB8101B8EE1A
:10405000C00AD1ED000A20EE800ABDEEC00A10EEC3
:10406000100A00B200EE100AB8EEC00A7047000055
:1040700004DA00202DE9F0415B4C2DED068BDFEDDD
:104080005B8AB6EE009A072873D2DFE800F0A5A598
:10409000042344689E00002015E0420000EE102A30
:1040A00004EB8002F8EE400A00EE101AB8EE401A57
:1040B00080EE810A82ED000A0A1A04EB8202401C9B
:1040C00002ED010A80B2B0EB510FE6D3BDEC068BD6
:1040D000BDE8F08100250E464F1CB7EE008A17E0C0
:1040E00000EE105AB8EE400A60EE280A00EE107A90
:1040F000B8EE401A80EE810AFCF7D6F838EE400A96
:1041000004EB85006D1CADB220EE090A80ED000ABB
:10411000B542E5D3DAE700250F464E1E9FED349AEF
:104120009FED348A18E000BF00EE105AB8EE400A46
:1041300060EE280A00EE106AB8EEC01A80EE810A1E
:10414000FCF7B2F8F0EE480A04EB850040EE490AAD
:104150006D1CADB2C0ED000ABD42E5D3B6E7002547
:104160000E469FED25AADFED259ADFED25AA4F1E0D
:1041700028E031E000EE105AB8EE400A60EE280A5E
:1041800000EE107AB8EEC01A80EE810AFCF78CF8C7
:10419000B0EE4A8A00EE498A00EE105AB8EE400AA4
:1041A00060EE290A00EE107AB8EEC01A80EE810A9D
:1041B000FCF77AF800EE2A8A04EB85006D1CADB29C
:1041C00080ED008AB542D5D380E7BDEC068B08466A
:1041D000BDE8F04100F0BEBCBDEC068B0846BDE872
:1041E000F04100F09BBC000004DA0020DB0FC94066
:1041F0001F85EB3E713D0A3F3D0AD73EDB0F49412B
:104200000AD7A33D0FB4054B10B503A9044A029881
:1042100000F0FCF810BC5DF814FB0000514C0008E5
:104220005800002037B514460846064B6A4621461A
:1042300000F0ECF804466946002000F06AFC2046D5
:104240003EBD0000134B00080907090E002804DBDF
:1042500000F1E02080F80014704700F00F0000F13A
:10426000E02080F8141D704702E008C8121F08C142
:10427000002AFAD170477047002001E001C1121FE7
:10428000002AFBD1704700002DE9FF5F82B00021BA
:10429000DDE90430020DDDF840B0034318D044F6E8
:1042A0001050A2F2FF3242431514119801281FD07A
:1042B000A5EB0B00401C5FEA000A4FF000064E4FD2
:1042C000DFF83891B046504615D5CAF1000413E026
:1042D000119801244AA3012801D16FEA0B01029829
:1042E000119AC0E90031C0E9024206B0BDE8F09F72
:1042F000CBF10000DFE704460021404A491842EBB9
:104300000450CDE9001012E0E00707D032463B46EA
:1043100040464946FCF72CFF8046894632463B46DC
:1043200010461946FCF724FF06460F466410002C81
:10433000EAD1DDE90401DDE90023BAF1000F06DA74
:10434000FCF716FF42464B46FCF712FF05E0FDF76F
:10435000BAF842464B46FDF7B6F804460E46002230
:10436000284BFDF737F903D84FF0FF30014607E03F
:104370000022254B20463146FCF7FEFFFDF712F9DF
:10438000102409E0002C0ADB0A220023FCF7A6FE19
:10439000039B30321A55641E50EA0102F2D1641CAC
:1043A000039AC4F111031444119A012A03D0012283
:1043B00008430DD10AE0084304D000204FF0110B50
:1043C000119072E7A3EB0B056D1E0DE05B4504DD5C
:1043D0004FF0000205F1010504E003DA4FF000029E
:1043E000A5F10105002AECD002981199C0E902312B
:1043F000C0E9004579E70000000014400000F03FEC
:10440000300000000000F0430000E03F2DE9FF4FC6
:1044100095B09A46884606460025EEE1252877D1D4
:1044200000242746F94A0121039400E0044316F8CA
:10443000013F203B01FA03F01042F7D130782A28DF
:1044400011D06FF02F033078A0F13002092A16D86E
:10445000039A44F0020402EB820203EB420210448E
:10446000761C0390EFE758F8042B0392002A03DA36
:10447000504244F40054039044F00204761C307817
:104480002E2816D116F8010F44F004042A280DD066
:104490006FF02F023078A0F13003092B09D807EB19
:1044A000870302EB4303C718761CF3E758F8047B35
:1044B000761C30786C280FD006DC4C2817D0682882
:1044C0000DD06A2814D104E0742810D07A280FD1B6
:1044D0000DE044F400140AE044F4801401E044F4D4
:1044E00040147278824202D104F58014761C761C46
:1044F000307866280BD013DC582877D009DC0028E8
:1045000075D04528F6D04628F4D047281AD193E133
:1045100018E0632835D0642879D0652812D18BE162
:10452000702873D008DC6728F1D069286FD06E2816
:104530000DD06F2806D1ACE073282CD0752874D02C
:10454000782853D05246179990476D1C54E1C4F314
:104550000250022809D003280DD0D8F800100428F2
:104560000DD00D6008F1040846E1D8F80010EA17F4
:10457000C1E90052F6E7D8F800100D80F2E70D709F
:10458000F0E718F8041B8DF8001000208DF80100EA
:10459000EB46012003E058F804BB4FF0FF30610701
:1045A0004FF0000102D40DE009F101018946B94242
:1045B0000FDA8145F8DB1BF809100029F4D108E077
:1045C00009F1010189468142FADB1BF80910002933
:1045D000F6D103985346A0EB090721463846179AAF
:1045E00000F080FA284400EB090507E044E008E108
:1045F0000DE01BF8010B524617999047B9F10109DC
:10460000F7D2534621463846179AF2E039E00A219C
:10461000C4F302524FF0000B0091022A06D058F862
:10462000040BC117032A09D00AE023E008F10700B0
:1046300020F00702F2E80201904605E000B2C1173F
:10464000042A01D140B2C117002906DA0A46002126
:10465000404261EB02012D2202E0220504D52B220B
:104660008DF80420012203E0E20701D02022F7E7C1
:10467000914657E00A2100E010214FF0000B009115
:104680000BE010214FF0000B44F0040408270091C8
:1046900003E008204FF0000B0090C4F30252022AFE
:1046A00005D058F8040B0021032A08D008E008F1CF
:1046B000070020F00702F2E80201904603E080B212
:1046C000042A00D1C0B24FF0000922072AD532785F
:1046D000702A07D0DDF800C08CF0100C5CEA0B0CDF
:1046E00005D00EE040228DF80420012208E050EAB7
:1046F000010306D030238DF804308DF80520022206
:104700009146009B83F0080353EA0B030AD150EA59
:10471000010201D1620705D530228DF804204FF047
:1047200001097F1E3278582A04D039A20C920CAAB3
:1047300002920BE03BA2F9E75B46009AFCF7CEFC45
:104740000C9B9B5C029A521E0292137050EA01026B
:10475000F2D1029804A9081A00F1200B600702D5D3
:1047600024F4803400E001275F4502DDA7EB0B0055
:1047700000E0002000EB0B01009003984944401A30
:104780000390E00306D453462146179A039800F09D
:10479000A9F90544002706E001A85246C05D179913
:1047A00090476D1C7F1C4F45F6DBE0030CD553464C
:1047B0002146179A039800F095F9054404E030204B
:1047C0005246179990476D1C0099481E0090002989
:1047D000F5DC08E00298029952460078491C0291E3
:1047E000179990476D1CBBF10001ABF1010BF1DC97
:1047F0005BE100F065F90544761C307800287FF411
:104800000DAE19B02846BDE8F08F00000928010060
:104810003031323334353637383961626364656636
:1048200000000000303132333435363738394142F8
:104830004344454600000000600700D4062708F105
:10484000070020F00700F0E80223804603F0004C48
:104850005FEA0C0001D097A009E0200501D596A0E1
:1048600005E0E00701D095A001E0AFF24C00139005
:10487000307823F0004365280CD006DC452809D0A9
:1048800046281DD047287FD13BE0662818D06728EE
:104890007AD136E00021112F01DB112000E0781CD5
:1048A000CDE9000104A90CA8FFF7EEFCDDE90D013C
:1048B0000C9A4FF0000B07F10109109200914EE0A5
:1048C0004FF000400097CDE9011004A90CA8FFF7B4
:1048D000DBFCDDE90D020C9B0F994FF0000B9146BC
:1048E0001093009211B9791C00EB0109B7EB090094
:1048F00003D4C0F1FF3B07F10109A9EB07000190C8
:1049000042E0012F00DA01270021112F01DD1120E3
:1049100000E03846CDE9000104A90CA8FFF7B4FC7B
:10492000DDE90D010C9A00914FF0000BB946109291
:1049300021070FD4009A4A4503DA914601E0A9F114
:104940000109B9F1010F05DD109AA9F10101515CCE
:104950003029F4D0B84202DA10F1040F03DA012151
:10496000CDE9011010E0002803DC8344A9EB00012D
:1049700002E0411C494500DD8946A0EB0B00401CCC
:1049800001904FF000400290200705D4019848455F
:1049900002DB4FF0FF30019000208DF84B000298B1
:1049A0000DF14B07B0F1004F25D002200C902B20C9
:1049B0000D90029800280CDA404202902D200D90B4
:1049C00007E00A210298FCF745FC3031029007F815
:1049D000011D0C99481E0C900029F2DC0298002859
:1049E000EFD1791E0D980870307800F0200040F06B
:1049F000450007F8020D11A8C01BC01D02901398B6
:104A0000007800B1012000EB0901019801EBE07191
:104A1000029801440398401A401E0390E00306D414
:104A200053462146179A039800F05CF80544139802
:104A3000007818B15246179990476D1CE00323D5B2
:104A400053462146179A039800F04CF805441BE0A2
:104A5000BBF1000F07DB0098584504DD109817994B
:104A600010F80B0001E0179930205246904701984A
:104A70000BF1010B401E05F10105019004D12E2020
:104A80005246179990476D1CB9F10001A9F101092F
:104A9000DEDC05E017F8010B5246179990476D1CB4
:104AA0000299481E02900029F4DC53462146179AC9
:104AB00003989EE62D0000002B000000200000005F
:104AC0002DE9F041044600251E461746880404D40B
:104AD00005E039462020B0476D1C641EF9D52846F4
:104AE000BDE8F0812DE9F041044600251E469046C0
:104AF000C80301D5302700E02027880404D505E04D
:104B000041463846B0476D1C641EF9D52846BDE8BD
:104B1000F0810A68531C0B60107070470021B7EEDB
:104B2000000A064A06E000BF02EB8103491C83ED40
:104B3000000A89B28142F7D37047000004DA0020EE
:104B400010B504460420FDF7EFFF0148046010BDD6
:104B50005000002070B506462DED028B00245DE06C
:104B600000EE104ADFED300A751EB8EE400A60EE26
:104B7000200A00EE105AB8EEC01A80EE810AFBF748
:104B800093FBDFED2A0AB7EE008A00EE608A00EEA2
:104B9000104ADFED270AB8EE400A60EE200A00EE68
:104BA000105AB8EEC01A80EE810AFBF77DFBDFEDEC
:104BB000210A00EE208A00EE104ADFED1F0AB8EE4F
:104BC000400A60EE200A00EE105AB8EEC01A80EEDD
:104BD000810AFBF769FBDFED190A00EE608A00EE3F
:104BE000104ADFED170AB8EE400A60EE200A00EE28
:104BF000105AB8EEC01A80EE810AFBF755FBDFEDC4
:104C0000110A124800EE208A9FED0F0A00EB840083
:104C1000641CA4B2C8EE000AC0ED000AB4429FD3DF
:104C2000BDEC028B70BD0000DB0FC9403D0AF73FB1
:104C3000DB0F4941B81EA53FE4CB9641F0A7C63E25
:104C4000DB0FC94126E4033DBA49944004DA002051
:104C500013B54FF6FF73012269460248FEF716FCB2
:104C600000981CBD385900202DED028B82B0FDF755
:104C700027FCFEF7ADFEFEF72FFDFEF717FDFEF752
:104C8000E3FCFEF719FEFEF783FDFEF731FEFEF7AB
:104C90004BFEFEF7C5FD9020FFF752FFFDA0FFF78A
:104CA000B1FAFE48806B0068016821F008010160DC
:104CB0004FF48072FA49FB48FEF7B6F90421FA482E
:104CC000FEF710F9F849C7200A6890630A68D062B5
:104CD000B6EE008AF5EE008AF44CC860FEF730FCB0
:104CE000607980B3F24D2878012806D0022809D0D7
:104CF00003280DD004281CD113E0EB49C7200A6813
:104D0000906313E0E848A62102689163490004E03B
:104D1000E5487C2102689163F9210268D162C16093
:104D200007E0E14963200A689063C7200A68D062FF
:104D3000C860E0480168E0A0FFF764FA2978E1A0C4
:104D4000FFF760FA08E0FFE7D748002102689163A7
:104D50000268C721D162C160DE48007800287DD09A
:104D600001220221DC48FDF797FB0025DB48FCF718
:104D70004FFDFCF75DFD4FF480610320FFF77AF9EA
:104D8000D749D848FCF774FDDFF85C830326DFF8C9
:104D900054A3002740F20C6B08F5C869F01C82B2DE
:104DA000F01E81B2CF48FEF7DBFD6062B0420AD14F
:104DB00048F827000AEB800090ED000A09EB870015
:104DC0007F1C80ED000A761C5E45E7D34FF400613E
:104DD000C448FEF7DDFDC349A06001EB800100225D
:104DE000D1ED000A4146C4ED030A4B464FF4C87C9E
:104DF00003EB820694ED041A96ED000AB4EEC10AA4
:104E0000F1EE10FA06DD51F82260864202D084ED00
:104E1000040AA662521C6245EADBA26A0026174613
:104E20004FEA0C0903EB860C94ED051A9CED000A81
:104E3000B4EEC10AF1EE10FA09DD51F826C084453E
:104E400005D0BC4503D084ED050AC4F82CC0761CFF
:104E50004E45E7DB002794468A4600E0B2E1D4F8ED
:104E60002C60CB4603EB870194ED060A91ED001A06
:104E7000B4EEC01AF1EE10FA0ADD5AF8271081429A
:104E800006D0614504D0B14202D084ED061A2163F8
:104E90007F1C5F45E6DBD4F830704FF0000C804695
:104EA0009146DE4603EB8C0194ED070A91ED001A62
:104EB000B4EEC01AF1EE10FA0DDD8B4951F82C104A
:104EC000414508D0494506D0B14204D0B94202D08C
:104ED00084ED071A616371460CF1010C8C45E1DB2E
:104EE000D4F834E04FF0000C8046CDF800E07F4B62
:104EF00094ED081A03EB8C0393ED000AB4EEC10A9B
:104F0000F1EE10FA0FDD784B53F82C3043450AD000
:104F1000934208D0B34206D0BB4204D0734502D0BE
:104F200084ED080AA3630CF1010C8C45DFDBA0467D
:104F3000904218DD864201DC964210DA874201DC9D
:104F400097420CDA2646864501DC964507DAB36BB4
:104F5000834201DC934202DA0123637020E00020E7
:104F600088F801001AE0234615DA964201DC8642F1
:104F70000EDA974201DC87420ADAA446964501DC44
:104F8000864505DADCF838609642E5DC8642E3DBEC
:104F90000020587002E06378012B01D002204BE022
:104FA00098ED040A98ED051A70EEC02A30EE412AF9
:104FB000F4EEC22AF1EE10FA17DDD8ED061A31EE42
:104FC000613AB4EEC32AF1EE10FA0ED231EE211A94
:104FD00030EE800A21EE081A20EE280AB4EEC01A3C
:104FE000F1EE10FA38D2012026E0F4EEC22A434650
:104FF000F1EE10FAF7D2104400EBD070394A4010AD
:1050000002EB8000F0EE082AD0ED001A10ED012A24
:1050100030EE800AF1EE080A71EE821A90ED012A54
:1050200031EE822AC2EE221A80EE202AF4EEC21A53
:10503000F1EE10FA03D2032088F800000CE0D3ED63
:10504000060A20EE280A71EE200A60EE880AF4EEC5
:10505000C00AF1EE10FAC6D398F806006422B0FB3D
:10506000F2F302FB1306204A401C643A98F8003021
:10507000C0B2935588F80600642802D1002088F851
:1050800006000020135C012B32D0032B36D0022BFC
:105090003AD03EE048454C4C4F0D0A0000580020E5
:1050A00008EA00207C590020F05800200000002071
:1050B000550000202C0400407B4152527D25640D98
:1050C0000A0000007B70776D5F667265717D2564F4
:1050D0000D0A00005400002000040240E0FD1C0006
:1050E00000500020400D0020C000002000070020DC
:1050F00098F802305B1C88F802300AE098F8033018
:105100005B1C88F8033004E098F804305B1C88F8D6
:105110000430401C6428B5DB98F8022098F803009E
:10512000824205D998F804309A4201D901200DE055
:1051300098F80420824201D9022300E0032388F872
:105140000030282A04D9282802D9032088F8000032
:105150000E461F48FBF7FAFF31461E48FBF7F6FFE5
:105160009FED1D0A002088ED030A88ED040A88EDF2
:10517000050A88ED060A88ED070A88ED080A88F80E
:10518000020088F803006D1C88F80400642DFFF607
:10519000EDAD20782546012804D0022804D003284C
:1051A00007D10AE00DA000E00DA0FEF729FA0020CB
:1051B00068710C490020087090E50BA0FEF720FAFA
:1051C0000120F5E7002202210848FDF765F985E591
:1051D00000070020C00000200000000001000000C7
:1051E0000200000054000020030000000004024000
:1051F0000006101600061016000000000000000057
:10520000010203040607080900000000010203046C
:10521000001000002052000820D20008C00F00003B
:105220000000803F00000000ECFF7F3FD40FC93A30
:10523000B1FF7F3FC70F493B4EFF7F3FC1CB963B3E
:10524000C4FE7F3F890FC93B13FE7F3F3053FB3BBA
:1052500039FD7F3F59CB163C39FC7F3F02ED2F3C97
:1052600011FB7F3F900E493CC1F97F3F0030623C0B
:105270004AF87F3F4B517B3CACF67F3F38398A3C44
:10528000E6F47F3FB6C9963CF8F27F3F1C5AA33C38
:10529000E3F07F3F69EAAF3CA7EE7F3F9B7ABC3CDF
:1052A00043EC7F3FB00AC93CB8E97F3FA69AD53CA2
:1052B00005E77F3F7B2AE23C2BE47F3F2DBAEE3CA3
:1052C00029E17F3FB949FB3C00DE7F3F90EC033D85
:1052D000AFDA7F3F2F340A3D37D77F3FB87B103D91
:1052E00098D37F3F2CC3163DD1CF7F3F880A1D3D09
:1052F000E2CB7F3FCC51233DCCC77F3FF698293D81
:105300008FC37F3F07E02F3D2ABF7F3FFC26363DFE
:105310009EBA7F3FD56D3C3DEAB57F3F91B4423D9B
:105320000FB17F3F2FFB483D0DAC7F3FAF414F3D5D
:10533000E3A67F3F0E88553D91A17F3F4CCE5B3D5C
:10534000189C7F3F6814623D78967F3F625A683DA3
:10535000B1907F3F38A06E3DC28A7F3FE9E5743D42
:10536000AB847F3F742B7B3D6D7E7F3F6CB8803D6F
:1053700008787F3F0ADB833D7B717F3F94FD863D4C
:10538000C76A7F3F0A208A3DEC637F3F6A428D3DBA
:10539000E95C7F3FB464903DBF557F3FE786933D16
:1053A0006D4E7F3F05A9963DF4467F3F0ACB993D60
:1053B000543F7F3FF9EC9C3D8D377F3FCF0EA03DA2
:1053C0009D2F7F3F8C30A33D87277F3F3052A63DE6
:1053D000491F7F3FBA73A93DE4167F3F2B95AC3D33
:1053E000580E7F3F80B6AF3DA4057F3FBBD7B23D8F
:1053F000C9FC7E3FDAF8B53DC7F37E3FDD19B93D04
:105400009DEA7E3FC33ABC3D4CE17E3F8D5BBF3D94
:10541000D4D77E3F397CC23D34CE7E3FC69CC53D4D
:105420006DC47E3F36BDC83D7FBA7E3F86DDCB3D35
:1054300069B07E3FB7FDCE3D2DA67E3FC81DD23D53
:10544000C99B7E3FB93DD53D3D917E3F895DD83DAD
:105450008B867E3F377DDB3DB17B7E3FC49CDE3D4E
:10546000B0707E3F2EBCE13D88657E3F76DBE43D3B
:10547000385A7E3F9AFAE73DC14E7E3F9A19EB3D7E
:1054800023437E3F7638EE3D5E377E3F2E57F13D1B
:10549000722B7E3FC075F43D5E1F7E3F2C94F73D1E
:1054A00024137E3F73B2FA3DC2067E3F92D0FD3D8B
:1054B00038FA7D3F4577003E88ED7D3F2E06023E5F
:1054C000B1E07D3F0295033EB2D37D3FC223053E4E
:1054D0008CC67D3F6EB2063E40B97D3F0541083E19
:1054E000CCAB7D3F86CF093E309E7D3FF35D0B3ECA
:1054F0006E907D3F4AEC0C3E85827D3F8B7A0E3E5E
:1055000074747D3FB708103E3D667D3FCC96113EDA
:10551000DE577D3FCA24133E59497D3FB2B2143E47
:10552000AC3A7D3F8340163ED82B7D3F3DCE173EA3
:10553000DD1C7D3FE05B193EBC0D7D3F6BE91A3EF3
:1055400073FE7C3FDE761C3E03EF7C3F38041E3E3C
:105550006CDF7C3F7B911F3EAECF7C3FA51E213E82
:10556000C9BF7C3FB6AB223EBDAF7C3FAD38243EC9
:105570008A9F7C3F8CC5253E318F7C3F5152273E10
:10558000B07E7C3FFCDE283E086E7C3F8D6B2A3E61
:105590003A5D7C3F04F82B3E444C7C3F61842D3EB9
:1055A000283B7C3FA2102F3EE5297C3FC99C303E22
:1055B0007A187C3FD428323EE9067C3FC4B4333E9F
:1055C00031F57B3F9840353E53E37B3F50CC363E30
:1055D0004DD17B3FEC57383E20BF7B3F6CE3393EDB
:1055E000CDAC7B3FCF6E3B3E539A7B3F15FA3C3EA2
:1055F000B2877B3F3E853E3EEA747B3F4910403E8A
:10560000FC617B3F379B413EE74E7B3F0726433E95
:10561000AB3B7B3FB9B0443E48287B3F4D3B463EC9
:10562000BE147B3FC2C5473E0E017B3F1850493E2A
:1056300037ED7A3F4FDA4A3E3AD97A3F67644C3EBB
:1056400016C57A3F60EE4D3ECBB07A3F38784F3E7C
:10565000599C7A3FF101513EC1877A3F898B523E76
:1056600002737A3F0115543E1C5E7A3F589E553EA8
:1056700010497A3F8F27573EDD337A3FA4B0583E1A
:10568000841E7A3F97395A3E04097A3F6AC25B3ECC
:105690005EF3793F1A4B5D3E91DD793FA8D35E3EC4
:1056A0009DC7793F135C603E83B1793F5CE4613E06
:1056B000439B793F836C633EDC84793F86F4643E90
:1056C0004E6E793F667C663E9A57793F2204683E6B
:1056D000C040793FBA8B693EBF29793F2F136B3E9B
:1056E0009812793F7F9A6C3E4AFB783FAB216E3E21
:1056F000D6E3783FB2A86F3E3BCC783F942F713E03
:105700007BB4783F51B6723E939C783FE83C743E40
:105710008684783F5AC3753E526C783FA649773EDF
:10572000F853783FCCCF783E773B783FCB557A3EE5
:10573000D122783FA4DB7B3E040A783F56617D3E50
:1057400010F1773FE1E67E3EF7D7773F2236803E85
:10575000B7BE773FC0F8803E51A5773F4ABB813E38
:10576000C58B773FC07D823E1372773F2240833ED8
:105770003A58773F7002843E3C3E773FAAC4843E4D
:105780001724773FCE86853ECC09773FDF48863E9B
:105790005BEF763FDA0A873EC4D4763FC1CC873EC2
:1057A00007BA763F938E883E249F763F5050893EBD
:1057B0001B84763FF8118A3EEC68763F8AD38A3E96
:1057C000974D763F07958B3E1B32763F6E568C3E4B
:1057D0007A16763FC0178D3EB3FA753FFCD88D3EE2
:1057E000C6DE753F229A8E3EB3C2753F325B8F3E56
:1057F0007BA6753F2C1C903E1C8A753F10DD903EA9
:10580000976D753FDD9D913EED50753F945E923EE4
:105810001D34753F351F933E2717753FBFDF933EFD
:105820000BFA743F31A0943EC9DC743F8D60953E05
:1058300062BF743FD220963ED5A1743F00E1963EF0
:105840002284743F17A1973E4966743F1661983EC3
:105850004B48743FFE20993E272A743FCEE0993E84
:10586000DD0B743F86A09A3E6EED733F27609B3E32
:10587000D9CE733FAF1F9C3E1FB0733F20DF9C3ECD
:105880003F91733F789E9D3E3972733FB85D9E3E57
:105890000E53733FDF1C9F3EBE33733FEEDB9F3ED4
:1058A0004714733FE59AA03EACF4723FC259A13E43
:1058B000EBD4723F8718A23E04B5723F33D7A23EA5
:1058C000F894723FC595A33EC774723F3F54A43EFF
:1058D0007054723F9F12A53EF433723FE5D0A53E4F
:1058E0005213723F128FA63E8CF2713F254DA73E98
:1058F0009FD1713F1F0BA83E8EB0713FFEC8A83EDE
:10590000578F713FC486A93EFB6D713F6F44AA3E1D
:105910007A4C713F0102AB3ED42A713F77BFAB3E58
:105920000809713FD47CAC3E17E7703F153AAD3E95
:1059300002C5703F3CF7AD3EC6A2703F49B4AE3ED3
:105940006680703F3A71AF3EE15D703F102EB03E11
:10595000373B703FCBEAB03E6718703F6BA7B13E54
:1059600073F56F3FEF63B23E5AD26F3F5820B33E9C
:105970001BAF6F3FA5DCB33EB88B6F3FD698B43EEC
:1059800030686F3FEC54B53E83446F3FE610B63E3F
:10599000B0206F3FC3CCB63EBAFC6E3F8488B73EA2
:1059A0009ED86E3F2A44B83E5DB46E3FB2FFB83E0B
:1059B000F88F6E3F1EBBB93E6D6B6E3F6E76BA3E82
:1059C000BE466E3FA031BB3EEB216E3FB6ECBB3E08
:1059D000F2FC6D3FAFA7BC3ED5D76D3F8B62BD3E9D
:1059E00093B26D3F4A1DBE3E2D8D6D3FEBD7BE3E3F
:1059F000A1676D3F6F92BF3EF2416D3FD54CC03EF7
:105A00001D1C6D3F1E07C13E24F66C3F48C1C13EC0
:105A100007D06C3F557BC23EC5A96C3F4435C33EA1
:105A20005E836C3F15EFC33ED45C6C3FC8A8C43E98
:105A300024366C3F5C62C53E500F6C3FD21BC63EA5
:105A400058E86B3F29D5C63E3BC16B3F628EC73ECF
:105A5000FB996B3F7C47C83E95726B3F7700C93E10
:105A60000C4B6B3F53B9C93E5E236B3F1072CA3E6D
:105A70008CFB6A3FAE2ACB3E95D36A3F2CE3CB3EEC
:105A80007BAB6A3F8B9BCC3E3C836A3FCA53CD3E87
:105A9000D95A6A3FEA0BCE3E52326A3FEAC3CE3E43
:105AA000A7096A3FCA7BCF3ED7E0693F8A33D03E21
:105AB000E4B7693F2AEBD03ECC8E693FAAA2D13E23
:105AC0009165693F095AD23E323C693F4811D33E45
:105AD000AE12693F67C8D33E07E9683F647FD43E92
